:020000040800F2
:1000000014080020C5130008251400082514000852
:10001000251400082514000825140008000000001D
:10002000000000000000000000000000251400088F
:1000300025140008000000002514000849270008C6
:1000400025140008251400082514000825140008AC
:10005000251400082514000825140008251400089C
:10006000251400082514000825140008251400088C
:10007000251400082514000825140008251400087C
:10008000251400082514000801280008251400087C
:10009000251400082514000825140008251400085C
:1000A000251400082514000825140008251400084C
:1000B00025140008552700082514000825140008F9
:1000C000251400082514000825140008251400082C
:1000D000251400082514000825140008251400081C
:1000E000251400082514000825140008251400080C
:1000F00025140008251400082514000825140008FC
:1001000025140008251400082514000825140008EB
:1001100025140008251400082514000825140008DB
:1001200025140008251400082514000825140008CB
:1001300025140008251400082514000825140008BB
:1001400025140008251400082514000825140008AB
:10015000251400082514000825140008251400089B
:10016000251400082514000825140008251400088B
:10017000251400082514000825140008251400087B
:080180002514000825140008F5
:1001880081F0004102E000BF83F0004330B54FEA40
:1001980041044FEA430594EA050F08BF90EA020FAD
:1001A8001FBF54EA000C55EA020C7FEA645C7FEA40
:1001B800655C00F0E2804FEA5454D4EB5555B8BF63
:1001C8006D420CDD2C4480EA020281EA030382EAD4
:1001D800000083EA010180EA020281EA0303362D66
:1001E80088BF30BD11F0004F4FEA01314FF4801C39
:1001F8004CEA113102D0404261EB410113F0004F4B
:100208004FEA03334CEA133302D0524263EB430301
:1002180094EA050F00F0A780A4F10104D5F1200E9F
:100228000DDB02FA0EFC22FA05F2801841F10001FA
:1002380003FA0EF2801843FA05F359410EE0A5F1CE
:1002480020050EF1200E012A03FA0EFC28BF4CF0FF
:10025800020C43FA05F3C01851EBE37101F00045B5
:1002680007D54FF0000EDCF1000C7EEB00006EEBC2
:100278000101B1F5801F1BD3B1F5001F0CD349084C
:100288005FEA30004FEA3C0C04F101044FEA4452A3
:1002980012F5800F80F09A80BCF1004F08BF5FEA2A
:1002A800500C50F1000041EB045141EA050130BD0A
:1002B8005FEA4C0C404141EB010111F4801FA4F1AD
:1002C8000104E9D191F0000F04BF01460020B1FA02
:1002D80081F308BF2033A3F10B03B3F120020CDA3A
:1002E8000C3208DD02F1140CC2F10C0201FA0CF018
:1002F80021FA02F10CE002F11402D8BFC2F1200C7D
:1003080001FA02F120FA0CFCDCBF41EA0C01904032
:10031800E41AA2BF01EB0451294330BD6FEA04047B
:100328001F3C1CDA0C340EDC04F11404C4F1200266
:1003380020FA04F001FA02F340EA030021FA04F378
:1003480045EA030130BDC4F10C04C4F1200220FACF
:1003580002F001FA04F340EA0300294630BD21FA0D
:1003680004F0294630BD94F0000F83F4801306BFD3
:1003780081F480110134013D4EE77FEA645C18BFC7
:100388007FEA655C29D094EA050F08BF90EA020F5E
:1003980005D054EA000C04BF1946104630BD91EA56
:1003A800030F1EBF0021002030BD5FEA545C05D159
:1003B8004000494128BF41F0004130BD14F5800498
:1003C8003CBF01F5801130BD01F0004545F0FE410C
:1003D80041F470014FF0000030BD7FEA645C1ABF41
:1003E800194610467FEA655C1CBF0B46024650EA78
:1003F800013406BF52EA033591EA030F41F40021A4
:1004080030BD00BF90F0000F04BF0021704730B529
:100418004FF4806404F132044FF000054FF00001FE
:1004280050E700BF90F0000F04BF0021704730B5BF
:100438004FF4806404F1320410F0004548BF404294
:100448004FF000013EE700BF42004FEAE2014FEAE9
:1004580031014FEA02701FBF12F07F4393F07F4FC4
:1004680081F06051704792F0000F14BF93F07F4FF6
:10047800704730B54FF4607401F0004521F0004139
:1004880020E700BF50EA010208BF704730B54FF0BF
:1004980000050AE050EA010208BF704730B511F0C4
:1004A800004502D5404261EB41014FF4806404F1FC
:1004B80032045FEA915C3FF4DCAE4FF003025FEA7E
:1004C800DC0C18BF03325FEADC0C18BF033202EB06
:1004D800DC02C2F1200300FA03FC20FA02F001FA60
:1004E80003FE40EA0E0021FA02F11444C1E600BFFF
:1004F80070B54FF0FF0C4CF4E06C1CEA11541DBFB2
:100508001CEA135594EA0C0F95EA0C0F00F0DEF87C
:100518002C4481EA030621EA4C5123EA4C5350EA61
:10052800013518BF52EA033541F4801143F48013B2
:1005380038D0A0FB02CE4FF00005E1FB02E506F043
:100548000042E0FB03E54FF00006E1FB03569CF098
:10055800000F18BF4EF0010EA4F1FF04B6F5007F9E
:1005680064F5407404D25FEA4E0E6D4146EB060610
:1005780042EAC62141EA55514FEAC52040EA5E5099
:100588004FEACE2EB4F1FD0C88BFBCF5E06F1ED843
:10059800BEF1004F08BF5FEA500E50F1000041EB7A
:1005A800045170BD06F0004646EA010140EA020027
:1005B80081EA0301B4EB5C04C2BFD4EB0C0541EA49
:1005C800045170BD41F480114FF0000E013C00F35E
:1005D800AB8014F1360FDEBF002001F0004170BD82
:1005E800C4F10004203C35DA0C341BDC04F114049B
:1005F800C4F1200500FA05F320FA04F001FA05F227
:1006080040EA020001F0004221F0004110EBD370F3
:1006180021FA04F642EB06015EEA430E08BF20EA1F
:10062800D37070BDC4F10C04C4F1200500FA04F3C2
:1006380020FA05F001FA04F240EA020001F0004154
:1006480010EBD37041F100015EEA430E08BF20EAC7
:10065800D37070BDC4F1200500FA05F24EEA020E0F
:1006680020FA04F301FA05F243EA020321FA04F03E
:1006780001F0004121FA04F220EA020000EBD370F5
:100688005EEA430E08BF20EAD37070BD94F0000FF5
:100698000FD101F00046400041EB010111F4801F29
:1006A80008BF013CF7D041EA060195F0000F18BFDA
:1006B800704703F00046520043EB030313F4801F16
:1006C80008BF013DF7D043EA0603704794EA0C0FD0
:1006D8000CEA135518BF95EA0C0F0CD050EA4106E6
:1006E80018BF52EA4306D1D181EA030101F0004163
:1006F8004FF0000070BD50EA410606BF104619468B
:1007080052EA430619D094EA0C0F02D150EA013696
:1007180013D195EA0C0F05D152EA03361CBF1046D7
:1007280019460AD181EA030101F0004141F0FE4176
:1007380041F470014FF0000070BD41F0FE4141F4FA
:10074800780170BD70B54FF0FF0C4CF4E06C1CEAFA
:1007580011541DBF1CEA135594EA0C0F95EA0C0FAF
:1007680000F0A7F8A4EB050481EA030E52EA03356A
:100778004FEA013100F088804FEA03334FF080558B
:1007880045EA131343EA12634FEA022245EA1115B8
:1007980045EA10654FEA00260EF000419D4208BF69
:1007A800964244F1FD0404F5407402D25B084FEA16
:1007B8003202B61A65EB03055B084FEA32024FF4C2
:1007C80080104FF4002CB6EB020E75EB030E22BF1F
:1007D800B61A754640EA0C005B084FEA3202B6EBDF
:1007E800020E75EB030E22BFB61A754640EA5C008E
:1007F8005B084FEA3202B6EB020E75EB030E22BF1E
:10080800B61A754640EA9C005B084FEA3202B6EB1E
:10081800020E75EB030E22BFB61A754640EADC00DD
:1008280055EA060E18D04FEA051545EA16754FEA3F
:1008380006164FEAC30343EA52734FEAC2025FEA5D
:100848001C1CC0D111F4801F0BD141EA00014FF0EC
:1008580000004FF0004CB6E711F4801F04BF0143BD
:100868000020B4F1FD0C88BFBCF5E06F3FF6AFAED9
:10087800B5EB030C04BFB6EB020C5FEA500C50F169
:10088800000041EB045170BD0EF0004E4EEA1131EC
:1008980014EB5C04C2BFD4EB0C0541EA045170BDF3
:1008A80041F480114FF0000E013C90E645EA060E37
:1008B8008DE60CEA135594EA0C0F08BF95EA0C0F65
:1008C8003FF43BAF94EA0C0F0AD150EA01347FF4AD
:1008D80034AF95EA0C0F7FF425AF104619462CE784
:1008E80095EA0C0F06D152EA03353FF4FDAE1046E7
:1008F800194622E750EA410618BF52EA43067FF438
:10090800C5AE50EA41047FF40DAF52EA43057FF4C7
:10091800EBAE12E74FEA410212F5001215D211D5DB
:100928006FF47873B3EB625212D94FEAC12343F0E4
:10093800004343EA505311F0004F23FA02F018BF66
:10094800404270474FF00000704750EA013005D12F
:1009580011F0004008BF6FF0004070474FF00000F2
:10096800704700BF80F0004002E000BF81F0004106
:1009780042001FBF5FEA410392EA030F7FEA226C3D
:100988007FEA236C6AD04FEA1262D2EB1363C1BFCD
:10099800D218414048404140B8BF5B42192B88BF3C
:1009A800704710F0004F40F4000020F07F4018BF5F
:1009B800404211F0004F41F4000121F07F4118BF7F
:1009C800494292EA030F3FD0A2F1010241FA03FC27
:1009D80010EB0C00C3F1200301FA03F100F000430F
:1009E80002D5494260EB4000B0F5000F13D3B0F1D7
:1009F800807F06D340084FEA310102F10102FE2A46
:100A080051D2B1F1004F40EBC25008BF20F00100B5
:100A180040EA03007047490040EB000010F4000F63
:100A2800A2F10102EDD1B0FA80FCACF1080CB2EBF6
:100A38000C0200FA0CF0AABF00EBC2505242184355
:100A4800BCBFD0401843704792F0000F81F40001FA
:100A580006BF80F400000132013BB5E74FEA4103CD
:100A68007FEA226C18BF7FEA236C21D092EA030F39
:100A780004D092F0000F08BF0846704790EA010FB3
:100A88001CBF0020704712F07F4F04D1400028BFE0
:100A980040F00040704712F100723CBF00F50000C2
:100AA800704700F0004343F0FE4040F400007047F8
:100AB8007FEA226216BF08467FEA236301464202A4
:100AC80006BF5FEA412390EA010F40F480007047B7
:100AD8004FF0000304E000BF10F0004348BF40425D
:100AE8005FEA000C08BF704743F0964301464FF099
:100AF80000001CE050EA010208BF70474FF00003F5
:100B08000AE000BF50EA010208BF704711F0004335
:100B180002D5404261EB41015FEA010C02BF844605
:100B28000146002043F0B64308BFA3F18053A3F564
:100B38000003BCFA8CF2083AA3EBC25310DB01FAAB
:100B480002FC634400FA02FCC2F12002BCF1004F2F
:100B580020FA02F243EB020008BF20F001007047C0
:100B680002F1200201FA02FCC2F1200250EA4C0014
:100B780021FA02F243EB020008BF20EADC7070475A
:100B88004FF0FF0C1CEAD0521EBF1CEAD15392EA68
:100B98000C0F93EA0C0F6FD01A4480EA010C400244
:100BA80018BF5FEA41211ED04FF0006343EA50109E
:100BB80043EA5111A0FB01310CF00040B1F5000FE0
:100BC8003EBF490041EAD3715B0040EA010062F18F
:100BD8007F02FD2A1DD8B3F1004F40EBC25008BF79
:100BE80020F00100704790F0000F0CF0004C08BF97
:100BF80049024CEA502040EA51207F3AC2BFD2F164
:100C0800FF0340EAC250704740F400004FF0000371
:100C1800013A5DDC12F1190FDCBF00F000407047AB
:100C2800C2F10002410021FA02F1C2F1200200FAE9
:100C380002FC5FEA310040F1000053EA4C0308BFB0
:100C480020EADC70704792F0000F00F0004C02BF01
:100C5800400010F4000F013AF9D040EA0C0093F07C
:100C6800000F01F0004C02BF490011F4000F013BD6
:100C7800F9D041EA0C018FE70CEAD15392EA0C0F44
:100C880018BF93EA0C0F0AD030F0004C18BF31F0AF
:100C9800004CD8D180EA010000F00040704790F085
:100CA800000F17BF90F0004F084691F0000F91F029
:100CB800004F14D092EA0C0F01D142020FD193EAEF
:100CC8000C0F03D14B0218BF084608D180EA010077
:100CD80000F0004040F0FE4040F40000704740F053
:100CE800FE4040F4400070474FF0FF0C1CEAD05221
:100CF8001EBF1CEAD15392EA0C0F93EA0C0F69D07D
:100D0800A2EB030280EA010C49024FEA402037D0E7
:100D18004FF0805343EA111143EA10130CF00040DE
:100D28008B4238BF5B0042F17D024FF4000C8B42CE
:100D380024BF5B1A40EA0C00B3EB510F24BFA3EBAE
:100D4800510340EA5C00B3EB910F24BFA3EB91037E
:100D580040EA9C00B3EBD10F24BFA3EBD10340EAD8
:100D6800DC001B0118BF5FEA1C1CE0D1FD2A3FF61E
:100D780050AF8B4240EBC25008BF20F001007047D3
:100D88000CF0004C4CEA50207F32C2BFD2F1FF0376
:100D980040EAC250704740F400004FF00003013AA7
:100DA80037E792F0000F00F0004C02BF400010F44B
:100DB800000F013AF9D040EA0C0093F0000F01F05F
:100DC800004C02BF490011F4000F013BF9D041EA81
:100DD8000C0195E70CEAD15392EA0C0F08D14202B4
:100DE8007FF47DAF93EA0C0F7FF470AF084676E787
:100DF80093EA0C0F04D14B023FF44CAF08466EE760
:100E080030F0004C18BF31F0004CCAD130F000422D
:100E18007FF45CAF31F000437FF43CAF5FE700BF85
:100E28004FF0FF3C06E000BF4FF0010C02E000BFAE
:100E38004FF0010C4DF804CD4FEA40024FEA410350
:100E48007FEA226C18BF7FEA236C11D001B052EA06
:100E5800530C18BF90EA010F58BFB2EB030088BFCC
:100E6800C81738BF6FEAE17018BF40F0010070473B
:100E78007FEA226C02D15FEA402C05D17FEA236C1D
:100E8800E4D15FEA412CE1D05DF8040B704700BF64
:100E9800844608466146FFE70FB5FFF7C9FF0028FB
:100EA80048BF10F1000F0FBD4DF808EDFFF7F4FF34
:100EB8000CBF012000205DF808FB00BF4DF808EDCD
:100EC800FFF7EAFF34BF012000205DF808FB00BFF0
:100ED8004DF808EDFFF7E0FF94BF012000205DF812
:100EE80008FB00BF4DF808EDFFF7D2FF94BF0120C3
:100EF80000205DF808FB00BF4DF808EDFFF7C8FFBC
:100F080034BF012000205DF808FB00BF4FF0FF3C14
:100F180006E000BF4FF0010C02E000BF4FF0010CEB
:100F28004DF804CD4FEA410C7FEA6C5C4FEA430C64
:100F380018BF7FEA6C5C1BD001B050EA410C0CBFB3
:100F480052EA430C91EA030F02BF90EA020F002015
:100F5800704710F1000F91EA030F58BF994208BF7C
:100F680090422CBFD8176FEAE37040F00100704739
:100F78004FEA410C7FEA6C5C02D150EA013C07D190
:100F88004FEA430C7FEA6C5CD6D152EA033CD3D0DB
:100F98005DF8040B704700BF8446104662468C46D5
:100FA8001946634600E000BF01B5FFF7B7FF002808
:100FB80048BF10F1000F01BD4DF808EDFFF7F4FF31
:100FC8000CBF012000205DF808FB00BF4DF808EDBC
:100FD800FFF7EAFF34BF012000205DF808FB00BFDF
:100FE8004DF808EDFFF7E0FF94BF012000205DF801
:100FF80008FB00BF4DF808EDFFF7CEFF94BF0120B6
:1010080000205DF808FB00BF4DF808EDFFF7C4FFAE
:1010180034BF012000205DF808FB00BF80B500AF99
:101028004FF48070012100F0B9FD4FF48070002169
:1010380000F0B4FD80BD00BF80B485B000AF78601B
:1010480039600023FB600023FB727B685B68FB60F0
:10105800FB6823F0407323F48073FB603B681B79C3
:101068001A023B681B681343FA681343FB607B68EA
:10107800FA685A607B689B68FB60FA684FF2FD73F8
:10108800CCF2FF031340FB603B681A693B68DB68DE
:101098001A433B689B681A433B685B795B001343C0
:1010A800FA681343FB607B68FA689A607B68DB6ABE
:1010B800FB60FB6823F47003FB603B681B7D013B0E
:1010C800DAB2FB7A1343FB72FB7A1B05FA68134307
:1010D800FB607B68FA68DA621437BD465DF8047B0A
:1010E800704700BF80B485B000AF78600023FB6014
:1010F8004FF40C53C4F201035B68FB60FA6843F2D7
:10110800E003CFF6FC731340FB607B681A687B68CA
:101118005B681A437B689B681A437B68DB681343E8
:10112800FA681343FB604FF40C53C4F20103FA68E6
:101138005A601437BD465DF8047B704780B483B0AD
:1011480000AF78600B46FB70FB78002B06D07B68FD
:101158009B6843F001027B689A6005E07B689B68A6
:1011680023F001027B689A600C37BD465DF8047B6A
:10117800704700BF80B485B000AF7860F970BA706E
:101188007B700023FB600023BB60FB78092B23D90D
:101198007B68DB68FB60FB78A3F10A0213465B00FF
:1011A8001344072202FA03F3BB60BB68DB43FA6807
:1011B8001340FB607978FB78A3F10A0213465B00C1
:1011C800134401FA03F3BB60FA68BB681343FB607E
:1011D8007B68FA68DA601EE07B681B69FB60FA7856
:1011E80013465B001344072202FA03F3BB60BB6893
:1011F800DB43FA681340FB607978FA7813465B00A2
:10120800134401FA03F3BB60FA68BB681343FB603D
:101218007B68FA681A61BB78062B21D87B685B6B00
:10122800FB60BB785A1E13469B0013441F2202FA28
:1012380003F3BB60BB68DB43FA681340FB60F978D3
:10124800BB785A1E13469B00134401FA03F3BB6094
:10125800FA68BB681343FB607B68FA685A6347E027
:10126800BB780C2B21D87B681B6BFB60BB78DA1F23
:1012780013469B0013441F2202FA03F3BB60BB68AA
:10128800DB43FA681340FB60F978BB78DA1F134632
:101298009B00134401FA03F3BB60FA68BB6813436D
:1012A800FB607B68FA681A6322E07B68DB6AFB6094
:1012B800BB78A3F10D0213469B0013441F2202FAC8
:1012C80003F3BB60BB68DB43FA681340FB60F97843
:1012D800BB78A3F10D0213469B00134401FA03F3F4
:1012E800BB60FA68BB681343FB607B68FA68DA6224
:1012F8001437BD465DF8047B704700BF80B483B0E7
:1013080000AF78607B689B6843F080427B689A6096
:101318000C37BD465DF8047B704700BF80B483B0CE
:1013280000AF78607B68DB6C9BB218460C37BD4613
:101338005DF8047B704700BF80B485B000AF78606B
:1013480013460A467A807B700023FB607B88DBB2F9
:10135800FB60FB68012202FA03F3FB607B78002B39
:1013680006D07B685A68FB681A437B685A6006E0B7
:101378007B685A68FB68DB431A407B685A601437FD
:10138800BD465DF8047B704780B485B000AF7860D7
:101398000B46FB700023FB737B681A68FB781340CD
:1013A800002B02D00123FB7301E00023FB73FB7BBE
:1013B80018461437BD465DF8047B704780B582B087
:1013C80000AF44F29823C0F600037B6040F20003AC
:1013D800C2F200033B6007E03B681A1D3A607A6876
:1013E800111D796012681A603A6840F21403C2F25B
:1013F80000039A42F0D3074807494FF00002884299
:10140800B8BF40F8042BFADB00F058FF0837BD4698
:1014180080BD000014080020FC09002080B400AF43
:10142800FEE700BF80B500AF4FF46053C4F202037B
:101438004FF46052C4F20202126842F001021A60CC
:101448004FF46053C4F2020300229A604FF46053D1
:10145800C4F202034FF46052C4F20202126822F08E
:10146800847222F480321A604FF46053C4F202038B
:1014780043F21002C2F200425A604FF46053C4F2C1
:1014880002034FF46052C4F20202126822F480226E
:101498001A604FF46053C4F202030022DA6000F0CD
:1014A80009F84FF46D43CEF200034FF000629A60E2
:1014B80080BD00BF80B483B000AF00237B600023F1
:1014C8003B604FF46053C4F202034FF46052C4F21D
:1014D8000202126842F480321A604FF46053C4F278
:1014E80002031B6803F400333B607B6801337B60B5
:1014F8003B68002B03D17B68B3F5A06FEDD14FF4A7
:101508006053C4F202031B6803F40033002B02D0BB
:1015180001233B6001E000233B603B68012B40F066
:1015280082804FF46053C4F202034FF46052C4F255
:101538000202126C42F080521A644FF4E043C4F283
:1015480000034FF4E042C4F20002126842F4804201
:101558001A604FF46053C4F202034FF46052C4F2AD
:10156800020292689A604FF46053C4F202034FF487
:101578006052C4F20202926842F400429A604FF448
:101588006053C4F202034FF46052C4F2020292683C
:1015980042F4A0529A604FF46053C4F2020345F239
:1015A8000842C0F240725A604FF46053C4F202031A
:1015B8004FF46052C4F20202126842F080721A605C
:1015C80000BF4FF46053C4F202031B6803F00073BA
:1015D800002BF6D04FF47053C4F2020340F20562B8
:1015E8001A604FF46053C4F202034FF46052C4F21D
:1015F8000202926822F003029A604FF46053C4F228
:1016080002034FF46052C4F20202926842F00202EE
:101618009A6000BF4FF46053C4F202039B6803F062
:101628000C03082BF6D10C37BD465DF8047B7047D8
:1016380080B485B000AF78600023FB730023BB73D0
:101648000F237B737B68DB78002B40D04FF46D430E
:10165800CEF20003DB68DB4303F4E0631B0AFB7391
:10166800FB7BC3F10403BB737A7BFB7B42FA03F376
:101678007B737B685B781A46BB7B02FA03F3FB73C8
:101688007B689A787B7B1340DAB2FB7B1343FB734E
:10169800FB7B1B01FB734FF46143CEF200037A68B6
:1016A80012781344FA7B83F800234FF46143CEF297
:1016B80000037A6812785209D2B27968097801F081
:1016C8001F01012000FA01F143F8221011E04FF444
:1016D8006143CEF200037A6812785209D2B279686F
:1016E800097801F01F01012000FA01F1203243F8C6
:1016F80022101437BD465DF8047B704780B487B06C
:1017080000AF7860396000237B6100233B610023D0
:10171800FB6000237B6176E07B69012202FA03F318
:101728003B613B681A683B691340FB60FA683B6998
:101738009A4265D17B681A687B695B00032101FACC
:1017480003F3DB431A407B681A607B681A683B68BE
:101758001B7919467B695B0001FA03F31A437B681E
:101768001A603B681B79012B03D03B681B79022B5D
:101778002ED17B689A687B695B00032101FA03F329
:10178800DB431A407B689A607B689A683B685B79A0
:1017980019467B695B0001FA03F31A437B689A6078
:1017A8007B685A687B699BB2012101FA03F3DB432A
:1017B8001A407B685A607B685A683B689B7919466F
:1017C8007B699BB201FA03F39BB21A437B685A60A8
:1017D8007B68DA687B699BB25B00032101FA03F33B
:1017E800DB431A407B68DA607B68DA683B68DB7940
:1017F80019467B695B0001FA03F31A437B68DA60D8
:101808007B6901337B617B690F2B85D91C37BD460A
:101818005DF8047B704700BF80B483B000AF786088
:101828000B467B807B687A881A830C37BD465DF847
:10183800047B704780B483B000AF78600B467B8030
:101848007B687A885A830C37BD465DF8047B7047FD
:1018580080B483B000AF786013460A467A807B7004
:101868007B78002B03D07B687A881A8302E07B6838
:101878007A885A830C37BD465DF8047B704700BFF1
:1018880080B485B000AF786013460A467A807B70D2
:101898000023FB600023BB607A787B8803F0070392
:1018A8009B0002FA03F3FB607B88DB089BB21A46B5
:1018B8007B88DB089BB219467B68083153F82110F6
:1018C8007B8803F007039B000F2000FA03F3DB4338
:1018D80019407B68083243F822107B88DB089BB2EA
:1018E8001A467B68083253F82220FB681343BB6012
:1018F8007B88DB089BB21A467B680832B96843F8D4
:1019080022101437BD465DF8047B704700000000C4
:101918002DE9B04388B000AFF860B9607A60002361
:10192800FB610023BB614FF000037B614FF00000B7
:10193800C4F2B430B968FFF7D7F903467B610023D6
:10194800FB6139E07868FEF76DFD80468946F869E5
:10195800FFF7C2F8034618467969FFF711F90346FD
:101968001846FEF771FD02460B46104619461AA3A3
:10197800D3E90023FEF7BCFD02460B461046194684
:1019880001F01AFA02460B4640464946FEF7B0FDFA
:1019980002460B46144623F0004520462946FEF72A
:1019A800B9FF0346BB61FB699B00FA681344BA6937
:1019B8001A60FB690133FB61F869FFF78DF803468C
:1019C8001846B968FFF784FA0346002BBAD11846BF
:1019D8002037BD46BDE8B08312E7FAA146DF913F44
:1019E80080B586B000AF78600220012100F086F84B
:1019F8000023BB810023FB817B683B610023BB8202
:101A08000023BB7507F10C034FF48060C4F200009B
:101A1800194600F0EBF84FF48060C4F20000012191
:101A280000F05AF918461837BD4680BD80B588B011
:101A380000AF78607023BB810123FB8102233B83C5
:101A48007B687B6107F10C034FF48060C4F20000EF
:101A5800194600F0E7F94FF48060C4F2000008214D
:101A680000F064FA2037BD4680BD00BF80B588B05D
:101A780000AF78607023BB810123FB8102233B8385
:101A88007B687B6107F10C034FF48060C4F20000AF
:101A9800194600F041F94FF48060C4F200000821B3
:101AA80000F028FA2037BD4680BD00BF80B483B05F
:101AB80000AF78600B46FB70FB78002B0CD04FF41E
:101AC8006053C4F202034FF46052C4F20202116B75
:101AD8007A680A431A630CE04FF46053C4F20203B5
:101AE8004FF46052C4F20202116B7A68D2430A4082
:101AF8001A630C37BD465DF8047B704780B483B029
:101B080000AF78600B46FB70FB78002B0CD04FF4CD
:101B18006053C4F202034FF46052C4F20202116C23
:101B28007A680A431A640CE04FF46053C4F2020363
:101B38004FF46052C4F20202116C7A68D2430A4030
:101B48001A640C37BD465DF8047B704780B483B0D7
:101B580000AF78600B46FB70FB78002B0CD04FF47D
:101B68006053C4F202034FF46052C4F20202516C93
:101B78007A680A435A640CE04FF46053C4F20203D3
:101B88004FF46052C4F20202516C7A68D2430A40A0
:101B98005A640C37BD465DF8047B704780B483B047
:101BA80000AF78600B46FB70FB78002B0CD04FF42D
:101BB8006053C4F202034FF46052C4F20202516A45
:101BC8007A680A435A620CE04FF46053C4F2020385
:101BD8004FF46052C4F20202516A7A68D2430A4052
:101BE8005A620C37BD465DF8047B704780B485B0F7
:101BF80000AF786039600023FB817B681B88FB811C
:101C08007A680023C4F201039A421FD07A684FF41D
:101C18008063C4F201039A4218D07B68B3F1804F05
:101C280014D07A684FF48063C4F200039A420DD04E
:101C38007A684FF40063C4F200039A4206D07A68C7
:101C48004FF44063C4F200039A4208D1FB8923F0A1
:101C58007003FB813B685A88FB891343FB817A68D0
:101C68004FF48053C4F200039A420FD07A684FF4BD
:101C7800A053C4F200039A4208D0FB8923F44073AE
:101C8800FB813B681A89FB891343FB817B68FA89CE
:101C98001A803B685A687B68DA623B681A887B68F6
:101CA8001A857A680023C4F201039A4206D07A683A
:101CB8004FF48063C4F201039A4204D13B689B7AD3
:101CC8001A467B681A867B6801229A821437BD46B9
:101CD8005DF8047B704700BF80B483B000AF7860C4
:101CE8000B46FB70FB78002B08D07B681B889BB2E7
:101CF80043F001039AB27B681A8007E07B681B886F
:101D08009BB223F001039AB27B681A800C37BD4658
:101D18005DF8047B704700BF80B485B000AF786081
:101D2800396000237B810023FB810023BB817B6812
:101D38001B8C9BB223F480739AB27B681A847B68ED
:101D48001B8CFB817B689B88BB817B689B8B7B8121
:101D58007B8923F070037B817B8923F003037B81DC
:101D68003B681A887B8913437B81FB8923F40073C2
:101D7800FB813B689B891B029AB2FB891343FB8159
:101D88003B685B881B029AB2FB891343FB817A6824
:101D98000023C4F201039A4206D07A684FF48063A4
:101DA800C4F201039A422BD1FB8923F40063FB811F
:101DB8003B68DB891B029AB2FB891343FB81FB89D1
:101DC80023F48063FB813B689B881B029AB2FB89E2
:101DD8001343FB81BB8923F48053BB81BB8923F464
:101DE8000053BB813B681B8A1B019AB2BB89134312
:101DF800BB813B685B8A1B019AB2BB891343BB81D9
:101E08007B68BA899A807B687A899A833B689A68E2
:101E18007B68DA637B68FA891A841437BD465DF8F3
:101E2800047B704780B485B000AF786039600023C8
:101E3800BB8100237B810023FB817B681B8C9BB2C9
:101E480023F480539AB27B681A847B681B8C7B814D
:101E58007B689B88FB817B689B8BBB81BB8923F458
:101E6800E043BB81BB8923F44073BB813B681B887B
:101E78001B029AB2BB891343BB817B8923F40053AD
:101E88007B813B689B891B039AB27B8913437B81C7
:101E98003B685B881B039AB27B8913437B817A6812
:101EA8000023C4F201039A4206D07A684FF4806393
:101EB800C4F201039A420AD1FB8923F48043FB81CF
:101EC8003B681B8A9B019AB2FB891343FB817B68A1
:101ED800FA899A807B68BA899A833B689A687B6892
:101EE8001A647B687A891A841437BD465DF8047BC6
:101EF800704700BF80B485B000AF78600B467B8028
:101F08000023FB817B689B8BFB81FB8923F0080303
:101F1800FB81FA897B881343FB817B68FA899A8362
:101F28001437BD465DF8047B704700BF80B485B0A8
:101F380000AF78600B467B800023FB817B689B8B1E
:101F4800FB81FB8923F40063FB817B881B029AB227
:101F5800FB891343FB817B68FA899A831437BD4652
:101F68005DF8047B704700BF80B483B000AF786031
:101F780013460A467A807B707B78002B08D07B68F2
:101F88009B899AB27B8813439AB27B689A8109E04D
:101F98007B689B899AB27B88DB439BB213409AB2D9
:101FA8007B689A810C37BD465DF8047B704700BF9B
:101FB80080B485B000AF78600B467B800023FB734C
:101FC8000023BB8100237B817B681B8A9AB27B88B4
:101FD8001340BB817B689B899AB27B8813407B81C5
:101FE800BB89002B05D07B89002B02D00123FB7312
:101FF80001E00023FB73FB7B18461437BD465DF8F0
:10200800047B704780B483B000AF78600B467B8058
:102018007B88DB439AB27B681A820C37BD465DF831
:10202800047B704780B582B000AF0346FB714FF464
:102038008053C4F202034FF470425A834FF4805322
:10204800C4F20203FA7992B202F0F00292B21202DA
:1020580092B21A834FF48050C4F202004FF48061A8
:10206800FFF7DAFB012000F03BFB4FF48050C4F28D
:1020780002004FF48061FFF7DDFB4FF48053C4F298
:1020880002034FF470425A834FF48053C4F20203A0
:10209800FA79120392B21A834FF48050C4F2020004
:1020A8004FF48061FFF7B8FB012000F019FB4FF4F3
:1020B8008050C4F202004FF48061FFF7BBFB01209F
:1020C80000F00EFB0837BD4680BD00BF80B500AFED
:1020D8004FF48050C4F202004FF40071FFF79CFBEC
:1020E800012000F0FDFA4FF48050C4F202004FF4D2
:1020F8000071FFF79FFB4FF48050C4F202004FF4C9
:1021080080710022FFF7A4FB0120FFF78BFF02205C
:1021180000F0E6FA80BD00BF80B582B000AF7860FD
:102128004FF48050C4F202004FF40071FFF774FBC3
:10213800012000F0D5FA4FF48050C4F202004FF4A9
:102148000071FFF777FB4FF48050C4F202004FF4A0
:102158008071FFF761FB06E07B685A1C7A601B7888
:102168001846FFF75FFF7B681B78002BF4D1083710
:10217800BD4680BD80B500AF4FF48050C4F2020068
:102188004FF480610022FFF763FB4FF48050C4F2E4
:1021980002004FF40071FFF73FFB012000F0A0FAA6
:1021A8004FF48050C4F202004FF40071FFF742FB75
:1021B8004FF48050C4F202004FF480710022FFF700
:1021C80047FB1E2000F08CFA0320FFF72BFF0520A9
:1021D80000F086FA0320FFF725FF052000F080FABB
:1021E8000320FFF71FFF052000F07AFA0220FFF70F
:1021F80019FF052000F074FA2820FFF713FF0C20C0
:10220800FFF710FFFFF762FF0620FFF70BFF80BD07
:1022180080B483B000AF03463960FB7197F907308B
:10222800002B0EDA4FF46D43CEF20003FA7902F078
:102238000F02111F3A68D2B21201D2B20B441A76B9
:102248000CE04FF46143CEF2000397F907103A68A7
:10225800D2B21201D2B20B4483F800230C37BD4628
:102268005DF8047B704700BF80B582B000AF78602E
:102278007B68B3F1807F01D301231AE04EF210038B
:10228800CEF200037A6822F07F42013A5A604FF09A
:10229800FF300F21FFF7BCFF4EF21003CEF2000310
:1022A80000229A604EF21003CEF2000307221A6051
:1022B800002318460837BD4680BD00BF80B582B0F0
:1022C80000AFFFF7AFF840F20003C2F200031A684C
:1022D80044F6D353C1F26203A3FB02139B091846C9
:1022E800FFF7C2FF0346002B00D0FEE74FF48060E3
:1022F8000121FFF72BFC08200121FFF7D7FB102055
:102308000121FFF7D3FB04200121FFF7CFFB40F6A3
:102318003003C2F2000343F2AF621A6040F63400A1
:10232800C2F200004FF00001C4F2C82143F2AF62CC
:10233800FFF7EEFA40F63003C2F200031B681846B6
:10234800FFF74EFB4FF40060C4F20200082102229E
:10235800FFF796FA4FF40060C4F202000921022246
:10236800FFF78EFA40F6E413C2F2000302221A6065
:1023780040F6E413C2F2000303221A7140F6E41394
:10238800C2F200030022DA714FF40060C4F20200C6
:1023980040F6E411C2F20001FFF7B0F9FEF73EFE85
:1023A80040F6EC13C2F2000300221A6040F6EC1368
:1023B800C2F2000300225A6040F6EC13C2F2000396
:1023C80000229A6040F6EC13C2F200030022DA60A1
:1023D80040F6EC10C2F20000FEF784FE40F6C81387
:1023E800C2F2000300221A6040F6C813C2F20003CA
:1023F80000221A7140F6C813C2F2000301225A7172
:1024080040F6C813C2F2000300229A6040F6C813CF
:10241800C2F200030022DA6040F6C813C2F20003D9
:1024280000221A6140F6C813C2F2000301221A758D
:102438004FF40850C4F2010040F6C811C2F200017E
:10244800FEF7FAFD4FF40850C4F201000B210122F7
:102458000023FEF78FFE4FF40850C4F2010001215B
:10246800FEF76CFE40F6E413C2F200034FF440722C
:102478001A6040F6E413C2F2000302221A7140F611
:10248800E413C2F2000300229A7140F6E413C2F288
:10249800000303225A7140F6E413C2F2000300223B
:1024A800DA714FF40060C4F2020040F6E411C2F29F
:1024B8000001FFF723F940F6E413C2F200034FF4DA
:1024C80070421A6040F6E413C2F2000301221A7146
:1024D80040F6E413C2F2000300229A7140F6E413B6
:1024E800C2F2000303225A7140F6E413C2F2000359
:1024F8000022DA714FF44060C4F2020040F6E411A1
:10250800C2F20001FFF7FAF840F6E413C2F2000342
:102518004FF47F421A6040F6E413C2F2000301222E
:102528001A7140F6E413C2F2000300229A7140F6D1
:10253800E413C2F200030022DA714FF48050C4F2AF
:10254800020040F6E411C2F20001FFF7D7F84FF499
:102558008060C4F2000001210122FFF705FD40F66A
:10256800E013C2F200031D221A7040F6E013C2F213
:10257800000300225A7040F6E013C2F20003012261
:102588009A7040F6E013C2F200030122DA7040F6B6
:10259800E010C2F20000FFF74BF84FF40850C4F205
:1025A800010040F205210122FEF7C6FE40F6E013C5
:1025B800C2F2000312221A7040F6E013C2F20003BE
:1025C8000122DA7040F6E013C2F2000301225A70C9
:1025D80040F6E013C2F2000302229A7040F6E010BF
:1025E800C2F20000FFF724F844F2A003C0F600038B
:1025F8007B60FFF7BFFD4FF40850C4F20100FEF7FF
:102608007DFE40F61803C2F200031B6840F61C006A
:10261800C2F2000044F2BC01C0F600011A4600F004
:10262800B5FB40F61C00C2F20000FFF775FD4FF441
:102638004060C4F202004FF48051FFF7EDF8FA2031
:1026480000F04EF84FF44060C4F202004FF480519D
:10265800FFF7F0F8FA2000F043F84FF44060C4F2B6
:1026680002004FF40051FFF7D7F8FA2000F038F8CD
:102678004FF44060C4F202004FF40051FFF7DAF85B
:10268800FA2000F02DF84FF44060C4F202004FF435
:102698008041FFF7C1F8FA2000F022F84FF44060BB
:1026A800C4F202004FF48041FFF7C4F8FA2000F0AA
:1026B80017F84FF44060C4F202004FF40041FFF7EE
:1026C800ABF8FA2000F00CF84FF44060C4F20200B6
:1026D8004FF40041FFF7AEF8FA2000F001F890E758
:1026E80080B483B000AF786040F61403C2F20003F0
:1026F8007A681A6000BF40F61403C2F200031B6830
:10270800002BF8D10C37BD465DF8047B704700BF3D
:1027180080B400AF40F61403C2F200031B68002B1C
:102728000AD040F61403C2F200031B685A1E40F692
:102738001403C2F200031A60BD465DF8047B7047BB
:1027480080B500AFFFF7E4FF80BD00BF80B500AFE4
:102758004FF48060C4F200000121FFF729FC034612
:10276800002B48D04FF48060C4F200000121FFF72D
:1027780049FC40F62C03C2F200031B68322B0DDC27
:1027880040F62C03C2F200031A6840F63403C2F282
:10279800000353F822301846FFF748F940F62C0397
:1027A800C2F200031B68312B0DDD40F62C03C2F288
:1027B80000031A6840F63403C2F2000353F82230CB
:1027C8001846FFF753F940F62C03C2F200031B68C2
:1027D8005A1C40F62C03C2F200031A6040F62C0380
:1027E800C2F200031B68652B05D140F62C03C2F228
:1027F800000300221A6080BD80B500AF00BF4FF40F
:102808000850C4F201000221FEF7BEFD0346002B6A
:10281800F5D04FF40850C4F20100FEF77FFD0346DF
:102828001A4640F61803C2F200031A6080BD00BFC2
:1028380080B483B000AF78600B46FB707B68FA7891
:102848001A70012318460C37BD465DF8047B7047A3
:1028580080B485B000AF786039600023FB600AE07F
:102868007B685A1C7A603A68511C396012781A7071
:10287800FB680133FB603B681B78002BF0D1FB68D9
:1028880018461437BD465DF8047B704780B586B09E
:1028980000AFF8607A603B600B46FB7200237B61F7
:1028A8007B68013B7B603B68092B13D93A684CF67F
:1028B800CD43CCF6CC43A3FB0213DB08FA7AF868C5
:1028C80011467A68FFF7E2FF78617B69FA6813447A
:1028D800FB6011E00DE0FB7AF8681946FFF7A8FFE6
:1028E800FB680133FB607B6901337B617B68013BDB
:1028F8007B607B68002BEEDC39684CF6CD43CCF668
:10290800CC43A3FB0123DA0813469B0013445B0066
:10291800CA1AD3B23033DBB2F8681946FFF788FF1A
:1029280003467A6913447B617B6918461837BD46AC
:1029380080BD00BF80B586B000AFF8607A603B60AC
:102948000B46FB7200237B613B68002B03DA3B6874
:102958005B423B6101E03B683B617B68013B7B601C
:102968003B69092B27D93B68002B10DA3A694CF6EA
:10297800CD43CCF6CC43A3FB0213DB085B42FA7AC7
:10298800F86811467A68FFF7D5FF78610EE03A6972
:102998004CF6CD43CCF6CC43A3FB0213DB08FA7A02
:1029A800F86811467A68FFF7C5FF78617B69FA68AD
:1029B8001344FB6026E03B68002B03DA7B68013B8D
:1029C8007B600EE00DE0FB7AF8681946FFF730FFF0
:1029D800FB680133FB607B6901337B617B68013BEA
:1029E8007B607B68002BEEDC3B68002B0ADAF8681A
:1029F8002D21FFF71DFF03467A6913447B61FB68AD
:102A08000133FB6039694CF6CD43CCF6CC43A3FBCC
:102A18000123DA0813469B0013445B00CA1AD3B299
:102A28003033DBB2F8681946FFF702FF03467A69CC
:102A380013447B617B6918461837BD4680BD00BFCB
:102A480080B588B002AFF8607A600A46FA72BB7245
:102A580000237B617B68013B7B603B6A1B09002B81
:102A680012D03B6A1909FA7ABB7A0091F8681146C4
:102A78007A68FFF7E5FF03467A6913447B617B694F
:102A8800FA681344FB6011E00DE0FB7AF868194618
:102A9800FFF7CEFEFB680133FB607B6901337B6186
:102AA8007B68013B7B607B68002BEEDC3B6A03F0B4
:102AB8000F03092B0BD83B6ADBB203F00F03DBB221
:102AC8003033DBB2F8681946FFF7B2FE19E0BB7A7B
:102AD800002B0BD03B6ADBB203F00F03DBB23733BA
:102AE800DBB2F8681946FFF7A3FE0AE03B6ADBB2DF
:102AF80003F00F03DBB25733DBB2F8681946FFF770
:102B080097FE7B6901337B617B6918461837BD46A0
:102B180080BD00BF80B58AB002AFF860B9607A6046
:102B28003B600023BB6100237B61FB68002B03D063
:102B3800FB6800221A70F8E0F7E07B681B78252B09
:102B48000BD0FB685A1CFA607A68511C79601278BD
:102B58001A707B6901337B61E7E07B6801331B787E
:102B6800252B0BD1FB685A1CFA6025221A707B684A
:102B780002337B607B6901337B61D6E02023FB77DE
:102B88000023BB777B6801337B607B681B78302B25
:102B980005D13023FB777B6801337B600FE00EE0C3
:102BA800BB7F1A46920013445B00DAB27B681B783D
:102BB8001344DBB2303BBB777B6801337B607B68B7
:102BC8001B782F2B03D97B681B78392BE8D9BA7F60
:102BD8007B6913441A46BB689A4205D9BB68DAB2C6
:102BE8007B69DBB2D31ABB777B681B78583B202BF9
:102BF80000F28D8001A252F823F000BFD12C00080A
:102C0800172D0008172D0008172D0008172D00088C
:102C1800172D0008172D0008172D0008172D00087C
:102C2800172D0008172D0008012D0008892C000811
:102C3800172D0008172D0008172D0008172D00085C
:102C4800892C0008172D0008172D0008172D0008DB
:102C5800172D0008172D0008172D0008172D00083C
:102C6800172D0008172D0008ED2C0008172D000857
:102C78009F2C0008172D0008172D0008B52C0008F8
:102C8800BA7F3B68191D39601B68F97FF868FFF740
:102C980051FEB8613EE0BA7F3B68191D39601B6878
:102CA800F97FF868FFF7F2FDB86133E0BA7F3B6857
:102CB800191D39601968FB7F0091F86819460023CF
:102CC800FFF7BEFEB86125E0BA7F3B68191D396081
:102CD8001968FB7F0091F86819460123FFF7B0FED9
:102CE800B86117E03B681A1D3A601B68F868194616
:102CF800FFF7AEFDB8610DE03B681A1D3A601B682E
:102D0800DBB2F8681946FFF793FDB86102E04FF0AF
:102D1800FF3325E07B6801337B60BB69FA681344A5
:102D2800FB607A69BB6913447B617B681B78002B65
:102D380004D07A69BB689A42FFF4FFAE7A69BB682F
:102D48009A4203D2FB6800221A7008E0FB68013B34
:102D5800FB60FB6800221A707B69013B7B617B6921
:102D680018462037BD4680BD80B584B000AFF860F6
:102D7800B9607A60F8686421BA687B68FFF7CAFEB0
:102D8800034618461037BD4680BD00BF0EB480B557
:102D980085B000AF786007F12003BB607868F969F7
:102DA800BA68FFF7E1FFF860FB6818461437BD46BC
:102DB800BDE8804003B0704730B542F2FB1421F003
:102DC8000045C3F6E974A54287B002460B461CDDF0
:102DD8004FF6FF74C7F6EF74A54203DDFDF7D4F98B
:102DE80007B030BD02AA00F033F800F00300012854
:102DF8001ED0022811D010B3DDE90201DDE9042359
:102E080000F052FA01F10041EAE7002300930022A2
:102E1800002300F061FF07B030BD0124DDE90201A5
:102E2800DDE90423009400F057FF01F10041D7E7E2
:102E3800DDE90201DDE9042300F036FAD0E70124D8
:102E4800DDE90201DDE90423009400F045FFC7E74E
:102E58002DE9F04F42F2FB1321F00047C3F6E97366
:102E68009F4291B004460D468B46904640F3A4809D
:102E78004DF67B13C4F202039F4229DC002998A374
:102E8800D3E9002340F3B881FDF77EF942F2FB1342
:102E9800C3F6F9739F4204460D4600F0A28092A340
:102EA800D3E90023FDF770F902460B46C8E9002371
:102EB80020462946FDF768F98BA3D3E90023FDF7DF
:102EC80063F90126C8E90201304611B0BDE8F08F68
:102ED80042F2FB13C4F239139F4240F39F804FF62E
:102EE800FF73C7F6EF739F4271DC4FEA2759A9F2C7
:102EF8001649A7EB095529460446FDF70BFDFDF7D2
:102F080091FA06460F4602460B4620462946CDE969
:102F18000A67FDF739F900230022C4F27013FDF7A0
:102F2800E7FA0F460646FDF7F5FCFDF77BFA024681
:102F38000B4604460D4630463946CDE90C45FDF7AB
:102F480023F900230022C4F27013FDF7D1FA0023FD
:102F58000022CDE90E01FEF72FF8032348B1002324
:102F6800204629460022FEF727F8002814BF01232F
:102F7800022344F24011C0F6000102244A4601919E
:102F880000940AA8414600F0BFFABBF1000FBDBF8C
:102F9800D8F80420D8F80C3046420646BCBF02F1E7
:102FA800004203F100433046BCBFC8F80420C8F80B
:102FB8000C3011B0BDE8F08F00220023C8E90045AD
:102FC800C8E902230026304611B0BDE8F08F02465A
:102FD8000B46FDF7D9F80026C8E90201C8E9000147
:102FE800F1E743A3D3E90023FDF7CEF842A3D3E9E1
:102FF800002304460D46FDF7C7F802460B46C8E90C
:10300800002320462946FDF7BFF83BA3D3E9002358
:10301800FDF7BAF80126C8E90201D4E700F010FF6D
:1030280037A3D3E9002304460D46FDF761FA0023D0
:103038000022C3F6E073FDF7A9F8FDF76BFC06461E
:10304800FDF7F0F926A3D3E90023CDE90601FDF742
:103058004FFA02460B4620462946FDF795F822A36B
:10306800D3E90023CDE90201DDE90601FDF740FAC5
:103078001F2ECDE90401DDE9020145DC44F2C0035D
:10308800C0F60003721E53F82230BB423CD0DDE983
:103098000423FDF779F802460B46C8E900230546E4
:1030A8000C462A462346DDE90201FDF76DF8DDE905
:1030B8000423FDF769F8BBF1000F02460B46C8E987
:1030C800022380DA04F1004401F10041C8F8044009
:1030D800C8F80C10C8F80050C8F80800764272E723
:1030E80000004054FB21F93F3163621A61B4D03DBE
:1030F8000000601A61B4D03D7370032E8A19A33B97
:1031080083C8C96D305FE43FDDE90423FDF73CF86F
:103118003F150C46C1F30A51791A02462346102975
:103128000546C8E90023BCDD55A3D3E90023DDE942
:103138000601FDF7DDF904460D4622462B46DDE97A
:103148000201FDF721F8CDE90801DDE90823DDE9F1
:103158000201FDF719F822462B46FDF715F84AA398
:10316800D3E9002304460D46DDE90601FDF7C0F961
:1031780022462B46FDF708F8CDE90401DDE90423D2
:10318800DDE90801FDF700F80C46C1F30A517F1A82
:1031980002462346312F0546C8E900236BDD3CA3D0
:1031A800D3E90023DDE90601FDF7A2F904460D463F
:1031B80022462B46DDE90801FCF7E6FFCDE90201CE
:1031C800DDE90223DDE90801FCF7DEFF22462B4694
:1031D800FCF7DAFF30A3D3E9002304460D46DDE906
:1031E8000601FDF785F922462B46FCF7CDFFCDE910
:1031F8000401DDE902014AE7FCF7C8FF42F2FB13CC
:10320800C3F6F9739F4204460D4616D024A3D3E9AA
:103218000023FCF7BBFF02460B46C8E90023204603
:103228002946FCF7B1FF1EA3D3E90023FCF7AEFF44
:103238004FF0FF36C8E90201C5E611A3D3E9002320
:10324800FCF7A4FF10A3D3E9002304460D46FCF7BE
:103258009DFF02460B46C8E9002320462946FCF795
:1032680093FF09A3D3E90023FCF790FF4FF0FF3643
:10327800C8E90201A7E6DDE90823CDE9022310E742
:103288000000601A61B4D03D7370032E8A19A33B05
:103298000000002E8A19A33BC14920259A837B3957
:1032A8003163621A61B4D03D2DE9F04F21F0004935
:1032B800B9F1795F85B006460F4692469B466FDAAC
:1032C800FDF728FB002800F0FD8032463B463046DB
:1032D8003946FDF70DF980A3D3E9002304460D46CE
:1032E800FDF706F97EA3D3E90023FCF74FFF22463A
:1032F8002B46FDF7FDF87CA3D3E90023FCF744FF38
:1033080022462B46FDF7F4F879A3D3E90023FCF70E
:103318003DFF22462B46FDF7EBF877A3D3E90023C0
:10332800FCF732FF22462B46FDF7E2F874A3D3E9F7
:103338000023FCF72BFF22462B46FDF7D9F8CDE9F1
:1033480000010023204629460022C3F6E073FDF75A
:10335800CFF8DDE900238046894620462946FDF757
:10336800C7F8524604460D465B4630463946FDF7D7
:10337800BFF802460B4620462946FCF705FF0246E1
:103388000B4640464946FCF7FFFE0B460021024625
:10339800C3F6F0710020FCF7F7FE05B0BDE8F08F2A
:1033A80002460B46FDF7A4F84BA3D3E900230446D5
:1033B8000D46FDF79DF84AA3D3E90023FCF7E6FE86
:1033C80022462B46FDF794F847A3D3E90023FCF7E0
:1033D800DBFE22462B46FDF78BF845A3D3E90023F5
:1033E800FCF7D4FE22462B46FDF782F842A3D3E928
:1033F8000023FCF7C9FE22462B46FDF779F840A3C7
:10340800D3E90023FCF7C2FE2B462246FDF770F8ED
:1034180043F23233C3F6D3739945CDE9000190DD09
:103428000023C3F6E97399454FF000024FF00003FB
:103438003DDC0021A9F5001300220020C3F6F0713D
:1034480090469946FCF7A0FECDE9020100232046EC
:1034580029460022C3F6E073FDF74AF842464B4678
:10346800FCF792FEDDE9002380468946204629467E
:10347800FDF73EF8524604460D465B46304639464F
:10348800FDF736F802460B4620462946FCF77CFE37
:1034980002460B4640464946FCF776FE02460B4676
:1034A800DDE90201FCF770FE05B0BDE8F08FC3F658
:1034B800E7734FF00009CDE902234FF00008C3F687
:1034C800D279C3E700210020C3F6F07105B0BDE84A
:1034D800F08F00BFAFF30080D43888BEE9FAA8BDEA
:1034E800C4B1B4BD9EEE213EAD529C804F7E923E4B
:1034F8009015CB19A001FA3E7751C1166CC1563F01
:103508004C5555555555A53F2DE9F04F4AF6AB2575
:10351800ADF51D7DD41EC2F6AA2585FB0465E61708
:1035280044F24824C6EBA505C0F60004A69E079001
:1035380054F826400B91994625EAE5750C9409F153
:10354800FF34EB432E1B0E950C9D049403EB4303B1
:1035580002EBC30364190A9317D4A79834440134BF
:103568000DF1880800EB8605002709E0E859FCF70B
:1035780059FF0136A642E8E9020107F1040704D021
:10358800002EF3DA00200021F3E70C9E002E2DDB3D
:103598000C9D74AE06EBC50B24A800EBC90A0DF50B
:1035A800E478CDF80CB0049C002CC0F29A81079DF9
:1035B8005746A5F1080B00240025002677E90223C9
:1035C800FBE90201FCF794FF02460B462046294618
:1035D800FCF7DCFD01364E4504460D46EED1E8E920
:1035E8000245039CA0450AF1080ADCD10C9D10ACE9
:1035F80004EB850602940F960395039E9CABF60098
:1036080033440696039E002E53E9284532DD069E74
:103618000DF5E87AB244039E0DF13C0B0BEB860BDB
:103628000DF13C0800230022C3F6706320462946AA
:10363800FCF75EFFFDF76EF9FCF7F4FE00230022AD
:10364800C4F2701306460F46FCF752FF02460B46BB
:1036580020462946FCF798FDFDF75CF9324648F804
:10366800040F3B467AE90201FCF790FDD845044671
:103678000D46D7D1204629460A9A00F075FC00224B
:103688004FF07F5304460D46FCF732FF00F0DCFB99
:1036980000230022C4F22003FCF72AFF02460B464F
:1036A80020462946FCF770FD04460D46FDF732F921
:1036B8008246FCF7B7FE02460B4620462946FCF731
:1036C80063FD0A9C002C06460F4640F3C780039D05
:1036D80010AA691EC4F1180052F8213043FA00F20A
:1036E800C4F1170502FA00F010AC1B1A44F8213097
:1036F800924443FA05F5002D2CDD039C002C0AF1B9
:10370800010A40F3EC8010AB03EB8400002453F86B
:10371800042BC2F1FF1101F57F4114B9C2F1807188
:1037280012B143F8041C01248342F0D10A980028FE
:103738000DDD012800F0B780022808D1039910A8F0
:103748004B1E50F82320C2F3150240F82320022D07
:1037580000F08C803046394600220023FDF72CFC0F
:10376800002800F0C180039C0C9E04F1FF384645F8
:103778000DDC10A800EB84030F98002253F8041DF9
:10378800834242EA0102F9D1002A40F066820C9C89
:1037980010AD621E55F82230002B40F05C8205EB1C
:1037A8008202012352F8041D01330029FAD0039E36
:1037B800039C1E44631CB3420D9649DC049D0E9E77
:1037C8002B44214622460D9D3244494424AE03F140
:1037D800FF3B2B1B06EBC1040994A79D069C06EB37
:1037E800CB0B74AE05EB8202DB00264403920893F0
:1037F80006964FF00008039D55F8040F0395FCF753
:1038080011FE049E002E08F10808EBE9020122DBF4
:10381800079C099FA4F1080A4744002400250026B4
:1038280077E90223FAE90201FCF762FE02460B4639
:1038380020462946FCF7AAFC01364E4504460D46AB
:10384800EED1069EE6E90245089C0696A045D2D12F
:103858000D9D0395D1E600240025F2E72DD1039DA7
:1038680010A86B1E50F82350ED1544E7002132468E
:103878003B460020C3F6F071FCF786FC06460F466F
:10388800002C3FF467AF00210A9A0020C3F6F071BC
:1038980000F06AFB02460B4630463946FCF774FCDA
:1038A80006460F4656E7039910A84B1E50F82320EA
:1038B800C2F3160240F8232049E700230022C3F68A
:1038C800E073FDF797FB054600283FF443AF039CE0
:1038D800002C4FF002050AF1010A3FF714AF00244B
:1038E80024E7002400257AE606950A9DCDF81CA059
:1038F8006A423046394600F037FB00230022C4F202
:10390800701304460D46FDF775FB002800F0D181C1
:1039180000230022C3F6706320462946FCF7E8FD21
:10392800FCF7F8FF0646FCF77DFD00230022C4F2F1
:103938007013FCF7DDFD02460B4620462946FCF7CE
:1039480023FCFCF7E7FF039C0A9D10A904F101087A
:10395800183541F8240041F828600A9500210A9A90
:103968000020C3F6F07100F0FFFAB8F1000F04462A
:103978000D465EDB08F1010610A874A9039600EB5A
:10398800860701EBC60657F8040DFCF74BFD2246E7
:103998002B46FCF7ADFD002366E902010022204614
:1039A8002946C3F67063FCF7A3FD029A97420446C2
:1039B8000D46E8D108F1005B0BF1FF3B74AB0DF548
:1039C800987ACDF82080DDF83080CDF810A003EB90
:1039D800CB0B4FF00009B8F1000FBCBF0024002545
:1039E80019DBDFF8F0A25F4600240025002601E07D
:1039F8004E4510DCF7E90223FAE90201FCF778FDED
:103A080002460B4620462946FCF7C0FB0136B04566
:103A180004460D46ECDA049E06EBC903C3E90045EB
:103A2800039C09F10109A145ABF1080BD3D1DDF8DD
:103A38002080A69D032D00F2E280DFE815F0E70064
:103A48009B009B000400B8F1000FDEBF002426464F
:103A58000DF5987A6EDD0DF5987A4FEAC80B0AEBEA
:103A68000B03D3E9006708F101030AEBC3030393CF
:103A780099460DF59C7C01E026462F4659E90445F8
:103A880032463B4620462946CDF804C0CDE90445D8
:103A9800FCF77CFB04460D4622462B46DDE9040173
:103AA800FCF772FB32463B46FCF770FB69E9020102
:103AB800DDF804C0E14549E90245DDD1B8F1010F5F
:103AC800DCBF0024264635DDDDF80CC0CDF810A09B
:103AD800D344DBE900450AF1100BE24601E0344625
:103AE8003D465AE9048922462B4640464946FCF79A
:103AF8004DFB06460F4632463B4640464946FCF7D4
:103B080043FB22462B46FCF741FB6AE90201DA45F2
:103B18004AE90267E3D10024DDF810A0039D264698
:103B28002046314675E90223FCF730FBAB450446D5
:103B38000E46F5D1069D002D00F0A7800B9DDAF802
:103B48000400DAF80C10DAF80020DAF808302C61F2
:103B580006F100466E61079E2A6000F1004001F1FF
:103B68000041686006F00700E960AB600DF51D7D57
:103B7800BDE8F08FB8F1000FBEBF002634460DF542
:103B8800987A11DB0DF5987A08F1010500260AEB01
:103B9800C50534463046214675E90223FCF7F6FA96
:103BA800554506460C46F5D1069D04F1004305B976
:103BB8002346304632460B9E1946C6E90001234685
:103BC800DAE90001FCF7E0FAB8F1000F04460B4609
:103BD8000BDD0AEBC80820461946FAE90223FCF770
:103BE800D5FAC24504460B46F5D1069D03F10041BE
:103BF800002D6DD00B9E22460B46C6E90223079E78
:103C080006F007000DF51D7DBDE8F08FB8F1000F37
:103C18005BDB08F101054CAE002406EBC505234625
:103C28002046194675E90223FCF7B0FAB542044666
:103C38000B46F5D1069D03F10041002D43D00B9EA4
:103C480022460B46C6E90023079E06F007000DF53D
:103C58001D7DBDE8F08F0123A9E510A80A9C50F846
:103C68002830CDF81CA0183C06950A94002B7FF448
:103C780075AE00EB8803224653F8041D08F1FF389F
:103C8800183A0029F8D00A9268E6DAE900012246D3
:103C9800DAE9024533460B9EC6E90001C6E904236A
:103CA800C6E90245079E06F007000DF51D7DBDE833
:103CB800F08F20462946FCF72DFE10AD039C45F8F1
:103CC8002400A0464AE61946B9E700242346B1E78E
:103CD80019468FE7504200082DE9F04F21F00046C1
:103CE800B6F1795F85B004460D469046994604DAE8
:103CF800FCF710FE002800F0868022462B4620465E
:103D08002946FCF7F5FB22462B4606460F46FCF7EC
:103D1800EFFB3FA3D3E9002382468B463046394662
:103D2800FCF7E6FB3CA3D3E90023FCF72DFA324667
:103D38003B46FCF7DDFB3AA3D3E90023FCF726FA60
:103D480032463B46FCF7D4FB37A3D3E90023FCF704
:103D58001BFA32463B46FCF7CBFB35A3D3E90023DD
:103D6800FCF714FA0E9BCDE90201002B35D0002395
:103D7800404649460022C3F6E073FCF7B9FBDDE98B
:103D88000223CDE9000150465946FCF7B1FB024633
:103D98000B46DDE90001FCF7F7F932463B46FCF734
:103DA800A7FB42464B46FCF7EFF923A3D3E90023D0
:103DB80006460F4650465946FCF79AFB02460B4604
:103DC80030463946FCF7E2F902460B4620462946BA
:103DD800FCF7DAF905B0BDE8F08FDDE902233046DB
:103DE8003946FCF785FB14A3D3E90023FCF7CCF98B
:103DF80052465B46FCF77CFB22462B46FCF7C6F98D
:103E080005B0BDE8F08F2046294605B0BDE8F08F23
:103E18007CD5CF5A3AD9E53DEB9C2B8AE6E55A3E4C
:103E28007DFEB157E31DC73ED561C119A0012A3FE8
:103E3800A6F810111111813F495555555555C53FE3
:103E480021F00041704700BF2DE9F84FC1F30A5730
:103E5800A7F2FF36132E02460B4604460D46894646
:103E68008A46804625DC002E49DB4FF6FF77C0F2F4
:103E78000F07374107EA010C5CEA000C1ED038A393
:103E8800D3E90023FCF782F900220023FDF7BCF8F0
:103E980058B1002DBEBF4FF4801A4AFA06F606EB59
:103EA800050A2AEA07094FF0000840464946BDE8D6
:103EB800F88F332E06DDB6F5806F3CD010461946D4
:103EC800BDE8F88FA7F2134C4FF0FF3B2BFA0CFB21
:103ED8001BEA000FF2D022A3D3E90023FCF756F91E
:103EE80000220023FDF790F80028DED0002D26DB05
:103EF80028EA0B08D14640464946BDE8F88F18A382
:103F0800D3E90023FCF742F900220023FDF77CF8EF
:103F18000028CAD0002DA4BF4FF00008C146C4DA5B
:103F280025F0004200232243CBF6F07318BF9946D0
:103F38004FF00008B9E7FCF729F9BDE8F88F142E0F
:103F480009D0C7F5866703374FF0010808FA07F864
:103F580018EB0408CCD305F1010AC9E7AFF30080D8
:103F68009C7500883CE4377EC1F30A532DE9F04183
:103F7800904606460F460A4643BB21F000430343DA
:103F880039D00023C4F250330022FCF7B1FA43F6CB
:103F9800B043CFF6FF73984506460F463BDBC1F3A7
:103FA8000A53363B0A46434440F2FE718B4216DD03
:103FB80032463B462EA1D1E9000100F061F82CA35E
:103FC800D3E90023FCF794FABDE8F08140F2FF74CE
:103FD800A34227D0434440F2FE718B42E8DC002B19
:103FE8000BDD22F0FF4222F4E00242EA035730469A
:103FF8003946BDE8F081BDE8F08113F1350F17DAD5
:104008004CF25033984532463B4622DC1AA1D1E99E
:10401800000100F035F818A3D3E90023FCF768FA8B
:10402800BDE8F08102460B46FCF7B0F8BDE8F08128
:1040380022F0FF4222F4E002363342EA035700231B
:10404800304639460022C3F69043FCF751FABDE8E2
:10405800F08107A1D1E9000100F012F804A3D3E927
:104068000023FCF745FABDE8F08100BFAFF30080FC
:104078009C7500883CE4377E59F3F8C21F6EA50191
:1040880030B403F0004321F0004243EA020130BC9F
:04409800704700BFAE
:1040A00050512050574D20432E542E20542E4C2E2C
:1040B00020412E432E20462E462E0000256400006F
:1040C000FB21F93FFB2109407CD91240FB2119401B
:1040D0007A6A1F407CD92240BBFD2540FB21294044
:1040E0003A462C407A6A2F405C4731407CD93240B6
:1040F0009C6B3440BBFD3540DB8F3740FB213940A2
:104100001BB43A403A463C405AD83D407A6A3F4058
:104110004C7E40405C4741406C1042407CD942405C
:104120008CA243409C6B4440AC344540BBFD4540B1
:10413000CBC64640DB8F4740EB584840FB21494007
:1041400083F9A200444E6E00FC291500D1572700C8
:10415000DD34F50062DBC0003C99950041904300DE
:104160006351FE00BBDEAB00B761C5003A6E2400B0
:10417000D24D42004906E00009EA2E001C92D1000F
:10418000EB1DFE0029B11C00E83EA700F5358200BA
:1041900044BB2E009CE98400B4267000417E5F0081
:1041A000D6913900538339009CF439008B5F840029
:1041B00028F9BD00F81F3B00DEFF97000F980500AF
:1041C000112FEF000A5A8B006D1F6D00CF7E360055
:1041D00009CB2700464FB7009E663F002DEA5F00DF
:1041E000BA277500E5EBC7003D7BF100F739070002
:1041F00092528A00FB6BEA001FB15F00085D8D00E0
:10420000300356007BFC4600F0AB6B0020BCCF00B7
:1042100036F49A00E3A91D005E619100081BE600D8
:1042200085996500A0145F008D40680080D8FF006C
:1042300027734D0006063100CA561500C9A8730041
:104240007BE260006B8CC0000200000003000000F5
:10425000040000000600000000000040FB21F93FC0
:10426000000000002D44743E000000809846F83C99
:104270000000006051CC783B00000080831BF039C7
:104280000000004020257A38000000802282E336BA
:08429000000000001DF3693578
:10429800007A030A00000000000000000102030485
:0442A80006070809F4
:1042AC000000000000000000000000000000000002
:1042BC0000000000000000000000000000000000F2
:1042CC0000000000000000000000000000000000E2
:1042DC0000000000000000000000000000000000D2
:04000005080013C517
:00000001FF
