:020000040800F2
:1000000050090020410E0008F92E0008B10E00082A
:10001000052F00080D2F0008152F00080000000014
:100020000000000000000000000000001D2F00087C
:10003000292F000800000000352F0008412F00087C
:10004000B10E0008B10E0008B10E0008B10E000894
:10005000B10E0008B10E0008B10E0008B10E000884
:10006000B10E0008B10E0008B10E0008B10E000874
:10007000B10E0008B10E0008B10E0008B10E000864
:10008000B10E0008B10E0008B10E0008B10E000854
:10009000B10E0008B10E0008B10E0008B10E000844
:1000A000B10E0008B10E0008B10E0008B10E000834
:1000B000B10E0008DD230008B10E0008B10E0008E3
:1000C000B10E0008B10E0008B10E0008B10E000814
:1000D000B10E0008B10E0008B10E0008B10E000804
:1000E000B10E0008B10E0008B10E0008B10E0008F4
:1000F000B10E0008B10E0008B10E0008B10E0008E4
:10010000B10E0008B10E0008B10E0008B10E0008D3
:10011000B10E0008B10E0008B10E0008B10E0008C3
:10012000B10E0008B10E0008B10E0008B10E0008B3
:10013000B10E0008B10E0008B10E0008B10E0008A3
:10014000B10E0008B10E0008B10E0008B10E000893
:10015000B10E0008B10E0008B10E0008B10E000883
:10016000B10E0008B10E0008B10E0008B10E000873
:10017000B10E0008B10E0008B10E0008B10E000863
:08018000B10E0008B10E0008E9
:1001880081F0004102E000BF83F0004330B54FEA40
:1001980041044FEA430594EA050F08BF90EA020FAD
:1001A8001FBF54EA000C55EA020C7FEA645C7FEA40
:1001B800655C00F0E2804FEA5454D4EB5555B8BF63
:1001C8006D420CDD2C4480EA020281EA030382EAD4
:1001D800000083EA010180EA020281EA0303362D66
:1001E80088BF30BD11F0004F4FEA01314FF4801C39
:1001F8004CEA113102D0404261EB410113F0004F4B
:100208004FEA03334CEA133302D0524263EB430301
:1002180094EA050F00F0A780A4F10104D5F1200E9F
:100228000DDB02FA0EFC22FA05F2801841F10001FA
:1002380003FA0EF2801843FA05F359410EE0A5F1CE
:1002480020050EF1200E012A03FA0EFC28BF4CF0FF
:10025800020C43FA05F3C01851EBE37101F00045B5
:1002680007D54FF0000EDCF1000C7EEB00006EEBC2
:100278000101B1F5801F1BD3B1F5001F0CD349084C
:100288005FEA30004FEA3C0C04F101044FEA4452A3
:1002980012F5800F80F09A80BCF1004F08BF5FEA2A
:1002A800500C50F1000041EB045141EA050130BD0A
:1002B8005FEA4C0C404141EB010111F4801FA4F1AD
:1002C8000104E9D191F0000F04BF01460020B1FA02
:1002D80081F308BF2033A3F10B03B3F120020CDA3A
:1002E8000C3208DD02F1140CC2F10C0201FA0CF018
:1002F80021FA02F10CE002F11402D8BFC2F1200C7D
:1003080001FA02F120FA0CFCDCBF41EA0C01904032
:10031800E41AA2BF01EB0451294330BD6FEA04047B
:100328001F3C1CDA0C340EDC04F11404C4F1200266
:1003380020FA04F001FA02F340EA030021FA04F378
:1003480045EA030130BDC4F10C04C4F1200220FACF
:1003580002F001FA04F340EA0300294630BD21FA0D
:1003680004F0294630BD94F0000F83F4801306BFD3
:1003780081F480110134013D4EE77FEA645C18BFC7
:100388007FEA655C29D094EA050F08BF90EA020F5E
:1003980005D054EA000C04BF1946104630BD91EA56
:1003A800030F1EBF0021002030BD5FEA545C05D159
:1003B8004000494128BF41F0004130BD14F5800498
:1003C8003CBF01F5801130BD01F0004545F0FE410C
:1003D80041F470014FF0000030BD7FEA645C1ABF41
:1003E800194610467FEA655C1CBF0B46024650EA78
:1003F800013406BF52EA033591EA030F41F40021A4
:1004080030BD00BF90F0000F04BF0021704730B529
:100418004FF4806404F132044FF000054FF00001FE
:1004280050E700BF90F0000F04BF0021704730B5BF
:100438004FF4806404F1320410F0004548BF404294
:100448004FF000013EE700BF42004FEAE2014FEAE9
:1004580031014FEA02701FBF12F07F4393F07F4FC4
:1004680081F06051704792F0000F14BF93F07F4FF6
:10047800704730B54FF4607401F0004521F0004139
:1004880020E700BF50EA010208BF704730B54FF0BF
:1004980000050AE050EA010208BF704730B511F0C4
:1004A800004502D5404261EB41014FF4806404F1FC
:1004B80032045FEA915C3FF4DCAE4FF003025FEA7E
:1004C800DC0C18BF03325FEADC0C18BF033202EB06
:1004D800DC02C2F1200300FA03FC20FA02F001FA60
:1004E80003FE40EA0E0021FA02F11444C1E600BFFF
:1004F80070B54FF0FF0C4CF4E06C1CEA11541DBFB2
:100508001CEA135594EA0C0F95EA0C0F00F0DEF87C
:100518002C4481EA030621EA4C5123EA4C5350EA61
:10052800013518BF52EA033541F4801143F48013B2
:1005380038D0A0FB02CE4FF00005E1FB02E506F043
:100548000042E0FB03E54FF00006E1FB03569CF098
:10055800000F18BF4EF0010EA4F1FF04B6F5007F9E
:1005680064F5407404D25FEA4E0E6D4146EB060610
:1005780042EAC62141EA55514FEAC52040EA5E5099
:100588004FEACE2EB4F1FD0C88BFBCF5E06F1ED843
:10059800BEF1004F08BF5FEA500E50F1000041EB7A
:1005A800045170BD06F0004646EA010140EA020027
:1005B80081EA0301B4EB5C04C2BFD4EB0C0541EA49
:1005C800045170BD41F480114FF0000E013C00F35E
:1005D800AB8014F1360FDEBF002001F0004170BD82
:1005E800C4F10004203C35DA0C341BDC04F114049B
:1005F800C4F1200500FA05F320FA04F001FA05F227
:1006080040EA020001F0004221F0004110EBD370F3
:1006180021FA04F642EB06015EEA430E08BF20EA1F
:10062800D37070BDC4F10C04C4F1200500FA04F3C2
:1006380020FA05F001FA04F240EA020001F0004154
:1006480010EBD37041F100015EEA430E08BF20EAC7
:10065800D37070BDC4F1200500FA05F24EEA020E0F
:1006680020FA04F301FA05F243EA020321FA04F03E
:1006780001F0004121FA04F220EA020000EBD370F5
:100688005EEA430E08BF20EAD37070BD94F0000FF5
:100698000FD101F00046400041EB010111F4801F29
:1006A80008BF013CF7D041EA060195F0000F18BFDA
:1006B800704703F00046520043EB030313F4801F16
:1006C80008BF013DF7D043EA0603704794EA0C0FD0
:1006D8000CEA135518BF95EA0C0F0CD050EA4106E6
:1006E80018BF52EA4306D1D181EA030101F0004163
:1006F8004FF0000070BD50EA410606BF104619468B
:1007080052EA430619D094EA0C0F02D150EA013696
:1007180013D195EA0C0F05D152EA03361CBF1046D7
:1007280019460AD181EA030101F0004141F0FE4176
:1007380041F470014FF0000070BD41F0FE4141F4FA
:10074800780170BD70B54FF0FF0C4CF4E06C1CEAFA
:1007580011541DBF1CEA135594EA0C0F95EA0C0FAF
:1007680000F0A7F8A4EB050481EA030E52EA03356A
:100778004FEA013100F088804FEA03334FF080558B
:1007880045EA131343EA12634FEA022245EA1115B8
:1007980045EA10654FEA00260EF000419D4208BF69
:1007A800964244F1FD0404F5407402D25B084FEA16
:1007B8003202B61A65EB03055B084FEA32024FF4C2
:1007C80080104FF4002CB6EB020E75EB030E22BF1F
:1007D800B61A754640EA0C005B084FEA3202B6EBDF
:1007E800020E75EB030E22BFB61A754640EA5C008E
:1007F8005B084FEA3202B6EB020E75EB030E22BF1E
:10080800B61A754640EA9C005B084FEA3202B6EB1E
:10081800020E75EB030E22BFB61A754640EADC00DD
:1008280055EA060E18D04FEA051545EA16754FEA3F
:1008380006164FEAC30343EA52734FEAC2025FEA5D
:100848001C1CC0D111F4801F0BD141EA00014FF0EC
:1008580000004FF0004CB6E711F4801F04BF0143BD
:100868000020B4F1FD0C88BFBCF5E06F3FF6AFAED9
:10087800B5EB030C04BFB6EB020C5FEA500C50F169
:10088800000041EB045170BD0EF0004E4EEA1131EC
:1008980014EB5C04C2BFD4EB0C0541EA045170BDF3
:1008A80041F480114FF0000E013C90E645EA060E37
:1008B8008DE60CEA135594EA0C0F08BF95EA0C0F65
:1008C8003FF43BAF94EA0C0F0AD150EA01347FF4AD
:1008D80034AF95EA0C0F7FF425AF104619462CE784
:1008E80095EA0C0F06D152EA03353FF4FDAE1046E7
:1008F800194622E750EA410618BF52EA43067FF438
:10090800C5AE50EA41047FF40DAF52EA43057FF4C7
:10091800EBAE12E74FEA410212F5001215D211D5DB
:100928006FF47873B3EB625212D94FEAC12343F0E4
:10093800004343EA505311F0004F23FA02F018BF66
:10094800404270474FF00000704750EA013005D12F
:1009580011F0004008BF6FF0004070474FF00000F2
:10096800704700BF4FEA4102B2F1E04324BFB3F53C
:10097800001CDCF1FE5C0DD901F0004C4FEAC0020E
:100988004CEA5070B2F1004F40EB830008BF20F0F2
:100998000100704711F0804F21D113F13872BCBFAC
:1009A80001F00040704741F480114FEA5252C2F101
:1009B8001802C2F1200C10FA0CF320FA02F018BF4A
:1009C80040F001004FEAC1234FEAD32303FA0CFC9D
:1009D80040EA0C0023FA02F34FEA4303CCE77FEA2C
:1009E800625307D150EA01331EBF4FF0FE4040F476
:1009F8004000704701F0004040F0FE4040F4000025
:100A0800704700BF844641EA000313F003036DD129
:100A1800403A41D351F8043B40F8043B51F8043BB9
:100A280040F8043B51F8043B40F8043B51F8043BC0
:100A380040F8043B51F8043B40F8043B51F8043BB0
:100A480040F8043B51F8043B40F8043B51F8043BA0
:100A580040F8043B51F8043B40F8043B51F8043B90
:100A680040F8043B51F8043B40F8043B51F8043B80
:100A780040F8043B51F8043B40F8043B51F8043B70
:100A880040F8043B51F8043B40F8043B51F8043B60
:100A980040F8043B403ABDD2303211D351F8043B00
:100AA80040F8043B51F8043B40F8043B51F8043B40
:100AB80040F8043B51F8043B40F8043B103AEDD2AF
:100AC8000C3205D351F8043B40F8043B043AF9D200
:100AD800043208D0D2071CBF11F8013B00F8013BD3
:100AE80001D30B8803806046704700BF082A13D3E0
:100AF8008B078DD010F003038AD0C3F10403D21AF8
:100B0800DB071CBF11F8013B00F8013B80D331F82B
:100B1800023B20F8023B7BE7043AD9D3013A11F8AB
:100B2800013B00F8013BF9D20B7803704B78437016
:100B38008B788370604670474FF0FF3C06E000BF3B
:100B48004FF0010C02E000BF4FF0010C4DF804CD4E
:100B58004FEA410C7FEA6C5C4FEA430C18BF7FEA0E
:100B68006C5C1BD001B050EA410C0CBF52EA430C3C
:100B780091EA030F02BF90EA020F0020704710F1BC
:100B8800000F91EA030F58BF994208BF90422CBF4B
:100B9800D8176FEAE37040F0010070474FEA410C44
:100BA8007FEA6C5C02D150EA013C07D14FEA430C62
:100BB8007FEA6C5CD6D152EA033CD3D05DF8040BD3
:100BC800704700BF8446104662468C461946634605
:100BD80000E000BF01B5FFF7B7FF002848BF10F1DC
:100BE800000F01BD4DF808EDFFF7F4FF0CBF012021
:100BF80000205DF808FB00BF4DF808EDFFF7EAFF9D
:100C080034BF012000205DF808FB00BF4DF808ED57
:100C1800FFF7E0FF94BF012000205DF808FB00BF4C
:100C28004DF808EDFFF7CEFF94BF012000205DF8D6
:100C380008FB00BF4DF808EDFFF7C4FF34BF0120E3
:100C480000205DF808FB00BF80B500AF40F65010EB
:100C5800C2F200004FF4A83109F08CFE4AF21820C5
:100C6800C0F6010009F016FA80BD00BF80B483B059
:100C780000AF0346FB804FF6FE73C6F20103FA8805
:100C88001A800C37BD465DF8047B704780B483B08A
:100C980000AF0346FB804FF6FE73C6F20103FA88E5
:100CA8005A800C37BD465DF8047B704780B483B02A
:100CB80000AF7860396007E00023C6F202037A6863
:100CC800911C796012881A803B685A1E3A60002B82
:100CD800F2D10C37BD465DF8047B704780B483B011
:100CE80000AF7860396007E07A68931C7B60002366
:100CF800C6F202031B8813803B685A1E3A60002B19
:100D0800F2D10C37BD465DF8047B704780B5A0B0C2
:100D180000AF07F1680300221A60043300221A604A
:100D2800043300221A60043300221A6004330022BC
:100D38001A6004333A466823104600211A460DF01B
:100D4800BBF94DF6E800C0F601004DF66821C0F683
:100D580001010022002309F031F9F8670020F02191
:100D68004FF4A07206F079FF0020F0214FF4A07232
:100D780006F05CFF06233B670223BB6707F16803A5
:100D8800F86F194606F0F1FE40F67543C0F6000309
:100D98003B6240F69543C0F600037B6240F6B543DC
:100DA800C0F60003FB6240F6E543C0F60003FB63B0
:100DB8003B46F86F194646F6E962C0F6000247F26C
:100DC8007553C0F6000306F0EEFE06F0EFFF03468B
:100DD800002B0CD000204FF4A071F02206F03DFF4C
:100DE80000204FF4A071F02206F020FF0BE0002055
:100DF800F0214FF4A07206F030FF0020F0214FF4EC
:100E0800A07206F013FF8037BD4680BD80B487B05E
:100E180000AFF860B9607A60BB68012B01D100238C
:100E280003E04FF0FF337B617B6918461C37BD46F2
:100E38005DF8047B704700BF80B582B000AF4EF20A
:100E48004073C0F601037B6040F20003C2F2000366
:100E58003B6007E03B681A1D3A607A68111D7960AB
:100E680012681A603A6840F25013C2F200039A42BC
:100E7800F0D30A480A494FF000028842B8BF40F848
:100E8800042BFADBDFF81C00016841F470010160F3
:100E980001F0D8F80837BD4680BD00005009002091
:100EA800905F012088ED00E080B400AFFEE700BF4E
:100EB80080B500AF4FF46D43CEF200034FF46D429E
:100EC800CEF20002D2F8882042F47002C3F88820DB
:100ED8004FF46053C4F202034FF46052C4F20202AA
:100EE800126842F001021A604FF46053C4F2020320
:100EF80000229A604FF46053C4F202034FF4605228
:100F0800C4F20202126822F0847222F480321A605B
:100F18004FF46053C4F2020343F21002C2F20042DB
:100F28005A604FF46053C4F202034FF46052C4F2A3
:100F38000202126822F480221A604FF46053C4F24D
:100F480002030022DA6000F009F84FF46D43CEF294
:100F580000034FF000629A6080BD00BF80B483B088
:100F680000AF00237B6000233B604FF46053C4F262
:100F780002034FF46052C4F20202126842F4803253
:100F88001A604FF46053C4F202031B6803F4003381
:100F98003B607B6801337B603B68002B03D17B6837
:100FA800B3F5A06FEDD14FF46053C4F202031B6890
:100FB80003F40033002B02D001233B6001E000233F
:100FC8003B603B68012B40F082804FF46053C4F2D1
:100FD80002034FF46052C4F20202126C42F08052D3
:100FE8001A644FF4E043C4F200034FF4E042C4F241
:100FF8000002126842F480421A604FF46053C4F24F
:1010080002034FF46052C4F2020292689A604FF4ED
:101018006053C4F202034FF46052C4F202029268B1
:1010280042F400429A604FF46053C4F202034FF452
:101038006052C4F20202926842F4A0529A604FF4DD
:101048006053C4F2020345F20842C0F240725A608B
:101058004FF46053C4F202034FF46052C4F2020228
:10106800126842F080721A6000BF4FF46053C4F2F5
:1010780002031B6803F00073002BF6D04FF4705383
:10108800C4F2020340F205621A604FF46053C4F2DE
:1010980002034FF46052C4F20202926822F0030283
:1010A8009A604FF46053C4F202034FF46052C4F2E2
:1010B8000202926842F002029A6000BF4FF4605345
:1010C800C4F202039B6803F00C03082BF6D10C371B
:1010D800BD465DF8047B704780B485B000AF78608A
:1010E8000023FB730023BB730F237B737B68DB78C0
:1010F800002B40D04FF46D43CEF20003DB68DB4396
:1011080003F4E0631B0AFB73FB7BC3F10403BB73AB
:101118007A7BFB7B42FA03F37B737B685B781A4626
:10112800BB7B02FA03F3FB737B689A787B7B1340E3
:10113800DAB2FB7B1343FB73FB7B1B01FB734FF49E
:101148006143CEF200037A6812781344FA7B83F87D
:1011580000234FF46143CEF200037A6812785209F3
:10116800D2B27968097801F01F01012000FA01F173
:1011780043F8221011E04FF46143CEF200037A687D
:1011880012785209D2B27968097801F01F0101205A
:1011980000FA01F1203243F822101437BD465DF8F9
:1011A800047B704780B483B000AF78604FF0204371
:1011B8007A6812687968486879688968084379683C
:1011C800C96808437968096908437968496908431F
:1011D8007968896908437968C96908437968096A37
:1011E80008437968496A08437968896A08437968CD
:1011F800C96A08437968096B014343F822107B6880
:101208009B68082B0DD14FF020437A6812684FF085
:1012180020417868006851F8201041F0400143F8F7
:1012280022104FF020437A68126801327968496BBE
:1012380008687968496B4968090108437968496B06
:101248008968090208437968496BC9680904084331
:101258007968496B0969090508437968496B4969DF
:10126800090608437968496B8969014343F82210E4
:101278007B68DB6AB3F5804F23D14FF48273CAF2DF
:1012880000037A6812687968896B08687968896BDD
:101298004968090108437968896B89680902084324
:1012A8007968896B0969090508437968896B49690F
:1012B800090608437968896B8969014343F8221054
:1012C80009E04FF48273CAF200037A6812686FF07B
:1012D800704143F822100C37BD465DF8047B704717
:1012E80080B483B000AF78600B46FB70FB78002BAE
:1012F8000CD04FF020434FF02042796852F821205B
:1013080042F001017A6843F822100EE04FF02042C3
:101318004FF02043796853F821104FF6FE73C0F25E
:101328000F030B40796842F821300C37BD465DF851
:10133800047B704780B487B000AF786039600023C1
:101348007B6100233B610023FB6000237B6176E027
:101358007B69012202FA03F33B613B681A683B6927
:101368001340FB60FA683B699A4265D17B681A684A
:101378007B695B00032101FA03F3DB431A407B68B6
:101388001A607B681A683B681B7919467B695B00A1
:1013980001FA03F31A437B681A603B681B79012B37
:1013A80003D03B681B79022B2ED17B689A687B6936
:1013B8005B00032101FA03F3DB431A407B689A6060
:1013C8007B689A683B685B7919467B695B0001FA20
:1013D80003F31A437B689A607B685A687B699BB2FF
:1013E800012101FA03F3DB431A407B685A607B68EA
:1013F8005A683B689B7919467B699BB201FA03F3EB
:101408009BB21A437B685A607B68DA687B699BB237
:101418005B00032101FA03F3DB431A407B68DA60BF
:101428007B68DA683B68DB7919467B695B0001FAFF
:1014380003F31A437B68DA607B6901337B617B695C
:101448000F2B85D91C37BD465DF8047B704700BF5C
:1014580080B485B000AF78600B467B800023FB73B7
:101468007B681A697B881340002B02D00123FB7329
:1014780001E00023FB73FB7B18461437BD465DF87B
:10148800047B704780B483B000AF78600B467B80E4
:101498007B687A881A830C37BD465DF8047B7047F1
:1014A80080B483B000AF78600B467B807B687A8815
:1014B8005A830C37BD465DF8047B704780B485B00D
:1014C80000AF786013460A467A807B700023FB6081
:1014D8000023BB607A787B8803F007039B0002FA3D
:1014E80003F3FB607B88DB089BB21A467B88DB082A
:1014F8009BB219467B68083153F821107B8803F0AA
:1015080007039B000F2000FA03F3DB4319407B68B5
:10151800083243F822107B88DB089BB21A467B68A6
:10152800083253F82220FB681343BB607B88DB0832
:101538009BB21A467B680832B96843F82210143700
:10154800BD465DF8047B70472DE9B04388B000AF15
:10155800F86087ED020A79600023FB610023BB6114
:101568004FF000037B619FED307AD7ED027AC7EE2A
:10157800277AC7ED057A0023FB613EE07868FEF71D
:1015880051FF80468946FB6907EE903AB8EEE77A44
:10159800D7ED057A67EE277A17EE900AFEF754FF23
:1015A80002460B46104619461DA3D3E90023FEF751
:1015B8009FFF02460B4643EC172BB0EE470AF0EEAE
:1015C800670A0CF055FF53EC102B40464946FEF7CE
:1015D8008FFF02460B46144623F000452046294655
:1015E800FFF798F90346BB61FB699B00FA6813444F
:1015F800BA691A60FB690133FB61FB6907EE903A2F
:10160800B8EEE77AD7ED027AB4EEE77AF1EE10FA9F
:10161800B4D918462037BD46BDE8B083AFF3008083
:1016280012E7FAA146DF913F0000B443AFF3008010
:1016380080B586B000AF78600220012100F0AEF8D6
:101648000023BB810023FB817B683B610023BB82B5
:101658000023BB7507F10C034FF48060C4F200004F
:10166800194600F087F94FF48060C4F200000121A8
:1016780000F016FA18461837BD4680BD80B588B008
:1016880000AF78607023BB810123FB8102233B8379
:101698007B687B6107F10C034FF48060C4F20000A3
:1016A800194600F02BFB4FF48060C4F200000821BB
:1016B80000F0C6FB2037BD4680BD00BF80B588B0AE
:1016C80000AF78607023BB810123FB8102233B8339
:1016D8007B687B6107F10C034FF48060C4F2000063
:1016E800194600F085FA4FF48060C4F20000082122
:1016F80000F08AFB2037BD4680BD00BF80B483B0B0
:1017080000AF78600B46FB70FB78002B0CD04FF4D1
:101718006053C4F202034FF46052C4F20202116B28
:101728007A680A431A630CE04FF46053C4F2020368
:101738004FF46052C4F20202116B7A68D2430A4035
:101748001A630C37BD465DF8047B704780B483B0DC
:1017580000AF78600B46FB70FB78002B0CD04FF481
:101768006053C4F202034FF46052C4F20202916B58
:101778007A680A439A630CE04FF46053C4F2020398
:101788004FF46052C4F20202916B7A68D2430A4065
:101798009A630C37BD465DF8047B704780B483B00C
:1017A80000AF78600B46FB70FB78002B0CD04FF431
:1017B8006053C4F202034FF46052C4F20202116C87
:1017C8007A680A431A640CE04FF46053C4F20203C7
:1017D8004FF46052C4F20202116C7A68D2430A4094
:1017E8001A640C37BD465DF8047B704780B483B03B
:1017F80000AF78600B46FB70FB78002B0CD04FF4E1
:101808006053C4F202034FF46052C4F20202516CF6
:101818007A680A435A640CE04FF46053C4F2020336
:101828004FF46052C4F20202516C7A68D2430A4003
:101838005A640C37BD465DF8047B704780B485B0A8
:1018480000AF786039600023FB817B681B88FB81CF
:10185800FB8903F44153FB813B681A883B685B882A
:1018680013439AB23B689B8813439AB23B68DB8860
:1018780013439AB23B681B8913439AB23B685B894E
:1018880013439AB23B689B8913439AB23B68DB893E
:1018980013439AB2FB891343FB817B68FA891A8048
:1018A8007B689B8B9BB223F400639AB27B689A8314
:1018B8003B681A8A7B681A821437BD465DF8047B38
:1018C800704700BF80B483B000AF78600B46FB70F0
:1018D800FB78002B08D07B681B889BB243F0400341
:1018E8009AB27B681A8007E07B681B889BB223F05A
:1018F80040039AB27B681A800C37BD465DF8047BBA
:10190800704700BF80B483B000AF78607B689B8964
:101918009BB218460C37BD465DF8047B704700BF84
:1019280080B483B000AF78600B467B807B687A8890
:101938009A810C37BD465DF8047B704780B485B04A
:1019480000AF78600B467B800023FB737B681B89A4
:101958009AB27B8813409BB2002B02D00123FB7301
:1019680001E00023FB73FB7B18461437BD465DF886
:10197800047B704780B485B000AF7860396000237D
:10198800FB817B681B88FB817A680023C4F2010312
:101998009A421FD07A684FF48063C4F201039A42D6
:1019A80018D07B68B3F1804F14D07A684FF4806305
:1019B800C4F200039A420DD07A684FF40063C4F26F
:1019C80000039A4206D07A684FF44063C4F20003D9
:1019D8009A4208D1FB8923F07003FB813B685A883F
:1019E800FB891343FB817A684FF48053C4F20003E8
:1019F8009A420FD07A684FF4A053C4F200039A4277
:101A080008D0FB8923F44073FB813B681A89FB8962
:101A18001343FB817B68FA891A803B685A687B68A4
:101A2800DA623B681A887B681A857A680023C4F2F0
:101A380001039A4206D07A684FF48063C4F2010326
:101A48009A4204D13B689B7A1A467B681A867B685F
:101A580001229A821437BD465DF8047B704700BFA7
:101A680080B483B000AF78600B46FB70FB78002B26
:101A780008D07B681B889BB243F080039AB27B68CE
:101A88001A8007E07B681B889BB223F080039AB218
:101A98007B681A800C37BD465DF8047B704700BF31
:101AA80080B483B000AF78600B46FB70FB78002BE6
:101AB80008D07B681B889BB243F001039AB27B680D
:101AC8001A8007E07B681B889BB223F001039AB257
:101AD8007B681A800C37BD465DF8047B704700BFF1
:101AE80080B485B000AF7860396000237B81002323
:101AF800FB810023BB817B681B8C9BB223F0100306
:101B08009AB27B681A847B681B8CFB817B689B88F4
:101B1800BB817B681B8B7B817B8923F4E0437B81C2
:101B28007B8923F440737B813B681B881B029AB234
:101B38007B8913437B81FB8923F02003FB813B686E
:101B48009B891B019AB2FB891343FB813B685B8825
:101B58001B019AB2FB891343FB817A680023C4F204
:101B680001039A4206D07A684FF48063C4F20103F5
:101B78009A422BD1FB8923F08003FB813B68DB89E8
:101B88001B019AB2FB891343FB81FB8923F04003B5
:101B9800FB813B689B881B019AB2FB891343FB813D
:101BA800BB8923F48063BB81BB8923F40063BB81B9
:101BB8003B681B8A9B009AB2BB891343BB813B6875
:101BC8005B8A9B009AB2BB891343BB817B68BA8945
:101BD8009A807B687A891A833B689A687B689A63DB
:101BE8007B68FA891A841437BD465DF8047B704710
:101BF80080B485B000AF7860396000237B81002312
:101C0800FB810023BB817B681B8C9BB223F4807310
:101C18009AB27B681A847B681B8CFB817B689B88E3
:101C2800BB817B689B8B7B817B8923F070037B81E5
:101C38007B8923F003037B813B681A887B891343E4
:101C48007B81FB8923F40073FB813B689B891B0222
:101C58009AB2FB891343FB813B685B881B029AB2EB
:101C6800FB891343FB817A680023C4F201039A427B
:101C780006D07A684FF48063C4F201039A422BD1EC
:101C8800FB8923F40063FB813B68DB891B029AB262
:101C9800FB891343FB81FB8923F48063FB813B6849
:101CA8009B881B029AB2FB891343FB81BB8923F4EF
:101CB8008053BB81BB8923F40053BB813B681B8ADB
:101CC8001B019AB2BB891343BB813B685B8A1B012A
:101CD8009AB2BB891343BB817B68BA899A807B68B7
:101CE8007A899A833B689A687B68DA637B68FA89A1
:101CF8001A841437BD465DF8047B704780B485B0FC
:101D080000AF786039600023BB8100237B8100230A
:101D1800FB817B681B8C9BB223F480539AB27B684F
:101D28001A847B681B8C7B817B689B88FB817B6822
:101D38009B8BBB81BB8923F4E043BB81BB8923F424
:101D48004073BB813B681B881B029AB2BB89134353
:101D5800BB817B8923F400537B813B689B891B03F0
:101D68009AB27B8913437B813B685B881B039AB2D9
:101D78007B8913437B817A680023C4F201039A426A
:101D880006D07A684FF48063C4F201039A420AD1FC
:101D9800FB8923F48043FB813B681B8A9B019AB231
:101DA800FB891343FB817B68FA899A807B68BA892F
:101DB8009A833B689A687B681A647B687A891A8474
:101DC8001437BD465DF8047B704700BF80B485B00A
:101DD80000AF78600B467B800023FB817B681B8B00
:101DE800FB81FB8923F40063FB817B881B029AB289
:101DF800FB891343FB817B68FA891A831437BD4634
:101E08005DF8047B704700BF80B485B000AF786090
:101E18000B467B800023FB817B689B8BFB81FB89C6
:101E280023F00803FB81FA897B881343FB817B68D5
:101E3800FA899A831437BD465DF8047B704700BF62
:101E480080B485B000AF78600B467B800023FB81AF
:101E58007B689B8BFB81FB8923F40063FB817B8878
:101E68001B029AB2FB891343FB817B68FA899A8328
:101E78001437BD465DF8047B704700BF80B483B05B
:101E880000AF786013460A467A807B707B78002B17
:101E980008D07B689B899AB27B8813439AB27B6887
:101EA8009A8109E07B689B899AB27B88DB439BB265
:101EB80013409AB27B689A810C37BD465DF8047B63
:101EC800704700BF80B485B000AF78600B467B8058
:101ED8000023FB730023BB8100237B817B681B8A63
:101EE8009AB27B881340BB817B689B899AB27B88B6
:101EF80013407B81BB89002B05D07B89002B02D046
:101F08000123FB7301E00023FB73FB7B18461437A6
:101F1800BD465DF8047B704780B483B000AF78603D
:101F28000B467B807B88DB439AB27B681A820C372E
:101F3800BD465DF8047B704780B483B000AF78601D
:101F480045F65013C2F201037A681A6000BF45F6DD
:101F58005013C2F201031B68002BF8D10C37BD46A1
:101F68005DF8047B704700BF80B400AF45F650139E
:101F7800C2F201031B68002B0AD045F65013C2F2C7
:101F880001031B685A1E45F65013C2F201031A607A
:101F9800BD465DF8047B704780B483B000AF03464C
:101FA8003960FB7197F90730002B0EDA4FF46D4357
:101FB800CEF20003FA7902F00F02111F3A68D2B28A
:101FC8001201D2B20B441A760CE04FF46143CEF200
:101FD800000397F907103A68D2B21201D2B20B4443
:101FE80083F800230C37BD465DF8047B704700BFBB
:101FF80080B582B000AF78607B68B3F1807F01D391
:1020080001231AE04EF21003CEF200037A6822F0A0
:102018007F42013A5A604FF0FF300F21FFF7BCFFB3
:102028004EF21003CEF2000300229A604EF2100323
:10203800CEF2000307221A60002318460837BD466F
:1020480080BD00BF80B58AB004AF43F2AF637B6147
:10205800FEF72EFF40F20003C2F200031A6844F6AE
:10206800D353C1F26203A3FB02139B091846FFF77F
:10207800BFFF0346002B00D0FEE700F045FD45F604
:102088006410C2F201009FEDD20A43F2AF61FFF77C
:102098005BFA7869FFF7CCFA4FF40060C4F20200EB
:1020A80008210222FFF70AFA4FF40060C4F2020086
:1020B80009210222FFF702FA45F6C053C2F20103D2
:1020C8004FF440721A6045F6C053C2F2010302226F
:1020D8001A7145F6C053C2F2010300229A7145F6FF
:1020E800C053C2F2010303225A7145F6C053C2F22B
:1020F80001030022DA714FF40060C4F2020045F6D1
:10210800C051C2F20101FFF715F94FF48060C4F223
:10211800000001210122FFF7B1FE45F6A853C2F2E3
:1021280001031D221A7045F6A853C2F201030022CA
:102138005A7045F6A853C2F2010301229A7045F677
:10214800A853C2F201030122DA7045F6A850C2F280
:102158000100FEF7C1FF00F0BBFD4FF480500121E4
:10216800FFF7CCFA08F00CF800F076FC00F0E4FF7A
:1021780000F036FE4FF44060C4F202004FF4805184
:10218800FFF78EF94AF20400C0F6010006F074FF6A
:10219800002006F09DFF07F0B5FF4FF2A060C0F6E3
:1021A800000007F0F9FD0223009342F28943C0F6CC
:1021B80000030193002302930020BE214FF4A07274
:1021C800322302F00DFC38614FF4000006F080FF66
:1021D8000223009344F66573C0F6000301930023BD
:1021E8000293002010214FF4A072AE2302F0F8FBF6
:1021F800024645F6C853C2F201031A6045F6C853B1
:10220800C2F201031B68184602F0A0FA07F07AFF31
:10221800386902F09BFA3B6900930223019300237B
:1022280002934FF4B8730393002000215022322305
:1022380001F058FCF860F8684AF20401C0F60101A0
:1022480001F088FCF8684FF2B061C0F6000101F0B7
:1022580059FCF868002101F08EFC3B6900930223C9
:1022680001930023029340F271130393502000213D
:102278005022322301F036FCB860B8684AF20401F3
:10228800C0F6010101F066FCB8684FF2B861C0F60B
:10229800000101F037FCB868002101F06CFC3B69D3
:1022A800009302230193002302934FF4B97303931D
:1022B800A02000215022322301F014FC78607868B5
:1022C8004AF20401C0F6010101F044FC78684FF2BB
:1022D800C061C0F6000101F015FC7868002101F02A
:1022E8004AFC3B690093022301930023029340F2C6
:1022F80073130393F02000215022322301F0F2FBE4
:10230800386038684AF20401C0F6010101F022FC85
:1023180038684FF2C861C0F6000101F0F3FB386875
:10232800002101F028FC43F2E550C0F6000001F05E
:10233800D1FA45F6C853C2F201031B680093102373
:102348000193002302934FF4BA730393A020322120
:102358005022322301F0C6FB024645F69053C2F2E2
:1023680001031A6045F69053C2F201031B68184630
:102378004AF20401C0F6010101F0ECFB45F6905366
:10238800C2F201031B6818464FF2D061C0F6000183
:1023980001F0B8FB45F69053C2F201031B681846DA
:1023A800002101F0E8FB07F0ADFE45F6C853C2F284
:1023B80001031B68184602F0C9F9386901F030FCBE
:1023C80000F0CEF800F0C8FA322006F037FEF9E740
:1023D8000000C84280B500AF4FF48060C4F200002E
:1023E8000121FFF76FFD0346002B48D04FF48060B2
:1023F800C4F200000121FFF78FFD45F66013C2F219
:1024080001031B68322B0DDC45F66013C2F2010391
:102418001A6845F66413C2F2010353F822301846CD
:10242800FFF72CF945F66013C2F201031B68312B44
:102438000DDD45F66013C2F201031A6845F6641310
:10244800C2F2010353F822301846FFF737F945F670
:102458006013C2F201031B685A1C45F66013C2F2EE
:1024680001031A6045F66013C2F201031B68652B6D
:1024780005D145F66013C2F2010300221A6080BD3F
:1024880080B584B000AF78607B681B68262B5ED16E
:102498007B689B68184601F061FCF8607B68DB6824
:1024A800BB60FB68A3F5B873032B55D801A252F89B
:1024B80023F000BFCD240008EF24000811250008F0
:1024C80033250008BB68012B0BD0022B00D03DE060
:1024D80000F046F845F65813C2F2010300221A60CC
:1024E80000E000BF32E0BB68012B0BD0022B00D00C
:1024F8002CE000F087F945F65813C2F201030122D7
:102508001A6000E000BF21E0BB68012B0BD0022B52
:1025180000D01BE000F06AF845F65813C2F2010338
:1025280002221A6000E000BF10E0BB68012B0BD04C
:10253800022B00D009E000F0ABF945F65813C2F2BF
:10254800010303221A6000E000BF00BF04E07868BE
:1025580002F004FD00BF00E000BF1037BD4680BD9B
:1025680080B500AF45F6C853C2F201031B68184690
:1025780002F0ECF845F69053C2F201031B681846C6
:1025880001F01CFB45F69053C2F201031B68184684
:1025980001F01EFC07F0B6FD4FF47F40C0F2FF00CB
:1025A80006F098FD4AF20400C0F6010006F064FD4A
:1025B8000020102106F0FEFE4FF2D860C0F60000A1
:1025C80007F0EAFB4FF2F060C0F6000007F0E4FB0A
:1025D8004FF20870C0F6000007F0DEFB4FF21C70E7
:1025E800C0F6000007F0D8FB80BD00BF80B500AF83
:1025F80045F6C853C2F201031B68184602F0A6F854
:1026080045F69053C2F201031B68184601F061FBBE
:1026180045F69053C2F201031B68184601F0DBFB34
:1026280007F070FD4FF40040C0F2800006F052FD44
:102638009F200421A022712306F0E0FE03207621CA
:102648004FF49E72772306F0D9FE4FF47F40C0F214
:10265800FF0006F03FFD4AF20400C0F6010006F054
:102668000BFD3C20102106F0A5FE4FF23070C0F69D
:10267800000007F091FBD82006F094FE4FF2387066
:10268800C0F6000007F088FB4FF24470C0F6000067
:1026980007F082FB40F21803C2F20003D3ED007A80
:1026A800B0EE670A062006F0E3FB4FF25070C0F662
:1026B800000007F071FBA22006F074FE4FF2447090
:1026C800C0F6000007F068FB40F22403C2F20003E2
:1026D800D3ED007AB0EE670A062006F0C9FB4FF288
:1026E8005470C0F6000007F057FB4FF25870C0F660
:1026F800000007F051FB40F21C03C2F20003D3EDC7
:10270800007AB0EE670A062006F0B2FB4FF264705A
:10271800C0F6000007F040FBA22006F043FE4FF28F
:102728005870C0F6000007F037FB40F22803C2F2E9
:102738000003D3ED007AB0EE670A062006F098FB96
:102748004FF26870C0F6000007F026FB4FF26C707D
:10275800C0F6000007F020FB40F22003C2F200039D
:10276800D3ED007AB0EE670A062006F081FB4FF23F
:102778007470C0F6000007F00FFBA22006F012FEEE
:102788004FF26C70C0F6000007F006FB40F22C0315
:10279800C2F20003D3ED007AB0EE670A062006F015
:1027A80067FB4FF27870C0F6000007F0F5FAA22038
:1027B80006F0F8FD4FF27C70C0F6000007F0ECFA66
:1027C80040F23003C2F20003D3ED007AB0EE670A9C
:1027D800062006F04DFB4FF28870C0F6000007F0A7
:1027E800DBFA4FF29070C0F6000007F0D5FA4FF20E
:1027F800A470C0F6000007F0CFFA4FF4000006F00E
:1028080067FC80BD80B500AF45F6C853C2F201032E
:102818001B68184601F09AFF45F69053C2F201036F
:102828001B68184601F055FA45F69053C2F20103A9
:102838001B68184601F0CFFA07F064FC4FF47F409C
:10284800C0F2FF0006F046FC4AF20400C0F60100A0
:1028580006F012FC0020102106F0ACFD4FF2B87013
:10286800C0F6000007F098FA4FF2CC70C0F60000EE
:1028780007F092FA4FF2DC70C0F6000007F08CFA0D
:102888004FF2F070C0F6000007F086FA80BD00BF76
:1028980080B500AF45F6C853C2F201031B6818465D
:1028A80001F054FF45F69053C2F201031B68184625
:1028B80001F00FFA45F69053C2F201031B6818465F
:1028C80001F089FA07F01EFC49F28040C0F60100C9
:1028D8000C210C2207F06EF94FF47F40C0F2FF0084
:1028E80006F0F8FB4CF2E000C0F6010006F0C4FB6D
:1028F800AE200C2106F05EFD4FF60800C0F6000081
:1029080007F04AFAAE2006F04DFD4FF61400C0F667
:10291800000007F041FA4DF23400C0F6010006F05D
:10292800ABFBAE207B2106F045FD4FF61C00C0F640
:10293800000007F031FAAE20952106F03BFD4FF676
:102948003400C0F6000007F027FA06F03BFD034606
:10295800184607F021FA80BD80B500AF45F6581338
:10296800C2F201031B68032B74D801A252F823F0AA
:102978005D2A00085D2A0008892900085D2A0008E8
:102988004820302106F016FD40F21803C2F2000379
:10299800D3ED007AB0EE670A062006F069FA4820FF
:1029A800402106F007FD40F21C03C2F20003D3EDFC
:1029B800007AB0EE670A062006F05AFA382050214D
:1029C80006F0F8FC40F22003C2F20003D3ED007ACF
:1029D800B0EE670A062006F04BFAEA20302106F02E
:1029E800E9FC40F22403C2F20003D3ED007AB0EE12
:1029F800670A062006F03CFAEA20402106F0DAFCD5
:102A080040F22803C2F20003D3ED007AB0EE670A61
:102A1800062006F02DFADA20502106F0CBFC40F211
:102A28002C03C2F20003D3ED007AB0EE670A062049
:102A380006F01EFAFA20602106F0BCFC40F23003D2
:102A4800C2F20003D3ED007AB0EE670A062006F062
:102A58000FFA00E000BF80BD80B500AF4FF4006002
:102A6800C4F202004FF40051FEF71AFD1E20FFF7D2
:102A780063FA4FF40060C4F202004FF40051FEF70D
:102A880001FD0A20FFF758FA0720212100F024F859
:102A98000020012100F020F80720232100F01CF875
:102AA8001020002100F018F81E20FFF745FA072033
:102AB800332100F011F8112046F2180100F00CF84B
:102AC80002204FF4C06100F007F8012042F63F31C0
:102AD80000F002F880BD00BF80B483B000AF0246AA
:102AE8000B46FA80BB804FF6FE73C6F20103FA88E4
:102AF8001A804FF6FE73C6F20103BA885A800C3763
:102B0800BD465DF8047B704780B582B000AF0023F6
:102B18003B6000237B601C200121FEF7EFFD4FF492
:102B280000533B6001233B7102237B713B464FF40A
:102B38000060C4F202001946FEF7FCFB4CF6B373C2
:102B48003B6002233B7102237B710023BB7100238E
:102B5800FB713B464FF44060C4F202001946FEF791
:102B6800E9FB4FF44060C4F2020000210C22FEF79A
:102B7800A5FC4FF44060C4F2020001210C22FEF7CC
:102B88009DFC4FF44060C4F2020004210C22FEF7C1
:102B980095FC4FF44060C4F2020005210C22FEF7B8
:102BA8008DFC4FF44060C4F2020007210C22FEF7AE
:102BB80085FC4FF44060C4F2020008210C22FEF7A5
:102BC8007DFC4FF44060C4F2020009210C22FEF79C
:102BD80075FC4FF44060C4F202000A210C22FEF793
:102BE8006DFC4FF44060C4F202000B210C22FEF78A
:102BF80065FC4FF44060C4F202000E210C22FEF77F
:102C08005DFC4FF44060C4F202000F210C22FEF775
:102C180055FC4FF680733B6002233B7102237B71A6
:102C28000023BB710023FB713B464FF48050C4F274
:102C380002001946FEF77EFB4FF48050C4F20200F2
:102C480007210C22FEF73AFC4FF48050C4F2020030
:102C580008210C22FEF732FC4FF48050C4F2020027
:102C680009210C22FEF72AFC4FF48050C4F202001E
:102C78000A210C22FEF722FC4FF48050C4F2020015
:102C88000B210C22FEF71AFC4FF48050C4F202000C
:102C98000C210C22FEF712FC4FF48050C4F2020003
:102CA8000D210C22FEF70AFC4FF48050C4F20200FA
:102CB8000E210C22FEF702FC4FF48050C4F20200F1
:102CC8000F210C22FEF7FAFB0837BD4680BD00BF76
:102CD80080B596B000AF07F13C0300221A600433B8
:102CE80000221A60043300221A60043300221A609A
:102CF800043300221A60043300221A6004330022CD
:102D08001A6004333A463C23104600211A460BF059
:102D1800D3F901200121FEF719FD0023FB630A23E3
:102D28007B640023FB6400237B6500233B60002356
:102D38007B600023BB601023FB6000233B61002302
:102D4800BB610023FB6100233B624FF480537B622D
:102D58000023BB620023FB6200233B6307F13C03B3
:102D68007B6307F13C03BB6300237B613B4618464A
:102D7800FEF718FA00200121FEF7B2FA5837BD46CF
:102D880080BD00BF80B400AF45F6D853C2F201033E
:102D98001B681846BD465DF8047B704780B485B053
:102DA80000AF786045F6D853C2F201031A687B6811
:102DB8001344FB6000BF45F6D853C2F201031B68F9
:102DC800FA68D31A002BF6DC1437BD465DF8047B8D
:102DD800704700BF80B400AFBD465DF8047B704704
:102DE80080B58AB000AF04200121FEF7D7FC082087
:102DF8000121FEF783FC4FF400533B62022387F85E
:102E08002430032387F82530002387F82630012350
:102E180087F8273007F120034FF44060C4F202001E
:102E28001946FEF787FA4FF44060C4F202000D21FC
:102E38000222FEF743FB4FF480533B62012387F8DD
:102E48002430032387F82530002387F82630012310
:102E580087F8273007F120034FF44060C4F20200DE
:102E68001946FEF767FA45F6F823C2F20103012274
:102E78001A8040F65E03BB6145F6F823C2F20103EF
:102E88001B88BB820023BB830023FB8207F114034A
:102E98004FF40060C4F200001946FEF76BFD702382
:102EA8003B8001237B804FF47A73BB600023BB8196
:102EB8003B464FF40060C4F200001946FEF710FECE
:102EC8004FF40060C4F200000821FEF77FFF4FF4C2
:102ED8000060C4F200000121FEF7C2FD4FF400605B
:102EE800C4F200000121FEF7DBFD2837BD4680BD96
:102EF80080B400AFBD465DF8047B704780B400AF76
:102F0800FEE700BF80B400AFFEE700BF80B400AFAB
:102F1800FEE700BF80B400AFBD465DF8047B704794
:102F280080B400AFBD465DF8047B704780B400AF45
:102F3800BD465DF8047B704780B500AF45F6D853B1
:102F4800C2F201031B685A1C45F6D853C2F20103AA
:102F58001A60FFF709F840F23403C2F200031B7845
:102F6800013BDAB240F23403C2F200031A7040F2B5
:102F78003403C2F200031B78002B07D140F234035C
:102F8800C2F2000364221A7000F0D0FA80BD00BFBC
:102F980080B584B000AF0346FB710023FB7300BF0C
:102FA8004FF46050C4F200000221FEF7C7FC03464C
:102FB800002BF5D0FB799BB24FF46050C4F20000AF
:102FC8001946FEF7ADFC00BF4FF46050C4F2000094
:102FD8000121FEF7B3FC0346002BF5D04FF46050F7
:102FE800C4F20000FEF78EFC0346FB73FB7B184619
:102FF8001037BD4680BD00BF80B485B000AF786093
:103008000023FB6002E0FB680133FB60FA687B6821
:103018009A42F8D31437BD465DF8047B704700BF69
:1030280080B582B000AF0023FB804FF48060C4F20B
:1030380002004FF40061FEF733FA3220FFF7DCFF9D
:10304800D020FFF7A5FF3220FFF7D6FF0020FFF7BB
:103058009FFF0346FB80FB881B02FB800020FFF7D5
:1030680097FF03461A46FB881344FB804FF48060A1
:10307800C4F202004FF40061FEF704FAFB881B0952
:10308800FB80FB88C3F30B03FB80FB8818460837DB
:10309800BD4680BD80B582B000AF0023FB804FF4F1
:1030A8008060C4F202004FF40061FEF7F9F93220A3
:1030B800FFF7A2FF9020FFF76BFF3220FFF79CFF7E
:1030C8000020FFF765FF0346FB80FB881B02FB809F
:1030D8000020FFF75DFF03461A46FB881344FB8078
:1030E8004FF48060C4F202004FF40061FEF7CAF9A1
:1030F800FB881B09FB80FB88C3F30B03FB80FB8861
:1031080018460837BD4680BD80B500AFFFF7C2FF3F
:1031180003461A4645F6F053C2F201039A80FFF7B8
:103128007FFF03461A4645F6F053C2F20103DA80E0
:103138000123184680BD00BF80B582B000AF4FF4B0
:1031480080400121FEF752FB4FF480400121FEF739
:1031580025FB02200121FEF7D1FA4FF48060C4F26A
:1031680002000D210522FEF7A9F94FF48060C4F290
:1031780002000E210522FEF7A1F94FF48060C4F287
:1031880002000F210522FEF799F902233B71022361
:103198007B710023BB710223FB714FF400533B602A
:1031A8003B464FF48060C4F202001946FEF7C2F8AD
:1031B8004FF400433B603B464FF48060C4F202008A
:1031C8001946FEF7B7F84FF480433B603B464FF48F
:1031D8008060C4F202001946FEF7ACF84FF40063B1
:1031E8003B6001233B710023BB7102237B710123E8
:1031F800FB713B464FF48060C4F202001946FEF7AB
:1032080099F84FF48060C4F202004FF40061FEF7B1
:1032180039F945F6DC53C2F2010300221A8045F65B
:10322800DC53C2F201034FF482725A8045F6DC5334
:10323800C2F2010300229A8045F6DC53C2F2010370
:103248000222DA8045F6DC53C2F2010301221A8118
:1032580045F6DC53C2F201034FF400725A8145F679
:10326800DC53C2F2010330229A8145F6DC53C2F2E4
:1032780001030022DA8145F6DC53C2F2010307227A
:103288001A824FF46050C4F2000045F6DC51C2F2D5
:103298000101FEF7D3FA4FF46050C4F20000012197
:1032A800FEF710FB4FF480400121FEF79FFA002340
:1032B8003B7102237B710023FB714FF480533B6009
:1032C8003B464FF48060C4F202001946FEF732F81C
:1032D8000837BD4680BD00BF80B58CB000AF002365
:1032E80087F82D3000237B854FF48060C4F20200FC
:1032F8004FF48051FEF7ACF80346002B40F01181E3
:10330800FFF702FF25E0FFF7FFFE0346002B20D062
:1033180097F82D1045F6F053C2F201039A884B0036
:1033280007F13000034423F8302C97F82D1045F6A8
:10333800F053C2F20103DA8801F10A035B0007F1D6
:1033480030010B4423F8302C97F82D30013387F8DF
:103358002D3097F82D30092BD5D997F82D300A2B19
:1033680040F0D980002387F82E30002387F82F30CB
:103378003EE097F82F305B0007F13002134433F832
:10338800302C97F82F3001335B0007F130000344ED
:1033980033F8303C9A4226D997F82F3001335B0036
:1033A80007F130010B4433F8303C7B8597F82F3018
:1033B800591C97F82F305B0007F13002134433F89B
:1033C800302C4B0007F13000034423F8302C97F8D9
:1033D8002F305B0007F130010B447A8D23F8302C35
:1033E800012387F82E3097F82F30013387F82F30D4
:1033F80097F82F2097F82D30013B9A42B9DB97F8C0
:103408002E30002BAED1002387F82E30002387F80A
:103418002F3045E097F82F300A335B0007F1300270
:10342800134433F8302C97F82F3001330A335B00FC
:1034380007F13000034433F8303C9A422BD997F80F
:103448002F3001330A335B0007F130010B4433F8A6
:10345800303C7B8597F82F30591C97F82F300A336A
:103468005B0007F13002134433F8302C01F10A03F2
:103478005B0007F13000034423F8302C97F82F3015
:103488000A335B0007F130010B447A8D23F8302CA6
:10349800012387F82E3097F82F30013387F82F3023
:1034A80097F82F2097F82D30013B9A42B2DB97F816
:1034B8002E30002BA7D1FB881A463B891A447B89FA
:1034C8001A4445F25653C5F2555383FB0201D317EC
:1034D800CB1A9AB245F6F053C2F201039A807B8B5D
:1034E8001A46BB8B1A44FB8B1A4445F25653C5F255
:1034F800555383FB0201D317CB1A9AB245F6F05302
:10350800C2F20103DA8045F6FA23C2F2010301226E
:103518001A70012306E045F6FA23C2F201030022DD
:103528001A70002318463037BD4680BD80B500AFFD
:10353800FFF7D2FE45F6F053C2F201039B88A3F1D0
:1035480067024AF6AB23C2F6AA2383FB0201D3170C
:10355800CA1A45F64053C2F201031A6045F6F05301
:10356800C2F20103DB881846FCF75CFF02460B46F3
:10357800104619464FF000024FF00003C4F2210331
:10358800FDF7E0F802460B4610461946FDF7C2F96A
:10359800024645F64053C2F201035A604FF4806078
:1035A800C4F202004FF48051FDF752FF0346002B8E
:1035B80006D045F64053C2F2010300221A7205E014
:1035C80045F64053C2F2010301221A7245F64050F3
:1035D800C2F2010005F02AFE80BD00BFF0B5836885
:1035E8008B4A0446406852F82350052889B00ED00B
:1035F80006DC002840F00881206800F0F3FA03E1B7
:10360800062800F08A80122840F0FE80ABE0EE69C0
:10361800002E52D000962E68019668680290AB681A
:1036280004F1100203930FCA05F040F9002655F87B
:10363800260005F04FFDEF69A36960692169DA1B6F
:103648003018791805F03AFFEF69E0692169A26935
:10365800801B7918D21B05F031FFEB692769616976
:10366800E269F0195918D21A05F008FFEB69A06948
:103678006769E269801BD919D21A013605F0FEFE86
:10368800022ED4D1A86805F025FDEB692069E6690A
:103698006169C71859187A1EF31A023005F0AEFE90
:1036A800EB69A2696169E769D01A59180130023AD1
:1036B800FB1A05F0A3FEEE6910E055F8260004F1A8
:1036C800100705F007FD97E80F0030187118921BD6
:1036D8009B1B013607F016FC022EEED104F11002F6
:1036E8000FCAEF6800972F69CB1830180231921B68
:1036F8005B10019705F0F2FFE369616920695A18C8
:103708005110A2696C690094AC69301801940131B8
:10371800921B023B05F0E2FF76E0206807F004F90F
:103728000490206800F02EFA049D30B1A16851B9C8
:103738002A6F131C18BF012306E0686F002814BF06
:103748000223002300E0002308A850F8105D05EBD1
:103758008301CD6E07F0F6F800222846216813464B
:1037680007F090FD50E0206807F0DEF8866E0490C0
:10377800002E46D0A168B0F95C7021B103290CBFB6
:103788000224002400E0012400EB8403406D1C6C3B
:1037980005F072FC204605F09DFC06A805F02AFEFF
:1037A800A88BBDF81820BDF81C3081181C1ABDF86C
:1037B8001A00ADF81C4008AC821CADF81810ADF822
:1037C8001A20BDF81E1054F8102D8B1E06A8B2F949
:1037D8005E10B2F96020ADF81E3005F0A7FD204656
:1037E80007F0B0F8022005F03DFC304607F09CF8E1
:1037F80008AC06A944F80C0D3A4606F0C8FA20466B
:1038080000E004A807F09EF8002009B0F0BD00BF52
:10381800DC94010830B58BB000210446242201A8AD
:103828000AF04AFC204607F07FF80AAB426E43F8DC
:10383800280D9568684607F085F8002002900194E5
:10384800296801A888470BB030BD2DE9F0418AB03E
:10385800054607F069F803460AA89E6A40F8283D1D
:1038680068469C6D5F8E07F06DF8284600F046FAB2
:103878008046284600F056FA0021431E08F1FF3220
:1038880016F010060195069105910792089301D04C
:1038980003220AE007F4807081B209B1039605E0BB
:1038A800FB0701D5012200E00222039205230293BF
:1038B80001A8A0470620029001A8A0471221029162
:1038C80001A8A0470A22029201A8A0470AB0BDE8B1
:1038D800F08100000349044A044B1A604A6A4862AE
:1038E80010467047C8000020B8000020F8000020EB
:1038F80037B54FF48071044607F0F4FB204607F013
:1039080013F802AB856A43F8040D184607F01AF855
:10391800AB0703D52046012100F0D0F93EBDF7B52D
:1039280005460C464FF4807107F0F1FB284606F077
:10393800FBFF024602A8966A40F8042D178E07F08E
:1039480001F8022C02D1384605F0CAFCB20703D5AB
:103958002846214600F0B2F9FEBD73B50D4604466F
:1039680006F0E2FF02AB468E43F8040D184606F057
:10397800E9FFEA6862B1107A06F4807120B159B99A
:103988002046FFF7B5FF07E031B12046022101E0EC
:1039980020460321FFF7C3FF7CBD000037B544680C
:1039A80005462946204607F0CFFB00285DD02B6846
:1039B8000F2B16D004DC0B2B23D00E2B52D132E068
:1039C800282B48D0B3F5107F05D0112B4AD12748B2
:1039D800036813B949E026490B68204629469847E9
:1039E80043E0204606F0A0FF02A941F8040D456E09
:1039F8002D68084606F0A6FF002D36D02046A847B9
:103A080033E0204606F090FF02AC0190683007F0E2
:103A1800DDF954F8040D03216C3007F0DFF9204676
:103A280006F090FF1EE0EA680CCA0D2A02D0202A90
:103A380011D106E0002B0EDD2046FFF759FF204686
:103A480005E0002B204602DDFFF752FF0DE00221C2
:103A5800FFF765FF09E0EA6822B920464FF4807154
:103A680007F055FB284601F079FA3EBDFC5A0120C3
:103A7800C4000020F0B587B00C9C0D9F0094164C34
:103A880001970294109C4C34039400F0F9FE074609
:103A9800F8B106F049FF114D0F990590102207F073
:103AA8004BFB06AE0FCD56F804ED0EF134040FC4EF
:103AB8000FCD0FC495E80F0084E80F00084C236869
:103AC8003046CEF8643006F03DFF2068416838463D
:103AD8008847384607B0F0BDA5390008C80000205F
:103AE800F800002010B586B0089C0094099C019449
:103AF8000A9C02940B9C039400240494FFF7BAFFD9
:103B080006B010BD73B50C46054600B306F00CFFB1
:103B1800866E00906846019606F014FF214601A8BB
:103B280004F099FDD0F1010438BF002484B9019B49
:103B3800B34208D0284606F0F7FE01990090816646
:103B4800684606F0FFFE284600F0DEFD00E001248E
:103B580020467CBD37B50C46054658B106F0E4FE54
:103B6800024602A8546540F8042D06F0EBFE2846EC
:103B780000F0CAFD3EBD11B1102107F0B3BA102103
:103B880007F0C5BA08B506F0C5FE806A80F01001D6
:103B9800C1F3001008BD10B5044670B100F0B4FDC3
:103BA800204600F0EBF804463CB12046FFF7F3FF4F
:103BB800204606F0AFFE046AF6E710BD13B50446CA
:103BC80070B106F0B1FE826A0190930705D442F005
:103BD800020181622046FFF7DEFF01A806F0B2FE6F
:103BE8001CBD000013B50446B8B106F09DFE836AFB
:103BF8000190DB070ED4204607F0AEFC0198074B76
:103C0800826A42F0010181621868421C20461A60EB
:103C180000F07AFD01A806F095FE1CBD685E012043
:103C280030B587B00446002102A810220AF044FAF1
:103C3800002C3AD01F4B20481A6850F822008442C2
:103C480033D01E218DE81100029110B102A907F0AE
:103C580065FC0125204602A9059507F05FFC059D36
:103C680025BB144B14481A6840F82240204600F03F
:103C78006DF8044638B100A92022059102A90292E4
:103C880007F04CFCF2E7009C204600F020F868B1F1
:103C9800204600F05BF8044640B12021029100ABB9
:103CA80002A9059307F03AFCF2E70125284607B078
:103CB80030BD00BF405E0120305E01201FB52623C5
:103CC80003916946009307F0FDFE05B000BD00F0C2
:103CD8008BBB13B588B106F027FE826A02AC910748
:103CE80044F8040D06D522F002018162026A816956
:103CF80000F085FC204606F025FE1CBD13B508B96A
:103D080000F07CFE06F010FE02ABB0F90440B0F9FA
:103D1800002043F8040DA01A441C184606F012FEB1
:103D280020461CBD13B508B900F068FE06F0FCFD7E
:103D380002ABB0F90640B0F9022043F8040DA01A0E
:103D4800441C184606F0FEFD20461CBD08B5034677
:103D580010B106F0DFFD8369184608BD1FB504469B
:103D68000021102268460AF0A7F915232046694663
:103D7800009300F073FC039804B010BD08B5034627
:103D880010B106F0C7FDC369184608BD70B50D46E9
:103D980086B00646D0B106F0C7FD0190846A15B119
:103DA80024F0100201E044F0100294420BD0826229
:103DB80001A806F0C7FD2823304602A902930595FD
:103DC80007F0ACFB02E001A806F0BCFD06B070BD30
:103DD8000121FFF7DBBF0021FFF7D8BF0A4A0B48D4
:103DE8000B490023137003600B600A480A4A0B4909
:103DF800036013600B60436053600948094A0A492D
:103E0800036013600B607047285B0120005B012092
:103E1800545E0120305E01205C5E0120685E012056
:103E28001C5E0120485E0120585E012010B5044642
:103E380006F070FD836A044A044913F4803F08BF02
:103E480011462046884710BDA54C00086552000859
:103E58002DE9F341214C23680546986C06F064FD72
:103E68000090284606F060FD014601900098083051
:103E780005F08AF9064640B302AE2068019956F863
:103E8800082DD0F84C80076D154E01F10800083256
:103E980004F090FC684606F055FD02A8236850F827
:103EA800042D3560B2F90010B2F90220D9641A6500
:103EB80006F048FD2846FFF7B9FF23680020306068
:103EC800C3F84C801F65012006E0684606F03AFDFD
:103ED80001A806F037FD3046BDE8FC811C01002032
:103EE8001C5E012030B585B0054606F01DFD826ACE
:103EF8000190930704D401A806F024FD05B030BD55
:103F0800C469002CF7D0204606F00EFD816A0090A7
:103F180001F00302032A33D10199083105F034F97D
:103F280000282DD00198083003C804AB03E903002A
:103F380001A806F007FD684606F004FD2046FFF7D5
:103F480087FF70B1204606F0E5FC00902046FFF799
:103F5800C9FF204606F0DEFC0090284606F0DAFC91
:103F68000190284606F0E0FC0190204606F0DCFCB3
:103F780004A90090019C11E90300083484E80300B7
:103F880004A850F8102D6846146A06F0DBFCB8E760
:103F9800F0B5064685B00C461546002E4CD0304686
:103FA80006F0C2FC876A0190BA0701463DD502AE09
:103FB80025B130462A4604F0FDFB02E003C886E836
:103FC80003002046314605F0DFF870B317F0010F03
:103FD800019B1ED13DB1B3F90220B5F9020082421E
:103FE800A8BF104601E0B3F90200B4F90210B4F911
:103FF8000660884206DDBDF80A2011B28E4214DB45
:10400800531E04E0BDF80E3018B286420DDDE38081
:104018000BE0DE694EB13046214602AAFFF7B8FF31
:10402800304606F077FC066AF4E704A850F80C6DF1
:10403800366A06F087FCB0E705B0F0BD2DE9FF4110
:1040480005460E4617460024002D38D0284606F0AF
:104058006BFCD0F82880019018F0020F014627D099
:1040680002AD27B128463A4604F0A4FB02E003C893
:1040780085E803003046294605F086F8C0B118F0F7
:10408800010F05D1BDF80C00411C318001240FE05F
:10409800019BDD6965B12846314602AAFFF7CEFFCC
:1040A800002818BF0124284606F034FC056AF1E709
:1040B80004A850F80C2D156A06F044FCC4E7204605
:1040C80004B0BDE8F081F0B5044685B00D4616464B
:1040D800002C31D0204606F027FC876A0190014663
:1040E800B80722D502AC26B12046324604F062FB5E
:1040F80002E003C984E803002846214605F044F895
:1041080098B1F90704D4BDF80800411EA9800CE055
:10411800019BDC694CB12046294602AAFFF7D3FF70
:10412800204606F0F7FB046AF4E704A850F80C2DC3
:10413800146A06F007FCCBE705B0F0BD37B50446B6
:1041480006F0F2FB826A019040F601031340012B4E
:1041580005D001A806F0F6FB2046FFF767FE1348D6
:10416800016811B32046FFF7BDFE204606F0D2FBDA
:104178008569046ACDB194B1204606F0CBFB826A0A
:1041880002F00303032B02D12046FFF761FE20460D
:10419800FFF7A8FE204606F0BDFB046AEBE72846B9
:1041A80006F0B8FB046A8569E4E73EBD685E012055
:1041B8007FB5144D2B680646986C06F0B5FB00F1E8
:1041C800080301902A6893E80300083202AC84E8E7
:1041D800030092E8030083E8030001A806F0B2FB9D
:1041E8003068FFF7ABFF2868806C06F09DFB00F194
:1041F8000803019094E8030083E8030001A806F08F
:10420800A1FB7FBD1C010020F7B507460D462846D7
:1042180006F08AFB836A02AC13F00206014644F8F2
:10422800040D04D1204606F08DFB304619E03846CF
:1042380004F0F2FA0198866920466EB906F082FB0E
:1042480008490A6895420BD04B68B5EB030CDCF1C2
:10425800000050EB0C0004E006F074FB3546D6E78E
:104268000120FEBD205E01207FB504460D460029D1
:1042780047D006F059FB0023856101900362284668
:1042880006F052FB0199C56902908E6A2DB9C46186
:1042980001A806F057FB02A831E0284606F044FBC7
:1042A80006F00806039076B9806A02070BD5019AD2
:1042B800029B1562DC6101A806F044FB02A806F027
:1042C80041FB03A81BE002A806F03CFB03A806F08C
:1042D80039FB284606F01EFB0390039A156A0DB9B0
:1042E80014620BE0284606F015FB002EF4D1836A11
:1042F8001B07F1D5039901980C62056201A806F025
:1043080021FB7FBD70B5044606F004FB05468069B5
:10431800A8B106F0FFFAC369A342064605D11846BC
:1043280006F0F8FA006AF06170BD43B1184606F06D
:10433800F1FA036AA342F8D1296A016270BD70BD1F
:1043480003460846B3F90220B3F9001004F0EEBFA3
:10435800114B30B51C68626C85B00546BAB110685F
:10436800516802AB03C30D48006800B9A06C06F0A1
:10437800DBFA04AC02A944F80C0DFFF7E1FF204674
:1043880006F0E0FA02A8294604F046FA02A803F06B
:1043980035FC05B030BD00BF1C0100201C5E0120AB
:1043A8001FB50E4B186890F854200AB10C4811E05C
:1043B800806C06F0B9FA019003C802AC84E80300E7
:1043C80001A806F0BFFA0749096811B12046FFF7AE
:1043D8001BFF2046FFF7BCFF1FBD00BF1C010020CC
:1043E800145B01201C5E0120064B10B504461868BA
:1043F80028B1A04204D006F08DFA4069F8E710BD54
:10440800012010BD3C5E012013B5044600B306F040
:104418008BFA826A0190910717D5406A40B10D4B1B
:104428001968A14204D002F0B9FA019A002050623A
:104438002046FFF7A3FC04463CB12046FFF7E4FF03
:10444800204606F067FA046AF6E701A806F07AFA49
:104458001CBD00BF645E012038B5084B05461868CE
:1044680050B106F057FA04464069A842F8D106F060
:1044780051FA4069606138BD38BD00BF3C5E01201B
:10448800B0F90020B0F904309A4208DCB0F9021003
:10449800B0F906209142CCBF0020012070470020CF
:1044A80070470000F0B585B006460D46174606F081
:1044B80031FA846A0190A00734D52846FFF7E0FF57
:1044C80000282FD040F601032340012B2AD0304684
:1044D80006F02AFA02AC024601902946204604F06A
:1044E80069F92046FFF7CCFFC8B1019A966A44F2F1
:1044F8002001314002F1080529B128462946224603
:1045080004F024FF0BE094E8030085E80300064864
:1045180003883E4396625A1C028004F05DFC01A8A1
:1045280006F010FA05B0F0BD385E01207FB50E46E2
:104538001546044638B306F0F7F9836A01909B07DD
:10454800024603D401A806F0FDF91CE002A8314692
:1045580004F030F90028F5D001A806F0F3F9204658
:1045680002A92A46FFF79EFF2046FFF707FC0446EC
:104578004CB1204602A92A46FFF7D8FF204606F08C
:10458800C9F9046AF4E77FBD2DE9FF418046174663
:104598001D460C46002930D0084606F0C5F9866A43
:1045A8000190B107024625D502A8414604F002F958
:1045B80000B340F601033340012B07D1019A02A84A
:1045C8009169126A2B46FFF7DFFF04E0204602A933
:1045D8002A46FFF767FF0198C4695CB1BC4209D05D
:1045E800204602A92A46FFF7A1FF204606F092F9C5
:1045F800046AF2E701A806F0A5F9BDE8FF812023C7
:10460800FFF7C2BF13B5044606F08EF98169019021
:1046180041B1026AFFF7F3FF2046FFF773FE0198E6
:104628000022826101A806F08DF91CBD70B505460F
:1046380008460C46164606F06DF9836A13F4803F67
:104648002846214632460CBF20234FF48043BDE85C
:104658007040FFF799BF2022FFF724BF08B106F08A
:104668005DBF70471FB504AB019043F8101D694644
:1046780006F054FF05B000BD00230B8082884B80F4
:104688000388D21A8A80C2884088131ACB80704760
:1046980070B50E4686B00446002833D006F044F9BB
:1046A800856A0190AB072AD503C806AB03E9030066
:1046B800E80302D52046FFF7A7FE5EB130687168AF
:1046C80002AA03C2019802A9FFF73AFE04A802A9A8
:1046D80004F0A2F804A82146FFF796FD78B140F649
:1046E80001002840012806D1019B04A899691A6A8B
:1046F800FFF785FF03E0204604A9FFF7ACFF01A8F8
:1047080006F020F906B070BD0021FFF7C1BF000018
:1047180010B5044606F0FEF880690028F9D1054B6B
:104728001A68944205D05868844214BF4FF0FF308D
:10473800012010BD205E012008B5FFF7E9FF002821
:1047480003DBBDE8084004F0EDBC08BD38B50D4BEF
:10475800196804468D6C08B90B4A14688C642046A5
:10476800FFF7EAFF03F05CFE204606F0D3F8054B9E
:10477800B0F900101B68B0F90200D9641865284622
:1047880038BD00BF1C0100203C5E012073B5044603
:10479800002861D0FFF728FE00285DD02046FFF7EB
:1047A800B7FF0B2106462046FFF75CFF204607F0BF
:1047B80019F9204606F0B8F80190406A08B102F0ED
:1047C800EDF82648264B0568264A27480021196037
:1047D80052F82530A34208BF42F8251050F825109A
:1047E800A14202D1002240F82520204D2D682DB18C
:1047F8006868A042FAD100236B60F7E720460721DA
:10480800FFF75CFA019DE869FFF7C0FFEB69002B31
:10481800F9D12046FFF7F6FE2046FFF71DFE019866
:10482800836AD90703D5124A1168481E10609A0690
:1048380003D5104B1A88511E198001A806F082F87A
:104848000D4803885A1E0280204606F0A7F80B4937
:1048580051F82600FFF77AFF7CBD00BF405E0120BB
:10486800245B0120305E01205C5E0120545E012043
:10487800685E0120385E0120185E0120205E01205C
:104888002DE9F74F0C9E9B464E4B80468946924633
:104898001D6866BB4C48018861B34C4A4C4B146890
:1048A800607C53F820104C1C24D019B30E463046B7
:1048B80006F03AF8B0F90020B0F9024001909044AF
:1048C800A144BAF1000F05D1B0F904A0C2EB0A0364
:1048D80003F1010ABBF1000F05D1B0F906B0C4EB32
:1048E8000B0000F1010B01A806F02CF802E0701C87
:1048F800DDD100260F982C3006F0F0FA0446002887
:104908005CD00D9F2F43304D29884A1C2A8006F021
:104918000BF802AB054643F8080D2E49A0F80080B5
:10492800A0F80290D044D944AA6A08F1FF3809F1E6
:10493800FF393940A0F80480A0F806900E9842EAA2
:1049480001032861AB62684605F0FCFF224908684C
:1049580048B105F0DFFF0546204605F0DBFF6A6930
:1049680042616C6100E00C6020463146FFF77CFC38
:10497800B80602D52046FFF7E9FEF90703D5174820
:104988000368591C01607A0602D5204607F0BEFA72
:10499800BB070FD5204605F0C7FF836A02AA43F07C
:1049A800020142F8080D8162684605F0CBFF2046F7
:1049B800FFF7AAFE20460121FFF754FE2046BDE876
:1049C800FE8F00BF485E0120185E01201C010020F8
:1049D800205E01209F3F3F003C5E0120685E012071
:1049E8001FB500240094069C0194079C0294089C1F
:1049F8000394FFF745FF04B010BD0000014B186891
:104A0800806C70471C01002030B55D4B186890F829
:104A1800540085B0002800F0B1805A4B596901292B
:104A28002CDC03F108011A6903C9013204AC1A61CC
:104A380004E9030022B91A88ADF808205A8812E060
:104A480098895989B3F90430ADF80A10421C94B218
:104A580020B28342ADF8084007DA4A480488C3897F
:104A6800ADF808405A1CADF80A20464CBDF90A10AA
:104A7800B4F90630994205DD424B5969481E586120
:104A880000207BE03E4D2868806C05F04DFFBDF9A5
:104A98000820B4F9001001908A4218D12868E388E8
:104AA800A488826CADF80E30ADF80C4052B11046B7
:104AB80005F030FF04460022006A02A9FFF768FAF1
:104AC800A269F3E70199C86902A9FFF761FA2C4BBB
:104AD800BDF808201C68ADF80C20A26C02AC62B1CD
:104AE800104605F017FF214605460022006AFFF729
:104AF800A5FA0028EBD1AA69F0E701982146C06918
:104B0800FFF79CFA0028E2D11E4BBDF908109A88DD
:104B180010B28142ADF80C2008DD94E80300083398
:104B280083E8030001A805F00DFF96E7144D2C68F3
:104B3800A26C02AC52B1104605F0ECFE054600220C
:104B4800006A2146FFF7BFFAAA69F2E704AD2146D9
:104B580055F80C3DD869FFF7B6FA284605F0F2FE7D
:104B6800084B1A6944F620618A4285DC94E8030000
:104B7800083383E80300FFF713FC012005B030BDBC
:104B88001C0100200C5B012070B53B4B05461868E2
:104B980090F8542086B012B9FFF702FC68E0374C51
:104BA80061694B1C012B636162DC806C05F0BCFE03
:104BB800334900900B784FF0FF32226123B100F1A6
:104BC800080102AC03C905E0866A16F0020609D09E
:104BD80003C802AC84E8030065B102A8294603F0C3
:104BE8001BFE07E06069421E6846626105F0AAFE86
:104BF80030463EE0204B1868426CCAB1009C5168B0
:104C0800019410681F4C04AB03C3216831B101A89B
:104C180005F098FE206805F087FE0190019804A928
:104C2800FFF78EFB02A804A903F0F6FD01A800E037
:104C3800684605F087FE1348016802AC29B1204692
:104C4800FFF7E2FA08B90D4B07E00B4A1368204654
:104C5800996CFFF7D9FA094B18B959694A1E5A6174
:104C680007E094E8030083E80300FFF7CDFE00E0C7
:104C7800012006B070BD00BF1C0100200C5B0120A4
:104C8800455E01201C5E012008B504F001FA024BC4
:104C980018680022426408BD1C010020F0B589B0E4
:104CA800044605F041FE07690190866A083003C88A
:104CB80002AD85E8030001A805F044FE002F30D0BE
:104CC800B2072ED520462E2106F00AFF164B1A7879
:104CD800501C1870F3040AD50F2205940492079506
:104CE800FFF7D2FF204604A906F018FC11E0284679
:104CF800FFF74AFF68B10F2102AB049107930594AF
:104D0800FFF7C2FF204604A906F008FCFFF77CFE67
:104D1800F0E7054801784B1E03702F21204606F066
:104D2800DFFE09B0F0BD00BF455E01202DE9F0416E
:104D380088B006AE039005F0F7FD034600F10802BF
:104D4800059092E803009D6A9F69D3F8108044F2A9
:104D5800200486E803002C4005A805F0F3FD002C8C
:104D680035D0B8F1000F17D030460399FFF74CFA49
:104D780090B10398FFF7EAFC68070FD527B105F053
:104D8800010585F0010500E00125009506A81249F6
:104D980003AA002300F0BCFA002403E00398FFF7FD
:104DA800CDF90124039805F0BFFD816A059021F42F
:104DB800804323F02002890448BF42F00402826243
:104DC80005A805F0BFFD054801884B1E0380204655
:104DD80008B0BDE8F08100BFB9410008385E012085
:104DE8002DE9F0434B4B18689FB000B1804700266F
:104DF80049490A68E2B1494C2468BCB1204605F02B
:104E080093FD856A1EA915F4004F41F8740D456994
:104E180007D0084605F096FD2046FFF7B7FC2C465C
:104E2800EBE708462C4605F08DFDE6E73A4D2C6089
:104E38003B4B186800B180473A490A682AB93A4C8E
:104E4800256895F8543043B103E090470028F6D020
:104E580055E004F04DFA002851D1206890F85450DC
:104E68004DB132490D8835B1314A1568002D48D009
:104E78002B68984701252C48016891F8542012B9ED
:104E8800002D33D141E0294B18880028F8D0294F4C
:104E98003C680CB9214C246802A804F061F9224945
:104EA8000A68D2F83080576B24B900240DE0B9F1B4
:104EB800000F0AD12046FFF739FF8146204605F04A
:104EC80029FD4469002CF2D1EFE71A4B40461C60DB
:104ED80004F000F9384604F0FBF802A804F04AF997
:104EE800124801880029CBD00126C4E7104A10686F
:104EF80010B14368984708E003F054FC05E0012628
:104F080076E7012003F04EFCB4E730461FB0BDE859
:104F1800F08300BF2C5E0120005B01203C5E012075
:104F2800285E01209C5E01201C010020385E0120C3
:104F3800585E0120245B0120024B1868012280F88A
:104F4800542070471C010020034B1868002280F889
:104F5800542003F065BA00BF1C01002010B50446B8
:104F680040682368E168172B0FD006DC0E2B0ED0A3
:104F7800142B14D106F054FF11E0222B0CD0282B4F
:104F88000DD1BDE81040FFF7BFBBE06010BD214662
:104F9800BDE8104006F096BD6FF0704000E00020BC
:104FA800E06010BD03680E2B10B5044602D00F2B2D
:104FB80021D108E0C3685868012821D11868BDE8E4
:104FC800104004F08DB90F4A40681168884206D035
:104FD8005368984214BF4FF0FF30012000E00020D2
:104FE800094A52F820006FF07041884203D004F05B
:104FF8006FF805F087F82046BDE81040FFF7AEBF10
:1050080010BD00BF205E01204C5E01201FB52B4B58
:10501800187800284FD12A492A4A2B4C086010607A
:1050280023682A492A4A5864088010800446204682
:1050380004F050FFC8B1274843F6FF724FF0FF3322
:105048004FF0020E029000208DE8084001461346FA
:105058000390FFF715FC204B204A43F824006FF01B
:10506800704142F82410FFF74FFB0134022CDED1C7
:105078001B4806F0F3FE1B4806F0F0FE1A4806F03F
:10508800EDFE1A4806F0EAFE194806F0E7FE194850
:1050980006F0E4FE10480068FFF758FBFFF74CFFE6
:1050A800064B1548154A01211970026004B0BDE885
:1050B800104005F037B804B010BD00BF285B0120D0
:1050C8003C5E0120245B01201C010020385E012089
:1050D800185E0120AD4F0008205E01204C5E0120C3
:1050E8007C5F01206C5F01205C5F0120845F0120F0
:1050F800745F0120645F0120045B0120E53D000826
:105108002DE9F04387B0044605F00EFC034606A8D7
:10511800B3F90460B3F90070B3F90650B3F902802B
:1051280040F8043DD3F8249005F00CFCF01B461C15
:10513800C8EB05014D1C002E4BDD002D49DDB9F1F2
:10514800000F48D0484605F0EFFB06A9B0F9046007
:1051580041F8080DC588084605F0F4FBBE4202D1A7
:105168002DB2454530D048463946424600F084F8CD
:105178002AE0826A42F480338362084605F0E2FB43
:10518800384601F067FC8046484603F0A5FF3846DC
:1051980005FB06F72C4E2D4D00F0AEF831782C4E5D
:1051A800BA0003F02EFA20462F68346006F01AFE83
:1051B80028602046FFF772FD00202F60306003F062
:1051C8008BFF404601F046FC204605F0A3FB406AF1
:1051D80037E0002035E006F017FE844212D102F0D5
:1051E800CDFD814602F0D2FD4E4502DC854209DD47
:1051F80000E04E468542A8BF0546314620462A466D
:1052080006F020FC134A144B01924FF00109414665
:105218000293384632462B46CDF8009001F02CFB1D
:105228000746204605F080FB06A9476241F8040DB1
:10523800002F9ED1084605F085FB2046FFF72EFD7E
:10524800384607B0BDE8F083FC000020745E0120FA
:10525800645E01202C95010880DA010838B50546FE
:1052680005242846FFF74CFF10B9013CF9D138BD99
:10527800BDE8384007F052BB37B50D46144618B99B
:10528800114B1868006EE8B105F04EFBA4B2ADB240
:10529800C4808580009003F0C3F80099486970B114
:1052A80005F042FB009B01901A8959898280C180D0
:1052B80012B109B10580448001A805F043FB684696
:1052C80005F040FB3EBD00BF1C01002013B520B90E
:1052D800084B1868006E044648B105F025FB02A982
:1052E800B0F90A4041F8040D084605F02BFB2046AA
:1052F8001CBD00BF1C01002013B505F015FB0446BA
:1053080002A840F8044D05F01DFB04F118001CBD6F
:105318002DE9F04F1E46464B87B0044618680291A7
:10532800457C444993464A57012A284606DD02F03F
:1053380010FD8046284602F00FFD05E002F00FFD43
:105348008046284602F00EFD05462CB304A805A9A0
:1053580004F042F8049BB4F90090B4F90270B4F96F
:10536800040008EB0301059B4A1EED18B4F906106A
:105378006B1E29EAE97927EAE7778242D4BFC9EBAD
:105388000200C9EB00008B42D4BFC7EB0301C7EB97
:105398000101421C4D1C02E042462746A14606B9BF
:1053A8006E42002A3FDD002D3DDD109C48460094EA
:1053B8003946334601F014FB044620B95846029A90
:1053C8009047012030E0FFF781FF8246CAF10006CE
:1053D800204601F03FFBA84603960026D04503DA95
:1053E8002046414607F096FB3EB120464946F21951
:1053F800FFF742FF204607F0A3FB5846029A904762
:105408000D4B196809B100208847204601F09AFB26
:1054180056440398AE428044E0DB204601F0BEFAD1
:10542800002001F017FB002007B0BDE8F08F00BF97
:105438001C0100206C5E01202C5B01200248012920
:1054480018BF0020704700BF2C9501080248162994
:1054580018BF0020704700BF35C7000808290CBFD7
:10546800202000207047006808B5C3681B6A984769
:1054780008BD37B580680C4605F056FA034602A801
:1054880099881D89DA8840F8043D5B89218049198B
:1054980001396280D218A180511EE18005F052FACC
:1054A8003EBD00000E4B73B505461868006E0E46EB
:1054B80005F03AFA024602A8B2F90640D36840F865
:1054C800042D02F11801B2F90420361B03FB061162
:1054D800AD1A01EB850405F035FA20467CBD00BF06
:1054E8001C01002008B508461146FFF7DBFF0068DD
:1054F80008BD0000154B73B51868006E15460E46BA
:1055080005F012FA294600903046FFF7CBFF0099C4
:105518000A6813690446986880472168009B81EAF5
:1055280000022260586960B105F0FEF902AC826899
:1055380044F8040D136831462A469847204605F07A
:1055480001FA684605F0FEF97CBD00BF1C01002089
:1055580073B51C46104B1868006E0E46154605F0CC
:10556800E3F9294600903046FFF79CFF0099046054
:10557800486960B105F0D8F902AC836844F8040DB5
:105588001B6831462A469847204605F0DBF96846ED
:1055980005F0D8F97CBD00BF1C0100202DE9F743B8
:1055A8001E462B4B1868006E0F46144605F0BCF9D2
:1055B8000090406908B105F0B7F9019021463846D6
:1055C800FFF770FF224A009B05461068D3F80C804D
:1055D800027CC16BD207D1F800901FD51868026908
:1055E800916888478046019828B183683946D3F87E
:1055F80000C02246E04700992868CB68013480EA59
:105608000802B4422A601D44EDDD684605F09AF9A7
:105618000198D0B101A805F095F916E0019B63B196
:105628000198816822460B68013439469847B4428C
:10563800C5F800904544F3DDE7E7341B0134013C2D
:10564800C5F800904544FAD1DFE7BDE8FE8300BF06
:105658001C0100202DE9F04FDFF8B0801446D8F87F
:10566800002085B0106EDDF838901D460F4605F015
:105678005BF9214602903846FFF714FFD8F800304E
:1056880006460298DA6BD0F80CA04069D2F800B050
:10569800E91B4D1C38B305F047F90DF11008C4EBB0
:1056A800090148F8040D4B1C0093394622462B4645
:1056B80007F01BFA404605F045F914E01348026864
:1056C800117CC90712D5029A11680869836898473E
:1056D80032462B461168013B81EA000142F8041B5F
:1056E800F8D1564401344C45E8DD08E0002DF8DDDA
:1056F8002B463046013B40F804BBFBD1F1E702A83A
:1057080005F020F905B0BDE8F08F00BF1C010020AE
:1057180007B50092FFF79EFF0EBD00002DE9F04F80
:105728009A46984B8146186893B0006E08920C46CA
:10573800DDF87CB0219D002800F0728305F0F4F8B4
:105748001090406908B105F0EFF8119012A850F8D0
:10575800081DCA680C9205F0F5F8209B1198E4180A
:10576800059468B187490A68137C03F00201CAB23C
:1057780032B91C9B089A00932146534607F0B5F9A5
:1057880005980899FFF78EFE80461D9817285BDD5F
:105798004FEA8A07079700271C9911988F424FDA1A
:1057A80030B18368089A5C680599BA185346A047CF
:1057B800D9F81000C16829B140465946079AFBF745
:1057C80021F937E0444655465E46331D06931A468E
:1057D80029464FF0000E12F8010C08B90EF1010E1F
:1057E8000139A0B1BEF1000F15D04FEA8E03204653
:1057F80031461A460493CDF80CE0FBF703F90498F8
:10580800DDF80CC024183618CCEB050510E004327E
:105818000029E0D1E6E73068060EFF2E05D0F343F5
:105828002168DAB203F02EF92060069E0434013DA7
:10583800002DCAD11E990C9A8B4490440137ABE7CE
:10584800002840F0EA82EBE21D9C102C37D10BF1C6
:105858000207A8F1040800251C9CA542119C80F2AF
:105868009980089EAA1907922CB1A36805995E68C9
:1058780020465346B047CDF81880BB465646059A91
:10588800D9F8103002EB0A00811B5A683BF8020C69
:1058980004919047069941F8040F0691049924B1A0
:1058A800A068079A036820469847013E0BF1020B4F
:1058B800E5D11E9C0C9A01353F199044CCE71D99FF
:1058C80008296BD1089E08F10408089B1C9A119CB2
:1058D800F11A9142A8F104005CDA2A4B19680A7C93
:1058E8005DB312F0030304D0022B4DD1C146059FCE
:1058F8001CE01BF8034055F8242040F8232001330E
:105908005345F6D140E055F8201049F8041C2CB155
:10591800A2682046136839463246984705980137E9
:1059280000EB0A01B94209F104092DD0059AC2EB2E
:105938000B03D85D0028F1D0E5E712F0030304D08B
:10594800022B21D1C146059F15E059465246FBF767
:1059580059F819E049F8042C2CB1A36820461B68B3
:105968003946324698470598013700EB0A01B94293
:1059780009F1040908D00598C0EB0B01CA5D002A9B
:10598800F1D0E7E71C0100201E980C9983440136EA
:1059980088449AE7002C40F0408241E2B04A209BBC
:1059A800209C002D14BFA9469146089A5800A100D2
:1059B80008F104080D900E91CDF8288006920A9BF4
:1059C800069808991C1F1C9B421A9A4280F223824F
:1059D8001D99022900F0A180042900F047810129BE
:1059E80040F00F82DFF88082D8F80050286E04F06B
:1059F8009BFF9BF800309B4A2099D55C1090C1F121
:105A0800080745FA01F5D8F80010DDF844C00B7C0A
:105A180003F00302022A56461DD0032A59D0012A50
:105A280057D05A46BE4238BF3746F61B3B4621463A
:105A380005F001006D0859F82000013B41F8040BFE
:105A4800F6D104EB8704002E63D012F8017F854D50
:105A5800ED5D0827E6E7D9F80400DDF814800B901F
:105A6800CDF824B0BE4238BF3746F61BBCF1000F54
:105A780022D01DB904EB8704B84421E0E8070CD50F
:105A8800DCF80800069A0368CDF80CC06046414669
:105A980098470B99DDF80CC021600434013F08F1E8
:105AA80001080DD06D08E4E7E90744BF0B982060B2
:105AB8000434013F04D06D08002DF5D104EB8704B0
:105AC8003EB3099A674F12F8010F3D5C0992082707
