:020000040800F2
:1000000098080020A10D0008312A0008110E0008F0
:100010003D2A0008452A00084D2A0008000000007B
:10002000000000000000000000000000552A000849
:10003000612A0008000000006D2A0008792A0008E3
:10004000110E0008110E0008110E0008110E000814
:10005000110E0008110E0008110E0008110E000804
:10006000110E0008110E0008110E0008110E0008F4
:10007000110E0008110E0008110E0008110E0008E4
:10008000110E0008110E0008110E0008110E0008D4
:10009000110E0008110E0008110E0008110E0008C4
:1000A000110E0008110E0008110E0008110E0008B4
:1000B000110E000819230008110E0008110E000887
:1000C000110E0008110E0008110E0008110E000894
:1000D000110E0008110E0008110E0008110E000884
:1000E000110E0008110E0008110E0008110E000874
:1000F000110E0008110E0008110E0008110E000864
:10010000110E0008110E0008110E0008110E000853
:10011000110E0008110E0008110E0008110E000843
:10012000110E0008110E0008110E0008110E000833
:10013000110E0008110E0008110E0008110E000823
:10014000110E0008110E0008110E0008110E000813
:10015000110E0008110E0008110E0008110E000803
:10016000110E0008110E0008110E0008110E0008F3
:10017000110E0008110E0008110E0008110E0008E3
:08018000110E0008110E000829
:1001880081F0004102E000BF83F0004330B54FEA40
:1001980041044FEA430594EA050F08BF90EA020FAD
:1001A8001FBF54EA000C55EA020C7FEA645C7FEA40
:1001B800655C00F0E2804FEA5454D4EB5555B8BF63
:1001C8006D420CDD2C4480EA020281EA030382EAD4
:1001D800000083EA010180EA020281EA0303362D66
:1001E80088BF30BD11F0004F4FEA01314FF4801C39
:1001F8004CEA113102D0404261EB410113F0004F4B
:100208004FEA03334CEA133302D0524263EB430301
:1002180094EA050F00F0A780A4F10104D5F1200E9F
:100228000DDB02FA0EFC22FA05F2801841F10001FA
:1002380003FA0EF2801843FA05F359410EE0A5F1CE
:1002480020050EF1200E012A03FA0EFC28BF4CF0FF
:10025800020C43FA05F3C01851EBE37101F00045B5
:1002680007D54FF0000EDCF1000C7EEB00006EEBC2
:100278000101B1F5801F1BD3B1F5001F0CD349084C
:100288005FEA30004FEA3C0C04F101044FEA4452A3
:1002980012F5800F80F09A80BCF1004F08BF5FEA2A
:1002A800500C50F1000041EB045141EA050130BD0A
:1002B8005FEA4C0C404141EB010111F4801FA4F1AD
:1002C8000104E9D191F0000F04BF01460020B1FA02
:1002D80081F308BF2033A3F10B03B3F120020CDA3A
:1002E8000C3208DD02F1140CC2F10C0201FA0CF018
:1002F80021FA02F10CE002F11402D8BFC2F1200C7D
:1003080001FA02F120FA0CFCDCBF41EA0C01904032
:10031800E41AA2BF01EB0451294330BD6FEA04047B
:100328001F3C1CDA0C340EDC04F11404C4F1200266
:1003380020FA04F001FA02F340EA030021FA04F378
:1003480045EA030130BDC4F10C04C4F1200220FACF
:1003580002F001FA04F340EA0300294630BD21FA0D
:1003680004F0294630BD94F0000F83F4801306BFD3
:1003780081F480110134013D4EE77FEA645C18BFC7
:100388007FEA655C29D094EA050F08BF90EA020F5E
:1003980005D054EA000C04BF1946104630BD91EA56
:1003A800030F1EBF0021002030BD5FEA545C05D159
:1003B8004000494128BF41F0004130BD14F5800498
:1003C8003CBF01F5801130BD01F0004545F0FE410C
:1003D80041F470014FF0000030BD7FEA645C1ABF41
:1003E800194610467FEA655C1CBF0B46024650EA78
:1003F800013406BF52EA033591EA030F41F40021A4
:1004080030BD00BF90F0000F04BF0021704730B529
:100418004FF4806404F132044FF000054FF00001FE
:1004280050E700BF90F0000F04BF0021704730B5BF
:100438004FF4806404F1320410F0004548BF404294
:100448004FF000013EE700BF42004FEAE2014FEAE9
:1004580031014FEA02701FBF12F07F4393F07F4FC4
:1004680081F06051704792F0000F14BF93F07F4FF6
:10047800704730B54FF4607401F0004521F0004139
:1004880020E700BF50EA010208BF704730B54FF0BF
:1004980000050AE050EA010208BF704730B511F0C4
:1004A800004502D5404261EB41014FF4806404F1FC
:1004B80032045FEA915C3FF4DCAE4FF003025FEA7E
:1004C800DC0C18BF03325FEADC0C18BF033202EB06
:1004D800DC02C2F1200300FA03FC20FA02F001FA60
:1004E80003FE40EA0E0021FA02F11444C1E600BFFF
:1004F80070B54FF0FF0C4CF4E06C1CEA11541DBFB2
:100508001CEA135594EA0C0F95EA0C0F00F0DEF87C
:100518002C4481EA030621EA4C5123EA4C5350EA61
:10052800013518BF52EA033541F4801143F48013B2
:1005380038D0A0FB02CE4FF00005E1FB02E506F043
:100548000042E0FB03E54FF00006E1FB03569CF098
:10055800000F18BF4EF0010EA4F1FF04B6F5007F9E
:1005680064F5407404D25FEA4E0E6D4146EB060610
:1005780042EAC62141EA55514FEAC52040EA5E5099
:100588004FEACE2EB4F1FD0C88BFBCF5E06F1ED843
:10059800BEF1004F08BF5FEA500E50F1000041EB7A
:1005A800045170BD06F0004646EA010140EA020027
:1005B80081EA0301B4EB5C04C2BFD4EB0C0541EA49
:1005C800045170BD41F480114FF0000E013C00F35E
:1005D800AB8014F1360FDEBF002001F0004170BD82
:1005E800C4F10004203C35DA0C341BDC04F114049B
:1005F800C4F1200500FA05F320FA04F001FA05F227
:1006080040EA020001F0004221F0004110EBD370F3
:1006180021FA04F642EB06015EEA430E08BF20EA1F
:10062800D37070BDC4F10C04C4F1200500FA04F3C2
:1006380020FA05F001FA04F240EA020001F0004154
:1006480010EBD37041F100015EEA430E08BF20EAC7
:10065800D37070BDC4F1200500FA05F24EEA020E0F
:1006680020FA04F301FA05F243EA020321FA04F03E
:1006780001F0004121FA04F220EA020000EBD370F5
:100688005EEA430E08BF20EAD37070BD94F0000FF5
:100698000FD101F00046400041EB010111F4801F29
:1006A80008BF013CF7D041EA060195F0000F18BFDA
:1006B800704703F00046520043EB030313F4801F16
:1006C80008BF013DF7D043EA0603704794EA0C0FD0
:1006D8000CEA135518BF95EA0C0F0CD050EA4106E6
:1006E80018BF52EA4306D1D181EA030101F0004163
:1006F8004FF0000070BD50EA410606BF104619468B
:1007080052EA430619D094EA0C0F02D150EA013696
:1007180013D195EA0C0F05D152EA03361CBF1046D7
:1007280019460AD181EA030101F0004141F0FE4176
:1007380041F470014FF0000070BD41F0FE4141F4FA
:10074800780170BD70B54FF0FF0C4CF4E06C1CEAFA
:1007580011541DBF1CEA135594EA0C0F95EA0C0FAF
:1007680000F0A7F8A4EB050481EA030E52EA03356A
:100778004FEA013100F088804FEA03334FF080558B
:1007880045EA131343EA12634FEA022245EA1115B8
:1007980045EA10654FEA00260EF000419D4208BF69
:1007A800964244F1FD0404F5407402D25B084FEA16
:1007B8003202B61A65EB03055B084FEA32024FF4C2
:1007C80080104FF4002CB6EB020E75EB030E22BF1F
:1007D800B61A754640EA0C005B084FEA3202B6EBDF
:1007E800020E75EB030E22BFB61A754640EA5C008E
:1007F8005B084FEA3202B6EB020E75EB030E22BF1E
:10080800B61A754640EA9C005B084FEA3202B6EB1E
:10081800020E75EB030E22BFB61A754640EADC00DD
:1008280055EA060E18D04FEA051545EA16754FEA3F
:1008380006164FEAC30343EA52734FEAC2025FEA5D
:100848001C1CC0D111F4801F0BD141EA00014FF0EC
:1008580000004FF0004CB6E711F4801F04BF0143BD
:100868000020B4F1FD0C88BFBCF5E06F3FF6AFAED9
:10087800B5EB030C04BFB6EB020C5FEA500C50F169
:10088800000041EB045170BD0EF0004E4EEA1131EC
:1008980014EB5C04C2BFD4EB0C0541EA045170BDF3
:1008A80041F480114FF0000E013C90E645EA060E37
:1008B8008DE60CEA135594EA0C0F08BF95EA0C0F65
:1008C8003FF43BAF94EA0C0F0AD150EA01347FF4AD
:1008D80034AF95EA0C0F7FF425AF104619462CE784
:1008E80095EA0C0F06D152EA03353FF4FDAE1046E7
:1008F800194622E750EA410618BF52EA43067FF438
:10090800C5AE50EA41047FF40DAF52EA43057FF4C7
:10091800EBAE12E74FEA410212F5001215D211D5DB
:100928006FF47873B3EB625212D94FEAC12343F0E4
:10093800004343EA505311F0004F23FA02F018BF66
:10094800404270474FF00000704750EA013005D12F
:1009580011F0004008BF6FF0004070474FF00000F2
:10096800704700BF844641EA000313F003036DD1CA
:10097800403A41D351F8043B40F8043B51F8043B5A
:1009880040F8043B51F8043B40F8043B51F8043B61
:1009980040F8043B51F8043B40F8043B51F8043B51
:1009A80040F8043B51F8043B40F8043B51F8043B41
:1009B80040F8043B51F8043B40F8043B51F8043B31
:1009C80040F8043B51F8043B40F8043B51F8043B21
:1009D80040F8043B51F8043B40F8043B51F8043B11
:1009E80040F8043B51F8043B40F8043B51F8043B01
:1009F80040F8043B403ABDD2303211D351F8043BA1
:100A080040F8043B51F8043B40F8043B51F8043BE0
:100A180040F8043B51F8043B40F8043B103AEDD24F
:100A28000C3205D351F8043B40F8043B043AF9D2A0
:100A3800043208D0D2071CBF11F8013B00F8013B73
:100A480001D30B8803806046704700BF082A13D380
:100A58008B078DD010F003038AD0C3F10403D21A98
:100A6800DB071CBF11F8013B00F8013B80D331F8CC
:100A7800023B20F8023B7BE7043AD9D3013A11F84C
:100A8800013B00F8013BF9D20B7803704B784370B7
:100A98008B788370604670474FF0FF3C06E000BFDC
:100AA8004FF0010C02E000BF4FF0010C4DF804CDEF
:100AB8004FEA410C7FEA6C5C4FEA430C18BF7FEAAF
:100AC8006C5C1BD001B050EA410C0CBF52EA430CDD
:100AD80091EA030F02BF90EA020F0020704710F15D
:100AE800000F91EA030F58BF994208BF90422CBFEC
:100AF800D8176FEAE37040F0010070474FEA410CE5
:100B08007FEA6C5C02D150EA013C07D14FEA430C02
:100B18007FEA6C5CD6D152EA033CD3D05DF8040B73
:100B2800704700BF8446104662468C4619466346A5
:100B380000E000BF01B5FFF7B7FF002848BF10F17C
:100B4800000F01BD4DF808EDFFF7F4FF0CBF0120C1
:100B580000205DF808FB00BF4DF808EDFFF7EAFF3D
:100B680034BF012000205DF808FB00BF4DF808EDF8
:100B7800FFF7E0FF94BF012000205DF808FB00BFED
:100B88004DF808EDFFF7CEFF94BF012000205DF877
:100B980008FB00BF4DF808EDFFF7C4FF34BF012084
:100BA80000205DF808FB00BF80B500AF40F6980054
:100BB800C2F200004FF4A83108F006FC4EF6786047
:100BC800C0F6000007F090FF80BD00BF80B483B07E
:100BD80000AF0346FB804FF6FE73C6F20103FA88A6
:100BE8001A800C37BD465DF8047B704780B483B02B
:100BF80000AF0346FB804FF6FE73C6F20103FA8886
:100C08005A800C37BD465DF8047B704780B483B0CA
:100C180000AF7860396007E00023C6F202037A6803
:100C2800911C796012881A803B685A1E3A60002B22
:100C3800F2D10C37BD465DF8047B704780B483B0B1
:100C480000AF7860396007E07A68931C7B60002306
:100C5800C6F202031B8813803B685A1E3A60002BB9
:100C6800F2D10C37BD465DF8047B704780B5A0B063
:100C780000AF07F1680300221A60043300221A60EB
:100C8800043300221A60043300221A60043300225D
:100C98001A6004333A466823104600211A460BF0BE
:100CA800A9FF4FF6EC50C0F600004FF65C71C0F695
:100CB80000010022002307F0ABFEF8670020F021B6
:100CC8004FF4A07206F029FB0020F0214FF4A07227
:100CD80006F00CFB06233B670223BB6707F168039A
:100CE800F86F194606F0A1FA40F6D533C0F60003AE
:100CF8003B6240F6F533C0F600037B6240F61543CD
:100D0800C0F60003FB6240F64543C0F60003FB63F0
:100D18003B46F86F194646F2A952C0F6000246F65D
:100D28003543C0F6000306F09EFA06F09FFB034623
:100D3800002B0CD000204FF4A071F02206F0EDFA41
:100D480000204FF4A071F02206F0D0FA0BE000204A
:100D5800F0214FF4A07206F0E0FA0020F0214FF4E1
:100D6800A07206F0C3FA8037BD4680BD80B487B054
:100D780000AFF860B9607A60BB68012B01D100232D
:100D880003E04FF0FF337B617B6918461C37BD4693
:100D98005DF8047B704700BF80B582B000AF40F6B5
:100DA8003843C0F601037B6040F20003C2F200033F
:100DB8003B6007E03B681A1D3A607A68111D79604C
:100DC80012681A603A6840F29803C2F200039A4225
:100DD800F0D30A480A494FF000028842B8BF40F8E9
:100DE800042BFADBDFF81C00016841F47001016094
:100DF80001F0D8F80837BD4680BD000098080020EB
:100E0800E85E012088ED00E080B400AFFEE700BF97
:100E180080B500AF4FF46D43CEF200034FF46D423E
:100E2800CEF20002D2F8882042F47002C3F888207B
:100E38004FF46053C4F202034FF46052C4F202024A
:100E4800126842F001021A604FF46053C4F20203C0
:100E580000229A604FF46053C4F202034FF46052C8
:100E6800C4F20202126822F0847222F480321A60FC
:100E78004FF46053C4F2020343F21002C2F200427C
:100E88005A604FF46053C4F202034FF46052C4F244
:100E98000202126822F480221A604FF46053C4F2EE
:100EA80002030022DA6000F009F84FF46D43CEF235
:100EB80000034FF000629A6080BD00BF80B483B029
:100EC80000AF00237B6000233B604FF46053C4F203
:100ED80002034FF46052C4F20202126842F48032F4
:100EE8001A604FF46053C4F202031B6803F4003322
:100EF8003B607B6801337B603B68002B03D17B68D8
:100F0800B3F5A06FEDD14FF46053C4F202031B6830
:100F180003F40033002B02D001233B6001E00023DF
:100F28003B603B68012B40F082804FF46053C4F271
:100F380002034FF46052C4F20202126C42F0805273
:100F48001A644FF4E043C4F200034FF4E042C4F2E1
:100F58000002126842F480421A604FF46053C4F2EF
:100F680002034FF46052C4F2020292689A604FF48E
:100F78006053C4F202034FF46052C4F20202926852
:100F880042F400429A604FF46053C4F202034FF4F3
:100F98006052C4F20202926842F4A0529A604FF47E
:100FA8006053C4F2020345F20842C0F240725A602C
:100FB8004FF46053C4F202034FF46052C4F20202C9
:100FC800126842F080721A6000BF4FF46053C4F296
:100FD80002031B6803F00073002BF6D04FF4705324
:100FE800C4F2020340F205621A604FF46053C4F27F
:100FF80002034FF46052C4F20202926822F0030224
:101008009A604FF46053C4F202034FF46052C4F282
:101018000202926842F002029A6000BF4FF46053E5
:10102800C4F202039B6803F00C03082BF6D10C37BB
:10103800BD465DF8047B704780B485B000AF78602A
:101048000023FB730023BB730F237B737B68DB7860
:10105800002B40D04FF46D43CEF20003DB68DB4336
:1010680003F4E0631B0AFB73FB7BC3F10403BB734C
:101078007A7BFB7B42FA03F37B737B685B781A46C7
:10108800BB7B02FA03F3FB737B689A787B7B134084
:10109800DAB2FB7B1343FB73FB7B1B01FB734FF43F
:1010A8006143CEF200037A6812781344FA7B83F81E
:1010B80000234FF46143CEF200037A681278520994
:1010C800D2B27968097801F01F01012000FA01F114
:1010D80043F8221011E04FF46143CEF200037A681E
:1010E80012785209D2B27968097801F01F010120FB
:1010F80000FA01F1203243F822101437BD465DF89A
:10110800047B704780B483B000AF78604FF0204311
:101118007A681268796848687968896808437968DC
:10112800C9680843796809690843796849690843BF
:101138007968896908437968C96908437968096AD7
:1011480008437968496A08437968896A084379686D
:10115800C96A08437968096B014343F822107B6820
:101168009B68082B0DD14FF020437A6812684FF026
:1011780020417868006851F8201041F0400143F898
:1011880022104FF020437A68126801327968496B5F
:1011980008687968496B4968090108437968496BA7
:1011A8008968090208437968496BC96809040843D2
:1011B8007968496B0969090508437968496B496980
:1011C800090608437968496B8969014343F8221085
:1011D8007B68DB6AB3F5804F23D14FF48273CAF280
:1011E80000037A6812687968896B08687968896B7E
:1011F8004968090108437968896B896809020843C5
:101208007968896B0969090508437968896B4969AF
:10121800090608437968896B8969014343F82210F4
:1012280009E04FF48273CAF200037A6812686FF01B
:10123800704143F822100C37BD465DF8047B7047B7
:1012480080B483B000AF78600B46FB70FB78002B4E
:101258000CD04FF020434FF02042796852F82120FB
:1012680042F001017A6843F822100EE04FF0204264
:101278004FF02043796853F821104FF6FE73C0F2FF
:101288000F030B40796842F821300C37BD465DF8F2
:10129800047B704780B487B000AF78603960002362
:1012A8007B6100233B610023FB6000237B6176E0C8
:1012B8007B69012202FA03F33B613B681A683B69C8
:1012C8001340FB60FA683B699A4265D17B681A68EB
:1012D8007B695B00032101FA03F3DB431A407B6857
:1012E8001A607B681A683B681B7919467B695B0042
:1012F80001FA03F31A437B681A603B681B79012BD8
:1013080003D03B681B79022B2ED17B689A687B69D6
:101318005B00032101FA03F3DB431A407B689A6000
:101328007B689A683B685B7919467B695B0001FAC0
:1013380003F31A437B689A607B685A687B699BB29F
:10134800012101FA03F3DB431A407B685A607B688A
:101358005A683B689B7919467B699BB201FA03F38B
:101368009BB21A437B685A607B68DA687B699BB2D8
:101378005B00032101FA03F3DB431A407B68DA6060
:101388007B68DA683B68DB7919467B695B0001FAA0
:1013980003F31A437B68DA607B6901337B617B69FD
:1013A8000F2B85D91C37BD465DF8047B704700BFFD
:1013B80080B485B000AF78600B467B800023FB7358
:1013C8007B681A697B881340002B02D00123FB73CA
:1013D80001E00023FB73FB7B18461437BD465DF81C
:1013E800047B704780B483B000AF78600B467B8085
:1013F8007B687A881A830C37BD465DF8047B704792
:1014080080B483B000AF78600B467B807B687A88B5
:101418005A830C37BD465DF8047B704780B485B0AD
:1014280000AF786013460A467A807B700023FB6021
:101438000023BB607A787B8803F007039B0002FADD
:1014480003F3FB607B88DB089BB21A467B88DB08CA
:101458009BB219467B68083153F821107B8803F04A
:1014680007039B000F2000FA03F3DB4319407B6856
:10147800083243F822107B88DB089BB21A467B6847
:10148800083253F82220FB681343BB607B88DB08D3
:101498009BB21A467B680832B96843F822101437A1
:1014A800BD465DF8047B70472DE9B04388B000AFB6
:1014B800F86087ED020A79600023FB610023BB61B5
:1014C8004FF000037B619FED307AD7ED027AC7EECB
:1014D800277AC7ED057A0023FB613EE07868FEF7BE
:1014E800A1FF80468946FB6907EE903AB8EEE77A95
:1014F800D7ED057A67EE277A17EE900AFEF7A4FF74
:1015080002460B46104619461DA3D3E90023FEF7F1
:10151800EFFF02460B4643EC172BB0EE470AF0EEFE
:10152800670A0BF011FC53EC102B40464946FEF7B6
:10153800DFFF02460B46144623F0004520462946A5
:10154800FFF7E8F90346BB61FB699B00FA6813449F
:10155800BA691A60FB690133FB61FB6907EE903ACF
:10156800B8EEE77AD7ED027AB4EEE77AF1EE10FA40
:10157800B4D918462037BD46BDE8B083AFF3008024
:1015880012E7FAA146DF913F0000B443AFF30080B1
:1015980080B586B000AF78600220012100F0AEF877
:1015A8000023BB810023FB817B683B610023BB8256
:1015B8000023BB7507F10C034FF48060C4F20000F0
:1015C800194600F087F94FF48060C4F20000012149
:1015D80000F016FA18461837BD4680BD80B588B0A9
:1015E80000AF78607023BB810123FB8102233B831A
:1015F8007B687B6107F10C034FF48060C4F2000044
:10160800194600F02BFB4FF48060C4F2000008215B
:1016180000F0C6FB2037BD4680BD00BF80B588B04E
:1016280000AF78607023BB810123FB8102233B83D9
:101638007B687B6107F10C034FF48060C4F2000003
:10164800194600F085FA4FF48060C4F200000821C2
:1016580000F08AFB2037BD4680BD00BF80B483B050
:1016680000AF78600B46FB70FB78002B0CD04FF472
:101678006053C4F202034FF46052C4F20202116BC9
:101688007A680A431A630CE04FF46053C4F2020309
:101698004FF46052C4F20202116B7A68D2430A40D6
:1016A8001A630C37BD465DF8047B704780B483B07D
:1016B80000AF78600B46FB70FB78002B0CD04FF422
:1016C8006053C4F202034FF46052C4F20202916BF9
:1016D8007A680A439A630CE04FF46053C4F2020339
:1016E8004FF46052C4F20202916B7A68D2430A4006
:1016F8009A630C37BD465DF8047B704780B483B0AD
:1017080000AF78600B46FB70FB78002B0CD04FF4D1
:101718006053C4F202034FF46052C4F20202116C27
:101728007A680A431A640CE04FF46053C4F2020367
:101738004FF46052C4F20202116C7A68D2430A4034
:101748001A640C37BD465DF8047B704780B483B0DB
:1017580000AF78600B46FB70FB78002B0CD04FF481
:101768006053C4F202034FF46052C4F20202516C97
:101778007A680A435A640CE04FF46053C4F20203D7
:101788004FF46052C4F20202516C7A68D2430A40A4
:101798005A640C37BD465DF8047B704780B485B049
:1017A80000AF786039600023FB817B681B88FB8170
:1017B800FB8903F44153FB813B681A883B685B88CB
:1017C80013439AB23B689B8813439AB23B68DB8801
:1017D80013439AB23B681B8913439AB23B685B89EF
:1017E80013439AB23B689B8913439AB23B68DB89DF
:1017F80013439AB2FB891343FB817B68FA891A80E9
:101808007B689B8B9BB223F400639AB27B689A83B4
:101818003B681A8A7B681A821437BD465DF8047BD8
:10182800704700BF80B483B000AF78600B46FB7090
:10183800FB78002B08D07B681B889BB243F04003E1
:101848009AB27B681A8007E07B681B889BB223F0FA
:1018580040039AB27B681A800C37BD465DF8047B5A
:10186800704700BF80B483B000AF78607B689B8905
:101878009BB218460C37BD465DF8047B704700BF25
:1018880080B483B000AF78600B467B807B687A8831
:101898009A810C37BD465DF8047B704780B485B0EB
:1018A80000AF78600B467B800023FB737B681B8945
:1018B8009AB27B8813409BB2002B02D00123FB73A2
:1018C80001E00023FB73FB7B18461437BD465DF827
:1018D800047B704780B485B000AF7860396000231E
:1018E800FB817B681B88FB817A680023C4F20103B3
:1018F8009A421FD07A684FF48063C4F201039A4277
:1019080018D07B68B3F1804F14D07A684FF48063A5
:10191800C4F200039A420DD07A684FF40063C4F20F
:1019280000039A4206D07A684FF44063C4F2000379
:101938009A4208D1FB8923F07003FB813B685A88DF
:10194800FB891343FB817A684FF48053C4F2000388
:101958009A420FD07A684FF4A053C4F200039A4217
:1019680008D0FB8923F44073FB813B681A89FB8903
:101978001343FB817B68FA891A803B685A687B6845
:10198800DA623B681A887B681A857A680023C4F291
:1019980001039A4206D07A684FF48063C4F20103C7
:1019A8009A4204D13B689B7A1A467B681A867B6800
:1019B80001229A821437BD465DF8047B704700BF48
:1019C80080B483B000AF78600B46FB70FB78002BC7
:1019D80008D07B681B889BB243F080039AB27B686F
:1019E8001A8007E07B681B889BB223F080039AB2B9
:1019F8007B681A800C37BD465DF8047B704700BFD2
:101A080080B483B000AF78600B46FB70FB78002B86
:101A180008D07B681B889BB243F001039AB27B68AD
:101A28001A8007E07B681B889BB223F001039AB2F7
:101A38007B681A800C37BD465DF8047B704700BF91
:101A480080B485B000AF7860396000237B810023C3
:101A5800FB810023BB817B681B8C9BB223F01003A6
:101A68009AB27B681A847B681B8CFB817B689B8895
:101A7800BB817B681B8B7B817B8923F4E0437B8163
:101A88007B8923F440737B813B681B881B029AB2D5
:101A98007B8913437B81FB8923F02003FB813B680F
:101AA8009B891B019AB2FB891343FB813B685B88C6
:101AB8001B019AB2FB891343FB817A680023C4F2A5
:101AC80001039A4206D07A684FF48063C4F2010396
:101AD8009A422BD1FB8923F08003FB813B68DB8989
:101AE8001B019AB2FB891343FB81FB8923F0400356
:101AF800FB813B689B881B019AB2FB891343FB81DE
:101B0800BB8923F48063BB81BB8923F40063BB8159
:101B18003B681B8A9B009AB2BB891343BB813B6815
:101B28005B8A9B009AB2BB891343BB817B68BA89E5
:101B38009A807B687A891A833B689A687B689A637B
:101B48007B68FA891A841437BD465DF8047B7047B0
:101B580080B485B000AF7860396000237B810023B2
:101B6800FB810023BB817B681B8C9BB223F48073B1
:101B78009AB27B681A847B681B8CFB817B689B8884
:101B8800BB817B689B8B7B817B8923F070037B8186
:101B98007B8923F003037B813B681A887B89134385
:101BA8007B81FB8923F40073FB813B689B891B02C3
:101BB8009AB2FB891343FB813B685B881B029AB28C
:101BC800FB891343FB817A680023C4F201039A421C
:101BD80006D07A684FF48063C4F201039A422BD18D
:101BE800FB8923F40063FB813B68DB891B029AB203
:101BF800FB891343FB81FB8923F48063FB813B68EA
:101C08009B881B029AB2FB891343FB81BB8923F48F
:101C18008053BB81BB8923F40053BB813B681B8A7B
:101C28001B019AB2BB891343BB813B685B8A1B01CA
:101C38009AB2BB891343BB817B68BA899A807B6857
:101C48007A899A833B689A687B68DA637B68FA8941
:101C58001A841437BD465DF8047B704780B485B09C
:101C680000AF786039600023BB8100237B810023AB
:101C7800FB817B681B8C9BB223F480539AB27B68F0
:101C88001A847B681B8C7B817B689B88FB817B68C3
:101C98009B8BBB81BB8923F4E043BB81BB8923F4C5
:101CA8004073BB813B681B881B029AB2BB891343F4
:101CB800BB817B8923F400537B813B689B891B0391
:101CC8009AB27B8913437B813B685B881B039AB27A
:101CD8007B8913437B817A680023C4F201039A420B
:101CE80006D07A684FF48063C4F201039A420AD19D
:101CF800FB8923F48043FB813B681B8A9B019AB2D2
:101D0800FB891343FB817B68FA899A807B68BA89CF
:101D18009A833B689A687B681A647B687A891A8414
:101D28001437BD465DF8047B704700BF80B485B0AA
:101D380000AF78600B467B800023FB817B681B8BA0
:101D4800FB81FB8923F40063FB817B881B029AB229
:101D5800FB891343FB817B68FA891A831437BD46D4
:101D68005DF8047B704700BF80B485B000AF786031
:101D78000B467B800023FB817B689B8BFB81FB8967
:101D880023F00803FB81FA897B881343FB817B6876
:101D9800FA899A831437BD465DF8047B704700BF03
:101DA80080B485B000AF78600B467B800023FB8150
:101DB8007B689B8BFB81FB8923F40063FB817B8819
:101DC8001B029AB2FB891343FB817B68FA899A83C9
:101DD8001437BD465DF8047B704700BF80B483B0FC
:101DE80000AF786013460A467A807B707B78002BB8
:101DF80008D07B689B899AB27B8813439AB27B6828
:101E08009A8109E07B689B899AB27B88DB439BB205
:101E180013409AB27B689A810C37BD465DF8047B03
:101E2800704700BF80B485B000AF78600B467B80F8
:101E38000023FB730023BB8100237B817B681B8A03
:101E48009AB27B881340BB817B689B899AB27B8856
:101E580013407B81BB89002B05D07B89002B02D0E6
:101E68000123FB7301E00023FB73FB7B1846143747
:101E7800BD465DF8047B704780B483B000AF7860DE
:101E88000B467B807B88DB439AB27B681A820C37CF
:101E9800BD465DF8047B704780B483B000AF7860BE
:101EA80045F69803C2F201037A681A6000BF45F646
:101EB8009803C2F201031B68002BF8D10C37BD460A
:101EC8005DF8047B704700BF80B400AF45F6980307
:101ED800C2F201031B68002B0AD045F69803C2F230
:101EE80001031B685A1E45F69803C2F201031A60E3
:101EF800BD465DF8047B704780B483B000AF0346ED
:101F08003960FB7197F90730002B0EDA4FF46D43F7
:101F1800CEF20003FA7902F00F02111F3A68D2B22A
:101F28001201D2B20B441A760CE04FF46143CEF2A0
:101F3800000397F907103A68D2B21201D2B20B44E3
:101F480083F800230C37BD465DF8047B704700BF5B
:101F580080B582B000AF78607B68B3F1807F01D331
:101F680001231AE04EF21003CEF200037A6822F041
:101F78007F42013A5A604FF0FF300F21FFF7BCFF54
:101F88004EF21003CEF2000300229A604EF21003C4
:101F9800CEF2000307221A60002318460837BD4610
:101FA80080BD00BF80B58AB004AF43F2AF637B61E8
:101FB800FEF72EFF40F20003C2F200031A6844F64F
:101FC800D353C1F26203A3FB02139B091846FFF720
:101FD800BFFF0346002B00D0FEE700F031FB45F6BB
:101FE800A800C2F201009FEDC90A43F2AF61FFF7F2
:101FF8005BFA7869FFF7CCFA4FF40060C4F202008C
:1020080008210222FFF70AFA4FF40060C4F2020026
:1020180009210222FFF702FA45F61C53C2F2010316
:102028004FF440721A6045F61C53C2F201030222B3
:102038001A7145F61C53C2F2010300229A7145F643
:102048001C53C2F2010303225A7145F61C53C2F213
:1020580001030022DA714FF40060C4F2020045F671
:102068001C51C2F20101FFF715F94FF48060C4F268
:10207800000001210122FFF7B1FE45F60053C2F22C
:1020880001031D221A7045F60053C2F20103002213
:102098005A7045F60053C2F2010301229A7045F6C0
:1020A8000053C2F201030122DA7045F60050C2F271
:1020B8000100FEF7C1FF00F0A7FB4FF4805001219B
:1020C800FFF7CCFA06F086FD00F062FA00F0D0FDCA
:1020D80000F022FC4FF44060C4F202004FF480513B
:1020E800FFF78EF94EF66440C0F6000006F09AF944
:1020F800002006F0C3F906F02FFD4EF2A800C0F646
:10210800000006F073FB4EF2B800C0F6000006F0BF
:102118006DFB0223009342F2C533C0F6000301931E
:10212800002302930020BE214FF4A072322301F055
:10213800BDFF3861386901F06FFE3B6900930223E7
:102148000193002302934FF4B873039300200021F6
:102158005022322301F0D8F8024645F61853C2F24D
:1021680001031A6045F61853C2F201031B681846AA
:102178004EF66441C0F6000101F0FEF845F618532A
:10218800C2F201031B6818464EF2BC01C0F60001FA
:1021980001F0CAF83B6900930223019300230293DC
:1021A80040F271130393502000215022322301F092
:1021B800ABF8F860F8684EF66441C0F6000101F02B
:1021C800DBF8F8684EF2C401C0F6000101F0ACF883
:1021D8003B69009302230193002302934FF4B973E0
:1021E8000393A02000215022322301F08DF8B8601B
:1021F800B8684EF66441C0F6000101F0BDF8B86851
:102208004EF2CC01C0F6000101F08EF83B69009354
:10221800022301930023029340F273130393F020E7
:1022280000215022322301F06FF8786078684EF66A
:102238006441C0F6000101F09FF878684EF2D401BD
:10224800C0F6000101F070F806F086FC01F020F9F4
:102258000346184601F0E0FD386901F0A7F842F29C
:102268009540C0F6000001F099F845F69C40C2F28E
:10227800010006F0B1F94EF66440C0F6000006F021
:10228800D1F845F69C43C2F201031B7A002B21D0FA
:1022980045F69C43C2F201031B6818464FF48C7143
:1022A8001422042305F0E8FF45F69C43C2F201031B
:1022B8005B6818464FF48C712822042305F0DCFF74
:1022C8004EF2DC00C0F600004FF48C713C2206F0A0
:1022D80085FA16E000204FF48C711422042305F0CF
:1022E800CBFF00204FF48C712822042305F0C4FF93
:1022F8004EF2E000C0F600004FF48C713C2206F06C
:102308006DFA322006F066F8AFE700BF0000C84259
:1023180080B500AF4FF48060C4F200000121FFF7E0
:1023280081FD0346002B48D04FF48060C4F20000C2
:102338000121FFF7A1FD45F6A403C2F201031B68C2
:10234800322B0DDC45F6A403C2F201031A6845F6E8
:10235800A803C2F2010353F822301846FFF73EF9EA
:1023680045F6A403C2F201031B68312B0DDD45F6C7
:10237800A403C2F201031A6845F6A803C2F20103D6
:1023880053F822301846FFF749F945F6A403C2F27C
:1023980001031B685A1C45F6A403C2F201031A6024
:1023A80045F6A403C2F201031B68652B05D145F667
:1023B800A403C2F2010300221A6080BD80B584B074
:1023C80000AF78607B681B68262B56D17B689B68BA
:1023D800184601F04CF8F8607B68DB68BB60FB6866
:1023E800A3F5B873032B4DD801A252F823F000BF10
:1023F800092400082724000845240008632400084D
:10240800BB68012B01D0022B08E04EF2E400C0F6B5
:1024180000000021642206F0E1F900BF2CE0BB684F
:10242800012B01D0022B08E04EF2EC00C0F60000B0
:102438000021642206F0D2F900BF1DE0BB68012B21
:1024480001D0022B08E04EF2F400C0F60000002193
:10245800642206F0C3F900BF0EE0BB68012B01D06F
:10246800022B08E04EF2FC00C0F6000000216422B6
:1024780006F0B4F900BF00BF04E0786802F0CEF8B7
:1024880000BF00E000BF1037BD4680BD80B588B0F2
:1024980000AF3B1D184606F09FF83B7B3B7645F6A0
:1024A8003C23C2F201031A687B689A420ADD45F6AA
:1024B8003C23C2F201031B689AB27B689BB2D31A11
:1024C8009BB209E07B689AB245F63C23C2F201034D
:1024D8001B689BB2D31A9BB2FB8345F63C23C2F21E
:1024E80001035A68BB689A420ADD45F63C23C2F2EA
:1024F80001035B689AB2BB689BB2D31A9BB209E02E
:10250800BB689AB245F63C23C2F201035B689BB2F2
:10251800D31A9BB2BB8345F63C23C2F201031A7A55
:102528003B7B9A4205D1FB8B032B02D8BB8B032B39
:102538002AD93A7B45F63C23C2F201031A727B681A
:10254800002B0ED0BB68002B0BD07A6845F63C23D5
:10255800C2F201031A60BA6845F63C23C2F20103CD
:102568005A6000237B7645F63C23C2F201031B68C0
:102578003B6145F63C23C2F201035B687B6107F1CE
:102588001003184605F03AFF2037BD4680BD00BF4E
:1025980080B500AF4FF40060C4F202004FF4005160
:1025A800FEF72EFF1E20FFF777FC4FF40060C4F201
:1025B80002004FF40051FEF715FF0A20FFF76CFCEC
:1025C8000720212100F024F80020012100F020F844
:1025D8000720232100F01CF81020002100F018F833
:1025E8001E20FFF759FC0720332100F011F81120B5
:1025F80046F2180100F00CF802204FF4C06100F018
:1026080007F8012042F63F3100F002F880BD00BF14
:1026180080B483B000AF02460B46FA80BB804FF609
:10262800FE73C6F20103FA881A804FF6FE73C6F2EB
:102638000103BA885A800C37BD465DF8047B7047A1
:1026480080B582B000AF00233B6000237B601C2074
:102658000121FFF703F84FF400533B6001233B715E
:1026680002237B713B464FF40060C4F20200194616
:10267800FEF710FE4CF6B3733B6002233B71022356
:102688007B710023BB710023FB713B464FF4406014
:10269800C4F202001946FEF7FDFD4FF44060C4F293
:1026A800020000210C22FEF7B9FE4FF44060C4F28C
:1026B800020001210C22FEF7B1FE4FF44060C4F283
:1026C800020004210C22FEF7A9FE4FF44060C4F278
:1026D800020005210C22FEF7A1FE4FF44060C4F26F
:1026E800020007210C22FEF799FE4FF44060C4F265
:1026F800020008210C22FEF791FE4FF44060C4F25C
:10270800020009210C22FEF789FE4FF44060C4F252
:1027180002000A210C22FEF781FE4FF44060C4F249
:1027280002000B210C22FEF779FE4FF44060C4F240
:1027380002000E210C22FEF771FE4FF44060C4F235
:1027480002000F210C22FEF769FE4FF680733B60F2
:1027580002233B7102237B710023BB710023FB71B1
:102768003B464FF48050C4F202001946FEF792FD32
:102778004FF48050C4F2020007210C22FEF74EFEEF
:102788004FF48050C4F2020008210C22FEF746FEE6
:102798004FF48050C4F2020009210C22FEF73EFEDD
:1027A8004FF48050C4F202000A210C22FEF736FED4
:1027B8004FF48050C4F202000B210C22FEF72EFECB
:1027C8004FF48050C4F202000C210C22FEF726FEC2
:1027D8004FF48050C4F202000D210C22FEF71EFEB9
:1027E8004FF48050C4F202000E210C22FEF716FEB0
:1027F8004FF48050C4F202000F210C22FEF70EFEA7
:102808000837BD4680BD00BF80B596B000AF07F160
:102818003C0300221A60043300221A6004330022A9
:102828001A60043300221A60043300221A60043349
:1028380000221A60043300221A6004333A463C230B
:10284800104600211A460AF0D5F901200121FEF7A9
:102858002DFF0023FB630A237B640023FB64002312
:102868007B6500233B6000237B600023BB60102353
:10287800FB6000233B610023BB610023FB61002355
:102888003B624FF480537B620023BB620023FB62F0
:1028980000233B6307F13C037B6307F13C03BB6305
:1028A80000237B613B461846FEF72CFC00200121E3
:1028B800FEF7C6FC5837BD4680BD00BF80B400AFE8
:1028C80045F63053C2F201031B681846BD465DF851
:1028D800047B704780B485B000AF786045F630530C
:1028E800C2F201031A687B681344FB6000BF45F617
:1028F8003053C2F201031B68FA68D31A002BF6DCC6
:102908001437BD465DF8047B704700BF80B400AF44
:10291800BD465DF8047B704780B58AB000AF0420DF
:102928000121FEF7EBFE08200121FEF797FE4FF488
:1029380000533B62022387F82430032387F82530AD
:10294800002387F82630012387F8273007F1200372
:102958004FF44060C4F202001946FEF79BFC4FF4A6
:102968004060C4F202000D210222FEF757FD4FF429
:1029780080533B62012387F82430032387F82530EE
:10298800002387F82630012387F8273007F1200332
:102998004FF44060C4F202001946FEF77BFC45F68E
:1029A8004823C2F2010301221A8040F65E03BB618C
:1029B80045F64823C2F201031B88BB820023BB8370
:1029C8000023FB8207F114034FF40060C4F20000F7
:1029D8001946FEF77FFF70233B8001237B804FF46D
:1029E8007A73BB600023BB813B464FF40060C4F29E
:1029F80000001946FFF724F84FF40060C4F2000005
:102A08000821FFF793F94FF40060C4F20000012198
:102A1800FEF7D6FF4FF40060C4F200000121FEF774
:102A2800EFFF2837BD4680BD80B400AFBD465DF8D6
:102A3800047B704780B400AFFEE700BF80B400AFEE
:102A4800FEE700BF80B400AFFEE700BF80B400AF70
:102A5800BD465DF8047B704780B400AFBD465DF8A5
:102A6800047B704780B400AFBD465DF8047B7047B7
:102A780080B500AF45F63053C2F201031B685A1CFB
:102A880045F63053C2F201031A60FFF71DFA40F20F
:102A98001403C2F200031B78013BDAB240F21403BC
:102AA800C2F200031A7040F21403C2F200031B784A
:102AB800002B07D140F21403C2F2000364221A70FB
:102AC80000F0D0FA80BD00BF80B584B000AF0346E7
:102AD800FB710023FB7300BF4FF46050C4F2000089
:102AE8000221FEF7DBFE0346002BF5D0FB799BB2F3
:102AF8004FF46050C4F200001946FEF7C1FE00BF53
:102B08004FF46050C4F200000121FEF7C7FE0346EF
:102B1800002BF5D04FF46050C4F20000FEF7A2FE7F
:102B28000346FB73FB7B18461037BD4680BD00BFCC
:102B380080B485B000AF78600023FB6002E0FB68DA
:102B48000133FB60FA687B689A42F8D31437BD46B4
:102B58005DF8047B704700BF80B582B000AF0023EA
:102B6800FB804FF48060C4F202004FF40061FEF76E
:102B780047FC3220FFF7DCFFD020FFF7A5FF32200B
:102B8800FFF7D6FF0020FFF79FFF0346FB80FB8877
:102B98001B02FB800020FFF797FF03461A46FB88BD
:102BA8001344FB804FF48060C4F202004FF40061CC
:102BB800FEF718FCFB881B09FB80FB88C3F30B039B
:102BC800FB80FB8818460837BD4680BD80B582B0BB
:102BD80000AF0023FB804FF48060C4F202004FF482
:102BE8000061FEF70DFC3220FFF7A2FF9020FFF7EF
:102BF8006BFF3220FFF79CFF0020FFF765FF0346BD
:102C0800FB80FB881B02FB800020FFF75DFF03466B
:102C18001A46FB881344FB804FF48060C4F202001C
:102C28004FF40061FEF7DEFBFB881B09FB80FB8885
:102C3800C3F30B03FB80FB8818460837BD4680BDED
:102C480080B500AFFFF7C2FF03461A4645F6485362
:102C5800C2F201039A80FFF77FFF03461A4645F642
:102C68004853C2F20103DA800123184680BD00BF31
:102C780080B582B000AF4FF480400121FEF766FDB9
:102C88004FF480400121FEF739FD02200121FEF7B3
:102C9800E5FC4FF48060C4F202000D210522FEF726
:102CA800BDFB4FF48060C4F202000E210522FEF73E
:102CB800B5FB4FF48060C4F202000F210522FEF735
:102CC800ADFB02233B7102237B710023BB710223FE
:102CD800FB714FF400533B603B464FF48060C4F2F5
:102CE80002001946FEF7D6FA4FF400433B603B4614
:102CF8004FF48060C4F202001946FEF7CBFA4FF495
:102D080080433B603B464FF48060C4F202001946A2
:102D1800FEF7C0FA4FF400633B6001233B710023C8
:102D2800BB7102237B710123FB713B464FF480602A
:102D3800C4F202001946FEF7ADFA4FF48060C4F2FF
:102D480002004FF40061FEF74DFB45F63453C2F222
:102D5800010300221A8045F63453C2F201034FF4EE
:102D680082725A8045F63453C2F2010300229A80D7
:102D780045F63453C2F201030222DA8045F6345391
:102D8800C2F2010301221A8145F63453C2F201034B
:102D98004FF400725A8145F63453C2F201033022CF
:102DA8009A8145F63453C2F201030022DA8145F6CE
:102DB8003453C2F2010307221A824FF46050C4F25E
:102DC800000045F63451C2F20101FEF7E7FC4FF46A
:102DD8006050C4F200000121FEF724FD4FF480404A
:102DE8000121FEF7B3FC00233B7102237B71002312
:102DF800FB714FF480533B603B464FF48060C4F254
:102E080002001946FEF746FA0837BD4680BD00BFE6
:102E180080B58CB000AF002387F82D3000237B8568
:102E28004FF48060C4F202004FF48051FEF7C0FAFC
:102E38000346002B40F01181FFF702FF25E0FFF762
:102E4800FFFE0346002B20D097F82D1045F6485377
:102E5800C2F201039A884B0007F13000034423F8BB
:102E6800302C97F82D1045F64853C2F20103DA8842
:102E780001F10A035B0007F130010B4423F8302C01
:102E880097F82D30013387F82D3097F82D30092B1E
:102E9800D5D997F82D300A2B40F0D980002387F830
:102EA8002E30002387F82F303EE097F82F305B0054
:102EB80007F13002134433F8302C97F82F300133E0
:102EC8005B0007F13000034433F8303C9A4226D9BE
:102ED80097F82F3001335B0007F130010B4433F8CA
:102EE800303C7B8597F82F30591C97F82F305B00C2
:102EF80007F13002134433F8302C4B0007F130004F
:102F0800034423F8302C97F82F305B0007F1300189
:102F18000B447A8D23F8302C012387F82E3097F84C
:102F28002F30013387F82F3097F82F2097F82D305E
:102F3800013B9A42B9DB97F82E30002BAED1002323
:102F480087F82E30002387F82F3045E097F82F3088
:102F58000A335B0007F13002134433F8302C97F83A
:102F68002F3001330A335B0007F13000034433F894
:102F7800303C9A422BD997F82F3001330A335B0043
:102F880007F130010B4433F8303C7B8597F82F303C
:102F9800591C97F82F300A335B0007F130021344AD
:102FA80033F8302C01F10A035B0007F130000344C9
:102FB80023F8302C97F82F300A335B0007F13001E3
:102FC8000B447A8D23F8302C012387F82E3097F89C
:102FD8002F30013387F82F3097F82F2097F82D30AE
:102FE800013B9A42B2DB97F82E30002BA7D1FB8821
:102FF8001A463B891A447B891A4445F25653C5F24E
:10300800555383FB0201D317CB1A9AB245F648539E
:10301800C2F201039A807B8B1A46BB8B1A44FB8B46
:103028001A4445F25653C5F2555383FB0201D31790
:10303800CB1A9AB245F64853C2F20103DA8045F634
:103048004A23C2F2010301221A70012306E045F661
:103058004A23C2F2010300221A70002318463037AF
:10306800BD4680BD80B500AFFFF7D2FE45F6485398
:10307800C2F201039B88A3F167024AF6AB23C2F6AA
:10308800AA2383FB0201D317CA1A45F69C43C2F24E
:1030980001031A6045F64853C2F20103DB8818465B
:1030A800FDF7C0F902460B46104619464FF00002DC
:1030B8004FF00003C4F22103FDF744FB02460B4620
:1030C80010461946FDF726FC024645F69C43C2F217
:1030D80001035A604FF48060C4F202004FF480513B
:1030E800FEF766F90346002B06D045F69C43C2F26C
:1030F800010300221A7205E045F69C43C2F201035F
:1031080001221A7245F69C40C2F2010005F076FAD7
:1031180080BD00BF37B54FF48071044606F0A8FCA7
:10312800204606F02BF902AB856A43F8040D1846D1
:1031380006F032F9AB0703D52046012100F084F9E7
:103148003EBDF7B505460C464FF4807106F0A5FC68
:10315800284606F013F9024602A8966A40F8042D9C
:10316800178E06F019F9022C02D1384605F0A0FA9C
:10317800B20703D52846214600F066F9FEBD73B5AF
:103188000D46044606F0FAF802AB468E43F8040DE5
:10319800184606F001F9EA6862B1107A06F48071FF
:1031A80020B159B92046FFF7B5FF07E031B12046F5
:1031B800022101E020460321FFF7C3FF7CBD000088
:1031C80037B5446805462946204606F083FC0028A2
:1031D8005DD02B680F2B16D004DC0B2B23D00E2BC5
:1031E80052D132E0282B48D0B3F5107F05D0112BEF
:1031F8004AD12748036813B949E026490B68204695
:103208002946984743E0204606F0B8F802A941F855
:10321800040D456E2D68084606F0BEF8002D36D020
:103228002046A84733E0204606F0A8F802AC0190F3
:10323800683006F0F5FA54F8040D03216C3006F0F6
:10324800F7FA204606F0A8F81EE0EA680CCA0D2A2C
:1032580002D0202A11D106E0002B0EDD2046FFF710
:1032680059FF204605E0002B204602DDFFF752FFFC
:103278000DE00221FFF765FF09E0EA6822B9204660
:103288004FF4807106F009FC284601F0C7F93EBDED
:103298004C5A012018000020F0B587B00C9C0D9FF7
:1032A8000094164C01970294109C4C34039400F03F
:1032B8004DFE0746F8B106F061F8114D0F990590DB
:1032C800102206F0FFFB06AE0FCD56F804ED0EF106
:1032D80034040FC40FCD0FC495E80F0084E80F0025
:1032E800084C23683046CEF8643006F055F820685C
:1032F800416838468847384607B0F0BDC9310008EC
:103308001C0000204C00002010B586B0089C0094DA
:10331800099C01940A9C02940B9C03940024049435
:10332800FFF7BAFF06B010BD73B50C46054600B3EB
:1033380006F024F8866E00906846019606F02CF890
:10334800214601A804F0E7FCD0F1010438BF0024AD
:1033580084B9019BB34208D0284606F00FF80199BA
:1033680000908166684606F017F8284600F032FD9E
:1033780000E0012420467CBD37B50C46054658B10F
:1033880005F0FCFF024602A8546540F8042D06F03B
:1033980003F8284600F01EFD3EBD0000024B1A68E7
:1033A80018601046704700BF805D012030B587B0B7
:1033B8000446002102A8102209F01CFC002C3AD077
:1033C8001F4B20481A6850F82200844233D01E212F
:1033D8008DE81100029110B102A906F04DFD0125FA
:1033E800204602A9059506F047FD059D25BB144B0F
:1033F80014481A6840F82240204600F030F8044685
:1034080038B100A92022059102A9029206F034FDE4
:10341800F2E7009C204600F020F868B1204600F052
:103428001EF8044640B12021029100AB02A9059381
:1034380006F022FDF2E70125284607B030BD00BF9F
:10344800985D0120885D01201FB5262303916946F8
:10345800009306F0D9FF05B000BD00F02BBB08B5FE
:10346800034610B105F080FF8369184608BD1FB5F3
:10347800044600211022684609F0BCFB15232046AB
:103488006946009300F050FC039804B010BD00009A
:10349800034B04491868427C51F82200704700BF6A
:1034A80068000020785D01200A4A0B480B49002378
:1034B800137003600B600A480A4A0B4903601360E3
:1034C8000B60436053600948094A0A490360136066
:1034D8000B607047785A0120505A0120AC5D0120DA
:1034E800885D0120B45D0120C05D0120745D01206C
:1034F800A05D0120B05D012010B5044605F034FF41
:10350800836A044A044913F4803F08BF11462046E1
:10351800884710BD65430008254900082DE9F34197
:10352800214C23680546986C05F028FF0090284632
:1035380005F024FF014601900098083004F0FAFFD6
:10354800064640B302AE2068019956F8082DD0F817
:103558004C80076D154E01F10800083204F08AFC12
:10356800684605F019FF02A8236850F8042D356055
:10357800B2F90010B2F90220D9641A6505F00CFFFF
:103588002846FFF7B9FF236800203060C3F84C8055
:103598001F65012006E0684605F0FEFE01A805F05B
:1035A800FBFE3046BDE8FC8168000020745D012008
:1035B80030B585B0054605F0E1FE826A01909307B3
:1035C80004D401A805F0E8FE05B030BDC469002C9C
:1035D800F7D0204605F0D2FE816A009001F0030280
:1035E800032A33D10199083104F0A4FF00282DD013
:1035F8000198083003C804AB03E9030001A805F0EB
:10360800CBFE684605F0C8FE2046FFF787FF70B17D
:10361800204605F0A9FE00902046FFF7C9FF204686
:1036280005F0A2FE0090284605F09EFE019028466F
:1036380005F0A4FE0190204605F0A0FE04A9009024
:10364800019C11E90300083484E8030004A850F839
:10365800102D6846146A05F09FFEB8E7F0B50646D7
:1036680085B00C461546002E4CD0304605F086FE37
:10367800876A0190BA0701463DD502AE25B13046AA
:103688002A4604F0F7FB02E003C886E80300204658
:10369800314604F04FFF70B317F0010F019B1ED1A4
:1036A8003DB1B3F90220B5F902008242A8BF104625
:1036B80001E0B3F90200B4F90210B4F906608842D7
:1036C80006DDBDF80A2011B28E4214DB531E04E059
:1036D800BDF80E3018B286420DDDE3800BE0DE69DE
:1036E8004EB13046214602AAFFF7B8FF304605F032
:1036F8003BFE066AF4E704A850F80C6D366A05F03C
:103708004BFEB0E705B0F0BD2DE9FF4105460E467A
:1037180017460024002D38D0284605F02FFED0F893
:103728002880019018F0020F014627D002AD27B17A
:1037380028463A4604F09EFB02E003C885E80300E9
:103748003046294604F0F6FEC0B118F0010F05D145
:10375800BDF80C00411C318001240FE0019BDD699C
:1037680065B12846314602AAFFF7CEFF002818BFE8
:103778000124284605F0F8FD056AF1E704A850F889
:103788000C2D156A05F008FEC4E7204604B0BDE814
:10379800F081F0B5044685B00D461646002C31D0B0
:1037A800204605F0EBFD876A01900146B80722D54F
:1037B80002AC26B12046324604F05CFB02E003C9A5
:1037C80084E803002846214604F0B4FE98B1F907BE
:1037D80004D4BDF80800411EA9800CE0019BDC69F7
:1037E8004CB12046294602AAFFF7D3FF204605F030
:1037F800BBFD046AF4E704A850F80C2D146A05F020
:10380800CBFDCBE705B0F0BD37B5044605F0B6FDF6
:10381800826A019040F601031340012B05D001A8EC
:1038280005F0BAFD2046FFF767FE1348016811B39B
:103838002046FFF7BDFE204605F096FD8569046A1F
:10384800CDB194B1204605F08FFD826A02F00303E2
:10385800032B02D12046FFF761FE2046FFF7A8FEA2
:10386800204605F081FD046AEBE7284605F07CFD5B
:10387800046A8569E4E73EBDC05D01207FB5144D4B
:103888002B680646986C05F079FD00F10803019055
:103898002A6893E80300083202AC84E8030092E83F
:1038A800030083E8030001A805F076FD3068FFF700
:1038B800ABFF2868806C05F061FD00F108030190FA
:1038C80094E8030083E8030001A805F065FD7FBDC7
:1038D80068000020F7B507460D46284605F04EFD5E
:1038E800836A02AC13F00206014644F8040D04D1C1
:1038F800204605F051FD304619E0384604F0ECFA50
:103908000198866920466EB905F046FD08490A689F
:1039180095420BD04B68B5EB030CDCF1000050EB83
:103928000C0004E005F038FD3546D6E70120FEBD61
:10393800785D01207FB504460D46002947D005F083
:103948001DFD0023856101900362284605F016FDE0
:103958000199C56902908E6A2DB9C46101A805F064
:103968001BFD02A831E0284605F008FD06F0080610
:10397800039076B9806A02070BD5019A029B1562FB
:10398800DC6101A805F008FD02A805F005FD03A803
:103998001BE002A805F000FD03A805F0FDFC284681
:1039A80005F0E2FC0390039A156A0DB914620BE066
:1039B800284605F0D9FC002EF4D1836A1B07F1D5FF
:1039C800039901980C62056201A805F0E5FC7FBD2A
:1039D80070B5044605F0C8FC05468069A8B105F035
:1039E800C3FCC369A342064605D1184605F0BCFCD2
:1039F800006AF06170BD43B1184605F0B5FC036A72
:103A0800A342F8D1296A016270BD70BD0346084619
:103A1800B3F90220B3F9001004F070BE114B30B5B1
:103A28001C68626C85B00546BAB11068516802AB73
:103A380003C30D48006800B9A06C05F09FFC04ACF6
:103A480002A944F80C0DFFF7E1FF204605F0A4FC9D
:103A580002A8294604F040FA02A803F02FFC05B09A
:103A680030BD00BF68000020745D01201FB50E4BFB
:103A7800186890F854200AB10C4811E0806C05F0E1
:103A88007DFC019003C802AC84E8030001A805F09E
:103A980083FC0749096811B12046FFF71BFF204640
:103AA800FFF7BCFF1FBD00BF68000020645A01205B
:103AB800745D0120064B10B50446186828B1A04271
:103AC80004D005F051FC4069F8E710BD012010BD95
:103AD800945D012013B5044600B305F04FFC826ADB
:103AE8000190910717D5406A40B10D4B1968A14262
:103AF80004D002F0B3FA019A00205062204606F082
:103B08001BFE04463CB12046FFF7E4FF204605F0C3
:103B18002BFC046AF6E701A805F03EFC1CBD00BFBB
:103B2800BC5D012038B5084B0546186850B105F052
:103B38001BFC04464069A842F8D105F015FC406911
:103B4800606138BD38BD00BF945D0120B0F9002028
:103B5800B0F904309A4208DCB0F90210B0F9062036
:103B68009142CCBF00200120704700207047000020
:103B7800F0B585B006460D46174605F0F5FB846A94
:103B88000190A00734D52846FFF7E0FF00282FD082
:103B980040F601032340012B2AD0304605F0EEFB06
:103BA80002AC024601902946204604F063F92046FB
:103BB800FFF7CCFFC8B1019A966A44F22001314060
:103BC80002F1080529B128462946224604F0A6FD37
:103BD8000BE094E8030085E80300064803883E43A9
:103BE80096625A1C028004F03FFB01A805F0D4FB42
:103BF80005B0F0BD905D01207FB50E461546044620
:103C080038B305F0BBFB836A01909B07024603D4D7
:103C180001A805F0C1FB1CE002A8314604F02AF90E
:103C28000028F5D001A805F0B7FB204602A92A46CE
:103C3800FFF79EFF204606F07FFD04464CB1204664
:103C480002A92A46FFF7D8FF204605F08DFB046A33
:103C5800F4E77FBD2DE9FF41804617461D460C4617
:103C6800002930D0084605F089FB866A0190B10723
:103C7800024625D502A8414604F0FCF800B340F6F8
:103C880001033340012B07D1019A02A89169126AF6
:103C98002B46FFF7DFFF04E0204602A92A46FFF77C
:103CA80067FF0198C4695CB1BC4209D0204602A9EB
:103CB8002A46FFF7A1FF204605F056FB046AF2E703
:103CC80001A805F069FBBDE8FF812023FFF7C2BF0B
:103CD80013B5044605F052FB8169019041B1026AAF
:103CE800FFF7F3FF2046FFF773FE01980022826179
:103CF80001A805F051FB1CBD70B5054608460C46E9
:103D0800164605F031FB836A13F4803F28462146A6
:103D180032460CBF20234FF48043BDE87040FFF7C4
:103D280099BF2022FFF724BF08B106F0A5B8704755
:103D38001FB504AB019043F8101D694606F09CF8C6
:103D480005B000BD00230B8082884B800388D21AFF
:103D58008A80C2884088131ACB80704770B50E4697
:103D680086B00446002833D005F008FB856A019028
:103D7800AB072AD503C806AB03E90300E80302D55D
:103D88002046FFF7A7FE5EB13068716802AA03C239
:103D9800019802A9FFF73AFE04A802A904F09CF8CA
:103DA80004A82146FFF796FD78B140F601002840A7
:103DB800012806D1019B04A899691A6AFFF785FFB3
:103DC80003E0204604A9FFF7ACFF01A805F0E4FAD8
:103DD80006B070BD0021FFF7C1BF000010B5044652
:103DE80005F0C2FA80690028F9D1054B1A68944297
:103DF80005D05868844214BF4FF0FF30012010BD31
:103E0800785D012008B5FFF7E9FF002803DBBDE86E
:103E1800084004F05DBB08BD38B50D4B1968044671
:103E28008D6C08B90B4A14688C642046FFF7EAFFCA
:103E380003F056FE204605F097FA054BB0F900103E
:103E48001B68B0F90200D9641865284638BD00BF60
:103E580068000020945D012073B50446002861D0F5
:103E6800FFF728FE00285DD02046FFF7B7FF0B219B
:103E780006462046FFF75CFF204606F055FA204626
:103E880005F07CFA0190406A08B102F0E7F826488C
:103E9800264B0568264A27480021196052F8253024
:103EA800A34208BF42F8251050F82510A14202D1BC
:103EB800002240F82520204D2D682DB16868A042C9
:103EC800FAD100236B60F7E720460721FFF7BCFA19
:103ED800019DE869FFF7C0FFEB69002BF9D1204687
:103EE800FFF7F6FE2046FFF71DFE0198836AD90703
:103EF80003D5124A1168481E10609A0603D5104B64
:103F08001A88511E198001A805F046FA0D48038841
:103F18005A1E0280204605F06BFA0B4951F826001C
:103F2800FFF77AFF7CBD00BF985D0120745A01201D
:103F3800885D0120B45D0120AC5D0120C05D0120D9
:103F4800905D0120705D0120785D01202DE9F74F1B
:103F58000C9E9B464E4B8046894692461D6866BB22
:103F68004C48018861B34C4A4C4B1468607C53F848
:103F780020104C1C24D019B30E46304605F0FEF92B
:103F8800B0F90020B0F9024001909044A144BAF180
:103F9800000F05D1B0F904A0C2EB0A0303F1010A2E
:103FA800BBF1000F05D1B0F906B0C4EB0B0000F16E
:103FB800010B01A805F0F0F902E0701CDDD1002624
:103FC8000F982C3005F090FC044600285CD00D9F1B
:103FD8002F43304D29884A1C2A8005F0CFF902ABBF
:103FE800054643F8080D2E49A0F80080A0F8029075
:103FF800D044D944AA6A08F1FF3809F1FF39394099
:10400800A0F80480A0F806900E9842EA01032861FF
:10401800AB62684605F0C0F92249086848B105F066
:10402800A3F90546204605F09FF96A6942616C616B
:1040380000E00C6020463146FFF77CFCB80602D54C
:104048002046FFF7E9FEF90703D517480368591C0E
:1040580001607A0602D5204606F0F6FBBB070FD5AD
:10406800204605F08BF9836A02AA43F0020142F860
:10407800080D8162684605F08FF92046FFF7AAFE11
:1040880020460121FFF754FE2046BDE8FE8F00BF01
:10409800A05D0120705D012068000020785D01208E
:1040A8009F3F3F00945D0120C05D01201FB50024A3
:1040B8000094069C0194079C0294089C0394FFF7C3
:1040C80045FF04B010BD000030B55D4B186890F88E
:1040D800540085B0002800F0B1805A4B5969012975
:1040E8002CDC03F108011A6903C9013204AC1A6116
:1040F80004E9030022B91A88ADF808205A8812E0AA
:1041080098895989B3F90430ADF80A10421C94B261
:1041180020B28342ADF8084007DA4A480488C389C8
:10412800ADF808405A1CADF80A20464CBDF90A10F3
:10413800B4F90630994205DD424B5969481E586169
:1041480000207BE03E4D2868806C05F017F9BDF92A
:104158000820B4F9001001908A4218D12868E38831
:10416800A488826CADF80E30ADF80C4052B1104600
:1041780005F0FAF804460022006A02A9FFF76EFA71
:10418800A269F3E70199C86902A9FFF767FA2C4BFE
:10419800BDF808201C68ADF80C20A26C02AC62B116
:1041A800104605F0E1F8214605460022006AFFF7AF
:1041B800ABFA0028EBD1AA69F0E701982146C0695B
:1041C800FFF7A2FA0028E2D11E4BBDF908109A8821
:1041D80010B28142ADF80C2008DD94E803000833E2
:1041E80083E8030001A805F0D7F896E7144D2C687A
:1041F800A26C02AC52B1104605F0B6F80546002292
:10420800006A2146FFF7C5FAAA69F2E704AD21461C
:1042180055F80C3DD869FFF7BCFA284605F0BCF8FC
:10422800084B1A6944F620618A4285DC94E8030049
:10423800083383E80300FFF719FC012005B030BDFF
:10424800680000205C5A012070B53B4B0546186891
:1042580090F8542086B012B9FFF708FC68E0374C94
:1042680061694B1C012B636162DC806C05F086F888
:10427800334900900B784FF0FF32226123B100F1EF
:10428800080102AC03C905E0866A16F0020609D0E7
:1042980003C802AC84E8030065B102A8294603F00C
:1042A8001BFE07E06069421E6846626105F074F80B
:1042B80030463EE0204B1868426CCAB1009C5168F9
:1042C800019410681F4C04AB03C3216831B101A8E5
:1042D80005F062F8206805F051F80190019804A9EA
:1042E800FFF794FB02A804A903F0F6FD01A800E07B
:1042F800684605F051F81348016802AC29B1204618
:10430800FFF7E8FA08B90D4B07E00B4A1368204697
:10431800996CFFF7DFFA094B18B959694A1E5A61B7
:1043280007E094E8030083E80300FFF7CDFE00E010
:10433800012006B070BD00BF680000205C5A012053
:104348009D5D0120745D012008B504F077F8024BEB
:1043580018680022426408BD68000020F0B589B0E2
:10436800044605F00BF807690190866A083003C80F
:1043780002AD85E8030001A805F00EF8002F30D043
:10438800B2072ED520462E2106F04CF8164B1A7887
:10439800501C1870F3040AD50F220594049207954F
:1043A800FFF7D2FF204604A905F066FD11E0284674
:1043B800FFF74AFF68B10F2102AB049107930594F8
:1043C800FFF7C2FF204604A905F056FDFFF77CFE63
:1043D800F0E7054801784B1E03702F21204606F0B0
:1043E80021F809B0F0BD00BF9D5D01202DE9F04125
:1043F80088B006AE039004F0C1FF034600F108023E
:10440800059092E803009D6A9F69D3F8108044F2F2
:10441800200486E803002C4005A804F0BDFF002C0A
:1044280035D0B8F1000F17D030460399FFF752FA8C
:1044380090B10398FFF7F0FC68070FD527B105F096
:10444800010585F0010500E00125009506A812493F
:1044580003AA002300F0BCFA002403E00398FFF746
:10446800D3F90124039804F089FF816A059021F4A7
:10447800804323F02002890448BF42F0040282628C
:1044880005A804F089FF054801884B1E03802046D3
:1044980008B0BDE8F08100BF85380008905D0120B4
:1044A8002DE9F0434B4B18689FB000B180470026B8
:1044B80049490A68E2B1494C2468BCB1204604F075
:1044C8005DFF856A1EA915F4004F41F8740D456912
:1044D80007D0084604F060FF2046FFF7BDFC2C46D5
:1044E800EBE708462C4604F057FFE6E73A4D2C6008
:1044F8003B4B186800B180473A490A682AB93A4CD8
:10450800256895F8543043B103E090470028F6D069
:1045180055E004F0D5F8002851D1206890F854509F
:104528004DB132490D8835B1314A1568002D48D052
:104538002B68984701252C48016891F8542012B936
:10454800002D33D141E0294B18880028F8D0294F95
:104558003C680CB9214C246802A803F0D7FF224913
:104568000A68D2F83080576B24B900240DE0B9F1FD
:10457800000F0AD12046FFF739FF8146204604F094
:10458800F3FE4469002CF2D1EFE71A4B40461C6059
:1045980003F076FF384603F071FF02A803F0C0FF6E
:1045A800124801880029CBD00126C4E7104A1068B8
:1045B80010B14368984708E003F054FC05E0012671
:1045C80076E7012003F04EFCB4E730461FB0BDE8A3
:1045D800F08300BF845D0120505A0120945D0120C2
:1045E800805D0120F45D012068000020905D0120BD
:1045F800B05D0120745A0120024B1868012280F82E
:104608005420704768000020034B1868002280F887
:10461800542003F065BA00BF6800002010B50446B6
:1046280040682368E168172B0FD006DC0E2B0ED0EC
:10463800142B14D106F092F811E0222B0CD0282B61
:104648000DD1BDE81040FFF7C5BBE06010BD2146A5
:10465800BDE8104005F0D8BE6FF0704000E00020C3
:10466800E06010BD03680E2B10B5044602D00F2B76
:1046780021D108E0C3685868012821D11868BDE82D
:10468800104004F015B80F4A40681168884206D0F7
:104698005368984214BF4FF0FF30012000E000201B
:1046A800094A52F820006FF07041884203D003F0A5
:1046B800E5FE04F051FA2046BDE81040FFF7AEBF12
:1046C80010BD00BF785D0120A45D01201FB52B4BF4
:1046D800187800284FD12A492A4A2B4C08601060C4
:1046E80023682A492A4A58640880108004462046CC
:1046F80004F01AF9C8B1274843F6FF724FF0FF33A8
:104708004FF0020E029000208DE808400146134643
:104718000390FFF71BFC204B204A43F824006FF05E
:10472800704142F82410FFF755FB0134022CDED10A
:104738001B4806F031F81B4806F02EF81A4806F018
:104748002BF81A4806F028F8194806F025F81948F1
:1047580006F022F810480068FFF75EFBFFF74CFFF1
:10476800064B1548154A01211970026004B0BDE8CE
:10477800104004F001BA04B010BD00BF785A0120FF
:10478800945D0120745A012068000020905D01208A
:10479800705D01206D460008785D0120A45D012050
:1047A800D45E0120C45E0120B45E0120DC5E0120DD
:1047B800CC5E0120BC5E0120545A0120B1340008AF
:1047C8002DE9F04387B0044604F0D8FD034606A857
:1047D800B3F90460B3F90070B3F90650B3F9028075
:1047E80040F8043DD3F8249004F0D6FDF01B461C95
:1047F800C8EB05014D1C002E4BDD002D49DDB9F13C
:10480800000F48D0484604F0B9FD06A9B0F9046085
:1048180041F8080DC588084604F0BEFDBE4202D125
:104828002DB2454530D048463946424600F084F816
:104838002AE0826A42F480338362084604F0ACFDC1
:10484800384601F067FC8046484603F01BFE3846B0
:1048580005FB06F72C4E2D4D00F0AEF831782C4EA6
:10486800BA0003F02EFA20462F68346005F05CFF8A
:1048780028602046FFF772FD00202F60306003F0AB
:1048880001FE404601F046FC204604F06DFD406AFA
:1048980037E0002035E0FEF7FBFD844212D102F03C
:1048A800CDFD814602F0D2FD4E4502DC854209DD90
:1048B80000E04E468542A8BF0546314620462A46B6
:1048C80005F062FD134A144B01924FF0010941466D
:1048D8000293384632462B46CDF8009001F02CFB67
:1048E8000746204604F04AFD06A9476241F8040D30
:1048F800002F9ED1084604F04FFD2046FFF72EFDFD
:10490800384607B0BDE8F08350000020CC5D012098
:10491800BC5D01208CE1000874FF000838B505462D
:1049280005242846FFF74CFF10B9013CF9D138BDE2
:10493800BDE8384006F090BC37B50D46144618B9A6
:10494800114B1868006EE8B104F018FDA4B2ADB2BE
:10495800C4808580009003F0C3F80099486970B15D
:1049680004F00CFD009B01901A8959898280C1804E
:1049780012B109B10580448001A804F00DFD684614
:1049880004F00AFD3EBD00BF6800002013B520B941
:10499800084B1868006E044648B104F0EFFC02A901
:1049A800B0F90A4041F8040D084604F0F5FC204629
:1049B8001CBD00BF6800002013B504F0DFFC0446EE
:1049C80002A840F8044D04F0E7FC04F118001CBDEF
:1049D8002DE9F04F1E46464B87B0044618680291F1
:1049E800457C444993464A57012A284606DD02F089
:1049F80010FD8046284602F00FFD05E002F00FFD8D
:104A08008046284602F00EFD05462CB304A805A9E9
:104A180003F0B8FE049BB4F90090B4F90270B4F93D
:104A2800040008EB0301059B4A1EED18B4F90610B3
:104A38006B1E29EAE97927EAE7778242D4BFC9EBF6
:104A48000200C9EB00008B42D4BFC7EB0301C7EBE0
:104A58000101421C4D1C02E042462746A14606B908
:104A68006E42002A3FDD002D3DDD109C4846009433
:104A78003946334601F014FB044620B95846029AD9
:104A88009047012030E0FFF781FF8246CAF1000617
:104A9800204601F03FFBA84603960026D04503DADE
:104AA8002046414606F0D4FC3EB120464946F2195C
:104AB800FFF742FF204606F0E1FC5846029A90476D
:104AC8000D4B196809B100208847204601F09AFB70
:104AD80056440398AE428044E0DB204601F0BEFA1B
:104AE800002001F017FB002007B0BDE8F08F00BFE1
:104AF80068000020C45D01207C5A01200248012979
:104B080018BF0020704700BF8CE100080248162932
:104B180018BF0020704700BF71B0000808290CBFFB
:104B2800202000207047006808B5C3681B6A9847B2
:104B380008BD37B580680C4604F020FC034602A87F
:104B480099881D89DA8840F8043D5B8921804919D4
:104B580001396280D218A180511EE18004F01CFC4A
:104B68003EBD00000E4B73B505461868006E0E4634
:104B780004F004FC024602A8B2F90640D36840F8E3
:104B8800042D02F11801B2F90420361B03FB0611AB
:104B9800AD1A01EB850404F0FFFB20467CBD00BF85
:104BA8006800002008B508461146FFF7DBFF0068DB
:104BB80008BD0000154B73B51868006E15460E4603
:104BC80004F0DCFB294600903046FFF7CBFF009944
:104BD8000A6813690446986880472168009B81EA3F
:104BE80000022260586960B104F0C8FB02AC826818
:104BF80044F8040D136831462A469847204604F0C5
:104C0800CBFB684604F0C8FB7CBD00BF68000020F1
:104C180073B51C46104B1868006E0E46154604F016
:104C2800ADFB294600903046FFF79CFF00990460D1
:104C3800486960B104F0A2FB02AC836844F8040D33
:104C48001B6831462A469847204604F0A5FB68466B
:104C580004F0A2FB7CBD00BF680000202DE9F743EB
:104C68001E462B4B1868006E0F46144604F086FB50
:104C78000090406908B104F081FB01902146384654
:104C8800FFF770FF224A009B05461068D3F80C8096
:104C9800027CC16BD207D1F800901FD51868026951
:104CA800916888478046019828B183683946D3F8C7
:104CB80000C02246E04700992868CB68013480EAA2
:104CC8000802B4422A601D44EDDD684604F064FB26
:104CD8000198D0B101A804F05FFB16E0019B63B115
:104CE8000198816822460B68013439469847B442D6
:104CF800C5F800904544F3DDE7E7341B0134013C77
:104D0800C5F800904544FAD1DFE7BDE8FE8300BF4F
:104D1800680000202DE9F04FDFF8B0801446D8F87D
:104D2800002085B0106EDDF838901D460F4604F05F
:104D380025FB214602903846FFF714FFD8F80030CB
:104D480006460298DA6BD0F80CA04069D2F800B099
:104D5800E91B4D1C38B304F011FB0DF11008C4EB2E
:104D6800090148F8040D4B1C0093394622462B468E
:104D780006F059FB404604F00FFB14E013480268A4
:104D8800117CC90712D5029A116808698368984787
:104D980032462B461168013B81EA000142F8041BA8
:104DA800F8D1564401344C45E8DD08E0002DF8DD23
:104DB8002B463046013B40F804BBFBD1F1E702A883
:104DC80004F0EAFA05B0BDE8F08F00BF68000020E3
:104DD80007B50092FFF79EFF0EBD00002DE9F04FCA
:104DE8009A46984B8146186893B0006E08920C4614
:104DF800DDF87CB0219D002800F0728304F0BEFA33
:104E08001090406908B104F0B9FA119012A850F84E
:104E1800081DCA680C9204F0BFFA209B1198E41888
:104E2800059468B187490A68137C03F00201CAB285
:104E380032B91C9B089A00932146534606F0F3FAB0
:104E480005980899FFF78EFE80461D9817285BDDA8
:104E58004FEA8A07079700271C9911988F424FDA63
:104E680030B18368089A5C680599BA185346A04718
:104E7800D9F81000C16829B140465946079AFBF78E
:104E880071FD37E0444655465E46331D06931A4683
:104E980029464FF0000E12F8010C08B90EF1010E68
:104EA8000139A0B1BEF1000F15D04FEA8E0320469C
:104EB80031461A460493CDF80CE0FBF753FD0498ED
:104EC800DDF80CC024183618CCEB050510E00432C8
:104ED8000029E0D1E6E73068060EFF2E05D0F3433F
:104EE8002168DAB203F016F82060069E0434013D0A
:104EF800002DCAD11E990C9A8B4490440137ABE718
:104F0800002840F0EA82EBE21D9C102C37D10BF10F
:104F18000207A8F1040800251C9CA542119C80F2F8
:104F28009980089EAA1907922CB1A36805995E6812
:104F380020465346B047CDF81880BB465646059ADA
:104F4800D9F8103002EB0A00811B5A683BF8020CB2
:104F580004919047069941F8040F0691049924B1E9
:104F6800A068079A036820469847013E0BF1020B98
:104F7800E5D11E9C0C9A01353F199044CCE71D9948
:104F880008296BD1089E08F10408089B1C9A119CFB
:104F9800F11A9142A8F104005CDA2A4B19680A7CDC
:104FA8005DB312F0030304D0022B4DD1C146059F17
:104FB8001CE01BF8034055F8242040F82320013357
:104FC8005345F6D140E055F8201049F8041C2CB19F
:104FD800A268204613683946324698470598013733
:104FE80000EB0A01B94209F104092DD0059AC2EB78
:104FF8000B03D85D0028F1D0E5E712F0030304D0D5
:10500800022B21D1C146059F15E059465246FBF7B0
:10501800A9FC19E049F8042C2CB1A36820461B68A8
:105028003946324698470598013700EB0A01B942DC
:1050380009F1040908D00598C0EB0B01CA5D002AE4
:10504800F1D0E7E7680000201E980C9983440136E8
:1050580088449AE7002C40F0408241E2B04A209B05
:10506800209C002D14BFA9469146089A5800A1001B
:1050780008F104080D900E91CDF8288006920A9B3D
:10508800069808991C1F1C9B421A9A4280F2238298
:105098001D99022900F0A180042900F04781012907
:1050A80040F00F82DFF88082D8F80050286E04F0B4
:1050B80065F99BF800309B4A2099D55C1090C1F1A6
:1050C800080745FA01F5D8F80010DDF844C00B7C54
:1050D80003F00302022A56461DD0032A59D0012A9A
:1050E80057D05A46BE4238BF3746F61B3B46214684
:1050F80005F001006D0859F82000013B41F8040B48
:10510800F6D104EB8704002E63D012F8017F854D99
:10511800ED5D0827E6E7D9F80400DDF814800B9068
:10512800CDF824B0BE4238BF3746F61BBCF1000F9D
:1051380022D01DB904EB8704B84421E0E8070CD558
:10514800DCF80800069A0368CDF80CC060464146B2
:1051580098470B99DDF80CC021600434013F08F131
:1051680001080DD06D08E4E7E90744BF0B982060FB
:105178000434013F04D06D08002DF5D104EB8704F9
:105188003EB3099A674F12F8010F3D5C0992082750
:10519800C8E702681169886880475946BE4238BF27
:1051A8003746F61B231DBE46EA0704D553F8042CE0
:1051B800424043F8042C6D080433BEF1010EF3D1CC
:1051C80004EB87042EB111F8017F564DED5D0827D9
:1051D800E4E710A804F0E0F873E1209E524B0D9824
:1051E8009BF80010DDF844C0C6F10402D5B21A6875
:1051F80001FA00F1CEB2117C01F0030001286AD057
:1052080008D3022840F05D81CDF82CB05746DDF870
:10521800148040E05A4653469D42C8BFDDB25B1B2E
:1052280029462046B709013959F82770B60011F008
:10523800FF0140F8047BF6B2F4D1013DE8B2451C09
:1052480004EB8504002B00F03C8112F8016F042563
:10525800E2E716F0C00F27D10799099A481C079072
:10526800131D079A099305EB0801C8B2D3B2B6001B
:105278009842F6B2EDD1013DEDB2691C08F1010882
:1052880004EB8104A844002F00F01B810B9810F850
:10529800016F04250B90BD42C8BFFDB2231D7F1BC3
:1052A8000993CDF81C80D4E7B209099859F822105F
:1052B80040F8041CBCF1000FCED0DCF80830079988
:1052C8001A68CDF80CC00F926046069A0F9B984753
:1052D800DDF80CC0C0E7584653469D42C8BFDDB252
:1052E8005B1B221D2F4616F0C00F05D052F8041C78
:1052F80081F0FF0142F8041C013FB600043217F0A8
:10530800FF07F6B2EFD1013DE9B24D1C04EB85046D
:10531800002B00F0D68010F8016F0425DDE700BFF0
:105328004CE1000820FE0008680000206E490E9D30
:105338000A689BF80030107C119E00F0030103FA04
:1053480005F30129DDB200F0968003D3022940F06D
:10535800B88031E0209959B12D090AF1FF3359F885
:10536800250020600BF101020A9C9BF8015001E026
:1053780053465A46012B17DD581004F1080103F073
:10538800010316182F0905F00F0559F8277041F881
:10539800087C59F8255041F8045C12F8015F08317F
:1053A800B242EFD104EBC004002B00F08A802D0933
:1053B80059F82520226084E0209FBFB113F0F00F38
:1053C8000AD02B0959F8235025602EB1B4680599E5
:1053D8002768069A3046B847059A0A9C9BF80150F8
:1053E800571C0AF1FF3C0BF101080FE0D446D846E0
:1053F800059F0BE015F0F00F0CD115F00F051AD131
:1054080018F8015F08340237ACF1020CBCF1010F47
:10541800F0DC20E02A0959F822002060002EECD0A8
:10542800B168069A0B68CDF80CC0304639469847E3
:10543800DDF80CC0E1E759F825206260002EDFD0C6
:10544800B068069A0368CDF80CC03046791C9847B6
:10545800DDF80CC0D4E7BCF1000F32D02D0930D0F4
:1054680059F82500206066B3B168069A0B68304683
:105478003946984725E0209EC6F10200C3B25E4631
:1054880052469342C8BFD3B2D21A201D1F4615F008
:10549800C00F05D050F8041C81F0FF0140F8041C2F
:1054A800013F2D01043017F0FF07EDB2EFD1013BAA
:1054B800D9B2481C04EB80041AB116F8015F022324
:1054C800DFE71E9C06980A9A0C99A344431C5418BB
:1054D80006930A94D3E5119810B111A803F05CFF64
:1054E80013B0BDE8F08F00BF680000200248012912
:1054F80018BF0020704700BF00E2000802481629C4
:1055080018BF0020704700BF59A90008006808B5F7
:10551800C3681B6A984708BD006808B5C3689A6ADB
:10552800904708BD37B580680C4603F027FF03464F
:1055380002A899881D89DA8840F8043D5B89218092
:10554800491901396280D218A180511EE18003F007
:1055580023FF3EBD0E4B73B505461868006E0E4618
:1055680003F00CFF024602A8B2F90640D36840F8DF
:10557800042D02F11801B2F90420361B03FB0611B1
:10558800AD1A01EB450403F007FF20467CBD00BFC0
:105598006800002008B508461146FFF7DBFF0088C1
:1055A80008BD0000144BF7B507461868006E15468D
:1055B8000E4603F0E3FE294600903046FFF7CAFF87
:1055C800396904468A6890472388584020800098A3
:1055D800406960B103F0D2FE02AC826844F8040D61
:1055E800136831462A469847204603F0D5FE684698
:1055F80003F0D2FEFEBD00BF6800002073B51C4654
:10560800104B1868006E0E46154603F0B7FE294683
:1056180000903046FFF79EFF00990480486960B10A
:1056280003F0ACFE02AC836844F8040D1B683146F5
:105638002A469847204603F0AFFE684603F0ACFEC2
:105648007CBD00BF680000202DE9F7431E462B4BA8
:1056580081461868006E0F46144603F08FFE0090CE
:10566800406908B103F08AFE019021463846FFF7E9
:1056780071FF224A00991368D1F80C800546187CFE
:10568800C2071FD5D9F81000816888471FFA80F82B
:10569800019820B182683946136822469847009AD3
:1056A8002888D368013488EA0001B44229801D445F
:1056B800EEDD684603F070FE0198E8B101A803F03A
:1056C8006BFE19E0D96B019AD1F8009062B101988C
:1056D800836822461B68394601349847B442A5F8C6
:1056E80000904544F3DDE4E7341B0134013CA5F8A0
:1056F80000904544FAD1DCE7BDE8FE83680000204D
:105708002DE9F04F1E46294B14461A680F46D16BF7
:1057180085B08346106ED1F8009003F02FFE214625
:1057280002903846FFF716FF05460298D0F80CA0FD
:105738004069F61B013638B303F020FE0E9B0DF1CD
:1057480010081A1B48F8040D511C009122463946CE
:10575800334605F068FE404603F01EFE14E0134B86
:105768001A68117CC90713D5DBF8100083689847BD
:105778002A4680B233461188013B81EA000122F8AB
:10578800021BF8D1554401340E988442E7DD06E047
:1057980028461FFA89F1324602F066FAF2E702A8B3
:1057A80003F0FAFD05B0BDE8F08F00BF68000020E7
:1057B80007B50092FFF7A4FF0EBD00002DE9F04FDA
:1057C8009B4695B08C4B0E9018680A92006EDDF8D7
:1057D80084A0239E0C4603F0D1FD1290406908B1C5
:1057E80003F0CCFD139014A850F8081DCA680B925A
:1057F80003F0D2FD229F1398E419069458B17E4B0A
:1058080019680A7C970706D11E9F0A9A00972146B5
:105818005B4605F008FE06980A99FFF79BFE1F9B5A
:10582800102B044639D1139E1EB14FEA4B060025B2
:1058380014E072490D68002DF7D00B9E209F00964A
:10584800019751465A461E9BA84753E3BAF1000FE9
:105858000AD1209A0B999244641801351E9FDDF8ED
:105868004C80BD42F2DB13E0002CF2D020465146BA
:105878003246FBF777F8B8F1000FEAD0D8F80800FD
:105888000A9B47680699EA1840465B46B847E0E72E
:10589800B8F1000F40F02B832CE31F98172839DD4F
:1058A80000261E9F139DBE4280F2A1800A9F06EB30
:1058B8000709BAF1000F27D034B335B1AA680699A1
:1058C800576828464A465B46B847A31E0AF10408AB
:1058D80007935F4606980E9A00EB0B01136958F878
:1058E800040C1A68C91B05919047079921F8020F03
:1058F8000791059925B1A8684A460368284698473C
:10590800013F08F10408E5D1209D0B9AAA44A41888
:105918000136C6E71F99082972D10A9F02340A9DE9
:105928001E9B791BA01E9942139D60DA324A1168AA
:105938000B7C76B313F0030305D0022B51D1A1469B
:10594800DDF818801DE01AF8035056F8252020F8D5
:10595800132001335B45F6D143E056F8201029F8AF
:10596800021C2DB1AA682846136841463A46984752
:10597800069808F1010800EB0B01414509F10209FD
:105988002FD0069AC2EB0A0313F808000028EFD0BC
:10599800E3E713F0030205D0022A22D1A146DDF87D
:1059A800188016E051465A46FAF7DCFF19E029F844
:1059B800023C2DB1AA682846136841463A469847E2
:1059C800069808F1010800EB0B01414509F10209AD
:1059D80007D00698C0EB0A0111F80830002BEFD069
:1059E800E5E720980B9982440137641897E7002D62
:1059F80040F07D827EE200BF68000020805A0120CE
:105A08009C4A229B0A99002E08BF16460796229E9A
:105A180009917700980002340F9710900C94099E12
:105A28000A9F0C9AF31B1E9E941EB34280F25D825D
:105A38001F9F022F00F0DC80042F00F08281012FCD
:105A480040F04982DFF83492D9F80050286E03F00C
:105A580095FC9AF80030884A2299D55C1290D9F8BA
:105A68000000139FC1F1080845FA01F5017C01F017
:105A78000303022B5E4621D0032B5FD0012B5DD0A0
:105A88005246464538BFB046C8EB0606434621464F
:105A980005F00100079F57F820006D08013B21F829
:105AA800020BF5D104EB4804002E00F09D8012F89B
:105AB800015F71494FF008084D5DE2E7079ADDF88C
:105AC8001890B2F804C0CDF820A0464538BFB046BB
