:020000040800F2
:10000000180A0020410E000829370008B10E000828
:10001000353700083D37000845370008000000006C
:100020000000000000000000000000004D37000844
:1000300059370008000000006537000871370008D4
:10004000B10E0008B10E0008B10E0008B10E000894
:10005000B10E0008B10E0008B10E0008B10E000884
:10006000B10E0008B10E0008B10E0008B10E000874
:10007000B10E0008B10E0008B10E0008B10E000864
:10008000B10E0008B10E0008B10E0008B10E000854
:10009000B10E0008B10E0008B10E0008B10E000844
:1000A000B10E0008B10E0008B10E0008B10E000834
:1000B000B10E0008DD250008B10E0008B10E0008E1
:1000C000B10E0008B10E0008B10E0008B10E000814
:1000D000B10E0008B10E0008B10E0008B10E000804
:1000E000B10E0008B10E0008B10E0008B10E0008F4
:1000F000B10E0008B10E0008B10E0008B10E0008E4
:10010000B10E0008B10E0008B10E0008B10E0008D3
:10011000B10E0008B10E0008B10E0008B10E0008C3
:10012000B10E0008B10E0008B10E0008B10E0008B3
:10013000B10E0008B10E0008B10E0008B10E0008A3
:10014000B10E0008B10E0008B10E0008B10E000893
:10015000B10E0008B10E0008B10E0008B10E000883
:10016000B10E0008B10E0008B10E0008B10E000873
:10017000B10E0008B10E0008B10E0008B10E000863
:08018000B10E0008B10E0008E9
:1001880081F0004102E000BF83F0004330B54FEA40
:1001980041044FEA430594EA050F08BF90EA020FAD
:1001A8001FBF54EA000C55EA020C7FEA645C7FEA40
:1001B800655C00F0E2804FEA5454D4EB5555B8BF63
:1001C8006D420CDD2C4480EA020281EA030382EAD4
:1001D800000083EA010180EA020281EA0303362D66
:1001E80088BF30BD11F0004F4FEA01314FF4801C39
:1001F8004CEA113102D0404261EB410113F0004F4B
:100208004FEA03334CEA133302D0524263EB430301
:1002180094EA050F00F0A780A4F10104D5F1200E9F
:100228000DDB02FA0EFC22FA05F2801841F10001FA
:1002380003FA0EF2801843FA05F359410EE0A5F1CE
:1002480020050EF1200E012A03FA0EFC28BF4CF0FF
:10025800020C43FA05F3C01851EBE37101F00045B5
:1002680007D54FF0000EDCF1000C7EEB00006EEBC2
:100278000101B1F5801F1BD3B1F5001F0CD349084C
:100288005FEA30004FEA3C0C04F101044FEA4452A3
:1002980012F5800F80F09A80BCF1004F08BF5FEA2A
:1002A800500C50F1000041EB045141EA050130BD0A
:1002B8005FEA4C0C404141EB010111F4801FA4F1AD
:1002C8000104E9D191F0000F04BF01460020B1FA02
:1002D80081F308BF2033A3F10B03B3F120020CDA3A
:1002E8000C3208DD02F1140CC2F10C0201FA0CF018
:1002F80021FA02F10CE002F11402D8BFC2F1200C7D
:1003080001FA02F120FA0CFCDCBF41EA0C01904032
:10031800E41AA2BF01EB0451294330BD6FEA04047B
:100328001F3C1CDA0C340EDC04F11404C4F1200266
:1003380020FA04F001FA02F340EA030021FA04F378
:1003480045EA030130BDC4F10C04C4F1200220FACF
:1003580002F001FA04F340EA0300294630BD21FA0D
:1003680004F0294630BD94F0000F83F4801306BFD3
:1003780081F480110134013D4EE77FEA645C18BFC7
:100388007FEA655C29D094EA050F08BF90EA020F5E
:1003980005D054EA000C04BF1946104630BD91EA56
:1003A800030F1EBF0021002030BD5FEA545C05D159
:1003B8004000494128BF41F0004130BD14F5800498
:1003C8003CBF01F5801130BD01F0004545F0FE410C
:1003D80041F470014FF0000030BD7FEA645C1ABF41
:1003E800194610467FEA655C1CBF0B46024650EA78
:1003F800013406BF52EA033591EA030F41F40021A4
:1004080030BD00BF90F0000F04BF0021704730B529
:100418004FF4806404F132044FF000054FF00001FE
:1004280050E700BF90F0000F04BF0021704730B5BF
:100438004FF4806404F1320410F0004548BF404294
:100448004FF000013EE700BF42004FEAE2014FEAE9
:1004580031014FEA02701FBF12F07F4393F07F4FC4
:1004680081F06051704792F0000F14BF93F07F4FF6
:10047800704730B54FF4607401F0004521F0004139
:1004880020E700BF50EA010208BF704730B54FF0BF
:1004980000050AE050EA010208BF704730B511F0C4
:1004A800004502D5404261EB41014FF4806404F1FC
:1004B80032045FEA915C3FF4DCAE4FF003025FEA7E
:1004C800DC0C18BF03325FEADC0C18BF033202EB06
:1004D800DC02C2F1200300FA03FC20FA02F001FA60
:1004E80003FE40EA0E0021FA02F11444C1E600BFFF
:1004F80070B54FF0FF0C4CF4E06C1CEA11541DBFB2
:100508001CEA135594EA0C0F95EA0C0F00F0DEF87C
:100518002C4481EA030621EA4C5123EA4C5350EA61
:10052800013518BF52EA033541F4801143F48013B2
:1005380038D0A0FB02CE4FF00005E1FB02E506F043
:100548000042E0FB03E54FF00006E1FB03569CF098
:10055800000F18BF4EF0010EA4F1FF04B6F5007F9E
:1005680064F5407404D25FEA4E0E6D4146EB060610
:1005780042EAC62141EA55514FEAC52040EA5E5099
:100588004FEACE2EB4F1FD0C88BFBCF5E06F1ED843
:10059800BEF1004F08BF5FEA500E50F1000041EB7A
:1005A800045170BD06F0004646EA010140EA020027
:1005B80081EA0301B4EB5C04C2BFD4EB0C0541EA49
:1005C800045170BD41F480114FF0000E013C00F35E
:1005D800AB8014F1360FDEBF002001F0004170BD82
:1005E800C4F10004203C35DA0C341BDC04F114049B
:1005F800C4F1200500FA05F320FA04F001FA05F227
:1006080040EA020001F0004221F0004110EBD370F3
:1006180021FA04F642EB06015EEA430E08BF20EA1F
:10062800D37070BDC4F10C04C4F1200500FA04F3C2
:1006380020FA05F001FA04F240EA020001F0004154
:1006480010EBD37041F100015EEA430E08BF20EAC7
:10065800D37070BDC4F1200500FA05F24EEA020E0F
:1006680020FA04F301FA05F243EA020321FA04F03E
:1006780001F0004121FA04F220EA020000EBD370F5
:100688005EEA430E08BF20EAD37070BD94F0000FF5
:100698000FD101F00046400041EB010111F4801F29
:1006A80008BF013CF7D041EA060195F0000F18BFDA
:1006B800704703F00046520043EB030313F4801F16
:1006C80008BF013DF7D043EA0603704794EA0C0FD0
:1006D8000CEA135518BF95EA0C0F0CD050EA4106E6
:1006E80018BF52EA4306D1D181EA030101F0004163
:1006F8004FF0000070BD50EA410606BF104619468B
:1007080052EA430619D094EA0C0F02D150EA013696
:1007180013D195EA0C0F05D152EA03361CBF1046D7
:1007280019460AD181EA030101F0004141F0FE4176
:1007380041F470014FF0000070BD41F0FE4141F4FA
:10074800780170BD70B54FF0FF0C4CF4E06C1CEAFA
:1007580011541DBF1CEA135594EA0C0F95EA0C0FAF
:1007680000F0A7F8A4EB050481EA030E52EA03356A
:100778004FEA013100F088804FEA03334FF080558B
:1007880045EA131343EA12634FEA022245EA1115B8
:1007980045EA10654FEA00260EF000419D4208BF69
:1007A800964244F1FD0404F5407402D25B084FEA16
:1007B8003202B61A65EB03055B084FEA32024FF4C2
:1007C80080104FF4002CB6EB020E75EB030E22BF1F
:1007D800B61A754640EA0C005B084FEA3202B6EBDF
:1007E800020E75EB030E22BFB61A754640EA5C008E
:1007F8005B084FEA3202B6EB020E75EB030E22BF1E
:10080800B61A754640EA9C005B084FEA3202B6EB1E
:10081800020E75EB030E22BFB61A754640EADC00DD
:1008280055EA060E18D04FEA051545EA16754FEA3F
:1008380006164FEAC30343EA52734FEAC2025FEA5D
:100848001C1CC0D111F4801F0BD141EA00014FF0EC
:1008580000004FF0004CB6E711F4801F04BF0143BD
:100868000020B4F1FD0C88BFBCF5E06F3FF6AFAED9
:10087800B5EB030C04BFB6EB020C5FEA500C50F169
:10088800000041EB045170BD0EF0004E4EEA1131EC
:1008980014EB5C04C2BFD4EB0C0541EA045170BDF3
:1008A80041F480114FF0000E013C90E645EA060E37
:1008B8008DE60CEA135594EA0C0F08BF95EA0C0F65
:1008C8003FF43BAF94EA0C0F0AD150EA01347FF4AD
:1008D80034AF95EA0C0F7FF425AF104619462CE784
:1008E80095EA0C0F06D152EA03353FF4FDAE1046E7
:1008F800194622E750EA410618BF52EA43067FF438
:10090800C5AE50EA41047FF40DAF52EA43057FF4C7
:10091800EBAE12E74FEA410212F5001215D211D5DB
:100928006FF47873B3EB625212D94FEAC12343F0E4
:10093800004343EA505311F0004F23FA02F018BF66
:10094800404270474FF00000704750EA013005D12F
:1009580011F0004008BF6FF0004070474FF00000F2
:10096800704700BF4FEA4102B2F1E04324BFB3F53C
:10097800001CDCF1FE5C0DD901F0004C4FEAC0020E
:100988004CEA5070B2F1004F40EB830008BF20F0F2
:100998000100704711F0804F21D113F13872BCBFAC
:1009A80001F00040704741F480114FEA5252C2F101
:1009B8001802C2F1200C10FA0CF320FA02F018BF4A
:1009C80040F001004FEAC1234FEAD32303FA0CFC9D
:1009D80040EA0C0023FA02F34FEA4303CCE77FEA2C
:1009E800625307D150EA01331EBF4FF0FE4040F476
:1009F8004000704701F0004040F0FE4040F4000025
:100A0800704700BF844641EA000313F003036DD129
:100A1800403A41D351F8043B40F8043B51F8043BB9
:100A280040F8043B51F8043B40F8043B51F8043BC0
:100A380040F8043B51F8043B40F8043B51F8043BB0
:100A480040F8043B51F8043B40F8043B51F8043BA0
:100A580040F8043B51F8043B40F8043B51F8043B90
:100A680040F8043B51F8043B40F8043B51F8043B80
:100A780040F8043B51F8043B40F8043B51F8043B70
:100A880040F8043B51F8043B40F8043B51F8043B60
:100A980040F8043B403ABDD2303211D351F8043B00
:100AA80040F8043B51F8043B40F8043B51F8043B40
:100AB80040F8043B51F8043B40F8043B103AEDD2AF
:100AC8000C3205D351F8043B40F8043B043AF9D200
:100AD800043208D0D2071CBF11F8013B00F8013BD3
:100AE80001D30B8803806046704700BF082A13D3E0
:100AF8008B078DD010F003038AD0C3F10403D21AF8
:100B0800DB071CBF11F8013B00F8013B80D331F82B
:100B1800023B20F8023B7BE7043AD9D3013A11F8AB
:100B2800013B00F8013BF9D20B7803704B78437016
:100B38008B788370604670474FF0FF3C06E000BF3B
:100B48004FF0010C02E000BF4FF0010C4DF804CD4E
:100B58004FEA410C7FEA6C5C4FEA430C18BF7FEA0E
:100B68006C5C1BD001B050EA410C0CBF52EA430C3C
:100B780091EA030F02BF90EA020F0020704710F1BC
:100B8800000F91EA030F58BF994208BF90422CBF4B
:100B9800D8176FEAE37040F0010070474FEA410C44
:100BA8007FEA6C5C02D150EA013C07D14FEA430C62
:100BB8007FEA6C5CD6D152EA033CD3D05DF8040BD3
:100BC800704700BF8446104662468C461946634605
:100BD80000E000BF01B5FFF7B7FF002848BF10F1DC
:100BE800000F01BD4DF808EDFFF7F4FF0CBF012021
:100BF80000205DF808FB00BF4DF808EDFFF7EAFF9D
:100C080034BF012000205DF808FB00BF4DF808ED57
:100C1800FFF7E0FF94BF012000205DF808FB00BF4C
:100C28004DF808EDFFF7CEFF94BF012000205DF8D6
:100C380008FB00BF4DF808EDFFF7C4FF34BF0120E3
:100C480000205DF808FB00BF80B500AF40F6182013
:100C5800C2F200004FF4A8310DF004FB4AF208304C
:100C6800C0F602000CF0EEFD80BD00BF80B483B07A
:100C780000AF0346FB804FF6FE73C6F20103FA8805
:100C88001A800C37BD465DF8047B704780B483B08A
:100C980000AF0346FB804FF6FE73C6F20103FA88E5
:100CA8005A800C37BD465DF8047B704780B483B02A
:100CB80000AF7860396007E00023C6F202037A6863
:100CC800911C796012881A803B685A1E3A60002B82
:100CD800F2D10C37BD465DF8047B704780B483B011
:100CE80000AF7860396007E07A68931C7B60002366
:100CF800C6F202031B8813803B685A1E3A60002B19
:100D0800F2D10C37BD465DF8047B704780B5A0B0C2
:100D180000AF07F1680300221A60043300221A604A
:100D2800043300221A60043300221A6004330022BC
:100D38001A6004333A466823104600211A4611F017
:100D480055F84FF25800C0F602004FF2D811C0F61D
:100D58000201002200230CF009FDF8670020F021B1
:100D68004FF4A0720AF06BF80020F0214FF4A07243
:100D78000AF04EF806233B670223BB6707F16803B6
:100D8800F86F194609F0E3FF40F67543C0F6000313
:100D98003B6240F69543C0F600037B6240F6B543DC
:100DA800C0F60003FB6240F6E543C0F60003FB63B0
:100DB8003B46F86F19464AF2CD02C0F600024AF2E5
:100DC8005973C0F6000309F0E0FF0AF0E1F80346A2
:100DD800002B0CD000204FF4A071F0220AF02FF85D
:100DE80000204FF4A071F0220AF012F80BE0002066
:100DF800F0214FF4A0720AF022F80020F0214FF4FD
:100E0800A0720AF005F88037BD4680BD80B487B06F
:100E180000AFF860B9607A60BB68012B01D100238C
:100E280003E04FF0FF337B617B6918461C37BD46F2
:100E38005DF8047B704700BF80B582B000AF40F218
:100E4800F043C0F603037B6040F20003C2F20003E4
:100E58003B6007E03B681A1D3A607A68111D7960AB
:100E680012681A603A6840F21823C2F200039A42E4
:100E7800F0D30A480A494FF000028842B8BF40F848
:100E8800042BFADBDFF81C00016841F470010160F3
:100E980001F0D8F80837BD4680BD0000180A0020C8
:100EA8009460012088ED00E080B400AFFEE700BF49
:100EB80080B500AF4FF46D43CEF200034FF46D429E
:100EC800CEF20002D2F8882042F47002C3F88820DB
:100ED8004FF46053C4F202034FF46052C4F20202AA
:100EE800126842F001021A604FF46053C4F2020320
:100EF80000229A604FF46053C4F202034FF4605228
:100F0800C4F20202126822F0847222F480321A605B
:100F18004FF46053C4F2020343F21002C2F20042DB
:100F28005A604FF46053C4F202034FF46052C4F2A3
:100F38000202126822F480221A604FF46053C4F24D
:100F480002030022DA6000F009F84FF46D43CEF294
:100F580000034FF000629A6080BD00BF80B483B088
:100F680000AF00237B6000233B604FF46053C4F262
:100F780002034FF46052C4F20202126842F4803253
:100F88001A604FF46053C4F202031B6803F4003381
:100F98003B607B6801337B603B68002B03D17B6837
:100FA800B3F5A06FEDD14FF46053C4F202031B6890
:100FB80003F40033002B02D001233B6001E000233F
:100FC8003B603B68012B40F082804FF46053C4F2D1
:100FD80002034FF46052C4F20202126C42F08052D3
:100FE8001A644FF4E043C4F200034FF4E042C4F241
:100FF8000002126842F480421A604FF46053C4F24F
:1010080002034FF46052C4F2020292689A604FF4ED
:101018006053C4F202034FF46052C4F202029268B1
:1010280042F400429A604FF46053C4F202034FF452
:101038006052C4F20202926842F4A0529A604FF4DD
:101048006053C4F2020345F20842C0F240725A608B
:101058004FF46053C4F202034FF46052C4F2020228
:10106800126842F080721A6000BF4FF46053C4F2F5
:1010780002031B6803F00073002BF6D04FF4705383
:10108800C4F2020340F205621A604FF46053C4F2DE
:1010980002034FF46052C4F20202926822F0030283
:1010A8009A604FF46053C4F202034FF46052C4F2E2
:1010B8000202926842F002029A6000BF4FF4605345
:1010C800C4F202039B6803F00C03082BF6D10C371B
:1010D800BD465DF8047B704780B485B000AF78608A
:1010E8000023FB730023BB730F237B737B68DB78C0
:1010F800002B40D04FF46D43CEF20003DB68DB4396
:1011080003F4E0631B0AFB73FB7BC3F10403BB73AB
:101118007A7BFB7B42FA03F37B737B685B781A4626
:10112800BB7B02FA03F3FB737B689A787B7B1340E3
:10113800DAB2FB7B1343FB73FB7B1B01FB734FF49E
:101148006143CEF200037A6812781344FA7B83F87D
:1011580000234FF46143CEF200037A6812785209F3
:10116800D2B27968097801F01F01012000FA01F173
:1011780043F8221011E04FF46143CEF200037A687D
:1011880012785209D2B27968097801F01F0101205A
:1011980000FA01F1203243F822101437BD465DF8F9
:1011A800047B704780B483B000AF78604FF0204371
:1011B8007A6812687968486879688968084379683C
:1011C800C96808437968096908437968496908431F
:1011D8007968896908437968C96908437968096A37
:1011E80008437968496A08437968896A08437968CD
:1011F800C96A08437968096B014343F822107B6880
:101208009B68082B0DD14FF020437A6812684FF085
:1012180020417868006851F8201041F0400143F8F7
:1012280022104FF020437A68126801327968496BBE
:1012380008687968496B4968090108437968496B06
:101248008968090208437968496BC9680904084331
:101258007968496B0969090508437968496B4969DF
:10126800090608437968496B8969014343F82210E4
:101278007B68DB6AB3F5804F23D14FF48273CAF2DF
:1012880000037A6812687968896B08687968896BDD
:101298004968090108437968896B89680902084324
:1012A8007968896B0969090508437968896B49690F
:1012B800090608437968896B8969014343F8221054
:1012C80009E04FF48273CAF200037A6812686FF07B
:1012D800704143F822100C37BD465DF8047B704717
:1012E80080B483B000AF78600B46FB70FB78002BAE
:1012F8000CD04FF020434FF02042796852F821205B
:1013080042F001017A6843F822100EE04FF02042C3
:101318004FF02043796853F821104FF6FE73C0F25E
:101328000F030B40796842F821300C37BD465DF851
:10133800047B704780B487B000AF786039600023C1
:101348007B6100233B610023FB6000237B6176E027
:101358007B69012202FA03F33B613B681A683B6927
:101368001340FB60FA683B699A4265D17B681A684A
:101378007B695B00032101FA03F3DB431A407B68B6
:101388001A607B681A683B681B7919467B695B00A1
:1013980001FA03F31A437B681A603B681B79012B37
:1013A80003D03B681B79022B2ED17B689A687B6936
:1013B8005B00032101FA03F3DB431A407B689A6060
:1013C8007B689A683B685B7919467B695B0001FA20
:1013D80003F31A437B689A607B685A687B699BB2FF
:1013E800012101FA03F3DB431A407B685A607B68EA
:1013F8005A683B689B7919467B699BB201FA03F3EB
:101408009BB21A437B685A607B68DA687B699BB237
:101418005B00032101FA03F3DB431A407B68DA60BF
:101428007B68DA683B68DB7919467B695B0001FAFF
:1014380003F31A437B68DA607B6901337B617B695C
:101448000F2B85D91C37BD465DF8047B704700BF5C
:1014580080B485B000AF78600B467B800023FB73B7
:101468007B681A697B881340002B02D00123FB7329
:1014780001E00023FB73FB7B18461437BD465DF87B
:10148800047B704780B483B000AF78600B467B80E4
:101498007B687A881A830C37BD465DF8047B7047F1
:1014A80080B483B000AF78600B467B807B687A8815
:1014B8005A830C37BD465DF8047B704780B485B00D
:1014C80000AF786013460A467A807B700023FB6081
:1014D8000023BB607A787B8803F007039B0002FA3D
:1014E80003F3FB607B88DB089BB21A467B88DB082A
:1014F8009BB219467B68083153F821107B8803F0AA
:1015080007039B000F2000FA03F3DB4319407B68B5
:10151800083243F822107B88DB089BB21A467B68A6
:10152800083253F82220FB681343BB607B88DB0832
:101538009BB21A467B680832B96843F82210143700
:10154800BD465DF8047B70472DE9B04388B000AF15
:10155800F86087ED020A79600023FB610023BB6114
:101568004FF000037B619FED307AD7ED027AC7EE2A
:10157800277AC7ED057A0023FB613EE07868FEF71D
:1015880051FF80468946FB6907EE903AB8EEE77A44
:10159800D7ED057A67EE277A17EE900AFEF754FF23
:1015A80002460B46104619461DA3D3E90023FEF751
:1015B8009FFF02460B4643EC172BB0EE470AF0EEAE
:1015C800670A10F021FE53EC102B40464946FEF7FF
:1015D8008FFF02460B46144623F000452046294655
:1015E800FFF798F90346BB61FB699B00FA6813444F
:1015F800BA691A60FB690133FB61FB6907EE903A2F
:10160800B8EEE77AD7ED027AB4EEE77AF1EE10FA9F
:10161800B4D918462037BD46BDE8B083AFF3008083
:1016280012E7FAA146DF913F0000B443AFF3008010
:1016380080B586B000AF78600220012100F0AEF8D6
:101648000023BB810023FB817B683B610023BB82B5
:101658000023BB7507F10C034FF48060C4F200004F
:10166800194600F087F94FF48060C4F200000121A8
:1016780000F016FA18461837BD4680BD80B588B008
:1016880000AF78607023BB810123FB8102233B8379
:101698007B687B6107F10C034FF48060C4F20000A3
:1016A800194600F02BFB4FF48060C4F200000821BB
:1016B80000F0C6FB2037BD4680BD00BF80B588B0AE
:1016C80000AF78607023BB810123FB8102233B8339
:1016D8007B687B6107F10C034FF48060C4F2000063
:1016E800194600F085FA4FF48060C4F20000082122
:1016F80000F08AFB2037BD4680BD00BF80B483B0B0
:1017080000AF78600B46FB70FB78002B0CD04FF4D1
:101718006053C4F202034FF46052C4F20202116B28
:101728007A680A431A630CE04FF46053C4F2020368
:101738004FF46052C4F20202116B7A68D2430A4035
:101748001A630C37BD465DF8047B704780B483B0DC
:1017580000AF78600B46FB70FB78002B0CD04FF481
:101768006053C4F202034FF46052C4F20202916B58
:101778007A680A439A630CE04FF46053C4F2020398
:101788004FF46052C4F20202916B7A68D2430A4065
:101798009A630C37BD465DF8047B704780B483B00C
:1017A80000AF78600B46FB70FB78002B0CD04FF431
:1017B8006053C4F202034FF46052C4F20202116C87
:1017C8007A680A431A640CE04FF46053C4F20203C7
:1017D8004FF46052C4F20202116C7A68D2430A4094
:1017E8001A640C37BD465DF8047B704780B483B03B
:1017F80000AF78600B46FB70FB78002B0CD04FF4E1
:101808006053C4F202034FF46052C4F20202516CF6
:101818007A680A435A640CE04FF46053C4F2020336
:101828004FF46052C4F20202516C7A68D2430A4003
:101838005A640C37BD465DF8047B704780B485B0A8
:1018480000AF786039600023FB817B681B88FB81CF
:10185800FB8903F44153FB813B681A883B685B882A
:1018680013439AB23B689B8813439AB23B68DB8860
:1018780013439AB23B681B8913439AB23B685B894E
:1018880013439AB23B689B8913439AB23B68DB893E
:1018980013439AB2FB891343FB817B68FA891A8048
:1018A8007B689B8B9BB223F400639AB27B689A8314
:1018B8003B681A8A7B681A821437BD465DF8047B38
:1018C800704700BF80B483B000AF78600B46FB70F0
:1018D800FB78002B08D07B681B889BB243F0400341
:1018E8009AB27B681A8007E07B681B889BB223F05A
:1018F80040039AB27B681A800C37BD465DF8047BBA
:10190800704700BF80B483B000AF78607B689B8964
:101918009BB218460C37BD465DF8047B704700BF84
:1019280080B483B000AF78600B467B807B687A8890
:101938009A810C37BD465DF8047B704780B485B04A
:1019480000AF78600B467B800023FB737B681B89A4
:101958009AB27B8813409BB2002B02D00123FB7301
:1019680001E00023FB73FB7B18461437BD465DF886
:10197800047B704780B485B000AF7860396000237D
:10198800FB817B681B88FB817A680023C4F2010312
:101998009A421FD07A684FF48063C4F201039A42D6
:1019A80018D07B68B3F1804F14D07A684FF4806305
:1019B800C4F200039A420DD07A684FF40063C4F26F
:1019C80000039A4206D07A684FF44063C4F20003D9
:1019D8009A4208D1FB8923F07003FB813B685A883F
:1019E800FB891343FB817A684FF48053C4F20003E8
:1019F8009A420FD07A684FF4A053C4F200039A4277
:101A080008D0FB8923F44073FB813B681A89FB8962
:101A18001343FB817B68FA891A803B685A687B68A4
:101A2800DA623B681A887B681A857A680023C4F2F0
:101A380001039A4206D07A684FF48063C4F2010326
:101A48009A4204D13B689B7A1A467B681A867B685F
:101A580001229A821437BD465DF8047B704700BFA7
:101A680080B483B000AF78600B46FB70FB78002B26
:101A780008D07B681B889BB243F080039AB27B68CE
:101A88001A8007E07B681B889BB223F080039AB218
:101A98007B681A800C37BD465DF8047B704700BF31
:101AA80080B483B000AF78600B46FB70FB78002BE6
:101AB80008D07B681B889BB243F001039AB27B680D
:101AC8001A8007E07B681B889BB223F001039AB257
:101AD8007B681A800C37BD465DF8047B704700BFF1
:101AE80080B485B000AF7860396000237B81002323
:101AF800FB810023BB817B681B8C9BB223F0100306
:101B08009AB27B681A847B681B8CFB817B689B88F4
:101B1800BB817B681B8B7B817B8923F4E0437B81C2
:101B28007B8923F440737B813B681B881B029AB234
:101B38007B8913437B81FB8923F02003FB813B686E
:101B48009B891B019AB2FB891343FB813B685B8825
:101B58001B019AB2FB891343FB817A680023C4F204
:101B680001039A4206D07A684FF48063C4F20103F5
:101B78009A422BD1FB8923F08003FB813B68DB89E8
:101B88001B019AB2FB891343FB81FB8923F04003B5
:101B9800FB813B689B881B019AB2FB891343FB813D
:101BA800BB8923F48063BB81BB8923F40063BB81B9
:101BB8003B681B8A9B009AB2BB891343BB813B6875
:101BC8005B8A9B009AB2BB891343BB817B68BA8945
:101BD8009A807B687A891A833B689A687B689A63DB
:101BE8007B68FA891A841437BD465DF8047B704710
:101BF80080B485B000AF7860396000237B81002312
:101C0800FB810023BB817B681B8C9BB223F4807310
:101C18009AB27B681A847B681B8CFB817B689B88E3
:101C2800BB817B689B8B7B817B8923F070037B81E5
:101C38007B8923F003037B813B681A887B891343E4
:101C48007B81FB8923F40073FB813B689B891B0222
:101C58009AB2FB891343FB813B685B881B029AB2EB
:101C6800FB891343FB817A680023C4F201039A427B
:101C780006D07A684FF48063C4F201039A422BD1EC
:101C8800FB8923F40063FB813B68DB891B029AB262
:101C9800FB891343FB81FB8923F48063FB813B6849
:101CA8009B881B029AB2FB891343FB81BB8923F4EF
:101CB8008053BB81BB8923F40053BB813B681B8ADB
:101CC8001B019AB2BB891343BB813B685B8A1B012A
:101CD8009AB2BB891343BB817B68BA899A807B68B7
:101CE8007A899A833B689A687B68DA637B68FA89A1
:101CF8001A841437BD465DF8047B704780B485B0FC
:101D080000AF786039600023BB8100237B8100230A
:101D1800FB817B681B8C9BB223F480539AB27B684F
:101D28001A847B681B8C7B817B689B88FB817B6822
:101D38009B8BBB81BB8923F4E043BB81BB8923F424
:101D48004073BB813B681B881B029AB2BB89134353
:101D5800BB817B8923F400537B813B689B891B03F0
:101D68009AB27B8913437B813B685B881B039AB2D9
:101D78007B8913437B817A680023C4F201039A426A
:101D880006D07A684FF48063C4F201039A420AD1FC
:101D9800FB8923F48043FB813B681B8A9B019AB231
:101DA800FB891343FB817B68FA899A807B68BA892F
:101DB8009A833B689A687B681A647B687A891A8474
:101DC8001437BD465DF8047B704700BF80B485B00A
:101DD80000AF78600B467B800023FB817B681B8B00
:101DE800FB81FB8923F40063FB817B881B029AB289
:101DF800FB891343FB817B68FA891A831437BD4634
:101E08005DF8047B704700BF80B485B000AF786090
:101E18000B467B800023FB817B689B8BFB81FB89C6
:101E280023F00803FB81FA897B881343FB817B68D5
:101E3800FA899A831437BD465DF8047B704700BF62
:101E480080B485B000AF78600B467B800023FB81AF
:101E58007B689B8BFB81FB8923F40063FB817B8878
:101E68001B029AB2FB891343FB817B68FA899A8328
:101E78001437BD465DF8047B704700BF80B483B05B
:101E880000AF786013460A467A807B707B78002B17
:101E980008D07B689B899AB27B8813439AB27B6887
:101EA8009A8109E07B689B899AB27B88DB439BB265
:101EB80013409AB27B689A810C37BD465DF8047B63
:101EC800704700BF80B485B000AF78600B467B8058
:101ED8000023FB730023BB8100237B817B681B8A63
:101EE8009AB27B881340BB817B689B899AB27B88B6
:101EF80013407B81BB89002B05D07B89002B02D046
:101F08000123FB7301E00023FB73FB7B18461437A6
:101F1800BD465DF8047B704780B483B000AF78603D
:101F28000B467B807B88DB439AB27B681A820C372E
:101F3800BD465DF8047B704780B483B000AF78601D
:101F480045F61823C2F201037A681A6000BF45F605
:101F58001823C2F201031B68002BF8D10C37BD46C9
:101F68005DF8047B704700BF80B400AF45F61823C6
:101F7800C2F201031B68002B0AD045F61823C2F2EF
:101F880001031B685A1E45F61823C2F201031A60A2
:101F9800BD465DF8047B704780B483B000AF03464C
:101FA8003960FB7197F90730002B0EDA4FF46D4357
:101FB800CEF20003FA7902F00F02111F3A68D2B28A
:101FC8001201D2B20B441A760CE04FF46143CEF200
:101FD800000397F907103A68D2B21201D2B20B4443
:101FE80083F800230C37BD465DF8047B704700BFBB
:101FF80080B582B000AF78607B68B3F1807F01D391
:1020080001231AE04EF21003CEF200037A6822F0A0
:102018007F42013A5A604FF0FF300F21FFF7BCFFB3
:102028004EF21003CEF2000300229A604EF2100323
:10203800CEF2000307221A60002318460837BD466F
:1020480080BD00BF80B58EB006AF43F2AF63FB61C1
:10205800FEF72EFF40F20003C2F200031A6844F6AE
:10206800D353C1F26203A3FB02139B091846FFF77F
:10207800BFFF0346002B00D0FEE701F05DF945F6EF
:102088002C20C2F201009FEDDA0A43F2AF61FFF79C
:102098005BFAF869FFF7CCFA4FF40060C4F202006B
:1020A80008210222FFF70AFA4FF40060C4F2020086
:1020B80009210222FFF702FA45F6A463C2F20103DE
:1020C8004FF440721A6045F6A463C2F2010302227B
:1020D8001A7145F6A463C2F2010300229A7145F60B
:1020E800A463C2F2010303225A7145F6A463C2F243
:1020F80001030022DA714FF40060C4F2020045F6D1
:10210800A461C2F20101FFF715F94FF48060C4F22F
:10211800000001210122FFF7B1FE45F68863C2F2F3
:1021280001031D221A7045F68863C2F201030022DA
:102138005A7045F68863C2F2010301229A7045F687
:102148008863C2F201030122DA7045F68860C2F2A0
:102158000100FEF7C1FF01F0D3F94FF480500121CF
:10216800FFF7CCFA0BF0E4FB01F08EF801F0FCFB72
:1021780001F04EFA4FF44060C4F202004FF480516F
:10218800FFF78EF94AF2F400C0F602000AF084FA6A
:1021980000200AF0ADFA0BF08DFB49F2DC30C0F6F6
:1021A80002000BF08BF90223009342F23D73C0F654
:1021B80000030193002302930020BE214FF4A07274
:1021C800322305F0FFFCB8614FF400000AF090FAE2
:1021D8000223009342F23D73C0F6000301930023EB
:1021E8000293002010214FF4A072AE2305F0EAFC00
:1021F800024645F6B063C2F201031A6045F6B063C1
:10220800C2F201031B68184605F092FB0BF052FB63
:10221800B86905F08DFBBB69009302230193002385
:1022280002934FF4B8730393002000215022322305
:1022380004F06AF9786178694AF2F401C0F602019B
:1022480004F09AF9786949F2EC31C0F6020104F019
:102258006BF97869002104F0A0F9BB6900930223A7
:1022680001930023029340F271130393502000213D
:102278005022322304F048F9386138694AF2F401EF
:10228800C0F6020104F078F9386949F2F431C0F671
:10229800020104F049F93869002104F07EF9BB69AC
:1022A800009302230193002302934FF4B97303931D
:1022B800A02000215022322304F026F9F860F868A3
:1022C8004AF2F401C0F6020104F056F9F86849F23E
:1022D800FC31C0F6020104F027F9F868002104F087
:1022E8005CF9BB690093022301930023029340F237
:1022F80073130393F02000215022322304F004F9D1
:10230800B860B8684AF2F401C0F6020104F034F982
:10231800B86849F20441C0F6020104F005F9B8684A
:10232800002104F03AF946F20900C0F6000003F073
:10233800E3FF45F6B063C2F201031B680093102364
:102348000193002302934FF4BA730393B4206A21D4
:102358007422322304F0D8F8024645F66863C2F2C4
:1023680001031A6045F66863C2F201031B68184648
:102378004CF67441C0F6020104F0FEF845F66863B5
:10238800C2F201031B68184649F20C41C0F602016B
:1023980004F0CAF845F66863C2F201031B681846E0
:1023A800002104F0FAF845F6B063C2F201031B6895
:1023B8000093102301930023029340F275130393B3
:1023C8001420782178221E2304F09EF8024645F650
:1023D8007863C2F201031A6045F67863C2F201031A
:1023E8001B6818464AF2F401C0F6020102E000BF79
:1023F8000000C84204F0C0F845F67863C2F2010351
:102408001B68184649F21441C0F6020104F08CF822
:1024180045F67863C2F201031B681846002104F0F0
:10242800BCF845F6B063C2F201031B6800930023B1
:102438000193012302934FF404730393D7202821B7
:102448003222782302F0E2FA024645F6AC63C2F281
:1024580001031A6045F6AC63C2F201031B68184613
:1024680000214FF4004202F0B0F945F6AC63C2F225
:1024780001031B6818460121002202F0A6F945F65F
:10248800B063C2F201031B68009300230193002389
:10249800029340F60103039349F22443C0F6020372
:1024A800049342F23D73C0F6000305930A200A2103
:1024B80078227D2302F08AFD024645F6A063C2F227
:1024C80001031A6045F6A063C2F201031B681846AF
:1024D80004F005FD7860786842F6A101C0F60001B5
:1024E80004F0F6FA786804F08BFC03467A680092E8
:1024F800022201924FF42072029201220392C82212
:102508000492002000211A46322302F0AFF8024656
:1025180045F68063C2F201031A6045F68063C2F291
:1025280001031B6818464CF2D011C0F6020102F0F4
:10253800AFF845F68063C2F201031A6840F2180347
:10254800C2F200031B681046194602F02DF945F641
:10255800A063C2F201031B68184602F011FB034690
:10256800C3F114037A6800920222019200220292B7
:102578004FF4BB72039218463C215022282303F0E3
:10258800C3FF386038684AF2F401C0F6020103F06C
:10259800F3FF386849F23C41C0F6020103F0C4FF7A
:1025A8003868002103F0F9FF0BF084F945F6B063B1
:1025B800C2F201031B68184605F0BAF9B86904F0BD
:1025C800B5F900F09BF900F001FD32200AF045F85A
:1025D800F9E700BF80B500AF4FF48060C4F2000097
:1025E8000121FFF76FFC0346002B48D04FF48060B1
:1025F800C4F200000121FFF78FFC45F62823C2F240
:1026080001031B68322B0DDC45F62823C2F20103B7
:102618001A6845F62C23C2F2010353F822301846F3
:10262800FFF72CF845F62823C2F201031B68312B6B
:102638000DDD45F62823C2F201031A6845F62C235E
:10264800C2F2010353F822301846FFF737F845F66F
:102658002823C2F201031B685A1C45F62823C2F23C
:1026680001031A6045F62823C2F201031B68652B93
:1026780005D145F62823C2F2010300221A6080BD65
:10268800B0B48DB000AF786049F69A13C4F2F11374
:10269800FB6048F21F53C3F6AB733B614DF63B73C7
:1026A800C4F221237B614FF2C353C4F2EF23BB6111
:1026B80043F23333C4F23303FB614FF6D503C4F25C
:1026C800A7333B624EF24813C4F26F237B624BF68A
:1026D8005203C4F25123BB6247F6E123C4F26F23CD
:1026E800FB627B681C4607F10C050FCD0FC40FCDAC
:1026F8000FC42B68236078683437BD46B0BC704778
:1027080090B486B000AF78601823FB604FF07C531C
:102718003B610123BB6048237B617B681C4607F152
:1027280008030FCB84E80F0078681837BD4690BCC3
:10273800704700BF80B584B000AF78607B681B68C5
:10274800262B40F09F807B689B68184604F0AFFBFF
:10275800F8607B68DB68BB60FB68A3F5B873052B82
:1027680000F2958001A252F823F000BF8D270008DF
:10277800BF270008F127000823280008552800086B
:102788007B280008BB68012B13D0022B00D078E00F
:1027980045F62023C2F201031B68002B08D045F63A
:1027A8002023C2F2010300221A6000F0A7F801E01A
:1027B80000E000BF65E0BB68012B13D0022B00D0FE
:1027C8005FE045F62023C2F201031B68012B08D005
:1027D80045F62023C2F2010301221A6000F066FACE
:1027E80001E000E000BF4CE0BB68012B13D0022BD6
:1027F80000D046E045F62023C2F201031B68022BF5
:1028080008D045F62023C2F2010302221A6000F024
:1028180013F901E000E000BF33E0BB68012B13D0DF
:10282800022B00D02DE045F62023C2F201031B68DD
:10283800032B08D045F62023C2F2010303221A60B5
:1028480000F0E0FA01E000E000BF1AE0BB68022BEC
:1028580000D016E040F21C03C2F200031B7883F09C
:102868000103DAB240F21C03C2F200031A7000BF7F
:1028780007E0BB68022B00D002E000F047FB00BF76
:1028880000BF04E0786805F05BFC00BF00E000BF13
:102898001037BD4680BD00BF80B584B000AF7860FA
:1028A8007B681B680F2B02D0262B09D01FE04CF247
:1028B800C000C0F2C00009F01BFF0AF0FBFF19E0DE
:1028C8007B689B68184604F0F2FAF8607B68DB685E
:1028D800BB60FB68B3F5BB7F00D00BE0BB68022B85
:1028E80000D002E000F044FB00BF00BF02E07868BF
:1028F80005F026FC1037BD4680BD00BF80B500AF8F
:1029080045F6B063C2F201031B68184605F010F8DB
:1029180045F66863C2F201031B68184603F024FFFA
:1029280045F66863C2F201031B68184604F006FB0B
:1029380045F67863C2F201031B68184604F021FAD1
:1029480045F67863C2F201031B68184604F0F9FAE9
:1029580045F6AC63C2F201031B68184604F011FA8D
:1029680045F6A063C2F201031B68184604F009FA91
:102978000AF0A0FF002009F0BDFE14201821102243
:102988000BF07EF81420422110220BF079F8142065
:102998006C2110220BF074F81420962110220BF0F1
:1029A8006FF840F21B10282120220BF069F8C02094
:1029B800282120220BF064F800F008FB4FF47F4038
:1029C800C0F2FF0009F096FE4AF2F400C0F60200D9
:1029D80009F062FE49F24040C0F602002C211022A4
:1029E8000AF064FD49F2F430C0F602002C213A22C4
:1029F8000AF05CFD49F24C40C0F602002C2164222A
:102A08000AF054FD49F25840C0F602002C218E22EB
:102A18000AF04CFD49F26840C0F602004FF48A7192
:102A28004C220AF043FD49F26C40C0F60200B52181
:102A38004C220AF03BFD80BD80B58AB000AF45F658
:102A4800B063C2F201031B68184604F071FF45F633
:102A58006863C2F201031B68184604F092F945F650
:102A68006863C2F201031B68184604F06AFA45F667
:102A78007863C2F201031B68184604F082F945F630
:102A88007863C2F201031B68184604F05AFA45F647
:102A9800AC63C2F201031B68184604F072F945F6EC
:102AA800A063C2F201031B68184604F06AF90AF031
:102AB80001FF3B1D1846FFF7E3FD4FF40040C0F24D
:102AC800800009F017FE9F200421A02271230AF03C
:102AD8001FF8032076214FF49E7277230AF018F826
:102AE8004FF47F40C0F2FF0009F004FE4AF2F40000
:102AF800C0F6020009F0D0FD3C20102109F0C4FF07
:102B080049F27040C0F602000AF0D8FCD82009F05B
:102B1800B3FF49F27840C0F602000AF0CFFC49F250
:102B28008440C0F602000AF0C9FCD7ED017AB0EE85
:102B3800670A062009F054FB49F29040C0F60200EB
:102B48000AF0BCFCA22009F097FF49F28440C0F6C5
:102B580002000AF0B3FCD7ED047AB0EE670A06204B
:102B680009F03EFB49F29440C0F602000AF0A6FCC8
:102B780049F29840C0F602000AF0A0FCD7ED027AAC
:102B8800B0EE670A062009F02BFB49F2A440C0F614
:102B980002000AF093FCA22009F06EFF49F2984067
:102BA800C0F602000AF08AFCD7ED057AB0EE670A93
:102BB800062009F015FB49F2A840C0F602000AF009
:102BC8007DFC49F2AC40C0F602000AF077FCD7ED74
:102BD800037AB0EE670A062009F002FB49F2B44016
:102BE800C0F602000AF06AFCA22009F045FF49F28B
:102BF800AC40C0F602000AF061FCD7ED067AB0EEF0
:102C0800670A062009F0ECFA49F2B840C0F602005B
:102C18000AF054FCA22009F02FFF49F2BC40C0F68C
:102C280002000AF04BFCD7ED077AB0EE670A0620DF
:102C380009F0D6FA49F2C840C0F602000AF03EFC94
:102C480049F2D040C0F602000AF038FCD7ED087A05
:102C5800B0EE670A062009F0C3FA20200AF0FAFC51
:102C6800B0200AF0F7FC49F2E040C0F602000AF092
:102C780025FC49F2E440C0F602000AF01FFCD7ED3B
:102C8800097AB0EE670A062009F0AAFA20200AF0AD
:102C9800E1FCB0200AF0DEFC43200AF0DBFC4FF434
:102CA800000009F025FD2837BD4680BD80B584B0F9
:102CB80000AF45F6B063C2F201031B68184604F082
:102CC80037FE45F66863C2F201031B68184604F034
:102CD80058F845F66863C2F201031B68184604F009
:102CE80030F945F67863C2F201031B68184603F011
:102CF8003BFD45F67863C2F201031B68184604F0F1
:102D08001DF945F6AC63C2F201031B68184603F0CF
:102D18002BFD0AF0CFFD3B461846FFF7F1FC45F6C0
:102D2800AC63C2F201031A68FB681046194601F049
:102D38007DFE4FF47F40C0F2FF0009F0DBFC4AF251
:102D4800F400C0F6020009F0A7FCE420102109F005
:102D58009BFEFB681846022109F08DFA25200AF02F
:102D680079FC3B68002B08D049F2F440C0F6020019
:102D7800002110220AF09AFB07E049F20850C0F639
:102D88000200002110220AF091FB49F28440C0F6AB
:102D980002000AF093FB7B681846022109F06BFADF
:102DA80049F29440C0F602000AF088FB49F29840C4
:102DB800C0F602000AF082FBD7ED027AB0EE670A8D
:102DC800032009F00DFA49F21C50C0F602000AF07F
:102DD80075FB49F22450C0F602000AF06FFB40F27E
:102DE8001803C2F200031B681846022109F043FACF
:102DF80049F23050C0F602000AF060FB1037BD46B9
:102E080080BD00BF80B500AF45F6B063C2F20103D4
:102E18001B68184604F08CFD45F66863C2F201038E
:102E28001B68184603F0ADFF45F66863C2F201035C
:102E38001B68184604F085F845F67863C2F201036A
:102E48001B68184603F09DFF45F67863C2F201033C
:102E58001B68184604F075F845F6AC63C2F2010326
:102E68001B68184603F08DFF45F6A063C2F2010304
:102E78001B68184603F085FF0AF01CFD49F2C830AC
:102E8800C0F602000C210C220AF01EFA4FF47F4013
:102E9800C0F2FF0009F02EFC4CF2D010C0F6020080
:102EA80009F0FAFBAE200C2109F0EEFD49F234508E
:102EB800C0F602000AF002FBAE2009F0DDFD49F27F
:102EC8004050C0F602000AF0F9FA4EF26C10C0F653
:102ED800020009F0E1FBAE207B2109F0D5FD49F2A3
:102EE8004850C0F602000AF0E9FAAE20952109F030
:102EF800CBFD49F26050C0F602000AF0DFFA09F093
:102F0800D3FD034618460AF0D9FA80BD80B500AF54
:102F180045F67863C2F201031B68184604F011F8FD
:102F280045F68063C2F201031A6840F21803C2F240
:102F380000031B681046194601F036FC45F6A063ED
:102F4800C2F201031B68184604F0F2FC45F6A063C0
:102F5800C2F201031B68184603F006FC45F6A0639D
:102F6800C2F201031B68184603F0E0FC80BD00BFF5
:102F780080B500AF45F68063C2F201031B681846AE
:102F880001F07BFA024640F21803C2F200031A600D
:102F980045F6B063C2F201031B68184604F0C8FC8A
:102FA80045F6A063C2F201031B68184603F0E9FE68
:102FB80045F67863C2F201031B68184603F0E1FE88
:102FC8000AF078FCFFF772FE80BD00BF80B58EB0B6
:102FD80000AF07F114031846FFF752FB3B1D1846D4
:102FE800FFF78EFB45F62023C2F201031B68032B73
:102FF80000F2468101A252F823F000BF1530000804
:1030080033310008C13100088932000840F21C033E
:10301800C2F200031B7803F01003002B04D04FF416
:103028007F4009F067FB02E0FF2009F063FB1420F2
:1030380018210C220AF024FD40F21C03C2F20003FE
:103048001B7803F00803002B04D04FF47F4009F0ED
:1030580051FB02E0FF2009F04DFB142042210C2215
:103068000AF00EFD40F21C03C2F200031B7803F0C5
:103078000403002B04D04FF47F4009F03BFB02E02F
:10308800FF2009F037FB14206C210C220AF0F8FC11
:1030980040F21C03C2F200031B7803F00203002B6A
:1030A80004D04FF47F4009F025FB05E044F24000CE
:1030B800C0F2400009F01EFB142096210C220AF0F1
:1030C800DFFC40F21C03C2F200031B7803F001038B
:1030D800002B15D04FF47F4009F00CFB40F21B1079
:1030E80028211B220AF0CCFC44F24000C0F2400028
:1030F80009F000FBC02028211B220AF0C1FCC0E017
:1031080044F24000C0F2400009F0F4FA40F21B100B
:1031180028211B220AF0B4FCFF2009F0EBFAC0209A
:1031280028211B220AF0ACFCABE045F6B063C2F2E2
:1031380001031B68184604F0FBFBE420102109F08A
:10314800A3FC3B691846022109F095F838201021A4
:1031580009F09AFC7B68002B06D049F26C50C0F647
:1031680002000AF0ABF905E049F27850C0F6020017
:103178000AF0A4F94820202109F086FCBB6818460B
:10318800022109F078F84820302109F07DFCD7EDBC
:10319800037AB0EE670A032009F022F85020502184
:1031A80009F072FC40F21803C2F200031B681846CB
:1031B800022109F060F864E04820302109F064FC3D
:1031C800D7ED057AB0EE670A062009F009F848201D
:1031D800402109F059FCD7ED067AB0EE670A0620BF
:1031E80008F0FEFF3820502109F04EFCD7ED077A91
:1031F800B0EE670A062008F0F3FFEA20302109F054
:1032080043FCD7ED087AB0EE670A062008F0E8FF1D
:10321800EA20402109F038FCD7ED097AB0EE670AB8
:10322800062008F0DDFFDA20502109F02DFCD7ED4B
:103238000A7AB0EE670A062008F0D2FFFA20602169
:1032480009F022FCD7ED0B7AB0EE670A062008F0E9
:10325800C7FF7020802109F017FCD7ED0C7AB0EE7B
:10326800670A062008F0BCFF7020902109F00CFCCA
:10327800D7ED0D7AB0EE670A062008F0B1FF00E03E
:1032880000BF3837BD4680BD80B500AF4FF4006041
:10329800C4F202004FF40051FEF702F91E20FEF7B7
:1032A8004BFE4FF40060C4F202004FF40051FEF7E9
:1032B800E9F80A20FEF740FE0720212100F024F853
:1032C8000020012100F020F80720232100F01CF83D
:1032D8001020002100F018F81E20FEF72DFE072010
:1032E800332100F011F8112046F2180100F00CF813
:1032F80002204FF4C06100F007F8012042F63F3188
:1033080000F002F880BD00BF80B483B000AF024671
:103318000B46FA80BB804FF6FE73C6F20103FA88AB
:103328001A804FF6FE73C6F20103BA885A800C372A
:10333800BD465DF8047B704780B582B000AF0023BE
:103348003B6000237B601C200121FEF7D7F94FF476
:1033580000533B6001233B7102237B713B464FF4D2
:103368000060C4F202001946FDF7E4FF4CF6B3739F
:103378003B6002233B7102237B710023BB71002356
:10338800FB713B464FF44060C4F202001946FDF75A
:10339800D1FF4FF44060C4F2020000210C22FEF776
:1033A8008DF84FF44060C4F2020001210C22FEF7B0
:1033B80085F84FF44060C4F2020004210C22FEF7A5
:1033C8007DF84FF44060C4F2020005210C22FEF79C
:1033D80075F84FF44060C4F2020007210C22FEF792
:1033E8006DF84FF44060C4F2020008210C22FEF789
:1033F80065F84FF44060C4F2020009210C22FEF780
:103408005DF84FF44060C4F202000A210C22FEF776
:1034180055F84FF44060C4F202000B210C22FEF76D
:103428004DF84FF44060C4F202000E210C22FEF762
:1034380045F84FF44060C4F202000F210C22FEF759
:103448003DF84FF680733B6002233B7102237B718A
:103458000023BB710023FB713B464FF48050C4F23C
:1034680002001946FDF766FF4FF48050C4F20200CF
:1034780007210C22FEF722F84FF48050C4F2020014
:1034880008210C22FEF71AF84FF48050C4F202000B
:1034980009210C22FEF712F84FF48050C4F2020002
:1034A8000A210C22FEF70AF84FF48050C4F20200F9
:1034B8000B210C22FEF702F84FF48050C4F20200F0
:1034C8000C210C22FDF7FAFF4FF48050C4F20200E1
:1034D8000D210C22FDF7F2FF4FF48050C4F20200D8
:1034E8000E210C22FDF7EAFF4FF48050C4F20200CF
:1034F8000F210C22FDF7E2FF0837BD4680BD00BF53
:1035080080B596B000AF07F13C0300221A6004337F
:1035180000221A60043300221A60043300221A6061
:10352800043300221A60043300221A600433002294
:103538001A6004333A463C23104600211A460EF01E
:1035480055FC01200121FEF701F90023FB630A2342
:103558007B640023FB6400237B6500233B6000231E
:103568007B600023BB601023FB6000233B610023CA
:10357800BB610023FB6100233B624FF480537B62F5
:103588000023BB620023FB6200233B6307F13C037B
:103598007B6307F13C03BB6300237B613B46184612
:1035A800FDF700FE00200121FDF79AFE5837BD46C1
:1035B80080BD00BF80B400AF45F6C063C2F201030E
:1035C8001B681846BD465DF8047B704780B485B01B
:1035D80000AF786045F6C063C2F201031A687B68E1
:1035E8001344FB6000BF45F6C063C2F201031B68C9
:1035F800FA68D31A002BF6DC1437BD465DF8047B55
:10360800704700BF80B400AFBD465DF8047B7047CB
:1036180080B58AB000AF04200121FEF7BFF808206A
:103628000121FEF76BF84FF400533B62022387F841
:103638002430032387F82530002387F82630012318
:1036480087F8273007F120034FF44060C4F20200E6
:103658001946FDF76FFE4FF44060C4F202000D21D9
:103668000222FDF72BFF4FF480533B62012387F8BA
:103678002430032387F82530002387F826300123D8
:1036880087F8273007F120034FF44060C4F20200A6
:103698001946FDF74FFE45F6C033C2F20103012279
:1036A8001A8040F65E03BB6145F6C033C2F20103DF
:1036B8001B88BB820023BB830023FB8207F1140312
:1036C8004FF40060C4F200001946FEF753F9702366
:1036D8003B8001237B804FF47A73BB600023BB815E
:1036E8003B464FF40060C4F200001946FEF7F8F9B3
:1036F8004FF40060C4F200000821FEF767FB4FF4A6
:103708000060C4F200000121FEF7AAF94FF400603E
:10371800C4F200000121FEF7C3F92837BD4680BD79
:1037280080B400AFBD465DF8047B704780B400AF3D
:10373800FEE700BF80B400AFFEE700BF80B400AF73
:10374800FEE700BF80B400AFBD465DF8047B70475C
:1037580080B400AFBD465DF8047B704780B400AF0D
:10376800BD465DF8047B704780B500AF45F6C06381
:10377800C2F201031B685A1C45F6C063C2F201037A
:103788001A60FEF7F1FB40F22003C2F200031B7837
:10379800013BDAB240F22003C2F200031A7040F291
:1037A8002003C2F200031B78002B07D140F220034C
:1037B800C2F2000364221A7000F0D0FA80BD00BF84
:1037C80080B584B000AF0346FB710023FB7300BFD4
:1037D8004FF46050C4F200000221FEF7AFF8034630
:1037E800002BF5D0FB799BB24FF46050C4F2000077
:1037F8001946FEF795F800BF4FF46050C4F2000078
:103808000121FEF79BF80346002BF5D04FF46050DA
:10381800C4F20000FEF776F80346FB73FB7B1846FC
:103828001037BD4680BD00BF80B485B000AF78605A
:103838000023FB6002E0FB680133FB60FA687B68E9
:103848009A42F8D31437BD465DF8047B704700BF31
:1038580080B582B000AF0023FB804FF48060C4F2D3
:1038680002004FF40061FDF71BFE3220FFF7DCFF7A
:10387800D020FFF7A5FF3220FFF7D6FF0020FFF783
:103888009FFF0346FB80FB881B02FB800020FFF79D
:1038980097FF03461A46FB881344FB804FF4806069
:1038A800C4F202004FF40061FDF7ECFDFB881B0930
:1038B800FB80FB88C3F30B03FB80FB8818460837A3
:1038C800BD4680BD80B582B000AF0023FB804FF4B9
:1038D8008060C4F202004FF40061FDF7E1FD322080
:1038E800FFF7A2FF9020FFF76BFF3220FFF79CFF46
:1038F8000020FFF765FF0346FB80FB881B02FB8067
:103908000020FFF75DFF03461A46FB881344FB803F
:103918004FF48060C4F202004FF40061FDF7B2FD7D
:10392800FB881B09FB80FB88C3F30B03FB80FB8828
:1039380018460837BD4680BD80B500AFFFF7C2FF07
:1039480003461A4645F6D863C2F201039A80FFF788
:103958007FFF03461A4645F6D863C2F20103DA80B0
:103968000123184680BD00BF80B582B000AF4FF478
:1039780080400121FDF73AFF4FF480400121FDF717
:103988000DFF02200121FDF7B9FE4FF48060C4F25B
:1039980002000D210522FDF791FD4FF48060C4F26D
:1039A80002000E210522FDF789FD4FF48060C4F264
:1039B80002000F210522FDF781FD02233B7102233E
:1039C8007B710023BB710223FB714FF400533B60F2
:1039D8003B464FF48060C4F202001946FDF7AAFC8A
:1039E8004FF400433B603B464FF48060C4F2020052
:1039F8001946FDF79FFC4FF480433B603B464FF46C
:103A08008060C4F202001946FDF794FC4FF400638D
:103A18003B6001233B710023BB7102237B710123AF
:103A2800FB713B464FF48060C4F202001946FDF773
:103A380081FC4FF48060C4F202004FF40061FDF78E
:103A480021FD45F6C463C2F2010300221A8045F63F
:103A5800C463C2F201034FF482725A8045F6C4630C
:103A6800C2F2010300229A8045F6C463C2F2010340
:103A78000222DA8045F6C463C2F2010301221A81E8
:103A880045F6C463C2F201034FF400725A8145F649
:103A9800C463C2F2010330229A8145F6C463C2F2BC
:103AA80001030022DA8145F6C463C2F2010307224A
:103AB8001A824FF46050C4F2000045F6C461C2F2A5
:103AC8000101FDF7BBFE4FF46050C4F20000012174
:103AD800FDF7F8FE4FF480400121FDF787FE002333
:103AE8003B7102237B710023FB714FF480533B60D1
:103AF8003B464FF48060C4F202001946FDF71AFCF9
:103B08000837BD4680BD00BF80B58CB000AF00232C
:103B180087F82D3000237B854FF48060C4F20200C3
:103B28004FF48051FDF794FC0346002B40F01181BF
:103B3800FFF702FF25E0FFF7FFFE0346002B20D02A
:103B480097F82D1045F6D863C2F201039A884B0006
:103B580007F13000034423F8302C97F82D1045F670
:103B6800D863C2F20103DA8801F10A035B0007F1A6
:103B780030010B4423F8302C97F82D30013387F8A7
:103B88002D3097F82D30092BD5D997F82D300A2BE1
:103B980040F0D980002387F82E30002387F82F3093
:103BA8003EE097F82F305B0007F13002134433F8FA
:103BB800302C97F82F3001335B0007F130000344B5
:103BC80033F8303C9A4226D997F82F3001335B00FE
:103BD80007F130010B4433F8303C7B8597F82F30E0
:103BE800591C97F82F305B0007F13002134433F863
:103BF800302C4B0007F13000034423F8302C97F8A1
:103C08002F305B0007F130010B447A8D23F8302CFC
:103C1800012387F82E3097F82F30013387F82F309B
:103C280097F82F2097F82D30013B9A42B9DB97F887
:103C38002E30002BAED1002387F82E30002387F8D2
:103C48002F3045E097F82F300A335B0007F1300238
:103C5800134433F8302C97F82F3001330A335B00C4
:103C680007F13000034433F8303C9A422BD997F8D7
:103C78002F3001330A335B0007F130010B4433F86E
:103C8800303C7B8597F82F30591C97F82F300A3332
:103C98005B0007F13002134433F8302C01F10A03BA
:103CA8005B0007F13000034423F8302C97F82F30DD
:103CB8000A335B0007F130010B447A8D23F8302C6E
:103CC800012387F82E3097F82F30013387F82F30EB
:103CD80097F82F2097F82D30013B9A42B2DB97F8DE
:103CE8002E30002BA7D1FB881A463B891A447B89C2
:103CF8001A4445F25653C5F2555383FB0201D317B4
:103D0800CB1A9AB245F6D863C2F201039A807B8B2C
:103D18001A46BB8B1A44FB8B1A4445F25653C5F21C
:103D2800555383FB0201D317CB1A9AB245F6D863D1
:103D3800C2F20103DA8045F6C233C2F2010301225E
:103D48001A70012306E045F6C233C2F201030022CD
:103D58001A70002318463037BD4680BD80B500AFC5
:103D6800FFF7D2FE45F6D863C2F201039B88A3F1A0
:103D780067024AF6AB23C2F6AA2383FB0201D317D4
:103D8800CA1A45F61863C2F201031A6045F6D863E9
:103D9800C2F20103DB881846FCF744FB02460B46D7
:103DA800104619464FF000024FF00003C4F22103F9
:103DB800FCF7C8FC02460B4610461946FCF7AAFD5C
:103DC800024645F61863C2F201035A604FF4806058
:103DD800C4F202004FF48051FDF73AFB0346002B72
:103DE80006D045F61863C2F2010300221A7205E0F4
:103DF80045F61863C2F2010301221A7245F61860EB
:103E0800C2F2010008F04CFD80BD00BF031E02DABB
:103E18005B42022000E00120092B04DD0A22013068
:103E280093FBF2F3F8E770472DE9F04188B080463C
:103E38000D460AF0F1F9034608A893F9A27040F874
:103E48001C3D2FB1002183F8A2100AF0F3F92FE0EE
:103E5800D3F89840B3F888600AF0ECF96B1C27D0C7
:103E6800204602F07FFFB8B10E2002A90490079106
:103E78000122204604A9002D14BF13251125CDF8D1
:103E8800188005940295039203F0DAFC204604A9F1
:103E9800039703F0D5FC0BE020461DB902F068F843
:103EA800811902E002F064F8811B204602F06EF8E6
:103EB80008B0BDE8F0812DE9F04389B00F4680468F
:103EC8000AF0AAF9034608A8DC6AD3F8989040F8E3
:103ED8001C3D93F88C602568B3F88A400AF0AAF96B
:103EE800484602A902F0C8FF06A9404602F0C4FFEE
:103EF800384608F0FFFBBDF80C20BDF80810A8B242
:103F080083185A1A93B2012EADF81000ADF8143088
:103F18000AD0022E0FD10134A2B211189C18ADF8A4
:103F28001010ADF8144006E0021901341B19ADF861
:103F38001020ADF81430BDF80A10BDF81A30ADF8ED
:103F480012004A1ED11A8AB211B200B28142ADF8EB
:103F5800162002DB04A808F0CFFDBDF80E30BDF82E
:103F68001A20591C881ABDF81E108A1A551B83B2CC
:103F7800A8B2ADF8123005B21BB29D42ADF81600DA
:103F880002DB04A808F0B8FD09B0BDE8F0832DE90C
:103F9800F3470C4690460AF03FF9034602A8DA6A4E
:103FA800DD8893F88CA0B3F90490B3F9001040F8B9
:103FB800043DB3F88A705B881668EA1AC1EB0909F0
:103FC80095B20AF037F9BAF1010F04D026D3BAF145
:103FD800020F39D10CE0B6B2F7192680A78068081D
:103FE800B8F1000F29D0421CAE1B6280E6802BE09E
:103FF800B0B22D1A6080E580B8F1000F0AD11FFA1F
:1040080089FCC7EB0C073F1AC0EB0C092780A4F802
:10401800049019E0C1192080A18015E01FFA89FEDB
:10402800B2B2C7EB0E039F1AC2EB0E092780A4F8A1
:1040380004906808B8F1000F02D16680E08003E0C0
:10404800411CAD1A6180E580BDE8FC8713B50A46BE
:1040580004466946FFF79BFF2046694603F00AFCC1
:104068001CBD37B505460C460AF0D6F8826A0190A1
:1040780092071DD590F8A310E4B2012303FA04F3C4
:1040880021EA030280F8A320D0F89C0040B102F096
:10409800DEFA01980023FF21C0F89C3080F8A010B8
:1040A8002846022102F0A3FD28462146FFF7CEFF4D
:1040B80001A80AF0BFF83EBDF7B500260C46154624
:1040C80069463246074600960196FFF760FFBDF93C
:1040D80000309C420BDBBDF90400844207DCBDF9CB
:1040E80002108D4203DBBDF9062095420DDD012249
:1040F80038466946FFF74BFFBDF90060B44203DB61
:10410800BDF904309C4202DDFF2670B2FEBDBDF948
:1041180002008542F8DBBDF906108D42F4DC012669
:10412800F3E7F0B5446885B0054620460AF074F810
:1041380004ABD0F8986043F80C0DB0F888701846B6
:104148000AF078F828680D281ED1E968CB68002B9A
:1041580000F091811A7A002A00F08D81304602F031
:1041680001FE002840F08781204602F0FBFD002870
:1041780000F08181204602F019FE002840F07B8182
:10418800204602F0D3FB76E11E280CD1304602F01F
:10419800E9FD40B1EA683046012112B10AF0FEFC9F
:1041A80001E00AF010FD204629460AF029FD002802
:1041B80000F061812968112900F0988007DC0E2938
:1041C8002AD00F2968D00B2940F0528110E0282905
:1041D8004ED003DC262940F04B814EE040F2131309
:1041E800994200F0E480B1F5107F40F04181FAE097
:1041F80020460AF011F80190D0F89C0040B102F076
:1042080026FA019B0020FF22C3F89C0083F8A02017
:1042180001A80AF00FF82BE1EC686268002A00F0A8
:104228002781304602F09EFD88B9304601F0A0FE95
:1042380002462068112805D0132840F0198130461D
:10424800D11B01E03046D11901F0A0FE10E1AB68A6
:10425800B34208D121680939012900F20981686847
:1042680002F064FB04E13046294603F0E9FAFFE076
:104278003046E96802F040FEFDE0E968052909D00A
:10428800C0F2F9800839012900F2F580204603F0D0
:104298002DFBF0E02046E8E0204609F0BDFF04A928
:1042A800C56A41F80C0D08462D6809F0C3FF204681
:1042B80002F0BAFDA0EB4503002B304602DD02F008
:1042C80053FA01E002F05DFD204609F0A5FF04A9BC
:1042D80041F8040DD0F894000568084609F0AAFFD3
:1042E800002D00F0C8802046A847C4E0204609F009
:1042F80093FFEE68029096E806002046FFF7DCFE82
:1043080001210546204602F0C7FB307A012801D07A
:1043180080283FD1717A002945D1029A691C82F818
:10432800A15032D0204609F077FF836A03909A079C
:104338000FD590F8A3300121EEB201FA06F21A4324
:1043480080F8A320204602F052FC20463146FFF7B1
:104358007DFE03A809F06EFF6B1C16D0204609F0FD
:104368005BFFD0F89C30039006465BB9204640F2CC
:10437800D2414FF4C87202F0A1F9C6F89C00039824
:1043880080F8A05003A809F055FF20462946FFF7FA
:104398004BFD08E038B9029B93F9A110481C02D0E4
:1043A8002046FFF75EFE04A850F8081D57E0204697
:1043B80009F032FF04AA42F8080D90F8A050104600
:1043C80009F038FF204669B2FFF72EFD204609F0B4
:1043D80023FF04AC322144F8040DD0F89C0002F00D
:1043E8009BF920463DE0E968204600293CD009F0C9
:1043F80013FF0390D0F8980002F0B4FC08B92046E7
:1044080002E0039ED6F8980002F090FAEE68204683
:1044180096E80600FFF750FE327A05460398A2B1E7
:10442800691C07D190F9A1104A1C03D0002380F819
:10443800A2300EE0039B93F9A110A9420CD00122EF
:1044480083F8A2206B1C02D106E090F9A110481C49
:1044580002D02046FFF705FE04A850F8041D81F895
:10446800A15009F0E7FE06E0032102F0C0FB02E0DC
:10447800284603F065FE05B0F0BD37B5054660B1C6
:1044880009F0CAFE02AC44F8040DD0F8980001F017
:104498006FFD0546204609F0CDFE28463EBD37B5DE
:1044A8000D4660B109F0B8FE02AC294644F8040D87
:1044B800D0F8980000F0DEFE204609F0BBFE3EBDB5
:1044C8002DE9F04F8BB01546179F189EB7429846B6
:1044D80002DB4FF0000ABDE0149C0094159C019487
:1044E8005E4C0294199C7834039403F0BBFA82461C
:1044F8000028EED009F090FE1699099010220AF0D3
:1045080077FB574BDDF824B018685649CBF8940070
:1045180060220BF13400FCF775FADBF82C10BBF8BD
:104528008A40D1F800C06CB96FF0010202FB0CF4AC
:104538002B19984501DA444402E0042095FBF0F475
:10454800ABF88A403846CDF81CC0FFF75FFC8146BF
:104558003046FFF75BFC834600F09EFE08F0A0FAA9
:10456800DDF81CC06FF0010101FB0CF208EB02033F
:10457800984206DA0223C0EB080898FBF3F10346D9
:1045880000E06146B5EB040E58D4364890F8580060
:10459800012808D00ED3022810D16444A5EB4405A5
:1045A800601CAA1E0CE0A4440EEB02040CF10100EE
:1045B800621E05E07244013A604601E000200246AE
:1045C800159DCDF800A00195002502950395CB45D2
:1045D800ACBFCDF810B0CDF8109001F0C7FA09992A
:1045E8000446C1F89800C1F88070C1F884603A4662
:1045F800334639460095019500F0E8FF20461A49F0
:104608000AF0D8F9099B20461A6F294601F086FC62
:10461800099A20460121526F01F080FC099B20462F
:104628009A6F294601F08FFC099A20460121D26F22
:1046380001F089FC2046594600F023FE09A809F03C
:10464800F9FD50460021FFF72AFF0548016850464A
:104658004B68984750460BB0BDE8F08F2B410008D7
:10466800840000202400002008F2020810B586B05B
:10467800089C0094099C01940A9C02940B9C039446
:104688000C9C049400240594FFF71AFF06B010BD93
:104698002DE9F047894688B00746002800F0818058
:1046A80009F0BAFD034608A8D3F89860D96A40F81B
:1046B800143D93F88CA0B3F88A500C6809F0BAFD41
:1046C8003046494601F01AFC384604A902F0D4FBEA
:1046D800304606A902F0D0FBBDF91670BDF91200EC
:1046E800BDF91480BDF910303A1AC3EB08014846E9
:1046F800571C01F1010808F0D3F9BAF1010F0AD0EB
:1047080011D3BAF1020F1AD1BDF81020691CA3B257
:10471800511859180BE0BDF81020A3B2D1186D1824
:10472800ADF8185007E0BDF81020A3B29918521B35
:10473800ADF81810013AD31A9844ADF81C80BDF9A9
:104748001E20BDF91A10531A5A1CA7EB44018A42BD
:104758000DDA3F1A0221BDF8123097FBF1F2D71893
:10476800BFB23818ADF81A70ADF81E000AE0BDF8EF
:104778001200A4B2421E2318141BE719ADF81A3010
:10478800ADF81E70BDF91A20BDF91E00BDF918104C
:10479800BDF91C30801A013000905B1A304601F0D8
:1047A800F6FF08B0BDE8F08737B50D4660B109F0EF
:1047B80033FD02AC294644F8040DD0F8980001F006
:1047C800E5FB204609F036FD3EBD73B50C4615469F
:1047D800064668B109F020FD012C019005D800EBD0
:1047E80084043046256503F081F801A809F022FD0C
:1047F8007CBD13B502AB426343F8041D416C806C69
:10480800521A64246243411A92FBF1F0194609F0E6
:10481800DDFF019B252200201A7058701CBD37B59A
:1048280045680446214628460AF0EAF910B3236889
:104838000B2B10D00F2B1AD1284609F0EDFC02A93A
:1048480041F8040D426E1468084609F0F3FC8CB177
:104858002846A0470EE0284609F0DEFC02AD45F8E0
:10486800040D383009F02AFF284609F0E3FC2046F9
:1048780003F066FC3EBD806B09F0CEBC2DE9F0412B
:10488800B0F90030B0F9047004460D46F81AB4F9CE
:104898000210B4F90680471C1046C1EB080608F060
:1048A8000DF906F10108064608F020F9E26AB4F8A5
:1048B8004030116803F00302012A06D0022A09D108
:1048C800BF1B97FBF2F1298005E0CB43DF19BF1B23
:1048D8002F8000E02980A28F2988C0EB0808531890
:1048E80002219AB298FBF1F3E18F2A805B1899B202
:1048F800013A013896190B186980AE80EB80BDE843
:10490800F08170B590F86830C26A13F0010615BFDF
:10491800B0F90230B0F90030B0F90650B0F90450DF
:104928001468ED1A436C806C01359942B8BF19467A
:104938008142A8BF0146A5EB44050EB1411A00E02B
:10494800C91AC21A694391FBF2F3E01870BD00005E
:104958002DE9F04387B00E9C0F9F0094274C0197D8
:104968000294129C4034039403F07CF80746002814
:1049780040D0052009F037FF804600283AD0384655
:1049880009F04AFCDFF880901199049000220AF09F
:104998002FF938461A491B4D0AF00CF8049ED9F82D
:1049A8000030C6F8388073660FCD06F14C040FC48A
:1049B80095E80300109A84E803006421022000248B
:1049C800A6F84000B16486F868207464404609F08F
:1049D80023FC2246014605900498FFF70AFF05A824
:1049E80009F028FC04A809F025FCD9F8003038465D
:1049F80059688847384607B0BDE8F083274800085B
:104A080008F202088C0000208800002010B586B04B
:104A1800089C0094099C01940A9C02940B9C0394A2
:104A280000240494FFF794FF06B010BD2DE9F0416F
:104A38000D4686B00746002800F09F8009F0ECFB81
:104A4800436C816C466B00909D42B8BF1D468D42F9
:104A5800A8BF0D46AE42044600F08C8090F86880EE
:104A680018F0010F1CD0B54207DA2946FFF749FFB5
:104A78003146ADF80E00204606E03146FFF741FF0B
:104A88002946ADF80E002046FFF73BFF002240F60E
:104A9800FF73ADF80A00ADF80820ADF80C3064E0FB
:104AA800B54207DA2946FFF72CFF3146ADF8080072
:104AB800204606E03146FFF724FF2946ADF80800F6
:104AC8002046FFF71EFF08F00203ADF80C0040F681
:104AD800FF720020D9B2ADF80A00ADF80E20002907
:104AE80043D1A06B0491059109F0C4FB042810DCA4
:104AF80006AC54F8180D846B684609F09BFB2046F9
:104B0800052107F06EFE0446384609F085FB009043
:104B180084630098FFF7AFFE019038B3009EF06CF5
:104B280007F0BAFD04A90646019A0098FFF7A6FE09
:104B380002A804AA06AC014607F042FF9DE803005C
:104B48002A46FFF756FE54F8142D009804A9FFF7DB
:104B580095FE02A8014604AA07F032FF304607F086
:104B68009BFD204609F066FB00E06563384602A914
:104B780002F080FE684609F05DFB06B0BDE8F081F2
:104B880037B5054670B109F047FB02ACC36D44F870
:104B9800040D98680021026828469047054620467B
:104BA80009F048FB28463EBD37B50D46044609F0D6
:104BB80033FBB0F87C20019002F008018BB21DB1E4
:104BC80053B942F0080202E033B122F00802A0F81B
:104BD8007C20204602F08AFE01A809F02BFB3EBD8E
:104BE80070B58AB005460C4609F016FB0AABC26DD3
:104BF80043F8280D6846966809F01CFB0195032CBC
:104C08000BD8DFE804F002040608182004E0162098
:104C180002E0152000E017200290716801A888477B
:104C28000AB070BD2DE9F043456887B004462846B0
:104C380002F02DF9064609F0EFFA034606A85F6E62
:104C480040F8143DD3F84880D3F8809009F0F2FA80
:104C580020680E38142850D8DFE800F02F0B4F4F8B
:104C68004F4F54544F544F4F4F4F4F4F1E2A4F4F93
:104C78004C006FF07042904504D0404606F076FD37
:104C880008F018FE002F40D094E80F0002AE86E826
:104C98000F000395304633E0E168002935D0B9F1BB
:104CA800000F23D0A94521D0484601F03FFE2CE053
:104CB8003046214609F0A4FF27E0E3685868002839
:104CC8001BDD1968092911D00A2916D1284601F0D7
:104CD800CAFD0446304609F09FFA024606A840F885
:104CE800142DC2F8804009F0A5FA0EE0284601F01C
:104CF800EBFDEEE7C4F80C8007E01FB166602046C4
:104D0800B84702E0204603F01BFA07B0BDE8F0837D
:104D180008B50346408E00F0200188B230B1B3F9DF
:104D2800540018B9586B07F0B7FE023008BDF0B54B
:104D380085B004460D46164609F06EFAC26D00901D
:104D480003C8976804AB03E90300684609F072FAE0
:104D58003A682046002190470746204602F0B7F8F7
:104D6800044650B3204609F057FA0346BDF90AE055
:104D7800B3F902C00190CEEB0C0CBC450088BDF81D
:104D88000820998812D19B6A1B0612B207D500B277
:104D9800811A3268914209DC4B1E336006E008B282
:104DA800811A2A68914201DB4B1C2B6001A809F08B
:104DB80041FA204602F073F8D2E705B0F0BD2DE9BC
:104DC800F04F87B004460F4609F026FAC26D0390EB
:104DD800956801212B68204698472E680321834651
:104DE8002046B0472A680221814620469047002184
:104DF80001902D682046A8470546039801F0F2FF68
:104E08008246039801F0F5FF80460398418E01F031
:104E180020039EB20EB1B0F95860FFF779FF024641
:104E28000398C06E18B1009201F0FEFF009A3A8014
:104E380092B29319A9B2CE180AF1FF3A019B788071
:104E4800C9EB0A0C0139301808F1FF381FFA8CF940
:104E580052181FFA8BFBF880C3EB080078817A821E
:104E6800A7F804B0A7F80890A7F80CB0A7F8109016
:104E7800FD8103A809F0DEF9B7F91000B7F90C3085
:104E8800059004A905AA20460493FFF750FF04994A
:104E9800059AB9813A8207B0BDE8F08F37B50D465B
:104EA8000446C0B109F0B8F9036F00906846019351
:104EB80009F0C0F901A8294606F0BFFC58B1204600
:104EC80009F0AAF9019900900167684609F0B2F95A
:104ED800204602F00BFD3EBD2DE9F0438BB0129C3D
:104EE800DDF84C900094354C0294189C49F4805697
:104EF80060340196039402F0B5FD0646002858D0A8
:104F080009F08AF92E4D15990490302209F070FEA7
:104F18000DF128080FCD58F8187D07F134040FC497
:104F28000FCD0FC495E80300264D179B84E80300B6
:104F3800149829687B660024A7F87C00C7F880408D
:104F4800FC66C7F88840F965404609F073F93046B1
:104F580005A9FFF734FFBDF91A10BDF91E70BDF998
:104F68001800BDF91C2003947B1A41F2827701973F
:104F7800154F0096121A01320133029702F072FDA2
:104F880004462868416830468847304609F044F9A5
:104F980004908466404609F04DF942F2040209EA99
:104FA800020313B9304601F0D0FE30461699FFF7D8
:104FB80075FF30460BB0BDE8F08300BF0550000810
:104FC800A4000020CC0000202D4C000810B588B0AB
:104FD8000A9C00940B9C01940C9C02940D9C0394D5
:104FE8000E9C04940F9C059400240694FFF774FF0C
:104FF80008B010BD08B1FFF7D7BD70472DE9F047DD
:1050080044688CB00546204609F006F9C36D019046
:10501800D0F88870D0F88060D0F86880B0F87C90BC
:1050280013B1D3F800A000E09A4601A809F002F9EC
:105038003FB17B6828469847002840F018813F68B0
:10504800F6E72868172800F08D8018DC0F2844D070
:1050580006DC0B2800F0F7800D2840F00081C2E044
:1050680011281CD0142840F0FA80204607A9FFF721
:10507800A6FE08AB03CBEA6810605160F7E026286B
:1050880073D005DC1E287DD0202840F0E880BAE0E7
:105098002A2814D0B0F5107F40F0E18024E02046A3
:1050A800EE6809F0B9F802903189012905D1B0F804
:1050B8007C2042F48073A0F87C3002A8CDE0204622
:1050C80009F0AAF8EB68019013B1C0F8843002E047
:1050D800D0F88400E86001A841E0BAF1000F00F0C0
:1050E800BE802046D047BAE02046D5F80C8009F0AB
:1050F80093F80CAEB0F87C7046F8280D304609F0ED
:1051080099F8E868002800F0B28098F80810D9B13A
:1051180007F0080081B211B9204601F007FC2046CB
:1051280001F014FF07F48872B2F5887F40F09F8081
:1051380007F08007BBB2002B40F09980204641461B
:10514800052201F041FC92E0204609F065F8B0F82C
:105158007C20029022F48073A0F87C30304609F05D
:1051680069F884E0C5F80C8081E0E96802297ED1FD
:1051780006910CA9272241F8242DA868059401F06E
:1051880013FA74E0D5F80C90B9F1010F26D1304626
:1051980001F0E6FD58B1304601F0C8FB304601F099
:1051A80005FE98B13046494609F0F8FC0EE0404645
:1051B80001F08AFB0646204609F02EF80CABC0F831
:1051C800806043F82C0D184609F034F82046012178
:1051D800FFF710FF002E4AD1EE6048E0204639461E
:1051E800FFF708FF43E009F008091FFA89F10029D1
:1051F80035D1EA68D368002B31D0187A78B32046C5
:1052080001F094FB2BE0EE684EB37068214601F084
:1052180003FA20B120460121FFF7C6FC1FE0204613
:105228003946FFF7C1FC3068214601F0E4F9B0B116
:10523800204608F0F1FF0CA9326841F8280DC0F8A3
:105248008020084609E0204608F0E6FF0CAE46F844
:105258002C0D703009F032FA304608F0EBFF20468A
:10526800294609F0CDFC10B1284602F069FF0CB0C0
:10527800BDE8F08711B1102109F090BC102109F0A8
:10528800A2BC10B5044630B100F0F5FB2046BDE8DD
:10529800104002F02BBB10BD014B9868704700BF4F
:1052A800D00000201FB508F0B7FF0190406B08F050
:1052B800B3FF019B029093F856200390D2070DD5B7
:1052C800986C002807DB03A909F026FA019B93F8DC
:1052D8003820511E0CE093F838100AE0B3F9381062
:1052E8000A2904DD986C11EA200138BF0A21986C5C
:1052F800C9B293F8442003AB09F01AFA02A808F0DF
:1053080099FF019B93F8561001F00200C2B24AB30C
:10531800B3F9384093F84410023C09B1C843241843
:10532800586B08F079FF002302900390A34216DC23
:105338002BB9039A11782B290CD02D290AD0039A5E
:10534800107830280BD1094950780978884206D05E
:1053580020201070039A511C01330391E6E702A83C
:1053680008F068FF01A808F065FF1FBD725F012003
:1053780070B5C36CB0F93850866C044690F8560086
:10538800ED1A6B1EC00703D516B9002BC8BFAB1E9C
:1053980094F8445015B1AB42C8BF013B154613F110
:1053A800FF3302D30A204543F9E7002A354402DADD
:1053B800B54203DB06E005D0B54203DD08462946C1
:1053C80000F0E4FD94F85610C90710D546B975B138
:1053D800B4F93810E36C4A1E934208DA581C04E00A
:1053E8002DB9E26C002A02DD501EE06470BD70BD6C
:1053F80038B50C46C96C0131054600F03CFB204627
:1054080000F021FB094B1A7882420DD1B4F938001B
:10541800E16C431E9942284601DA013100E0013966
:10542800BDE8384000F027BB38BD00BF725F0120DF
:10543800836C002B00DC03D00846594200F0A6BD5F
:10544800704700002DE9F7430D46044608F0E4FED6
:1054580001460090002800F0AD80122D3ED004DCFB
:10546800102D3DD0112D52D11AE02B2D04D02D2D09
:105478000BD0132D4BD11EE0C26C002A40F09A804D
:10548800816C002980F2928007E0C36C002B40F009
:105498009180816C002940F389802046494283E04D
:1054A80000F0D1FAC0B22D280CD02B280AD00098D1
:1054B800214601220FE000F0C6FAC0B22D2801D023
:1054C8002B2804D100982146FFF7B2FF72E000981C
:1054D80021464FF0FF32FFF74BFF6BE0204667E0B5
:1054E800C16C2046013900F0C6FA009800F0ABFA0A
:1054F800344B1A7882425DD10098C16C002920464D
:1055080001DD013900E0013100F0B5FA52E008464A
:1055180000F099FAC3B22D2B4CD02B2B4AD0A5F111
:105528003008B8F1090F45D8009E706B08F074FE7A
:10553800B6F838E0019000250FFA8EFC01222B46C0
:10554800511E61452BDA0FFA8EF7F16CC2EB070991
:10555800894506D11C4951F82310013301FB085530
:105568001BE0C7195142795C96F8567007F002079C
:10557800FFB217B1202908BF3021A1F13007092F48
:1055880008D8002F06DBDFF8409059F82390013344
:1055980009FB07552D2908BF6D420132D0E701A844
:1055A80008F048FE2046294600F0F0FC0099204605
:1055B800FFF71EFF684608F03DFE2046FFF772FE23
:1055C800BDE8FE83725F0120B0F102082DE9F743C0
:1055D800DDF82880894615461E46074600285CD017
:1055E80008F01AFE2E4B2F49044602A8A3659DF821
:1055F8002C30C4F8489000224FF0010940F8044DBF
:10560800E165E264E563266484F8448084F85630F2
:1056180084F8549094F8804008F00CFE24B3002ECF
:1056280002DA7642022100E04946092E04DD0A200A
:10563800013196FBF0F6F8E7002D02DA6D420223FD
:1056480000E00123092D04DD0A22013395FBF2F560
:10565800F8E7B8F1000F01D00133013138468B4229
:10566800A8BF194600F097FC3846FFF71BFE3846DE
:1056780008F0D2FD019000F0E6F90B490A78824261
:1056880005D10198C36C3846591C00F0F4F901A8FB
:1056980008F0D0FD384602F029F9BDE8FE8300BFC6
:1056A8004D540008AD520008725F0120F7B50D4651
:1056B800074608F0B1FD024602A8568F546B40F821
:1056C800082DAE19684608F0B5FD2046314607F0AA
:1056D80088F80546B0B144B908F09EFD014602A815
:1056E80040F8041D0C7008F0A5FD384608F094FD3C
:1056F80002AB468743F8080D4563684608F09AFDF3
:105708000120FFE7FEBDF7B506460F4608F084FD09
:105718000090406B58B108F07FFD02AC44F8040DCE
:105728000CF00CFC0546204608F084FD00E0054618
:1057380002AB781953F8082D548F411C0C1B68468E
:1057480008F078FD002C08DD304604F11001FFF761
:10575800ADFF003018BF012000E00120FEBD2DE99B
:10576800F3410D4606460021284690461F46ADF8EF
:1057780004108DF8061006F099FD044605EB0800A4
:1057880085B2284606F092FD84420CD1294601A82C
:1057980006F084FD01A938462246FBF733F9304666
:1057A800052101F024FABDE8FC8173B5064608F02E
:1057B80033FD024602A8546B40F8082D6846D56CA4
:1057C80008F038FD04B3204608F026FD29460446B3
:1057D800019006F087FD054620460CF0AFFB854298
:1057E8000FD26419204606F049FD211820460CF016
:1057F80047FB01A808F01EFD3046052101F0F7F926
:1058080002E001A808F016FD7CBD00002DE9F0417A
:105818008CB000258846064601950A950B9508F038
:10582800FBFC044600903046029500F0DBFE04EBDA
:1058380080030646586F05F099FF04EB860004AD17
:10584800C06E05F09BFFA06E06F026FF2046294695
:1058580009F086F9606B10B108F0DEFC029095E85B
:10586800030006AE86E80300B4F86420BDF81810FB
:105878005318BDF81C10D243581C5318ADF8180023
:10588800ADF81C3031460298236E08AA06F06AFA71
:10589800668E16F001065CD0029894F8556006F002
:1058A800D9F807460298002E08BF0126002850D0D4
:1058B80094F854200025039522B9216D41B3B8F11D
:1058C800000F25D0E56CBD422CDA266DBEB1B8F1CB
:1058D800000F14D00026E06C216D421895420ADAB8
:1058E80029463A460023029806F01CF908F092FB74
:1058F80001353618EFE7002E08BF012612E02946C9
:105908003A4603AB06F00EF908F084FB064609E0B8
:10591800334B1D68012D05D1324A39461368E26CB4
:105928009847039008AB93E803000CAD05E9030022
:10593800039820B1BDF828108A1BADF828200298DA
:10594800E16CBDF828503A4606F0D8F82B18ADF8A7
:105958002830029810B102A808F06CFC0099486B36
:1059680010B108F059FC0190002002F0FFF940B98D
:10597800B8F1000F28D0009A0021D06F00F0CCFEBB
:1059880022E004A800F012FFB8F1000F05D001983A
:1059980004A906AA08AB09F019F80098418ECB07AC
:1059A80009D5BDF92800BDF92A10BDF92E30821994
:1059B800013A07F031F8002000F0F8FE009809F0ED
:1059C800DAF902F013F9D2E7684608F033FC019BD4
:1059D80013B101A808F02EFC0CB0BDE8F08100BF9F
:1059E800545F0120685F012073B50D4604461646D2
:1059F80008F012FC0190C16B3EB1036CA94238BF9C
:105A080029468B4238BF194606E0026C8D42A8BF72
:105A180029469142A8BF1146826C8A420FD0816400
:105A2800C16D09B120468847204601F05FFF01A8F3
:105A380008F000FC2046052101F0D9F802E001A891
:105A480008F0F8FB7CBD73B50646406B80B108F0E2
:105A5800E3FB02ACF16C44F8040D054606F042FC89
:105A6800281806F013FC0546204608F0E3FB00E082
:105A7800054628467CBD13B50C4608F0CDFB0090C2
:105A8800406BE8B108F0C8FB019005F0E3FF009B0C
:105A980093F85420B3F9381024EAE474002A18BFA4
:105AA80001398C42A8BF0C46DA6C8442B8BF204644
:105AB800824218BFD8640020186501A808F0BAFB14
:105AC800684608F0B7FB1CBD2DE9F04186B00C9C78
