:020000040800F2
:1000000024090020A50E000879280008150F000813
:10001000852800088D2800089528000800000000A9
:100020000000000000000000000000009D28000803
:10003000A928000800000000B5280008C128000811
:10004000150F0008150F0008150F0008150F000800
:10005000150F0008150F0008150F0008150F0008F0
:10006000150F0008150F0008150F0008150F0008E0
:10007000150F0008150F0008150F0008150F0008D0
:10008000150F0008150F0008150F0008150F0008C0
:10009000150F0008150F0008150F0008150F0008B0
:1000A000150F0008150F0008150F0008150F0008A0
:1000B000150F000835230008150F0008150F00085C
:1000C000150F0008150F0008150F0008150F000880
:1000D000150F0008150F0008150F0008150F000870
:1000E000150F0008150F0008150F0008150F000860
:1000F000150F0008150F0008150F0008150F000850
:10010000150F0008150F0008150F0008150F00083F
:10011000150F0008150F0008150F0008150F00082F
:10012000150F0008150F0008150F0008150F00081F
:10013000150F0008150F0008150F0008150F00080F
:10014000150F0008150F0008150F0008150F0008FF
:10015000150F0008150F0008150F0008150F0008EF
:10016000150F0008150F0008150F0008150F0008DF
:10017000150F0008150F0008150F0008150F0008CF
:08018000150F0008150F00081F
:1001880081F0004102E000BF83F0004330B54FEA40
:1001980041044FEA430594EA050F08BF90EA020FAD
:1001A8001FBF54EA000C55EA020C7FEA645C7FEA40
:1001B800655C00F0E2804FEA5454D4EB5555B8BF63
:1001C8006D420CDD2C4480EA020281EA030382EAD4
:1001D800000083EA010180EA020281EA0303362D66
:1001E80088BF30BD11F0004F4FEA01314FF4801C39
:1001F8004CEA113102D0404261EB410113F0004F4B
:100208004FEA03334CEA133302D0524263EB430301
:1002180094EA050F00F0A780A4F10104D5F1200E9F
:100228000DDB02FA0EFC22FA05F2801841F10001FA
:1002380003FA0EF2801843FA05F359410EE0A5F1CE
:1002480020050EF1200E012A03FA0EFC28BF4CF0FF
:10025800020C43FA05F3C01851EBE37101F00045B5
:1002680007D54FF0000EDCF1000C7EEB00006EEBC2
:100278000101B1F5801F1BD3B1F5001F0CD349084C
:100288005FEA30004FEA3C0C04F101044FEA4452A3
:1002980012F5800F80F09A80BCF1004F08BF5FEA2A
:1002A800500C50F1000041EB045141EA050130BD0A
:1002B8005FEA4C0C404141EB010111F4801FA4F1AD
:1002C8000104E9D191F0000F04BF01460020B1FA02
:1002D80081F308BF2033A3F10B03B3F120020CDA3A
:1002E8000C3208DD02F1140CC2F10C0201FA0CF018
:1002F80021FA02F10CE002F11402D8BFC2F1200C7D
:1003080001FA02F120FA0CFCDCBF41EA0C01904032
:10031800E41AA2BF01EB0451294330BD6FEA04047B
:100328001F3C1CDA0C340EDC04F11404C4F1200266
:1003380020FA04F001FA02F340EA030021FA04F378
:1003480045EA030130BDC4F10C04C4F1200220FACF
:1003580002F001FA04F340EA0300294630BD21FA0D
:1003680004F0294630BD94F0000F83F4801306BFD3
:1003780081F480110134013D4EE77FEA645C18BFC7
:100388007FEA655C29D094EA050F08BF90EA020F5E
:1003980005D054EA000C04BF1946104630BD91EA56
:1003A800030F1EBF0021002030BD5FEA545C05D159
:1003B8004000494128BF41F0004130BD14F5800498
:1003C8003CBF01F5801130BD01F0004545F0FE410C
:1003D80041F470014FF0000030BD7FEA645C1ABF41
:1003E800194610467FEA655C1CBF0B46024650EA78
:1003F800013406BF52EA033591EA030F41F40021A4
:1004080030BD00BF90F0000F04BF0021704730B529
:100418004FF4806404F132044FF000054FF00001FE
:1004280050E700BF90F0000F04BF0021704730B5BF
:100438004FF4806404F1320410F0004548BF404294
:100448004FF000013EE700BF42004FEAE2014FEAE9
:1004580031014FEA02701FBF12F07F4393F07F4FC4
:1004680081F06051704792F0000F14BF93F07F4FF6
:10047800704730B54FF4607401F0004521F0004139
:1004880020E700BF50EA010208BF704730B54FF0BF
:1004980000050AE050EA010208BF704730B511F0C4
:1004A800004502D5404261EB41014FF4806404F1FC
:1004B80032045FEA915C3FF4DCAE4FF003025FEA7E
:1004C800DC0C18BF03325FEADC0C18BF033202EB06
:1004D800DC02C2F1200300FA03FC20FA02F001FA60
:1004E80003FE40EA0E0021FA02F11444C1E600BFFF
:1004F80070B54FF0FF0C4CF4E06C1CEA11541DBFB2
:100508001CEA135594EA0C0F95EA0C0F00F0DEF87C
:100518002C4481EA030621EA4C5123EA4C5350EA61
:10052800013518BF52EA033541F4801143F48013B2
:1005380038D0A0FB02CE4FF00005E1FB02E506F043
:100548000042E0FB03E54FF00006E1FB03569CF098
:10055800000F18BF4EF0010EA4F1FF04B6F5007F9E
:1005680064F5407404D25FEA4E0E6D4146EB060610
:1005780042EAC62141EA55514FEAC52040EA5E5099
:100588004FEACE2EB4F1FD0C88BFBCF5E06F1ED843
:10059800BEF1004F08BF5FEA500E50F1000041EB7A
:1005A800045170BD06F0004646EA010140EA020027
:1005B80081EA0301B4EB5C04C2BFD4EB0C0541EA49
:1005C800045170BD41F480114FF0000E013C00F35E
:1005D800AB8014F1360FDEBF002001F0004170BD82
:1005E800C4F10004203C35DA0C341BDC04F114049B
:1005F800C4F1200500FA05F320FA04F001FA05F227
:1006080040EA020001F0004221F0004110EBD370F3
:1006180021FA04F642EB06015EEA430E08BF20EA1F
:10062800D37070BDC4F10C04C4F1200500FA04F3C2
:1006380020FA05F001FA04F240EA020001F0004154
:1006480010EBD37041F100015EEA430E08BF20EAC7
:10065800D37070BDC4F1200500FA05F24EEA020E0F
:1006680020FA04F301FA05F243EA020321FA04F03E
:1006780001F0004121FA04F220EA020000EBD370F5
:100688005EEA430E08BF20EAD37070BD94F0000FF5
:100698000FD101F00046400041EB010111F4801F29
:1006A80008BF013CF7D041EA060195F0000F18BFDA
:1006B800704703F00046520043EB030313F4801F16
:1006C80008BF013DF7D043EA0603704794EA0C0FD0
:1006D8000CEA135518BF95EA0C0F0CD050EA4106E6
:1006E80018BF52EA4306D1D181EA030101F0004163
:1006F8004FF0000070BD50EA410606BF104619468B
:1007080052EA430619D094EA0C0F02D150EA013696
:1007180013D195EA0C0F05D152EA03361CBF1046D7
:1007280019460AD181EA030101F0004141F0FE4176
:1007380041F470014FF0000070BD41F0FE4141F4FA
:10074800780170BD70B54FF0FF0C4CF4E06C1CEAFA
:1007580011541DBF1CEA135594EA0C0F95EA0C0FAF
:1007680000F0A7F8A4EB050481EA030E52EA03356A
:100778004FEA013100F088804FEA03334FF080558B
:1007880045EA131343EA12634FEA022245EA1115B8
:1007980045EA10654FEA00260EF000419D4208BF69
:1007A800964244F1FD0404F5407402D25B084FEA16
:1007B8003202B61A65EB03055B084FEA32024FF4C2
:1007C80080104FF4002CB6EB020E75EB030E22BF1F
:1007D800B61A754640EA0C005B084FEA3202B6EBDF
:1007E800020E75EB030E22BFB61A754640EA5C008E
:1007F8005B084FEA3202B6EB020E75EB030E22BF1E
:10080800B61A754640EA9C005B084FEA3202B6EB1E
:10081800020E75EB030E22BFB61A754640EADC00DD
:1008280055EA060E18D04FEA051545EA16754FEA3F
:1008380006164FEAC30343EA52734FEAC2025FEA5D
:100848001C1CC0D111F4801F0BD141EA00014FF0EC
:1008580000004FF0004CB6E711F4801F04BF0143BD
:100868000020B4F1FD0C88BFBCF5E06F3FF6AFAED9
:10087800B5EB030C04BFB6EB020C5FEA500C50F169
:10088800000041EB045170BD0EF0004E4EEA1131EC
:1008980014EB5C04C2BFD4EB0C0541EA045170BDF3
:1008A80041F480114FF0000E013C90E645EA060E37
:1008B8008DE60CEA135594EA0C0F08BF95EA0C0F65
:1008C8003FF43BAF94EA0C0F0AD150EA01347FF4AD
:1008D80034AF95EA0C0F7FF425AF104619462CE784
:1008E80095EA0C0F06D152EA03353FF4FDAE1046E7
:1008F800194622E750EA410618BF52EA43067FF438
:10090800C5AE50EA41047FF40DAF52EA43057FF4C7
:10091800EBAE12E74FEA410212F5001215D211D5DB
:100928006FF47873B3EB625212D94FEAC12343F0E4
:10093800004343EA505311F0004F23FA02F018BF66
:10094800404270474FF00000704750EA013005D12F
:1009580011F0004008BF6FF0004070474FF00000F2
:10096800704700BF844641EA000313F003036DD1CA
:10097800403A41D351F8043B40F8043B51F8043B5A
:1009880040F8043B51F8043B40F8043B51F8043B61
:1009980040F8043B51F8043B40F8043B51F8043B51
:1009A80040F8043B51F8043B40F8043B51F8043B41
:1009B80040F8043B51F8043B40F8043B51F8043B31
:1009C80040F8043B51F8043B40F8043B51F8043B21
:1009D80040F8043B51F8043B40F8043B51F8043B11
:1009E80040F8043B51F8043B40F8043B51F8043B01
:1009F80040F8043B403ABDD2303211D351F8043BA1
:100A080040F8043B51F8043B40F8043B51F8043BE0
:100A180040F8043B51F8043B40F8043B103AEDD24F
:100A28000C3205D351F8043B40F8043B043AF9D2A0
:100A3800043208D0D2071CBF11F8013B00F8013B73
:100A480001D30B8803806046704700BF082A13D380
:100A58008B078DD010F003038AD0C3F10403D21A98
:100A6800DB071CBF11F8013B00F8013B80D331F8CC
:100A7800023B20F8023B7BE7043AD9D3013A11F84C
:100A8800013B00F8013BF9D20B7803704B784370B7
:100A98008B788370604670474FF0FF3C06E000BFDC
:100AA8004FF0010C02E000BF4FF0010C4DF804CDEF
:100AB8004FEA410C7FEA6C5C4FEA430C18BF7FEAAF
:100AC8006C5C1BD001B050EA410C0CBF52EA430CDD
:100AD80091EA030F02BF90EA020F0020704710F15D
:100AE800000F91EA030F58BF994208BF90422CBFEC
:100AF800D8176FEAE37040F0010070474FEA410CE5
:100B08007FEA6C5C02D150EA013C07D14FEA430C02
:100B18007FEA6C5CD6D152EA033CD3D05DF8040B73
:100B2800704700BF8446104662468C4619466346A5
:100B380000E000BF01B5FFF7B7FF002848BF10F17C
:100B4800000F01BD4DF808EDFFF7F4FF0CBF0120C1
:100B580000205DF808FB00BF4DF808EDFFF7EAFF3D
:100B680034BF012000205DF808FB00BF4DF808EDF8
:100B7800FFF7E0FF94BF012000205DF808FB00BFED
:100B88004DF808EDFFF7CEFF94BF012000205DF877
:100B980008FB00BF4DF808EDFFF7C4FF34BF012084
:100BA80000205DF808FB00BF80B500AF40F62410B8
:100BB800C2F200004FF4A83109F04CF94FF2487026
:100BC800C0F6000008F0D6FC80BD00BF80B483B03A
:100BD80000AF0346FB804FF6FE73C6F20103FA88A6
:100BE8001A800C37BD465DF8047B704780B483B02B
:100BF80000AF0346FB804FF6FE73C6F20103FA8886
:100C08005A800C37BD465DF8047B704780B483B0CA
:100C180000AF7860396007E00023C6F202037A6803
:100C2800911C796012881A803B685A1E3A60002B22
:100C3800F2D10C37BD465DF8047B704780B483B0B1
:100C480000AF7860396007E07A68931C7B60002306
:100C5800C6F202031B8813803B685A1E3A60002BB9
:100C6800F2D10C37BD465DF8047B704780B5A2B061
:100C780002AF07F1680300221A60043300221A60E9
:100C8800043300221A60043300221A60043300225D
:100C98001A6004333A466823104600211A460CF0BD
:100CA8001DFC40F2BC60C0F6010040F62C01C0F605
:100CB80001010022002308F0F1FBF8670020F02171
:100CC8004FF4A07206F08BFC0020F0214FF4A072C4
:100CD80006F06EFC06233B670223BB6707F1680337
:100CE800F86F194606F003FC40F6D533C0F600034A
:100CF8003B6240F6F533C0F600037B6240F61543CD
:100D0800C0F60003FB6240F64543C0F60003FB63F0
:100D18003B46F86F194646F66D02C0F6000246F6E5
:100D2800F963C0F6000306F000FC06F001FD034677
:100D3800002B0CD000204FF4A071F02206F04FFCDD
:100D480000204FF4A071F02206F032FC0BE00020E6
:100D5800F0214FF4A07206F042FC0020F0214FF47D
:100D6800A07206F025FC45F6A853C2F2010342F62C
:100D78001912C0F600021A6045F6A853C2F2010320
:100D880042F63D12C0F600025A6045F6A853C2F278
:100D9800010342F69112C0F600029A6045F6A85384
:100DA800C2F2010342F6B512C0F60002DA6045F657
:100DB800A853C2F2010342F6ED12C0F600025A63CC
:100DC80045F6A853C2F2010305221A6145F6A85355
:100DD800C2F2010300225A6145F6A853C2F2010388
:100DE800EF229A6145F6A853C2F201035222DA6152
:100DF80045F6A853C2F2010340F2AC721A6245F6F6
:100E0800A853C2F2010300225A6245F6A853C2F25F
:100E1800010340F23F129A6245F6A853C2F2010359
:100E28007622DA6245F6A853C2F2010340F27D72D7
:100E38001A6245F6A850C2F2010003F09DFD042095
:100E480007F078FD40F2AC7300930020002140F2D7
:100E58003F12522307F074FD40F27D730093012086
:100E68000021EF22762307F06BFD8037BD4680BD59
:100E780080B487B000AFF860B9607A60BB68012BB6
:100E880001D1002303E04FF0FF337B617B691846F3
:100E98001C37BD465DF8047B704700BF80B582B043
:100EA80000AF41F20853C0F601037B6040F2000333
:100EB800C2F200033B6007E03B681A1D3A607A689B
:100EC800111D796012681A603A6840F22413C2F260
:100ED80000039A42F0D30A480A494FF000028842B8
:100EE800B8BF40F8042BFADBDFF81C00016841F4B6
:100EF8007001016001F0DAF80837BD4680BD0000D6
:100F080024090020E85F012088ED00E080B400AFEC
:100F1800FEE700BF80B500AF4FF46D43CEF200038B
:100F28004FF46D42CEF20002D2F8882042F47002EB
:100F3800C3F888204FF46053C4F202034FF46052A0
:100F4800C4F20202126842F001021A604FF46053C0
:100F5800C4F2020300229A604FF46053C4F2020301
:100F68004FF46052C4F20202126822F0847222F432
:100F780080321A604FF46053C4F2020343F2100245
:100F8800C2F200425A604FF46053C4F202034FF4B5
:100F98006052C4F20202126822F480221A604FF4EE
:100FA8006053C4F202030022DA6000F009F84FF43B
:100FB8006D43CEF200034FF000629A6080BD00BF1F
:100FC80080B483B000AF00237B6000233B604FF404
:100FD8006053C4F202034FF46052C4F20202126872
:100FE80042F480321A604FF46053C4F202031B6863
:100FF80003F400333B607B6801337B603B68002B64
:1010080003D17B68B3F5A06FEDD14FF46053C4F200
:1010180002031B6803F40033002B02D001233B605A
:1010280001E000233B603B68012B40F082804FF4D5
:101038006053C4F202034FF46052C4F20202126C0D
:1010480042F080521A644FF4E043C4F200034FF4B4
:10105800E042C4F20002126842F480421A604FF47F
:101068006053C4F202034FF46052C4F20202926861
:101078009A604FF46053C4F202034FF46052C4F212
:101088000202926842F400429A604FF46053C4F23C
:1010980002034FF46052C4F20202926842F4A05272
:1010A8009A604FF46053C4F2020345F20842C0F25A
:1010B80040725A604FF46053C4F202034FF4605216
:1010C800C4F20202126842F080721A6000BF4FF444
:1010D8006053C4F202031B6803F00073002BF6D0C0
:1010E8004FF47053C4F2020340F205621A604FF4E1
:1010F8006053C4F202034FF46052C4F202029268D1
:1011080022F003029A604FF46053C4F202034FF4D2
:101118006052C4F20202926842F002029A6000BF72
:101128004FF46053C4F202039B6803F00C03082BCE
:10113800F6D10C37BD465DF8047B704780B485B0A6
:1011480000AF78600023FB730023BB730F237B730E
:101158007B68DB78002B40D04FF46D43CEF2000360
:10116800DB68DB4303F4E0631B0AFB73FB7BC3F11F
:101178000403BB737A7BFB7B42FA03F37B737B68C4
:101188005B781A46BB7B02FA03F3FB737B689A7899
:101198007B7B1340DAB2FB7B1343FB73FB7B1B01A6
:1011A800FB734FF46143CEF200037A68127813445C
:1011B800FA7B83F800234FF46143CEF200037A6888
:1011C80012785209D2B27968097801F01F0101201A
:1011D80000FA01F143F8221011E04FF46143CEF216
:1011E80000037A6812785209D2B27968097801F056
:1011F8001F01012000FA01F1203243F822101437B0
:10120800BD465DF8047B704780B483B000AF78605A
:101218004FF020437A681268796848687968896865
:1012280008437968C968084379680969084379688F
:10123800496908437968896908437968C96908432D
:101248007968096A08437968496A08437968896A44
:1012580008437968C96A08437968096B014343F808
:1012680022107B689B68082B0DD14FF020437A68C9
:1012780012684FF020417868006851F8201041F05A
:10128800400143F822104FF020437A681268013277
:101298007968496B08687968496B496809010843A6
:1012A8007968496B8968090208437968496BC96894
:1012B800090408437968496B09690905084379688D
:1012C800496B4969090608437968496B896901438B
:1012D80043F822107B68DB6AB3F5804F23D14FF4C3
:1012E8008273CAF200037A6812687968896B0868A1
:1012F8007968896B4968090108437968896B896845
:10130800090208437968896B0969090508437968FE
:10131800896B4969090608437968896B89690143BA
:1013280043F8221009E04FF48273CAF200037A6886
:1013380012686FF0704143F822100C37BD465DF813
:10134800047B704780B483B000AF78600B46FB70B5
:10135800FB78002B0CD04FF020434FF020427968E7
:1013680052F8212042F001017A6843F822100EE079
:101378004FF020424FF02043796853F821104FF680
:10138800FE73C0F20F030B40796842F821300C3726
:10139800BD465DF8047B704780B487B000AF7860C5
:1013A800396000237B6100233B610023FB6000233D
:1013B8007B6176E07B69012202FA03F33B613B68BB
:1013C8001A683B691340FB60FA683B699A4265D129
:1013D8007B681A687B695B00032101FA03F3DB432E
:1013E8001A407B681A607B681A683B681B79194643
:1013F8007B695B0001FA03F31A437B681A603B6858
:101408001B79012B03D03B681B79022B2ED17B68FB
:101418009A687B695B00032101FA03F3DB431A40F6
:101428007B689A607B689A683B685B7919467B6938
:101438005B0001FA03F31A437B689A607B685A6879
:101448007B699BB2012101FA03F3DB431A407B68F5
:101458005A607B685A683B689B7919467B699BB2DE
:1014680001FA03F39BB21A437B685A607B68DA6817
:101478007B699BB25B00032101FA03F3DB431A404B
:101488007B68DA607B68DA683B68DB7919467B69D8
:101498005B0001FA03F31A437B68DA607B69013366
:1014A8007B617B690F2B85D91C37BD465DF8047BB2
:1014B800704700BF80B485B000AF78600B467B8072
:1014C8000023FB737B681A697B881340002B02D0CA
:1014D8000123FB7301E00023FB73FB7B18461437E1
:1014E800BD465DF8047B704780B483B000AF786078
:1014F8000B467B807B687A881A830C37BD465DF87B
:10150800047B704780B483B000AF78600B467B8063
:101518007B687A885A830C37BD465DF8047B704730
:1015280080B485B000AF786013460A467A807B7035
:101538000023FB600023BB607A787B8803F00703F5
:101548009B0002FA03F3FB607B88DB089BB21A4618
:101558007B88DB089BB219467B68083153F8211059
:101568007B8803F007039B000F2000FA03F3DB439B
:1015780019407B68083243F822107B88DB089BB24D
:101588001A467B68083253F82220FB681343BB6075
:101598007B88DB089BB21A467B680832B96843F837
:1015A80022101437BD465DF8047B70470000000028
:1015B8002DE9B04388B000AFF86087ED020A796082
:1015C8000023FB610023BB614FF000037B619FEDAB
:1015D800307AD7ED027AC7EE277AC7ED057A00236D
:1015E800FB613EE07868FEF71DFF80468946FB698F
:1015F80007EE903AB8EEE77AD7ED057A67EE277AE4
:1016080017EE900AFEF720FF02460B4610461946D1
:101618001DA3D3E90023FEF76BFF02460B4643ECFC
:10162800172BB0EE470AF0EE670A0CF001F853ECFE
:10163800102B40464946FEF75BFF02460B46144610
:1016480023F0004520462946FFF764F90346BB61AD
:10165800FB699B00FA681344BA691A60FB69013395
:10166800FB61FB6907EE903AB8EEE77AD7ED027AAC
:10167800B4EEE77AF1EE10FAB4D918462037BD4631
:10168800BDE8B083AFF3008012E7FAA146DF913FCF
:101698000000B443AFF3008080B586B000AF786037
:1016A8000220012100F0AEF80023BB810023FB815A
:1016B8007B683B610023BB820023BB7507F10C03E9
:1016C8004FF48060C4F20000194600F087F94FF427
:1016D8008060C4F20000012100F016FA184618379D
:1016E800BD4680BD80B588B000AF78607023BB81EF
:1016F8000123FB8102233B837B687B6107F10C0399
:101708004FF48060C4F20000194600F02BFB4FF440
:101718008060C4F20000082100F0C6FB2037BD46F7
:1017280080BD00BF80B588B000AF78607023BB81F2
:101738000123FB8102233B837B687B6107F10C0358
:101748004FF48060C4F20000194600F085FA4FF4A7
:101758008060C4F20000082100F08AFB2037BD46F3
:1017680080BD00BF80B483B000AF78600B46FB70CB
:10177800FB78002B0CD04FF46053C4F202034FF4F3
:101788006052C4F20202116B7A680A431A630CE0D1
:101798004FF46053C4F202034FF46052C4F20202E1
:1017A800116B7A68D2430A401A630C37BD465DF85C
:1017B800047B704780B483B000AF78600B46FB7041
:1017C800FB78002B0CD04FF46053C4F202034FF4A3
:1017D8006052C4F20202916B7A680A439A630CE081
:1017E8004FF46053C4F202034FF46052C4F2020291
:1017F800916B7A68D2430A409A630C37BD465DF80C
:10180800047B704780B483B000AF78600B46FB70F0
:10181800FB78002B0CD04FF46053C4F202034FF452
:101828006052C4F20202116C7A680A431A640CE02E
:101838004FF46053C4F202034FF46052C4F2020240
:10184800116C7A68D2430A401A640C37BD465DF8B9
:10185800047B704780B483B000AF78600B46FB70A0
:10186800FB78002B0CD04FF46053C4F202034FF402
:101878006052C4F20202516C7A680A435A640CE05E
:101888004FF46053C4F202034FF46052C4F20202F0
:10189800516C7A68D2430A405A640C37BD465DF8E9
:1018A800047B704780B485B000AF7860396000234E
:1018B800FB817B681B88FB81FB8903F44153FB8117
:1018C8003B681A883B685B8813439AB23B689B88DD
:1018D80013439AB23B68DB8813439AB23B681B896F
:1018E80013439AB23B685B8913439AB23B689B895E
:1018F80013439AB23B68DB8913439AB2FB891343BB
:10190800FB817B68FA891A807B689B8B9BB223F4E6
:1019180000639AB27B689A833B681A8A7B681A824A
:101928001437BD465DF8047B704700BF80B483B0B0
:1019380000AF78600B46FB70FB78002B08D07B6803
:101948001B889BB243F040039AB27B681A8007E079
:101958007B681B889BB223F040039AB27B681A808D
:101968000C37BD465DF8047B704700BF80B483B078
:1019780000AF78607B689B899BB218460C37BD46E0
:101988005DF8047B704700BF80B483B000AF786017
:101998000B467B807B687A889A810C37BD465DF858
:1019A800047B704780B485B000AF78600B467B80BD
:1019B8000023FB737B681B899AB27B8813409BB218
:1019C800002B02D00123FB7301E00023FB73FB7B98
:1019D80018461437BD465DF8047B704780B485B05F
:1019E80000AF786039600023FB817B681B88FB812E
:1019F8007A680023C4F201039A421FD07A684FF430
:101A08008063C4F201039A4218D07B68B3F1804F17
:101A180014D07A684FF48063C4F200039A420DD060
:101A28007A684FF40063C4F200039A4206D07A68D9
:101A38004FF44063C4F200039A4208D1FB8923F0B3
:101A48007003FB813B685A88FB891343FB817A68E2
:101A58004FF48053C4F200039A420FD07A684FF4CF
:101A6800A053C4F200039A4208D0FB8923F44073C0
:101A7800FB813B681A89FB891343FB817B68FA89E0
:101A88001A803B685A687B68DA623B681A887B6808
:101A98001A857A680023C4F201039A4206D07A684C
:101AA8004FF48063C4F201039A4204D13B689B7AE5
:101AB8001A467B681A867B6801229A821437BD46CB
:101AC8005DF8047B704700BF80B483B000AF7860D6
:101AD8000B46FB70FB78002B08D07B681B889BB2F9
:101AE80043F080039AB27B681A8007E07B681B8802
:101AF8009BB223F080039AB27B681A800C37BD46EC
:101B08005DF8047B704700BF80B483B000AF786095
:101B18000B46FB70FB78002B08D07B681B889BB2B8
:101B280043F001039AB27B681A8007E07B681B8840
:101B38009BB223F001039AB27B681A800C37BD462A
:101B48005DF8047B704700BF80B485B000AF786053
:101B5800396000237B810023FB810023BB817B68E4
:101B68001B8C9BB223F010039AB27B681A847B68A3
:101B78001B8CFB817B689B88BB817B681B8B7B8173
:101B88007B8923F4E0437B817B8923F440737B8149
:101B98003B681B881B029AB27B8913437B81FB89B4
:101BA80023F02003FB813B689B891B019AB2FB89C8
:101BB8001343FB813B685B881B019AB2FB89134383
:101BC800FB817A680023C4F201039A4206D07A683E
:101BD8004FF48063C4F201039A422BD1FB8923F0AE
:101BE8008003FB813B68DB891B019AB2FB891343A5
:101BF800FB81FB8923F04003FB813B689B881B0129
:101C08009AB2FB891343FB81BB8923F48063BB81B0
:101C1800BB8923F40063BB813B681B8A9B009AB293
:101C2800BB891343BB813B685B8A9B009AB2BB8923
:101C38001343BB817B68BA899A807B687A891A8347
:101C48003B689A687B689A637B68FA891A841437B8
:101C5800BD465DF8047B704780B485B000AF7860FE
:101C6800396000237B810023FB810023BB817B68D3
:101C78001B8C9BB223F480739AB27B681A847B68AE
:101C88001B8CFB817B689B88BB817B689B8B7B81E2
:101C98007B8923F070037B817B8923F003037B819D
:101CA8003B681A887B8913437B81FB8923F4007383
:101CB800FB813B689B891B029AB2FB891343FB811A
:101CC8003B685B881B029AB2FB891343FB817A68E5
:101CD8000023C4F201039A4206D07A684FF4806365
:101CE800C4F201039A422BD1FB8923F40063FB81E0
:101CF8003B68DB891B029AB2FB891343FB81FB8992
:101D080023F48063FB813B689B881B029AB2FB89A2
:101D18001343FB81BB8923F48053BB81BB8923F424
:101D28000053BB813B681B8A1B019AB2BB891343D2
:101D3800BB813B685B8A1B019AB2BB891343BB8199
:101D48007B68BA899A807B687A899A833B689A68A3
:101D58007B68DA637B68FA891A841437BD465DF8B4
:101D6800047B704780B485B000AF78603960002389
:101D7800BB8100237B810023FB817B681B8C9BB28A
:101D880023F480539AB27B681A847B681B8C7B810E
:101D98007B689B88FB817B689B8BBB81BB8923F419
:101DA800E043BB81BB8923F44073BB813B681B883C
:101DB8001B029AB2BB891343BB817B8923F400536E
:101DC8007B813B689B891B039AB27B8913437B8188
:101DD8003B685B881B039AB27B8913437B817A68D3
:101DE8000023C4F201039A4206D07A684FF4806354
:101DF800C4F201039A420AD1FB8923F48043FB8190
:101E08003B681B8A9B019AB2FB891343FB817B6861
:101E1800FA899A807B68BA899A833B689A687B6852
:101E28001A647B687A891A841437BD465DF8047B86
:101E3800704700BF80B485B000AF78600B467B80E8
:101E48000023FB817B681B8BFB81FB8923F40063E8
:101E5800FB817B881B029AB2FB891343FB817B6859
:101E6800FA891A831437BD465DF8047B704700BFB2
:101E780080B485B000AF78600B467B800023FB817F
:101E88007B689B8BFB81FB8923F00803FB81FA8924
:101E98007B881343FB817B68FA899A831437BD4694
:101EA8005DF8047B704700BF80B485B000AF7860F0
:101EB8000B467B800023FB817B689B8BFB81FB8926
:101EC80023F40063FB817B881B029AB2FB891343CE
:101ED800FB817B68FA899A831437BD465DF8047BD9
:101EE800704700BF80B483B000AF786013460A46DD
:101EF8007A807B707B78002B08D07B689B899AB2AC
:101F08007B8813439AB27B689A8109E07B689B8936
:101F18009AB27B88DB439BB213409AB27B689A8162
:101F28000C37BD465DF8047B704700BF80B485B0B0
:101F380000AF78600B467B800023FB730023BB81D6
:101F480000237B817B681B8A9AB27B881340BB8104
:101F58007B689B899AB27B8813407B81BB89002B65
:101F680005D07B89002B02D00123FB7301E00023FD
:101F7800FB73FB7B18461437BD465DF8047B70473E
:101F880080B483B000AF78600B467B807B88DB43EE
:101F98009AB27B681A820C37BD465DF8047B70479D
:101FA80080B483B000AF786045F62413C2F2010311
:101FB8007A681A6000BF45F62413C2F201031B6851
:101FC800002BF8D10C37BD465DF8047B704700BF85
:101FD80080B400AF45F62413C2F201031B68002B3E
:101FE8000AD045F62413C2F201031B685A1E45F6AF
:101FF8002413C2F201031A60BD465DF8047B7047E2
:1020080080B483B000AF03463960FB7197F907309D
:10201800002B0EDA4FF46D43CEF20003FA7902F08A
:102028000F02111F3A68D2B21201D2B20B441A76CB
:102038000CE04FF46143CEF2000397F907103A68B9
:10204800D2B21201D2B20B4483F800230C37BD463A
:102058005DF8047B704700BF80B582B000AF786040
:102068007B68B3F1807F01D301231AE04EF210039D
:10207800CEF200037A6822F07F42013A5A604FF0AC
:10208800FF300F21FFF7BCFF4EF21003CEF2000322
:1020980000229A604EF21003CEF2000307221A6063
:1020A800002318460837BD4680BD00BF80B586B0FE
:1020B80004AF43F2AF637B60FEF72CFF40F20003EE
:1020C800C2F200031A6844F6D353C1F26203A3FBB9
:1020D80002139B091846FFF7BFFF0346002B00D0E9
:1020E800FEE700F0D1F945F63410C2F201009FED89
:1020F8008E0A43F2AF61FFF75BFA7868FFF7CCFA14
:102108004FF40060C4F2020008210222FFF708FA27
:102118004FF40060C4F2020009210222FFF700FA1E
:1021280045F61C63C2F201034FF440721A6045F68B
:102138001C63C2F2010302221A7145F61C63C2F243
:10214800010300229A7145F61C63C2F201030322BF
:102158005A7145F61C63C2F201030022DA714FF48A
:102168000060C4F2020045F61C61C2F20101FFF7EB
:1021780013F94FF48060C4F2000001210122FFF737
:10218800B1FE45F60463C2F201031D221A7045F63A
:102198000463C2F2010300225A7045F60463C2F2D6
:1021A800010301229A7045F60463C2F20103012279
:1021B800DA7045F60460C2F20100FEF7BFFF00F0D6
:1021C80047FA4FF480500121FFF7CCFA07F048FA9C
:1021D80000F002F900F0ECFC00F0C2FA4FF44060A5
:1021E800C4F202004FF48051FFF78CF94FF23450DB
:1021F800C0F6000006F008FC4FF47F0006F030FC43
:1022080007F0F0F94EF69010C0F6000007F034F829
:102218004EF6A810C0F6000007F02EF843F2290089
:10222800C0F6000001F078F8002300930223019320
:10223800002302934FF4B87303933220B4219622FB
:10224800322301F081F938603868012101F0B4F9CE
:1022580038684EF6AC11C0F6000101F085F945F674
:102268009C50C2F2010006F0A9FC4FF23450C0F6AF
:10227800000006F0C9FB386801F05CF80346002B43
:1022880007D038684EF6B411C0F6000101F06CF9B9
:1022980006E038684EF6AC11C0F6000101F064F9AA
:1022A80045F69C53C2F201031B7A002B21D045F658
:1022B8009C53C2F201031B6818464FF48C71142218
:1022C800042306F053FA45F69C53C2F201035B68F7
:1022D80018464FF48C712822042306F047FA4EF66C
:1022E800BC10C0F600004FF48C713C2206F0BCFF15
:1022F80016E000204FF48C711422042306F036FAFD
:1023080000204FF48C712822042306F02FFA4EF691
:10231800C010C0F600004FF48C713C2206F0A4FFF8
:10232800322006F0D1FA9AE70000C84280B500AF23
:102338004FF48060C4F200000121FFF7F7FD034667
:10234800002B48D04FF48060C4F200000121FFF751
:1023580017FE45F63013C2F201031B68322B0DDC61
:1023680045F63013C2F201031A6845F63413C2F277
:10237800010353F822301846FFF7B4F945F6301335
:10238800C2F201031B68312B0DDD45F63013C2F292
:1023980001031A6845F63413C2F2010353F82230D8
:1023A8001846FFF7BFF945F63013C2F201031B6860
:1023B8005A1C45F63013C2F201031A6045F6301371
:1023C800C2F201031B68652B05D145F63013C2F232
:1023D800010300221A6080BD80B500AF4FF4006091
:1023E800C4F202004FF40051FFF78CF81E20FFF7EB
:1023F800D7FD4FF40060C4F202004FF40051FFF71C
:1024080073F80A20FFF7CCFD0720212100F024F8FB
:102418000020012100F020F80720232100F01CF8FB
:102428001020002100F018F81E20FFF7B9FD072042
:10243800332100F011F8112046F2180100F00CF8D1
:1024480002204FF4C06100F007F8012042F63F3146
:1024580000F002F880BD00BF80B483B000AF024630
:102468000B46FA80BB804FF6FE73C6F20103FA886A
:102478001A804FF6FE73C6F20103BA885A800C37E9
:10248800BD465DF8047B704780B582B000AF00237D
:102498003B6000237B601C200121FFF763F94FF4A8
:1024A80000533B6001233B7102237B713B464FF491
:1024B8000060C4F202001946FEF76EFF4CF6B373D3
:1024C8003B6002233B7102237B710023BB71002315
:1024D800FB713B464FF44060C4F202001946FEF718
:1024E8005BFF4FF44060C4F2020000210C22FFF7AA
:1024F80017F84FF44060C4F2020001210C22FFF7E4
:102508000FF84FF44060C4F2020004210C22FFF7D8
:1025180007F84FF44060C4F2020005210C22FEF7D0
:10252800FFFF4FF44060C4F2020007210C22FEF7BF
:10253800F7FF4FF44060C4F2020008210C22FEF7B6
:10254800EFFF4FF44060C4F2020009210C22FEF7AD
:10255800E7FF4FF44060C4F202000A210C22FEF7A4
:10256800DFFF4FF44060C4F202000B210C22FEF79B
:10257800D7FF4FF44060C4F202000E210C22FEF790
:10258800CFFF4FF44060C4F202000F210C22FEF787
:10259800C7FF4FF680733B6002233B7102237B71B8
:1025A8000023BB710023FB713B464FF48050C4F2FB
:1025B80002001946FEF7F0FE4FF48050C4F2020004
:1025C80007210C22FEF7ACFF4FF48050C4F2020042
:1025D80008210C22FEF7A4FF4FF48050C4F2020039
:1025E80009210C22FEF79CFF4FF48050C4F2020030
:1025F8000A210C22FEF794FF4FF48050C4F2020027
:102608000B210C22FEF78CFF4FF48050C4F202001D
:102618000C210C22FEF784FF4FF48050C4F2020014
:102628000D210C22FEF77CFF4FF48050C4F202000B
:102638000E210C22FEF774FF4FF48050C4F2020002
:102648000F210C22FEF76CFF0837BD4680BD00BF86
:1026580080B596B000AF07F13C0300221A6004333E
:1026680000221A60043300221A60043300221A6020
:10267800043300221A60043300221A600433002253
:102688001A6004333A463C23104600211A460AF0E1
:1026980025FF01200121FFF78DF80023FB630A23A2
:1026A8007B640023FB6400237B6500233B600023DD
:1026B8007B600023BB601023FB6000233B61002389
:1026C800BB610023FB6100233B624FF480537B62B4
:1026D8000023BB620023FB6200233B6307F13C033A
:1026E8007B6307F13C03BB6300237B613B461846D1
:1026F800FEF78AFD00200121FEF724FE5837BD466B
:1027080080BD00BF80B400AF45F63063C2F201035C
:102718001B681846BD465DF8047B704780B485B0D9
:1027280000AF786045F63063C2F201031A687B682F
:102738001344FB6000BF45F63063C2F201031B6817
:10274800FA68D31A002BF6DC1437BD465DF8047B13
:10275800704700BF80B400AFBD465DF8047B70478A
:1027680080B58AB000AF04200121FFF74BF808209C
:102778000121FEF7F7FF4FF400533B62022387F86D
:102788002430032387F82530002387F826300123D7
:1027980087F8273007F120034FF44060C4F20200A5
:1027A8001946FEF7F9FD4FF44060C4F202000D210E
:1027B8000222FEF7B5FE4FF480533B62012387F8EF
:1027C8002430032387F82530002387F82630012397
:1027D80087F8273007F120034FF44060C4F2020065
:1027E8001946FEF7D9FD45F6C823C2F201030122B6
:1027F8001A8040F65E03BB6145F6C823C2F20103A6
:102808001B88BB820023BB830023FB8207F11403D0
:102818004FF40060C4F200001946FFF7DFF8702398
:102828003B8001237B804FF47A73BB600023BB811C
:102838003B464FF40060C4F200001946FFF784F9E4
:102848004FF40060C4F200000821FFF7F3FA4FF4D8
:102858000060C4F200000121FFF736F94FF4006070
:10286800C4F200000121FFF74FF92837BD4680BDAB
:1028780080B400AFBD465DF8047B704780B400AFFC
:10288800FEE700BF80B400AFFEE700BF80B400AF32
:10289800FEE700BF80B400AFBD465DF8047B70471B
:1028A80080B400AFBD465DF8047B704780B400AFCC
:1028B800BD465DF8047B704780B500AF45F63063D0
:1028C800C2F201031B685A1C45F63063C2F20103C9
:1028D8001A60FFF77DFB40F21403C2F200031B7875
:1028E800013BDAB240F21403C2F200031A7040F25C
:1028F8001403C2F200031B78002B07D140F2140323
:10290800C2F2000364221A7000F050FB80BD00BFC1
:1029180080B582B000AF0346FB71FB799BB24FF4E0
:102928006050C4F200001946FFF72EF80837BD467C
:1029380080BD00BF80B582B000AF0023FB8032208D
:1029480000F096F8502000F05FF8322000F090F880
:10295800002000F059F80346FB80FB881B02FB802F
:10296800002000F051F803461A46FB881344FB8008
:10297800FB881B09FB80FB88C3F30B03FB80FB88E8
:1029880018460837BD4680BD80B500AF4FF460508B
:10299800C4F200008021FFF705F80346002B01D0A0
:1029A800012300E00023184680BD00BF80B582B037
:1029B80000AF0346FB71FB79002B08D04FF4806011
:1029C800C4F202004FF40061FEF78EFD07E04FF4F9
:1029D8008060C4F202004FF40061FEF793FD0837EF
:1029E800BD4680BD80B500AF4FF48060C4F20200E0
:1029F8004FF48051FEF75EFD0346002B01D0002303
:102A080000E00123184680BD80B584B000AF0346BE
:102A1800FB710023FB7300BF4FF46050C4F2000049
:102A28000221FEF7BFFF0346002BF5D0FB799BB2CE
:102A38004FF46050C4F200001946FEF7A5FF00BF2E
:102A48004FF46050C4F200000121FEF7ABFF0346CB
:102A5800002BF5D04FF46050C4F20000FEF786FF5B
:102A68000346FB73FB7B18461037BD4680BD00BF8D
:102A780080B485B000AF78600023FB6002E0FB689B
:102A88000133FB60FA687B689A42F8D31437BD4675
:102A98005DF8047B704700BF80B582B000AF0023AB
:102AA800FB804FF48060C4F202004FF40061FEF72F
:102AB80029FD3220FFF7DCFFD020FFF7A5FF3220E9
:102AC800FFF7D6FF0020FFF79FFF0346FB80FB8838
:102AD8001B02FB800020FFF797FF03461A46FB887E
:102AE8001344FB804FF48060C4F202004FF400618D
:102AF800FEF7FAFCFB881B09FB80FB88C3F30B037A
:102B0800FB80FB8818460837BD4680BD80B582B07B
:102B180000AF0023FB804FF48060C4F202004FF442
:102B28000061FEF7EFFC3220FFF7A2FF9020FFF7CD
:102B38006BFF3220FFF79CFF0020FFF765FF03467D
:102B4800FB80FB881B02FB800020FFF75DFF03462C
:102B58001A46FB881344FB804FF48060C4F20200DD
:102B68004FF40061FEF7C0FCFB881B09FB80FB8863
:102B7800C3F30B03FB80FB8818460837BD4680BDAE
:102B880080B500AFFFF7C2FF03461A4645F6486313
:102B9800C2F201039A80FFF77FFF03461A4645F603
:102BA8004863C2F20103DA800123184680BD00BFE2
:102BB80080B582B000AF4FF480400121FEF74AFE95
:102BC8004FF480400121FEF71DFE02200121FEF78F
:102BD800C9FD4FF48060C4F202000D210522FEF702
:102BE8009FFC4FF48060C4F202000E210522FEF71C
:102BF80097FC4FF48060C4F202000F210522FEF713
:102C08008FFC02233B7102237B710023BB710223DB
:102C1800FB714FF400533B603B464FF48060C4F2B5
:102C280002001946FEF7B8FB4FF400433B603B46F1
:102C38004FF48060C4F202001946FEF7ADFB4FF472
:102C480080433B603B464FF48060C4F20200194663
:102C5800FEF7A2FB4FF400633B6001233B710023A6
:102C6800BB7102237B710123FB713B464FF48060EB
:102C7800C4F202001946FEF78FFB4FF48060C4F2DD
:102C880002004FF40061FEF72FFC45F63463C2F2F0
:102C9800010300221A8045F63463C2F201034FF49F
:102CA80082725A8045F63463C2F2010300229A8088
:102CB80045F63463C2F201030222DA8045F6346332
:102CC800C2F2010301221A8145F63463C2F20103FC
:102CD8004FF400725A8145F63463C2F20103302280
:102CE8009A8145F63463C2F201030022DA8145F67F
:102CF8003463C2F2010307221A824FF46050C4F20F
:102D0800000045F63461C2F20101FEF7CBFD4FF435
:102D18006050C4F200000121FEF708FE4FF4804025
:102D28000121FEF797FD00233B7102237B710023ED
:102D3800FB714FF480533B603B464FF48060C4F214
:102D480002001946FEF728FB0837BD4680BD00BFC4
:102D580080B58CB000AF002387F82D3000237B8529
:102D68004FF48060C4F202004FF48051FEF7A2FBDA
:102D78000346002B40F01581FFF702FF25E0FFF71F
:102D8800FFFE0346002B20D097F82D1045F6486328
:102D9800C2F201039A884B0007F13000034423F87C
:102DA800302C97F82D1045F64863C2F20103DA88F3
:102DB80001F10A035B0007F130010B4423F8302CC2
:102DC80097F82D30013387F82D3097F82D30092BDF
:102DD800D5D997F82D300A2B40F0DD80002387F8ED
:102DE8002E30002387F82F303EE097F82F305B0015
:102DF80007F13002134433F8302C97F82F300133A1
:102E08005B0007F13000034433F8303C9A4226D97E
:102E180097F82F3001335B0007F130010B4433F88A
:102E2800303C7B8597F82F30591C97F82F305B0082
:102E380007F13002134433F8302C4B0007F130000F
:102E4800034423F8302C97F82F305B0007F130014A
:102E58000B447A8D23F8302C012387F82E3097F80D
:102E68002F30013387F82F3097F82F2097F82D301F
:102E7800013B9A42B9DB97F82E30002BAED10023E4
:102E880087F82E30002387F82F3045E097F82F3049
:102E98000A335B0007F13002134433F8302C97F8FB
:102EA8002F3001330A335B0007F13000034433F855
:102EB800303C9A422BD997F82F3001330A335B0004
:102EC80007F130010B4433F8303C7B8597F82F30FD
:102ED800591C97F82F300A335B0007F1300213446E
:102EE80033F8302C01F10A035B0007F1300003448A
:102EF80023F8302C97F82F300A335B0007F13001A4
:102F08000B447A8D23F8302C012387F82E3097F85C
:102F18002F30013387F82F3097F82F2097F82D306E
:102F2800013B9A42B2DB97F82E30002BA7D1FB88E1
:102F38001A463B891A447B891A4445F25653C5F20E
:102F4800555383FB0201D317CB1A9AB245F648634F
:102F5800C2F201039A807B8B1A46BB8B1A44FB8B07
:102F68001A4445F25653C5F2555383FB0201D31751
:102F7800CB1A9BB2C3F5FF6307339AB245F6486391
:102F8800C2F20103DA8045F6CA23C2F20103012224
:102F98001A70012306E045F6CA23C2F20103002293
:102FA8001A70002318463037BD4680BD80B500AF83
:102FB800FFF7CEFE45F64863C2F201039B881A4626
:102FC80045F69C53C2F201031A6045F64863C2F203
:102FD8000103DB881A4645F69C53C2F201035A6086
:102FE8004FF48060C4F202004FF48051FEF762FA99
:102FF8000346002B06D045F69C53C2F2010300227B
:103008001A7205E045F69C53C2F2010301221A72B6
:1030180045F69C50C2F2010005F0E2FD80BD00BFFC
:10302800F0B583688B4A0446406852F82350052857
:1030380089B00ED006DC002840F00881206800F036
:10304800CBFA03E1062800F08A80122840F0FE80BF
:10305800ABE0EE69002E52D000962E6801966868A3
:103068000290AB6804F1100203930FCA05F0E0F870
:10307800002655F8260005F0F5FCEF69A36960699C
:103088002169DA1B3018791805F0E0FEEF69E0696C
:103098002169A269801B7918D21B05F0D7FEEB695C
:1030A80027696169E269F0195918D21A05F0AEFE6C
:1030B800EB69A0696769E269801BD919D21A0136E0
:1030C80005F0A4FE022ED4D1A86805F0CBFCEB696C
:1030D8002069E6696169C71859187A1EF31A02301F
:1030E80005F054FEEB69A2696169E769D01A5918BD
:1030F8000130023AFB1A05F049FEEE6910E055F876
:10310800260004F1100705F0ADFC97E80F00301811
:103118007118921B9B1B013607F040F9022EEED165
:1031280004F110020FCAEF6800972F69CB18301806
:103138000231921B5B10019705F098FFE369616902
:1031480020695A185110A2696C690094AC6930184A
:1031580001940131921B023B05F088FF76E020685C
:1031680006F052FE0490206800F02DFA049D30B15C
:10317800A16851B92A6F131C18BF012306E0686FB4
:10318800002814BF0223002300E0002308A850F8F9
:10319800105D05EB8301CD6E06F044FE0022284643
:1031A8002168134607F0BAFA50E0206806F02CFEB2
:1031B800866E0490002E46D0A168B0F95C7021B1EB
:1031C80003290CBF0224002400E0012400EB84033F
:1031D800406D1C6C05F018FC204605F043FC06A861
:1031E80005F0D0FDA88BBDF81820BDF81C3081185B
:1031F8001C1ABDF81A00ADF81C4008AC821CADF8CA
:103208001810ADF81A20BDF81E1054F8102D8B1E9A
:1032180006A8B2F95E10B2F96020ADF81E3005F0CC
:103228005FFD204606F0FEFD022005F0E3FB304678
:1032380006F0EAFD08AC06A944F80C0D3A4606F07B
:103248000EF8204600E004A806F0ECFD002009B0C6
:10325800F0BD00BF0CEA000830B58BB00021044671
:10326800242201A80AF03AF9204606F0CDFD0AAB5F
:10327800426E43F8280D9568684606F0D3FD002095
:1032880002900194296801A888470BB030BD2DE948
:10329800F0418AB0054606F0B7FD03460AA89E6AC3
:1032A80040F8283D68469C6D5F8E06F0BBFD2846B9
:1032B80000F0B9F98046284600F0C9F90021431EFC
:1032C80008F1FF3216F01006019506910591079254
:1032D800089301D003220AE007F4807081B209B193
:1032E800039605E0FB0701D5012200E002220392C4
:1032F8000523029301A8A0470620029001A8A04731
:103308001221029101A8A0470A22029201A8A0470F
:103318000AB0BDE8F08100000349044A044B1A6072
:103328004A6A486210467047A800002098000020AA
:10333800D800002013B5044650B106F065FD02AB75
:10334800448E43F8040D1846C4F3002406F06AFDC1
:1033580020461CBD37B54FF48071044607F00EF9BE
:10336800204606F051FD02AB856A43F8040D184665
:1033780006F058FDAB0703D52046012100F04AF9B5
:103388003EBDF7B505460C464FF4807107F00BF9C2
:10339800284606F039FD024602A8966A40F8042D30
:1033A800178E06F03FFD022C02D1384605F072FC5C
:1033B800B20703D52846214600F02CF9FEBD73B5A7
:1033C8000D46044606F020FD02AB468E43F8040D78
:1033D800184606F027FDEA6862B1107A06F4807193
:1033E80020B159B92046FFF7B5FF07E031B12046B3
:1033F800022101E020460321FFF7C3FF7CBD000046
:1034080037B5446805462946204607F0E9F80028FC
:103418005DD02B680F2B16D004DC0B2B23D00E2B82
:1034280052D132E0282B48D0B3F5107F05D0112BAC
:103438004AD12748036813B949E026490B68204652
:103448002946984743E0204606F0DEFC02A941F8E9
:10345800040D456E2D68084606F0E4FC002D36D0B4
:103468002046A84733E0204606F0CEFC02AC019087
:10347800683006F01BFF54F8040D03216C3006F089
:103488001DFF204606F0CEFC1EE0EA680CCA0D2A95
:1034980002D0202A11D106E0002B0EDD2046FFF7CE
:1034A80059FF204605E0002B204602DDFFF752FFBA
:1034B8000DE00221FFF765FF09E0EA6822B920461E
:1034C8004FF4807107F06FF8284601F083F93EBD8C
:1034D800CC5A0120A4000020F0B587B00C9C0D9FA9
:1034E8000094164C01970294109C4C34039400F0FD
:1034F80011FE0746F8B106F087FC114D0F990590AB
:10350800102207F065F806AE0FCD56F804ED0EF15F
:1035180034040FC40FCD0FC495E80F0084E80F00E2
:10352800084C23683046CEF8643006F07BFC2068EF
:10353800416838468847384607B0F0BD0934000866
:10354800A8000020D800002010B586B0089C009480
:10355800099C01940A9C02940B9C039400240494F3
:10356800FFF7BAFF06B010BD73B50C46054600B3A9
:1035780006F04AFC866E00906846019606F052FCFA
:10358800214601A804F029FDD0F1010438BF002428
:1035980084B9019BB34208D0284606F035FC01994E
:1035A80000908166684606F03DFC284600F0F6FC6F
:1035B80000E0012420467CBD11B1102106F0DEBFD9
:1035C800102106F0F0BF08B506F014FC806A80F000
:1035D8001001C1F3001008BD13B50446B8B106F0D8
:1035E80013FC836A0190DB070ED4204607F000FA2B
:1035F8000198074B826A42F0010181621868421CF7
:1036080020461A6000F0CAFC01A806F00BFC1CBD9D
:10361800C05E01201FB5262303916946009307F079
:10362800EBFC05B000BD13B508B900F023FE06F0A9
:10363800EBFB02ABB0F90440B0F9002043F8040DED
:10364800A01A441C184606F0EDFB20461CBD13B515
:1036580008B900F00FFE06F0D7FB02ABB0F9064040
:10366800B0F9022043F8040DA01A441C184606F0CD
:10367800D9FB20461CBD00000A4A0B480B49002311
:10368800137003600B600A480A4A0B490360136011
:103698000B60436053600948094A0A490360136094
:1036A8000B607047F85A0120D05A0120AC5E012007
:1036B800885E0120B45E0120C05E0120745E012096
:1036C800A05E0120B05E012010B5044606F092FB12
:1036D800836A044A044913F4803F08BF1146204610
:1036E800884710BD1D450008E94B00082DE9F34146
:1036F800214C23680546986C06F086FB0090284606
:1037080006F082FB014601900098083005F004FAA3
:10371800064640B302AE2068019956F8082DD0F845
:103728004C80076D154E01F10800083204F004FDC5
:10373800684606F077FB02A8236850F8042D356028
:10374800B2F90010B2F90220D9641A6506F06AFBD2
:103758002846FFF7B9FF236800203060C3F84C8083
:103768001F65012006E0684606F05CFB01A806F02C
:1037780059FB3046BDE8FC81F4000020745E01204E
:1037880030B585B0054606F03FFB826A0190930785
:1037980004D401A806F046FB05B030BDC469002C6E
:1037A800F7D0204606F030FB816A009001F0030252
:1037B800032A33D10199083105F0AEF900282DD03C
:1037C8000198083003C804AB03E9030001A806F018
:1037D80029FB684606F026FB2046FFF787FF70B1F5
:1037E800204606F007FB00902046FFF7C9FF204659
:1037F80006F000FB0090284606F0FCFA01902846E7
:1038080006F002FB0190204606F0FEFA04A900909B
:10381800019C11E90300083484E8030004A850F867
:10382800102D6846146A06F0FDFAB8E7F0B50646AA
:1038380085B00C461546002E4CD0304606F0E4FA0A
:10384800876A0190BA0701463DD502AE25B13046D8
:103858002A4604F071FC02E003C886E8030020460B
:10386800314605F059F970B317F0010F019B1ED1CD
:103878003DB1B3F90220B5F902008242A8BF104653
:1038880001E0B3F90200B4F90210B4F90660884205
:1038980006DDBDF80A2011B28E4214DB531E04E087
:1038A800BDF80E3018B286420DDDE3800BE0DE690C
:1038B8004EB13046214602AAFFF7B8FF304606F05F
:1038C80099FA066AF4E704A850F80C6D366A06F00F
:1038D800A9FAB0E705B0F0BD2DE9FF4105460E464F
:1038E80017460024002D38D0284606F08DFAD0F867
:1038F8002880019018F0020F014627D002AD27B1A9
:1039080028463A4604F018FC02E003C885E803009C
:103918003046294605F000F9C0B118F0010F05D16D
:10392800BDF80C00411C318001240FE0019BDD69CA
:1039380065B12846314602AAFFF7CEFF002818BF16
:103948000124284606F056FA056AF1E704A850F85B
:103958000C2D156A06F066FAC4E7204604B0BDE8E7
:10396800F081F0B5044685B00D461646002C31D0DE
:10397800204606F049FA876A01900146B80722D521
:1039880002AC26B12046324604F0D6FB02E003C959
:1039980084E803002846214605F0BEF898B1F907E7
:1039A80004D4BDF80800411EA9800CE0019BDC6925
:1039B8004CB12046294602AAFFF7D3FF204606F05D
:1039C80019FA046AF4E704A850F80C2D146A06F0F2
:1039D80029FACBE705B0F0BD37B5044606F014FA6E
:1039E800826A019040F601031340012B05D001A81B
:1039F80006F018FA2046FFF767FE1348016811B36E
:103A08002046FFF7BDFE204606F0F4F98569046AF2
:103A1800CDB194B1204606F0EDF9826A02F00303B5
:103A2800032B02D12046FFF761FE2046FFF7A8FED0
:103A3800204606F0DFF9046AEBE7284606F0DAF9D3
:103A4800046A8569E4E73EBDC05E01207FB5144D78
:103A58002B680646986C06F0D7F900F10803019028
:103A68002A6893E80300083202AC84E8030092E86D
:103A7800030083E8030001A806F0D4F93068FFF7D3
:103A8800ABFF2868806C06F0BFF900F108030190CD
:103A980094E8030083E8030001A806F0C3F97FBD9A
:103AA800F4000020F7B507460D46284606F0ACF9A5
:103AB800836A02AC13F00206014644F8040D04D1EF
:103AC800204606F0AFF9304619E0384604F066FBA8
:103AD8000198866920466EB906F0A4F908490A6873
:103AE80095420BD04B68B5EB030CDCF1000050EBB2
:103AF8000C0004E006F096F93546D6E70120FEBD35
:103B0800785E01207FB504460D46002947D006F0AF
:103B18007BF90023856101900362284606F074F959
:103B28000199C56902908E6A2DB9C46101A806F091
:103B380079F902A831E0284606F066F906F0080689
:103B4800039076B9806A02070BD5019A029B156229
:103B5800DC6101A806F066F902A806F063F903A87B
:103B68001BE002A806F05EF903A806F05BF92846F8
:103B780006F040F90390039A156A0DB914620BE038
:103B8800284606F037F9002EF4D1836A1B07F1D5D1
:103B9800039901980C62056201A806F043F97FBDFC
:103BA80070B5044606F026F905468069A8B106F006
:103BB80021F9C369A342064605D1184606F01AF949
:103BC800006AF06170BD43B1184606F013F9036A44
:103BD800A342F8D1296A016270BD70BD0346084648
:103BE800B3F90220B3F9001005F07AB8114B30B5DB
:103BF8001C68626C85B00546BAB11068516802ABA2
:103C080003C30D48006800B9A06C06F0FDF804ACC9
:103C180002A944F80C0DFFF7E1FF204606F002F96F
:103C280002A8294604F0BAFA02A803F0A9FC05B0D4
:103C380030BD00BFF4000020745E01201FB50E4B9C
:103C4800186890F854200AB10C4811E0806C06F00E
:103C5800DBF8019003C802AC84E8030001A806F071
:103C6800E1F80749096811B12046FFF71BFF204614
:103C7800FFF7BCFF1FBD00BFF4000020E45A01207D
:103C8800745E0120064B10B50446186828B1A0429E
:103C980004D006F0AFF84069F8E710BD012010BD68
:103CA800945E012013B5044600B306F0ADF8826AAD
:103CB8000190910717D5406A40B10D4B1968A14290
:103CC80004D002F02DFB019A00205062204607F034
:103CD80035FB04463CB12046FFF7E4FF204606F0DA
:103CE80089F8046AF6E701A806F09CF81CBD00BF35
:103CF800BC5E012038B5084B0546186850B106F07F
:103D080079F804464069A842F8D106F073F840698A
:103D1800606138BD38BD00BF945E0120B0F9002055
:103D2800B0F904309A4208DCB0F90210B0F9062064
:103D38009142CCBF0020012070470020704700004E
:103D4800F0B585B006460D46174606F053F8846A66
:103D58000190A00734D52846FFF7E0FF00282FD0B0
:103D680040F601032340012B2AD0304606F04CF8D8
:103D780002AC024601902946204604F0DDF92046AF
:103D8800FFF7CCFFC8B1019A966A44F2200131408E
:103D980002F1080529B128462946224604F0B0FF59
:103DA8000BE094E8030085E80300064803883E43D7
:103DB80096625A1C028004F0D1FC01A806F032F881
:103DC80005B0F0BD905E01207FB50E46154604464D
:103DD80038B306F019F8836A01909B07024603D4AA
:103DE80001A806F01FF81CE002A8314604F0A4F967
:103DF8000028F5D001A806F015F8204602A92A46A1
:103E0800FFF79EFF204607F099FA04464CB120467A
:103E180002A92A46FFF7D8FF204605F0EBFF046AFF
:103E2800F4E77FBD2DE9FF41804617461D460C4645
:103E3800002930D0084605F0E7FF866A0190B107EF
:103E4800024625D502A8414604F076F900B340F6AB
:103E580001033340012B07D1019A02A89169126A24
:103E68002B46FFF7DFFF04E0204602A92A46FFF7AA
:103E780067FF0198C4695CB1BC4209D0204602A919
:103E88002A46FFF7A1FF204605F0B4FF046AF2E7CF
:103E980001A805F0C7FFBDE8FF812023FFF7C2BFD7
:103EA80013B5044605F0B0FF8169019041B1026A7B
:103EB800FFF7F3FF2046FFF773FE019800228261A7
:103EC80001A805F0AFFF1CBD70B5054608460C46B5
:103ED800164605F08FFF836A13F4803F2846214673
:103EE80032460CBF20234FF48043BDE87040FFF7F3
:103EF80099BF2022FFF724BF1FB504AB019043F8F8
:103F0800101D694606F056FD05B000BD00230B8064
:103F180082884B800388D21A8A80C2884088131A04
:103F2800CB80704770B50E4686B00446002833D063
:103F380005F06AFF856A0190AB072AD503C806AB6E
:103F480003E90300E80302D52046FFF7ABFE5EB1A4
:103F58003068716802AA03C2019802A9FFF73EFE01
:103F680004A802A904F01AF904A82146FFF79AFD4B
:103F780078B140F601002840012806D1019B04A829
:103F880099691A6AFFF789FF03E0204604A9FFF739
:103F9800B0FF01A805F046FF06B070BD0021FFF78D
:103FA800C1BF000010B5044605F024FF8069002851
:103FB800F9D1054B1A68944205D05868844214BF59
:103FC8004FF0FF30012010BD785E012008B5FFF7E3
:103FD800E9FF002803DBBDE8084004F06BBD08BD1D
:103FE80038B50D4B196804468D6C08B90B4A14682E
:103FF8008C642046FFF7EAFF03F0D4FE204605F064
:10400800F9FE054BB0F900101B68B0F90200D9643D
:104018001865284638BD00BFF4000020945E0120D2
:1040280073B50446002861D0FFF72CFE00285DD048
:104038002046FFF7B7FF0B2106462046FFF75CFF37
:10404800204606F01BFF204605F0DEFE0190406A80
:1040580008B102F065F92648264B0568264A274824
:104068000021196052F82530A34208BF42F82510F4
:1040780050F82510A14202D1002240F82520204DF9
:104088002D682DB16868A042FAD100236B60F7E76C
:1040980020460721FFF7BEFA019DE869FFF7C0FF38
:1040A800EB69002BF9D12046FFF7FAFE2046FFF70F
:1040B80021FE0198836AD90703D5124A1168481E60
:1040C80010609A0603D5104B1A88511E198001A852
:1040D80005F0A8FE0D4803885A1E0280204605F008
:1040E800CDFE0B4951F82600FFF77AFF7CBD00BFD3
:1040F800985E0120F45A0120885E0120B45E0120F8
:10410800AC5E0120C05E0120905E0120705E01203F
:10411800785E01202DE9F74F0C9E9B464E4B80465A
:10412800894692461D6866BB4C48018861B34C4A73
:104138004C4B1468607C53F820104C1C24D019B3E5
:104148000E46304605F060FEB0F90020B0F9024096
:1041580001909044A144BAF1000F05D1B0F904A030
:10416800C2EB0A0303F1010ABBF1000F05D1B0F954
:1041780006B0C4EB0B0000F1010B01A805F052FEDC
:1041880002E0701CDDD100260F982C3006F0F2F802
:10419800044600285CD00D9F2F43304D29884A1CC7
:1041A8002A8005F031FE02AB054643F8080D2E497A
:1041B800A0F80080A0F80290D044D944AA6A08F177
:1041C800FF3809F1FF393940A0F80480A0F80690BB
:1041D8000E9842EA01032861AB62684605F022FEA8
:1041E8002249086848B105F005FE0546204605F055
:1041F80001FE6A6942616C6100E00C60204631464C
:10420800FFF780FCB80602D52046FFF7E9FEF9075C
:1042180003D517480368591C01607A0602D5204661
:1042280007F020F9BB070FD5204605F0EDFD836A9E
:1042380002AA43F0020142F8080D8162684605F0BF
:10424800F1FD2046FFF7AAFE20460121FFF754FEA4
:104258002046BDE8FE8F00BFA05E0120705E0120F1
:10426800F4000020785E01209F3F3F00945E01200B
:10427800C05E0120014B1868806C7047F400002074
:1042880030B55D4B186890F8540085B0002800F0F0
:10429800B1805A4B596901292CDC03F108011A69CC
:1042A80003C9013204AC1A6104E9030022B91A886F
:1042B800ADF808205A8812E098895989B3F9043072
:1042C800ADF80A10421C94B220B28342ADF80840FF
:1042D80007DA4A480488C389ADF808405A1CADF883
:1042E8000A20464CBDF90A10B4F90630994205DD9A
:1042F800424B5969481E586100207BE03E4D2868B2
:10430800806C05F081FDBDF90820B4F9001001901A
:104318008A4218D12868E388A488826CADF80E30E8
:10432800ADF80C4052B1104605F064FD0446002279
:10433800006A02A9FFF77AFAA269F3E70199C86946
:1043480002A9FFF773FA2C4BBDF808201C68ADF8DA
:104358000C20A26C02AC62B1104605F04BFD214660
:1043680005460022006AFFF7B7FA0028EBD1AA69D0
:10437800F0E701982146C069FFF7AEFA0028E2D1BC
:104388001E4BBDF908109A8810B28142ADF80C2076
:1043980008DD94E80300083383E8030001A805F06A
:1043A80041FD96E7144D2C68A26C02AC52B1104640
:1043B80005F020FD05460022006A2146FFF7D1FAE4
:1043C800AA69F2E704AD214655F80C3DD869FFF714
:1043D800C8FA284605F026FD084B1A6944F62061FC
:1043E8008A4285DC94E80300083383E80300FFF77A
:1043F80025FC012005B030BDF4000020DC5A012066
:1044080070B53B4B0546186890F8542086B012B931
:10441800FFF714FC68E0374C61694B1C012B6361A2
:1044280062DC806C05F0F0FC334900900B784FF0AB
:10443800FF32226123B100F1080102AC03C905E093
:10444800866A16F0020609D003C802AC84E80300A5
:1044580065B102A8294603F0A1FE07E06069421E83
:104468006846626105F0DEFC30463EE0204B186885
:10447800426CCAB1009C5168019410681F4C04AB8F
:1044880003C3216831B101A805F0CCFC206805F010
:10449800BBFC0190019804A9FFF7A0FB02A804A99E
:1044A80003F07CFE01A800E0684605F0BBFC134859
:1044B800016802AC29B12046FFF7F4FA08B90D4BA0
:1044C80007E00B4A13682046996CFFF7EBFA094B93
:1044D80018B959694A1E5A6107E094E8030083E84D
:1044E8000300FFF7CDFE00E0012006B070BD00BF5D
:1044F800F4000020DC5A01209D5E0120745E01203A
:1045080008B504F08DFA024B18680022426408BD11
:10451800F4000020F0B589B0044605F075FC076981
:104528000190866A083003C802AD85E8030001A837
:1045380005F078FC002F30D0B2072ED520462E216A
:1045480006F068FD164B1A78501C1870F3040AD54B
:104558000F22059404920795FFF7D2FF204604A97D
:1045680006F028FA11E02846FFF74AFF68B10F2144
:1045780002AB049107930594FFF7C2FF204604A9F4
:1045880006F018FAFFF77CFEF0E7054801784B1EA5
:1045980003702F21204606F03DFD09B0F0BD00BF95
:1045A8009D5E01202DE9F04188B006AE039005F02C
:1045B8002BFC034600F10802059092E803009D6A6F
:1045C8009F69D3F8108044F2200486E803002C4049
:1045D80005A805F027FC002C35D0B8F1000F17D03E
:1045E80030460399FFF75EFA90B10398FFF7F8FC9D
:1045F80068070FD527B105F0010585F0010500E032
:104608000125009506A8124903AA002300F042FBE1
:10461800002403E00398FFF7DFF90124039805F06D
:10462800F3FB816A059021F4804323F0200289047A
:1046380048BF42F00402826205A805F0F3FB054872
:1046480001884B1E0380204608B0BDE8F08100BFFA
:10465800553A0008905E01202DE9F0434B4B18684D
:104668009FB000B18047002649490A68E2B1494C29
:104678002468BCB1204605F0C7FB856A1EA915F45D
:10468800004F41F8740D456907D0084605F0CAFB8C
:104698002046FFF7C5FC2C46EBE708462C4605F0FC
:1046A800C1FBE6E73A4D2C603B4B186800B18047E8
:1046B8003A490A682AB93A4C256895F8543043B102
:1046C80003E090470028F6D055E004F0EBFA002804
:1046D80051D1206890F854504DB132490D8835B108
:1046E800314A1568002D48D02B68984701252C4879
:1046F800016891F8542012B9002D33D141E0294BBB
:1047080018880028F8D0294F3C680CB9214C246837
:1047180002A804F0EDF922490A68D2F83080576BF4
:1047280024B900240DE0B9F1000F0AD12046FFF7A3
:1047380039FF8146204605F05DFB4469002CF2D123
:10474800EFE71A4B40461C6004F08CF9384604F039
:1047580087F902A804F0D6F9124801880029CBD0BD
:104768000126C4E7104A106810B14368984708E06A
:1047780003F0DAFC05E0012676E7012003F0D4FC1B
:10478800B4E730461FB0BDE8F08300BF845E012067
:10479800D05A0120945E0120805E0120F45E012041
:1047A800F4000020905E0120B05E0120F45A012040
:1047B800024B1868012280F854207047F40000204A
:1047C800034B1868002280F8542003F0EBBA00BFAE
:1047D800F400002010B5044640682368E168172BF0
:1047E8000FD006DC0E2B0ED0142B14D106F0C4FD0E
:1047F80011E0222B0CD0282B0DD1BDE81040FFF77B
:10480800CDBBE06010BD2146BDE8104006F0F4BB0A
:104818006FF0704000E00020E06010BD03680E2BD0
:1048280010B5044602D00F2B21D108E0C3685868A0
:10483800012821D11868BDE8104004F02BBA0F4AAE
:1048480040681168884206D05368984214BF4FF0F8
:10485800FF30012000E00020094A52F820006FF0E4
:104868007041884203D004F0FBF804F0BBFE2046F8
:10487800BDE81040FFF7AEBF10BD00BF785E012055
:10488800A45E01201FB52B4B187800284FD12A4968
:104898002A4A2B4C0860106023682A492A4A58641F
:1048A800088010800446204604F084FDC8B12748DB
:1048B80043F6FF724FF0FF334FF0020E02900020D4
:1048C8008DE80840014613460390FFF723FC204B70
:1048D800204A43F824006FF0704142F82410FFF793
:1048E8005DFB0134022CDED11B4806F063FD1B483A
:1048F80006F060FD1A4806F05DFD1A4806F05AFDFC
:10490800194806F057FD194806F054FD104800688C
:10491800FFF766FBFFF74CFF064B1548154A0121C8
:104928001970026004B0BDE8104004F06BBE04B01A
:1049380010BD00BFF85A0120945E0120F45A0120EE
:10494800F4000020905E0120705E012025480008D8
:10495800785E0120A45E0120D45F0120C45F01209D
:10496800B45F0120DC5F0120CC5F0120BC5F012027
:10497800D45A0120813600082DE9F0413A4C3B4DCC
:10498800014644222046FBF7EDFF2369286813F00F
:10499800040F407C07D102F09EFE2A688046507CB6
:1049A80002F09CFE06E002F099FE29688046487CE9
:1049B80002F091FE2C4BDA695E691F6A9C69C2EBB2
:1049C800070E754205FB0EF1A71B91FBF7F408F1E2
:1049D800FF318E1B06FB0EF191FBF7F7D119141965
:1049E8005F6ADE6A1A6B9B6A214DC6EB020C7A423B
:1049F800C7EB030E013802FB0CF393FBFEF2C31B5B
:104A080003FB0CF090FBFEF3B218F3182C606960FE
:104A1800AA60EB601748184D8C42B9BF0460296042
:104A28002C600160154C16499A42B4BF22600A6096
:104A38000D4AA8BF23600D4CB8BF0B6013692068EE
:104A480013F0040F407C07D102F045FE2268507C29
:104A5800BDE8F04102F042BE02F040FE2168487C09
:104A6800BDE8F04102F037BE105B0120F4000020E1
:104A7800005B0120545B0120585B0120FC5A012097
:104A88005C5B01202DE9F04387B0044605F0BCF9D2
:104A9800034606A8B3F90460B3F90070B3F90650E9
:104AA800B3F9028040F8043DD3F8249005F0BAF930
:104AB800F01B461CC8EB05014D1C002E4BDD002DDC
:104AC80049DDB9F1000F48D0484605F09DF906A91F
:104AD800B0F9046041F8080DC588084605F0A2F948
:104AE800BE4202D12DB2454530D0484639464246ED
:104AF80000F084F82AE0826A42F480338362084630
:104B080005F090F9384601F067FC8046484603F006
:104B1800ABFF384605FB06F72C4E2D4D00F0AEF8DE
:104B280031782C4EBA0003F02EFA20462F683460F4
:104B380006F0FCFB28602046FFF7ECFC00202F6005
:104B4800306003F091FF404601F046FC204605F036
:104B580051F9406A37E0002035E006F001FC844254
:104B680012D102F0CDFD814602F0D2FD4E4502DCA5
:104B7800854209DD00E04E468542A8BF054631461C
:104B880020462A4606F0AAF9134A144B01924FF020
:104B9800010941460293384632462B46CDF800902B
:104BA80001F02CFB0746204605F02EF906A94762BE
:104BB80041F8040D002F9ED1084605F033F9204630
:104BC800FFF7A8FC384607B0BDE8F083DC000020FA
:104BD800CC5E0120BC5E01205CEA000844080108A4
:104BE80038B5054605242846FFF74CFF10B9013CA7
:104BF800F9D138BDBDE8384007F03CB937B50D46A6
:104C0800144618B9114B1868006EE8B105F0FCF8A5
:104C1800A4B2ADB2C4808580009003F0C3F80099B7
:104C2800486970B105F0F0F8009B01901A8959891C
:104C38008280C18012B109B10580448001A805F0C5
:104C4800F1F8684605F0EEF83EBD00BFF40000201C
:104C580013B520B9084B1868006E044648B105F032
:104C6800D3F802A9B0F90A4041F8040D084605F046
:104C7800D9F820461CBD00BFF400002013B505F08C
:104C8800C3F8044602A840F8044D05F0CBF804F137
:104C980018001CBD2DE9F04F1E46464B87B0044650
:104CA80018680291457C444993464A57012A284688
:104CB80006DD02F010FD8046284602F00FFD05E0F3
:104CC80002F00FFD8046284602F00EFD05462CB383
:104CD80004A805A904F048F8049BB4F90090B4F9B5
:104CE8000270B4F9040008EB0301059B4A1EED1895
:104CF800B4F906106B1E29EAE97927EAE7778242B8
:104D0800D4BFC9EB0200C9EB00008B42D4BFC7EB8C
:104D18000301C7EB0101421C4D1C02E04246274635
:104D2800A14606B96E42002A3FDD002D3DDD109CEC
:104D3800484600943946334601F014FB044620B92E
:104D48005846029A9047012030E0FFF781FF8246DB
:104D5800CAF10006204601F03FFBA846039600264C
:104D6800D04503DA2046414607F080F93EB1204697
:104D78004946F219FFF742FF204607F08DF95846D9
:104D8800029A90470D4B196809B1002088472046C0
:104D980001F09AFB56440398AE428044E0DB20467B
:104DA80001F0BEFA002001F017FB002007B0BDE8B3
:104DB800F08F00BFF4000020C45E0120605B01207A
:104DC8000248012918BF0020704700BF5CEA0008AC
:104DD8000248162918BF0020704700BF8DBC000884
:104DE80008290CBF202000207047006808B5C36858
:104DF8001B6A984708BD37B580680C4605F004F86B
:104E0800034602A899881D89DA8840F8043D5B8921
:104E18002180491901396280D218A180511EE18090
:104E280005F000F83EBD00000E4B73B50546186846
:104E3800006E0E4604F0E8FF024602A8B2F90640EA
:104E4800D36840F8042D02F11801B2F90420361B8A
:104E580003FB0611AD1A01EB850404F0E3FF2046BD
:104E68007CBD00BFF400002008B508461146FFF7D6
:104E7800DBFF006808BD0000154B73B51868006EAD
:104E880015460E4604F0C0FF294600903046FFF74D
:104E9800CBFF00990A68136904469868804721681F
:104EA800009B81EA00022260586960B104F0ACFFFF
:104EB80002AC826844F8040D136831462A469847C4
:104EC800204604F0AFFF684604F0ACFF7CBD00BF8D
:104ED800F400002073B51C46104B1868006E0E468F
:104EE800154604F091FF294600903046FFF79CFFD5
:104EF80000990460486960B104F086FF02AC8368D9
:104F080044F8040D1B6831462A469847204604F0A9
:104F180089FF684604F086FF7CBD00BFF4000020CE
:104F28002DE9F7431E462B4B1868006E0F461446B2
:104F380004F06AFF0090406908B104F065FF019031
:104F480021463846FFF770FF224A009B0546106845
:104F5800D3F80C80027CC16BD207D1F800901FD522
:104F680018680269916888478046019828B1836863
:104F78003946D3F800C02246E04700992868CB6834
:104F8800013480EA0802B4422A601D44EDDD684617
:104F980004F048FF0198D0B101A804F043FF16E0DF
:104FA800019B63B10198816822460B680134394638
:104FB8009847B442C5F800904544F3DDE7E7341B51
:104FC8000134013CC5F800904544FAD1DFE7BDE85B
:104FD800FE8300BFF40000202DE9F04FDFF8B08019
:104FE8001446D8F8002085B0106EDDF838901D46BC
:104FF8000F4604F009FF214602903846FFF714FFD8
:10500800D8F8003006460298DA6BD0F80CA0406950
:10501800D2F800B0E91B4D1C38B304F0F5FE0DF1D1
:105028001008C4EB090148F8040D4B1C00933946DD
:1050380022462B4607F005F8404604F0F3FE14E03C
:1050480013480268117CC90712D5029A11680869C9
:105058008368984732462B461168013B81EA000174
:1050680042F8041BF8D1564401344C45E8DD08E009
:10507800002DF8DD2B463046013B40F804BBFBD140
:10508800F1E702A804F0CEFE05B0BDE8F08F00BF3E
:10509800F400002007B50092FFF79EFF0EBD000048
:1050A8002DE9F04F9A46984B8146186893B0006EE8
:1050B80008920C46DDF87CB0219D002800F0728330
:1050C80004F0A2FE1090406908B104F09DFE119012
:1050D80012A850F8081DCA680C9204F0A3FE209B81
:1050E8001198E418059468B187490A68137C03F09D
:1050F8000201CAB232B91C9B089A00932146534652
:1051080006F09FFF05980899FFF78EFE80461D98C8
:1051180017285BDD4FEA8A07079700271C99119823
:105128008F424FDA30B18368089A5C680599BA18DB
:105138005346A047D9F81000C16829B140465946DE
:10514800079AFBF70FFC37E0444655465E46331D89
:1051580006931A4629464FF0000E12F8010C08B9BA
:105168000EF1010E0139A0B1BEF1000F15D04FEAC2
:105178008E03204631461A460493CDF80CE0FBF71F
:10518800F1FB0498DDF80CC024183618CCEB0505A3
:1051980010E004320029E0D1E6E73068060EFF2E61
:1051A80005D0F3432168DAB203F02EF92060069E99
:1051B8000434013D002DCAD11E990C9A8B449044A9
:1051C8000137ABE7002840F0EA82EBE21D9C102C87
:1051D80037D10BF10207A8F1040800251C9CA54251
:1051E800119C80F29980089EAA1907922CB1A36895
:1051F80005995E6820465346B047CDF81880BB46EF
:105208005646059AD9F8103002EB0A00811B5A68F5
:105218003BF8020C04919047069941F8040F069157
:10522800049924B1A068079A036820469847013E6C
:105238000BF1020BE5D11E9C0C9A01353F199044E5
:10524800CCE71D9908296BD1089E08F10408089B32
:105258001C9A119CF11A9142A8F104005CDA2A4BBD
:1052680019680A7C5DB312F0030304D0022B4DD1F8
:10527800C146059F1CE01BF8034055F8242040F860
:10528800232001335345F6D140E055F8201049F862
:10529800041C2CB1A2682046136839463246984748
:1052A8000598013700EB0A01B94209F104092DD02C
:1052B800059AC2EB0B03D85D0028F1D0E5E712F0A0
:1052C800030304D0022B21D1C146059F15E059469E
:1052D8005246FBF747FB19E049F8042C2CB1A368A8
:1052E80020461B683946324698470598013700EB37
:1052F8000A01B94209F1040908D00598C0EB0B016D
:10530800CA5D002AF1D0E7E7F40000201E980C9946
:105318008344013688449AE7002C40F0408241E2F9
:10532800B04A209B209C002D14BFA9469146089A9C
:105338005800A10008F104080D900E91CDF82880BE
:1053480006920A9B069808991C1F1C9B421A9A42AF
:1053580080F223821D99022900F0A180042900F01F
:105368004781012940F00F82DFF88082D8F8005089
:10537800286E04F049FD9BF800309B4A2099D55CC3
:105388001090C1F1080745FA01F5D8F80010DDF8CA
:1053980044C00B7C03F00302022A56461DD0032AA0
:1053A80059D0012A57D05A46BE4238BF3746F61B55
:1053B8003B46214605F001006D0859F82000013BE5
:1053C80041F8040BF6D104EB8704002E63D012F8E1
:1053D800017F854DED5D0827E6E7D9F80400DDF883
:1053E80014800B90CDF824B0BE4238BF3746F61B68
:1053F800BCF1000F22D01DB904EB8704B84421E0AA
:10540800E8070CD5DCF80800069A0368CDF80CC04C
:105418006046414698470B99DDF80CC0216004347A
:10542800013F08F101080DD06D08E4E7E90744BF22
:105438000B9820600434013F04D06D08002DF5D18D
:1054480004EB87043EB3099A674F12F8010F3D5CDD
:1054580009920827C8E70268116988688047594691
:10546800BE4238BF3746F61B231DBE46EA0704D5A1
:1054780053F8042C424043F8042C6D080433BEF161
:10548800010EF3D104EB87042EB111F8017F564DBC
:10549800ED5D0827E4E710A804F0C4FC73E1209E42
:1054A800524B0D989BF80010DDF844C0C6F1040279
:1054B800D5B21A6801FA00F1CEB2117C01F00300EE
:1054C80001286AD008D3022840F05D81CDF82CB0BD
:1054D8005746DDF8148040E05A4653469D42C8BFFF
:1054E800DDB25B1B29462046B709013959F82770F8
:1054F800B60011F0FF0140F8047BF6B2F4D1013D8B
:10550800E8B2451C04EB8504002B00F03C8112F83E
:10551800016F0425E2E716F0C00F27D10799099A11
:10552800481C0790131D079A099305EB0801C8B298
:10553800D3B2B6009842F6B2EDD1013DEDB2691C86
:1055480008F1010804EB8104A844002F00F01B8136
:105558000B9810F8016F04250B90BD42C8BFFDB22F
:10556800231D7F1B0993CDF81C80D4E7B209099845
:1055780059F8221040F8041CBCF1000FCED0DCF81A
:10558800083007991A68CDF80CC00F926046069A41
:105598000F9B9847DDF80CC0C0E7584653469D421C
:1055A800C8BFDDB25B1B221D2F4616F0C00F05D009
:1055B80052F8041C81F0FF0142F8041C013FB600B8
:1055C800043217F0FF07F6B2EFD1013DE9B24D1CE6
:1055D80004EB8504002B00F0D68010F8016F042539
:1055E800DDE700BF1CEA0008F0060108F40000200F
:1055F8006E490E9D0A689BF80030107C119E00F0E1
:10560800030103FA05F30129DDB200F0968003D304
:10561800022940F0B88031E0209959B12D090AF1EA
:10562800FF3359F8250020600BF101020A9C9BF812
:10563800015001E053465A46012B17DD581004F17A
:10564800080103F0010316182F0905F00F0559F892
:10565800277041F8087C59F8255041F8045C12F885
:10566800015F0831B242EFD104EBC004002B00F017
:105678008A802D0959F82520226084E0209FBFB137
:1056880013F0F00F0AD02B0959F8235025602EB1DA
:10569800B46805992768069A3046B847059A0A9C5F
:1056A8009BF80150571C0AF1FF3C0BF101080FE071
:1056B800D446D846059F0BE015F0F00F0CD115F035
:1056C8000F051AD118F8015F08340237ACF1020C43
:1056D800BCF1010FF0DC20E02A0959F82200206013
:1056E800002EECD0B168069A0B68CDF80CC0304695
:1056F80039469847DDF80CC0E1E759F82520626083
:10570800002EDFD0B068069A0368CDF80CC030468A
:10571800791C9847DDF80CC0D4E7BCF1000F32D0F3
:105728002D0930D059F82500206066B3B168069A73
:105738000B6830463946984725E0209EC6F102009E
:10574800C3B25E4652469342C8BFD3B2D21A201D96
:105758001F4615F0C00F05D050F8041C81F0FF015A
:1057680040F8041C013F2D01043017F0FF07EDB28B
:10577800EFD1013BD9B2481C04EB80041AB116F8EA
:10578800015F0223DFE71E9C06980A9A0C99A3443E
:10579800431C541806930A94D3E5119810B111A824
:1057A80004F040FB13B0BDE8F08F00BFF400002008
:1057B8000248012918BF0020704700BFD0EA00083E
:1057C8000248162918BF0020704700BF75B50008A9
:1057D800006808B5C3681B6A984708BD006808B523
:1057E800C3689A6A904708BD37B580680C4604F0CC
:1057F8000BFB034602A899881D89DA8840F8043D06
:105808005B892180491901396280D218A180511E13
:10581800E18004F007FB3EBD0E4B73B505461868E2
:10582800006E0E4604F0F0FA024602A8B2F90640ED
:10583800D36840F8042D02F11801B2F90420361B90
:1058480003FB0611AD1A01EB450404F0EBFA204600
:105858007CBD00BFF400002008B508461146FFF7DC
:10586800DBFF008808BD0000144BF7B50746186831
:10587800006E15460E4604F0C7FA294600903046D9
:10588800FFF7CAFF396904468A6890472388584059
:1058980020800098406960B104F0B6FA02AC8268D2
:1058A80044F8040D136831462A469847204604F008
:1058B800B9FA684604F0B6FAFEBD00BFF40000204D
:1058C80073B51C46104B1868006E0E46154604F05A
:1058D8009BFA294600903046FFF79EFF0099048006
:1058E800486960B104F090FA02AC836844F8040D8A
:1058F8001B6831462A469847204604F093FA6846C2
:1059080004F090FA7CBD00BFF40000202DE9F743B5
:105918001E462B4B81461868006E0F46144604F04D
:1059280073FA0090406908B104F06EFA01902146BC
:105938003846FFF771FF224A00991368D1F80C80A6
:105948000546187CC2071FD5D9F81000816888471A
:105958001FFA80F8019820B18268394613682246F8
:105968009847009A2888D368013488EA0001B4422D
:1059780029801D44EEDD684604F054FA0198E8B128
:1059880001A804F04FFA19E0D96B019AD1F80090F8
:1059980062B10198836822461B68394601349847EA
:1059A800B442A5F800904544F3DDE4E7341B013424
:1059B800013CA5F800904544FAD1DCE7BDE8FE8338
:1059C800F40000202DE9F04F1E46294B14461A68B2
:1059D8000F46D16B85B08346106ED1F8009004F065
:1059E80013FA214602903846FFF716FF054602983B
:1059F800D0F80CA04069F61B013638B304F004FA5D
:105A08000E9B0DF110081A1B48F8040D511C00914B
:105A180022463946334606F014FB404604F002FAA3
:105A280014E0134B1A68117CC90713D5DBF8100072
:105A3800836898472A4680B233461188013B81EA39
:105A4800000122F8021BF8D1554401340E98844213
:105A5800E7DD06E028461FFA89F1324602F066FAC9
:105A6800F2E702A804F0DEF905B0BDE8F08F00BF48
:105A7800F400002007B50092FFF7A4FF0EBD000058
:105A88002DE9F04F9B4695B08C4B0E9018680A9202
:105A9800006EDDF884A0239E0C4604F0B5F9129040
:105AA800406908B104F0B0F9139014A850F8081D23
:105AB800CA680B9204F0B6F9229F1398E419069469
:105AC80058B17E4B19680A7C970706D11E9F0A9A1F
