:020000040800F2
:100000004C0E0020410E0008A1470008B10E000868
:10001000AD470008B5470008BD47000800000000D4
:10002000000000000000000000000000C5470008BC
:10003000D147000800000000DD470008E94700083C
:10004000B10E0008B10E0008B10E0008B10E000894
:10005000B10E0008B10E0008B10E0008B10E000884
:10006000B10E0008B10E0008B10E0008B10E000874
:10007000B10E0008B10E0008B10E0008B10E000864
:10008000B10E0008B10E0008B10E0008B10E000854
:10009000B10E0008B10E0008B10E0008B10E000844
:1000A000B10E0008B10E0008B10E0008B10E000834
:1000B000B10E0008692F0008B10E0008B10E00084B
:1000C000B10E0008B10E0008B10E0008B10E000814
:1000D000B10E0008B10E0008B10E0008B10E000804
:1000E000B10E0008B10E0008B10E0008B10E0008F4
:1000F000B10E0008B10E0008B10E0008B10E0008E4
:10010000B10E0008B10E0008B10E0008B10E0008D3
:10011000B10E0008B10E0008B10E0008B10E0008C3
:10012000B10E0008B10E0008B10E0008B10E0008B3
:10013000B10E0008B10E0008B10E0008B10E0008A3
:10014000B10E0008B10E0008B10E0008B10E000893
:10015000B10E0008B10E0008B10E0008B10E000883
:10016000B10E0008B10E0008B10E0008B10E000873
:10017000B10E0008B10E0008B10E0008B10E000863
:08018000B10E0008B10E0008E9
:1001880081F0004102E000BF83F0004330B54FEA40
:1001980041044FEA430594EA050F08BF90EA020FAD
:1001A8001FBF54EA000C55EA020C7FEA645C7FEA40
:1001B800655C00F0E2804FEA5454D4EB5555B8BF63
:1001C8006D420CDD2C4480EA020281EA030382EAD4
:1001D800000083EA010180EA020281EA0303362D66
:1001E80088BF30BD11F0004F4FEA01314FF4801C39
:1001F8004CEA113102D0404261EB410113F0004F4B
:100208004FEA03334CEA133302D0524263EB430301
:1002180094EA050F00F0A780A4F10104D5F1200E9F
:100228000DDB02FA0EFC22FA05F2801841F10001FA
:1002380003FA0EF2801843FA05F359410EE0A5F1CE
:1002480020050EF1200E012A03FA0EFC28BF4CF0FF
:10025800020C43FA05F3C01851EBE37101F00045B5
:1002680007D54FF0000EDCF1000C7EEB00006EEBC2
:100278000101B1F5801F1BD3B1F5001F0CD349084C
:100288005FEA30004FEA3C0C04F101044FEA4452A3
:1002980012F5800F80F09A80BCF1004F08BF5FEA2A
:1002A800500C50F1000041EB045141EA050130BD0A
:1002B8005FEA4C0C404141EB010111F4801FA4F1AD
:1002C8000104E9D191F0000F04BF01460020B1FA02
:1002D80081F308BF2033A3F10B03B3F120020CDA3A
:1002E8000C3208DD02F1140CC2F10C0201FA0CF018
:1002F80021FA02F10CE002F11402D8BFC2F1200C7D
:1003080001FA02F120FA0CFCDCBF41EA0C01904032
:10031800E41AA2BF01EB0451294330BD6FEA04047B
:100328001F3C1CDA0C340EDC04F11404C4F1200266
:1003380020FA04F001FA02F340EA030021FA04F378
:1003480045EA030130BDC4F10C04C4F1200220FACF
:1003580002F001FA04F340EA0300294630BD21FA0D
:1003680004F0294630BD94F0000F83F4801306BFD3
:1003780081F480110134013D4EE77FEA645C18BFC7
:100388007FEA655C29D094EA050F08BF90EA020F5E
:1003980005D054EA000C04BF1946104630BD91EA56
:1003A800030F1EBF0021002030BD5FEA545C05D159
:1003B8004000494128BF41F0004130BD14F5800498
:1003C8003CBF01F5801130BD01F0004545F0FE410C
:1003D80041F470014FF0000030BD7FEA645C1ABF41
:1003E800194610467FEA655C1CBF0B46024650EA78
:1003F800013406BF52EA033591EA030F41F40021A4
:1004080030BD00BF90F0000F04BF0021704730B529
:100418004FF4806404F132044FF000054FF00001FE
:1004280050E700BF90F0000F04BF0021704730B5BF
:100438004FF4806404F1320410F0004548BF404294
:100448004FF000013EE700BF42004FEAE2014FEAE9
:1004580031014FEA02701FBF12F07F4393F07F4FC4
:1004680081F06051704792F0000F14BF93F07F4FF6
:10047800704730B54FF4607401F0004521F0004139
:1004880020E700BF50EA010208BF704730B54FF0BF
:1004980000050AE050EA010208BF704730B511F0C4
:1004A800004502D5404261EB41014FF4806404F1FC
:1004B80032045FEA915C3FF4DCAE4FF003025FEA7E
:1004C800DC0C18BF03325FEADC0C18BF033202EB06
:1004D800DC02C2F1200300FA03FC20FA02F001FA60
:1004E80003FE40EA0E0021FA02F11444C1E600BFFF
:1004F80070B54FF0FF0C4CF4E06C1CEA11541DBFB2
:100508001CEA135594EA0C0F95EA0C0F00F0DEF87C
:100518002C4481EA030621EA4C5123EA4C5350EA61
:10052800013518BF52EA033541F4801143F48013B2
:1005380038D0A0FB02CE4FF00005E1FB02E506F043
:100548000042E0FB03E54FF00006E1FB03569CF098
:10055800000F18BF4EF0010EA4F1FF04B6F5007F9E
:1005680064F5407404D25FEA4E0E6D4146EB060610
:1005780042EAC62141EA55514FEAC52040EA5E5099
:100588004FEACE2EB4F1FD0C88BFBCF5E06F1ED843
:10059800BEF1004F08BF5FEA500E50F1000041EB7A
:1005A800045170BD06F0004646EA010140EA020027
:1005B80081EA0301B4EB5C04C2BFD4EB0C0541EA49
:1005C800045170BD41F480114FF0000E013C00F35E
:1005D800AB8014F1360FDEBF002001F0004170BD82
:1005E800C4F10004203C35DA0C341BDC04F114049B
:1005F800C4F1200500FA05F320FA04F001FA05F227
:1006080040EA020001F0004221F0004110EBD370F3
:1006180021FA04F642EB06015EEA430E08BF20EA1F
:10062800D37070BDC4F10C04C4F1200500FA04F3C2
:1006380020FA05F001FA04F240EA020001F0004154
:1006480010EBD37041F100015EEA430E08BF20EAC7
:10065800D37070BDC4F1200500FA05F24EEA020E0F
:1006680020FA04F301FA05F243EA020321FA04F03E
:1006780001F0004121FA04F220EA020000EBD370F5
:100688005EEA430E08BF20EAD37070BD94F0000FF5
:100698000FD101F00046400041EB010111F4801F29
:1006A80008BF013CF7D041EA060195F0000F18BFDA
:1006B800704703F00046520043EB030313F4801F16
:1006C80008BF013DF7D043EA0603704794EA0C0FD0
:1006D8000CEA135518BF95EA0C0F0CD050EA4106E6
:1006E80018BF52EA4306D1D181EA030101F0004163
:1006F8004FF0000070BD50EA410606BF104619468B
:1007080052EA430619D094EA0C0F02D150EA013696
:1007180013D195EA0C0F05D152EA03361CBF1046D7
:1007280019460AD181EA030101F0004141F0FE4176
:1007380041F470014FF0000070BD41F0FE4141F4FA
:10074800780170BD70B54FF0FF0C4CF4E06C1CEAFA
:1007580011541DBF1CEA135594EA0C0F95EA0C0FAF
:1007680000F0A7F8A4EB050481EA030E52EA03356A
:100778004FEA013100F088804FEA03334FF080558B
:1007880045EA131343EA12634FEA022245EA1115B8
:1007980045EA10654FEA00260EF000419D4208BF69
:1007A800964244F1FD0404F5407402D25B084FEA16
:1007B8003202B61A65EB03055B084FEA32024FF4C2
:1007C80080104FF4002CB6EB020E75EB030E22BF1F
:1007D800B61A754640EA0C005B084FEA3202B6EBDF
:1007E800020E75EB030E22BFB61A754640EA5C008E
:1007F8005B084FEA3202B6EB020E75EB030E22BF1E
:10080800B61A754640EA9C005B084FEA3202B6EB1E
:10081800020E75EB030E22BFB61A754640EADC00DD
:1008280055EA060E18D04FEA051545EA16754FEA3F
:1008380006164FEAC30343EA52734FEAC2025FEA5D
:100848001C1CC0D111F4801F0BD141EA00014FF0EC
:1008580000004FF0004CB6E711F4801F04BF0143BD
:100868000020B4F1FD0C88BFBCF5E06F3FF6AFAED9
:10087800B5EB030C04BFB6EB020C5FEA500C50F169
:10088800000041EB045170BD0EF0004E4EEA1131EC
:1008980014EB5C04C2BFD4EB0C0541EA045170BDF3
:1008A80041F480114FF0000E013C90E645EA060E37
:1008B8008DE60CEA135594EA0C0F08BF95EA0C0F65
:1008C8003FF43BAF94EA0C0F0AD150EA01347FF4AD
:1008D80034AF95EA0C0F7FF425AF104619462CE784
:1008E80095EA0C0F06D152EA03353FF4FDAE1046E7
:1008F800194622E750EA410618BF52EA43067FF438
:10090800C5AE50EA41047FF40DAF52EA43057FF4C7
:10091800EBAE12E74FF0FF3C06E000BF4FF0010CD2
:1009280002E000BF4FF0010C4DF804CD4FEA410C36
:100938007FEA6C5C4FEA430C18BF7FEA6C5C1BD003
:1009480001B050EA410C0CBF52EA430C91EA030F84
:1009580002BF90EA020F0020704710F1000F91EAE1
:10096800030F58BF994208BF90422CBFD8176FEAAF
:10097800E37040F0010070474FEA410C7FEA6C5C7D
:1009880002D150EA013C07D14FEA430C7FEA6C5C84
:10099800D6D152EA033CD3D05DF8040B704700BFB0
:1009A8008446104662468C461946634600E000BFFE
:1009B80001B5FFF7B7FF002848BF10F1000F01BDD0
:1009C8004DF808EDFFF7F4FF0CBF012000205DF89B
:1009D80008FB00BF4DF808EDFFF7EAFF34BF012020
:1009E80000205DF808FB00BF4DF808EDFFF7E0FFB9
:1009F80094BF012000205DF808FB00BF4DF808ED0A
:100A0800FFF7CEFF94BF012000205DF808FB00BF70
:100A18004DF808EDFFF7C4FF34BF012000205DF852
:100A280008FB00BF4FEA410212F5001215D211D59A
:100A38006FF47873B3EB625212D94FEAC12343F0D3
:100A4800004343EA505311F0004F23FA02F018BF55
:100A5800404270474FF00000704750EA013005D11E
:100A680011F0004008BF6FF0004070474FF00000E1
:100A7800704700BF4FEA4102B2F1E04324BFB3F52B
:100A8800001CDCF1FE5C0DD901F0004C4FEAC002FD
:100A98004CEA5070B2F1004F40EB830008BF20F0E1
:100AA8000100704711F0804F21D113F13872BCBF9B
:100AB80001F00040704741F480114FEA5252C2F1F0
:100AC8001802C2F1200C10FA0CF320FA02F018BF39
:100AD80040F001004FEAC1234FEAD32303FA0CFC8C
:100AE80040EA0C0023FA02F34FEA4303CCE77FEA1B
:100AF800625307D150EA01331EBF4FF0FE4040F465
:100B08004000704701F0004040F0FE4040F4000013
:100B1800704700BF844641EA000313F003036DD118
:100B2800403A41D351F8043B40F8043B51F8043BA8
:100B380040F8043B51F8043B40F8043B51F8043BAF
:100B480040F8043B51F8043B40F8043B51F8043B9F
:100B580040F8043B51F8043B40F8043B51F8043B8F
:100B680040F8043B51F8043B40F8043B51F8043B7F
:100B780040F8043B51F8043B40F8043B51F8043B6F
:100B880040F8043B51F8043B40F8043B51F8043B5F
:100B980040F8043B51F8043B40F8043B51F8043B4F
:100BA80040F8043B403ABDD2303211D351F8043BEF
:100BB80040F8043B51F8043B40F8043B51F8043B2F
:100BC80040F8043B51F8043B40F8043B103AEDD29E
:100BD8000C3205D351F8043B40F8043B043AF9D2EF
:100BE800043208D0D2071CBF11F8013B00F8013BC2
:100BF80001D30B8803806046704700BF082A13D3CF
:100C08008B078DD010F003038AD0C3F10403D21AE6
:100C1800DB071CBF11F8013B00F8013B80D331F81A
:100C2800023B20F8023B7BE7043AD9D3013A11F89A
:100C3800013B00F8013BF9D20B7803704B78437005
:100C48008B7883706046704780B500AF40F64C6083
:100C5800C2F200004FF4A8310EF05EFB4BF2806048
:100C6800C0F602000DF048FE80BD00BF80B483B01E
:100C780000AF0346FB804FF6FE73C6F20103FA8805
:100C88001A800C37BD465DF8047B704780B483B08A
:100C980000AF0346FB804FF6FE73C6F20103FA88E5
:100CA8005A800C37BD465DF8047B704780B483B02A
:100CB80000AF7860396007E00023C6F202037A6863
:100CC800911C796012881A803B685A1E3A60002B82
:100CD800F2D10C37BD465DF8047B704780B483B011
:100CE80000AF7860396007E07A68931C7B60002366
:100CF800C6F202031B8813803B685A1E3A60002B19
:100D0800F2D10C37BD465DF8047B704780B5A0B0C2
:100D180000AF07F1680300221A60043300221A604A
:100D2800043300221A60043300221A6004330022BC
:100D38001A6004333A466823104600211A4613F015
:100D480059FC40F2D030C0F6030040F25051C0F6D2
:100D58000301002200230DF063FDF8670020F02155
:100D68004FF4A0720BF0C5F80020F0214FF4A072E8
:100D78000BF0A8F806233B670223BB6707F168035B
:100D8800F86F19460BF03DF840F67543C0F60003BE
:100D98003B6240F69543C0F600037B6240F6B543DC
:100DA800C0F60003FB6240F6E543C0F60003FB63B0
:100DB8003B46F86F19464BF28112C0F600024BF61B
:100DC8000D03C0F600030BF03AF80BF03BF90346AD
:100DD800002B0CD000204FF4A071F0220BF089F802
:100DE80000204FF4A071F0220BF06CF80BE000200B
:100DF800F0214FF4A0720BF07CF80020F0214FF4A2
:100E0800A0720BF05FF88037BD4680BD80B487B014
:100E180000AFF860B9607A60BB68012B01D100238C
:100E280003E04FF0FF337B617B6918461C37BD46F2
:100E38005DF8047B704700BF80B582B000AF41F613
:100E48007403C0F603037B6040F20003C2F20003A0
:100E58003B6007E03B681A1D3A607A68111D7960AB
:100E680012681A603A6840F24C63C2F200039A4270
:100E7800F0D30A480A494FF000028842B8BF40F848
:100E8800042BFADBDFF81C00016841F470010160F3
:100E980001F016FD0837BD4680BD00004C0E00204D
:100EA800608C012088ED00E080B400AFFEE700BF51
:100EB80080B500AF4FF46D43CEF200034FF46D429E
:100EC800CEF20002D2F8882042F47002C3F88820DB
:100ED8004FF46053C4F202034FF46052C4F20202AA
:100EE800126842F001021A604FF46053C4F2020320
:100EF80000229A604FF46053C4F202034FF4605228
:100F0800C4F20202126822F0847222F480321A605B
:100F18004FF46053C4F2020343F21002C2F20042DB
:100F28005A604FF46053C4F202034FF46052C4F2A3
:100F38000202126822F480221A604FF46053C4F24D
:100F480002030022DA6000F009F84FF46D43CEF294
:100F580000034FF000629A6080BD00BF80B483B088
:100F680000AF00237B6000233B604FF46053C4F262
:100F780002034FF46052C4F20202126842F4803253
:100F88001A604FF46053C4F202031B6803F4003381
:100F98003B607B6801337B603B68002B03D17B6837
:100FA800B3F5A06FEDD14FF46053C4F202031B6890
:100FB80003F40033002B02D001233B6001E000233F
:100FC8003B603B68012B40F082804FF46053C4F2D1
:100FD80002034FF46052C4F20202126C42F08052D3
:100FE8001A644FF4E043C4F200034FF4E042C4F241
:100FF8000002126842F480421A604FF46053C4F24F
:1010080002034FF46052C4F2020292689A604FF4ED
:101018006053C4F202034FF46052C4F202029268B1
:1010280042F400429A604FF46053C4F202034FF452
:101038006052C4F20202926842F4A0529A604FF4DD
:101048006053C4F2020345F20842C0F240725A608B
:101058004FF46053C4F202034FF46052C4F2020228
:10106800126842F080721A6000BF4FF46053C4F2F5
:1010780002031B6803F00073002BF6D04FF4705383
:10108800C4F2020340F205621A604FF46053C4F2DE
:1010980002034FF46052C4F20202926822F0030283
:1010A8009A604FF46053C4F202034FF46052C4F2E2
:1010B8000202926842F002029A6000BF4FF4605345
:1010C800C4F202039B6803F00C03082BF6D10C371B
:1010D800BD465DF8047B704780B485B000AF78608A
:1010E8000023FB730023BB730F237B737B68DB78C0
:1010F800002B40D04FF46D43CEF20003DB68DB4396
:1011080003F4E0631B0AFB73FB7BC3F10403BB73AB
:101118007A7BFB7B42FA03F37B737B685B781A4626
:10112800BB7B02FA03F3FB737B689A787B7B1340E3
:10113800DAB2FB7B1343FB73FB7B1B01FB734FF49E
:101148006143CEF200037A6812781344FA7B83F87D
:1011580000234FF46143CEF200037A6812785209F3
:10116800D2B27968097801F01F01012000FA01F173
:1011780043F8221011E04FF46143CEF200037A687D
:1011880012785209D2B27968097801F01F0101205A
:1011980000FA01F1203243F822101437BD465DF8F9
:1011A800047B704780B500AF4FF48070012100F0D8
:1011B800C5FE4FF48070002100F0C0FE80BD00BF66
:1011C80080B485B000AF786039600023FB600023ED
:1011D800FB727B685B68FB60FB6823F0407323F459
:1011E8008073FB603B681B791A023B681B681343DA
:1011F800FA681343FB607B68FA685A607B689B68EF
:10120800FB60FA684FF2FD73CCF2FF031340FB60FA
:101218003B681A693B68DB681A433B689B681A435A
:101228003B685B795B001343FA681343FB607B6898
:10123800FA689A607B68DB6AFB60FB6823F47003DA
:10124800FB603B681B7D013BDAB2FB7A1343FB7200
:10125800FB7A1B05FA681343FB607B68FA68DA625D
:101268001437BD465DF8047B704700BF80B485B075
:1012780000AF78600023FB604FF40C53C4F2010305
:101288005B68FB60FA6843F2E003CFF6FC73134037
:10129800FB607B681A687B685B681A437B689B689D
:1012A8001A437B68DB681343FA681343FB604FF407
:1012B8000C53C4F20103FA685A601437BD465DF84E
:1012C800047B704780B483B000AF78600B46FB7036
:1012D800FB78002B06D07B689B6843F001027B6893
:1012E8009A6005E07B689B6823F001027B689A603E
:1012F8000C37BD465DF8047B704700BF80B485B0ED
:1013080000AF7860F970BA707B700023FB6000232F
:10131800BB60FB78092B23D97B68DB68FB60FB7813
:10132800A3F10A0213465B001344072202FA03F3EF
:10133800BB60BB68DB43FA681340FB607978FB78D5
:10134800A3F10A0213465B00134401FA03F3BB60DE
:10135800FA68BB681343FB607B68FA68DA601EE0D2
:101368007B681B69FB60FA7813465B00134407220D
:1013780002FA03F3BB60BB68DB43FA681340FB6007
:101388007978FA7813465B00134401FA03F3BB60DB
:10139800FA68BB681343FB607B68FA681A61BB781C
:1013A800062B21D87B685B6BFB60BB785A1E134603
:1013B8009B0013441F2202FA03F3BB60BB68DB43A4
:1013C800FA681340FB60F978BB785A1E13469B00F5
:1013D800134401FA03F3BB60FA68BB681343FB606C
:1013E8007B68FA685A6347E0BB780C2B21D87B6886
:1013F8001B6BFB60BB78DA1F13469B0013441F224C
:1014080002FA03F3BB60BB68DB43FA681340FB6076
:10141800F978BB78DA1F13469B00134401FA03F3EB
:10142800BB60FA68BB681343FB607B68FA681A63A1
:1014380022E07B68DB6AFB60BB78A3F10D021346F0
:101448009B0013441F2202FA03F3BB60BB68DB4313
:10145800FA681340FB60F978BB78A3F10D021346D4
:101468009B00134401FA03F3BB60FA68BB6813439B
:10147800FB607B68FA68DA621437BD465DF8047B66
:10148800704700BF80B483B000AF78607B689B680A
:1014980043F080427B689A600C37BD465DF8047B58
:1014A800704700BF80B483B000AF78600B46FB7014
:1014B800FB78002B06D07B689B6843F002027B68B0
:1014C8009A6005E07B689B6823F002027B689A605B
:1014D8000C37BD465DF8047B704700BF80B483B00D
:1014E80000AF78600B46FB70FB78002B06D07B685A
:1014F8009B6843F480727B689A6005E07B689B6810
:1015080023F480727B689A600C37BD465DF8047BD3
:10151800704700BF80B483B000AF78600B46FB70A3
:10152800FB78002B06D07B689B6843F400727B68CD
:101538009A6005E07B689B6823F400727B689A6078
:101548000C37BD465DF8047B704700BF80B483B09C
:1015580000AF78607B681B6823F001027B681A6023
:101568007B6800221A607B6800225A607B68002230
:101578009A607B680022DA607B6800221A617B68C7
:1015880021225A617A6846F21003C4F202039A4291
:1015980006D14FF4C043C4F202033D229A60E6E04C
:1015A8007A6846F22803C4F202039A4207D14FF43C
:1015B800C043C4F202034FF474629A60D7E07A68B9
:1015C80046F24003C4F202039A4207D14FF4C043E3
:1015D800C4F202034FF474129A60C8E07A6846F2C3
:1015E8005803C4F202039A4207D14FF4C043C4F22D
:1015F80002034FF074629A60B9E07A6846F27003A9
:10160800C4F202039A4208D14FF4C043C4F2020361
:101618003D22C2F20002DA60A9E07A6846F2880345
:10162800C4F202039A4209D14FF4C043C4F2020340
:101638004FF47462C2F20002DA6098E07A6846F207
:10164800A003C4F202039A4208D14FF4C043C4F283
:1016580002030022C2F23D02DA6088E07A6846F2AC
:10166800B803C4F202039A4207D14FF4C043C4F24C
:1016780002034FF03D52DA6079E07A6846F210438F
:10168800C4F202039A4206D14FF4C843C4F20203DB
:101698003D229A606BE07A6846F22843C4F202035E
:1016A8009A4207D14FF4C843C4F202034FF474625C
:1016B8009A605CE07A6846F24043C4F202039A42B8
:1016C80007D14FF4C843C4F202034FF474129A606E
:1016D8004DE07A6846F25843C4F202039A4207D1B1
:1016E8004FF4C843C4F202034FF074629A603EE0BC
:1016F8007A6846F27043C4F202039A4208D14FF462
:10170800C843C4F202033D22C2F20002DA602EE0AE
:101718007A6846F28843C4F202039A4209D14FF428
:10172800C843C4F202034FF47462C2F20002DA60E2
:101738001DE07A6846F2A043C4F202039A4208D137
:101748004FF4C843C4F202030022C2F23D02DA6039
:101758000DE07A6846F2B843C4F202039A4206D111
:101768004FF4C843C4F202034FF03D52DA600C371D
:10177800BD465DF8047B704780B485B000AF7860E3
:1017880039600023FB607B681B68FB60FA6848F2DD
:101798003F03CFF21C031340FB603B681A683B68A9
:1017A800DB681A433B685B691A433B689B691A43C9
:1017B8003B68DB691A433B681B6A1A433B685B6AF0
:1017C8001A433B689B6A1A433B685B6B1A433B6846
:1017D8009B6B1343FA681343FB607B68FA681A60D3
:1017E8007B685B69FB60FB6823F00703FB603B6871
:1017F800DA6A3B681B6B1343FA681343FB607B6828
:10180800FA685A613B681A697B685A603B685A688B
:101818007B689A603B689A687B68DA601437BD46D3
:101828005DF8047B704700BF80B483B000AF786078
:101838000B46FB70FB78002B06D07B681B6843F0D7
:1018480001027B681A6005E07B681B6823F00102CF
:101858007B681A600C37BD465DF8047B704700BF93
:1018680080B483B000AF78604FF020437A68126884
:10187800796848687968896808437968C968084355
:101888007968096908437968496908437968896901
:1018980008437968C96908437968096A0843796817
:1018A800496A08437968896A08437968C96A0843B4
:1018B8007968096B014343F822107B689B68082B01
:1018C8000DD14FF020437A6812684FF020417868B4
:1018D800006851F8201041F0400143F822104FF001
:1018E80020437A68126801327968496B0868796818
:1018F800496B4968090108437968496B8968090295
:1019080008437968496BC968090408437968496BD1
:101918000969090508437968496B49690906084353
:101928007968496B8969014343F822107B68DB6A4F
:10193800B3F5804F23D14FF48273CAF200037A685B
:1019480012687968896B08687968896B4968090140
:1019580008437968896B8968090208437968896B43
:101968000969090508437968896B496909060843C3
:101978007968896B8969014343F8221009E04FF4BB
:101988008273CAF200037A6812686FF0704143F8F4
:1019980022100C37BD465DF8047B704780B483B0D5
:1019A80000AF78600B46FB70FB78002B0CD04FF033
:1019B80020434FF02042796852F8212042F001017B
:1019C8007A6843F822100EE04FF020424FF020438F
:1019D800796853F821104FF6FE73C0F20F030B40DD
:1019E800796842F821300C37BD465DF8047B7047B2
:1019F80080B487B000AF7860396000237B61002332
:101A08003B610023FB6000237B6176E07B69012258
:101A180002FA03F33B613B681A683B691340FB60B9
:101A2800FA683B699A4265D17B681A687B695B00F2
:101A3800032101FA03F3DB431A407B681A607B68D1
:101A48001A683B681B7919467B695B0001FA03F346
:101A58001A437B681A603B681B79012B03D03B68EB
:101A68001B79022B2ED17B689A687B695B00032166
:101A780001FA03F3DB431A407B689A607B689A6833
:101A88003B685B7919467B695B0001FA03F31A43EB
:101A98007B689A607B685A687B699BB2012101FA6E
:101AA80003F3DB431A407B685A607B685A683B68DB
:101AB8009B7919467B699BB201FA03F39BB21A43DF
:101AC8007B685A607B68DA687B699BB25B0003219C
:101AD80001FA03F3DB431A407B68DA607B68DA6853
:101AE8003B68DB7919467B695B0001FA03F31A430B
:101AF8007B68DA607B6901337B617B690F2B85D951
:101B08001C37BD465DF8047B704700BF80B485B0C4
:101B180000AF78600B467B800023FB737B681A69F3
:101B28007B881340002B02D00123FB7301E00023C4
:101B3800FB73FB7B18461437BD465DF8047B704782
:101B480080B483B000AF78600B467B807B687A886E
:101B58001A830C37BD465DF8047B704780B483B0A8
:101B680000AF78600B467B807B687A885A830C3795
:101B7800BD465DF8047B704780B485B000AF7860DF
:101B880013460A467A807B700023FB600023BB6003
:101B98007A787B8803F007039B0002FA03F3FB6063
:101BA8007B88DB089BB21A467B88DB089BB2194608
:101BB8007B68083153F821107B8803F007039B00EA
:101BC8000F2000FA03F3DB4319407B68083243F81F
:101BD80022107B88DB089BB21A467B68083253F8D0
:101BE8002220FB681343BB607B88DB089BB21A4644
:101BF8007B680832B96843F822101437BD465DF88F
:101C0800047B7047000000002DE9B04388B000AFA6
:101C1800F86087ED020A79600023FB610023BB614D
:101C28004FF000037B619FED307AD7ED027AC7EE63
:101C3800277AC7ED057A0023FB613EE07868FEF756
:101C4800F1FB80468946FB6907EE903AB8EEE77AE1
:101C5800D7ED057A67EE277A17EE900AFEF7F4FBC0
:101C680002460B46104619461DA3D3E90023FEF78A
:101C78003FFC02460B4643EC172BB0EE470AF0EE4A
:101C8800670A11F0E1F953EC102B40464946FEF77C
:101C98002FFC02460B46144623F0004520462946F1
:101CA800FEF7C0FE0346BB61FB699B00FA6813445C
:101CB800BA691A60FB690133FB61FB6907EE903A68
:101CC800B8EEE77AD7ED027AB4EEE77AF1EE10FAD9
:101CD800B4D918462037BD46BDE8B083AFF30080BD
:101CE80012E7FAA146DF913F0000B443AFF300804A
:101CF80080B586B000AF78600220012100F0CEF8F0
:101D08000023BB810023FB817B683B610023BB82EE
:101D18000023BB7507F10C034FF48060C4F2000088
:101D2800194600F0CFF94FF48060C4F20000012199
:101D380000F05EFA18461837BD4680BD80B588B0F9
:101D480000AF78607023BB810123FB8102233B83B2
:101D58007B687B6107F10C034FF48060C4F20000DC
:101D6800194600F065FA4FF48060C4F200000821BB
:101D780000F04EFC2037BD4680BD00BF80B588B05E
:101D880000AF78607023BB810123FB8102233B8372
:101D98007B687B6107F10C034FF48060C4F200009C
:101DA800194600F047FB4FF48060C4F20000082198
:101DB80000F068FC2037BD4680BD00BF80B588B004
:101DC80000AF78607023BB810123FB8102233B8332
:101DD8007B687B6107F10C034FF48060C4F200005C
:101DE800194600F0ADFB4FF48060C4F200000821F2
:101DF80000F064FC2037BD4680BD00BF80B483B0CE
:101E080000AF78600B46FB70FB78002B0CD04FF4CA
:101E18006053C4F202034FF46052C4F20202116B21
:101E28007A680A431A630CE04FF46053C4F2020361
:101E38004FF46052C4F20202116B7A68D2430A402E
:101E48001A630C37BD465DF8047B704780B483B0D5
:101E580000AF78600B46FB70FB78002B0CD04FF47A
:101E68006053C4F202034FF46052C4F20202916B51
:101E78007A680A439A630CE04FF46053C4F2020391
:101E88004FF46052C4F20202916B7A68D2430A405E
:101E98009A630C37BD465DF8047B704780B483B005
:101EA80000AF78600B46FB70FB78002B0CD04FF42A
:101EB8006053C4F202034FF46052C4F20202116C80
:101EC8007A680A431A640CE04FF46053C4F20203C0
:101ED8004FF46052C4F20202116C7A68D2430A408D
:101EE8001A640C37BD465DF8047B704780B483B034
:101EF80000AF78600B46FB70FB78002B0CD04FF4DA
:101F08006053C4F202034FF46052C4F20202516CEF
:101F18007A680A435A640CE04FF46053C4F202032F
:101F28004FF46052C4F20202516C7A68D2430A40FC
:101F38005A640C37BD465DF8047B704780B483B0A3
:101F480000AF78600B46FB70FB78002B0CD04FF489
:101F58006053C4F202034FF46052C4F20202516AA1
:101F68007A680A435A620CE04FF46053C4F20203E1
:101F78004FF46052C4F20202516A7A68D2430A40AE
:101F88005A620C37BD465DF8047B704780B485B053
:101F980000AF786039600023FB817B681B88FB8178
:101FA800FB8903F44153FB813B681A883B685B88D3
:101FB80013439AB23B689B8813439AB23B68DB8809
:101FC80013439AB23B681B8913439AB23B685B89F7
:101FD80013439AB23B689B8913439AB23B68DB89E7
:101FE80013439AB2FB891343FB817B68FA891A80F1
:101FF8007B689B8B9BB223F400639AB27B689A83BD
:102008003B681A8A7B681A821437BD465DF8047BE0
:10201800704700BF80B483B000AF78600B46FB7098
:10202800FB78002B08D07B681B889BB243F04003E9
:102038009AB27B681A8007E07B681B889BB223F002
:1020480040039AB27B681A800C37BD465DF8047B62
:10205800704700BF80B483B000AF78607B689B890D
:102068009BB218460C37BD465DF8047B704700BF2D
:1020780080B483B000AF78600B467B807B687A8839
:102088009A810C37BD465DF8047B704780B485B0F3
:1020980000AF78600B467B800023FB737B681B894D
:1020A8009AB27B8813409BB2002B02D00123FB73AA
:1020B80001E00023FB73FB7B18461437BD465DF82F
:1020C800047B704780B485B000AF78603960002326
:1020D800FB817B681B88FB817A680023C4F20103BB
:1020E8009A421FD07A684FF48063C4F201039A427F
:1020F80018D07B68B3F1804F14D07A684FF48063AE
:10210800C4F200039A420DD07A684FF40063C4F217
:1021180000039A4206D07A684FF44063C4F2000381
:102128009A4208D1FB8923F07003FB813B685A88E7
:10213800FB891343FB817A684FF48053C4F2000390
:102148009A420FD07A684FF4A053C4F200039A421F
:1021580008D0FB8923F44073FB813B681A89FB890B
:102168001343FB817B68FA891A803B685A687B684D
:10217800DA623B681A887B681A857A680023C4F299
:1021880001039A4206D07A684FF48063C4F20103CF
:102198009A4204D13B689B7A1A467B681A867B6808
:1021A80001229A821437BD465DF8047B704700BF50
:1021B80080B483B000AF78600B46FB70FB78002BCF
:1021C80008D07B681B889BB243F080039AB27B6877
:1021D8001A8007E07B681B889BB223F080039AB2C1
:1021E8007B681A800C37BD465DF8047B704700BFDA
:1021F80080B483B000AF78600B46FB70FB78002B8F
:1022080008D07B681B889BB243F001039AB27B68B5
:102218001A8007E07B681B889BB223F001039AB2FF
:102228007B681A800C37BD465DF8047B704700BF99
:1022380080B485B000AF7860396000237B810023CB
:10224800FB810023BB817B681B8C9BB223F00103BD
:102258009AB27B681A847B681B8CFB817B689B889D
:10226800BB817B681B8B7B817B8923F070037B811F
:102278007B8923F003037B813B681A887B8913439E
:102288007B81FB8923F00203FB813B689A89FB89E8
:102298001343FB813B685A88FB891343FB817A68A7
:1022A8000023C4F201039A4206D07A684FF480638F
:1022B800C4F201039A4223D1FB8923F00803FB816E
:1022C8003B68DA89FB891343FB81FB8923F004030C
:1022D800FB813B689A88FB891343FB81BB8923F404
:1022E8008073BB81BB8923F40073BB813B681A8A66
:1022F800BB891343BB813B685A8ABB891343BB81A3
:102308007B68BA899A807B687A891A833B689A685D
:102318007B685A637B68FA891A841437BD465DF86E
:10232800047B704780B485B000AF786039600023C3
:102338007B810023FB810023BB817B681B8C9BB2C4
:1023480023F010039AB27B681A847B681B8CFB818C
:102358007B689B88BB817B681B8B7B817B8923F493
:10236800E0437B817B8923F440737B813B681B8836
:102378001B029AB27B8913437B81FB8923F02003DC
:10238800FB813B689B891B019AB2FB891343FB8144
:102398003B685B881B019AB2FB891343FB817A680F
:1023A8000023C4F201039A4206D07A684FF480638E
:1023B800C4F201039A422BD1FB8923F08003FB81ED
:1023C8003B68DB891B019AB2FB891343FB81FB89BC
:1023D80023F04003FB813B689B881B019AB2FB8971
:1023E8001343FB81BB8923F48063BB81BB8923F43E
:1023F8000063BB813B681B8A9B009AB2BB8913436D
:10240800BB813B685B8A9B009AB2BB891343BB8143
:102418007B68BA899A807B687A891A833B689A684C
:102428007B689A637B68FA891A841437BD465DF81D
:10243800047B704780B485B000AF786039600023B2
:102448007B810023FB810023BB817B681B8C9BB2B3
:1024580023F480739AB27B681A847B681B8CFB8197
:102468007B689B88BB817B689B8B7B817B8923F006
:1024780070037B817B8923F003037B813B681A8887
:102488007B8913437B81FB8923F40073FB813B68C1
:102498009B891B029AB2FB891343FB813B685B88CB
:1024A8001B029AB2FB891343FB817A680023C4F2AA
:1024B80001039A4206D07A684FF48063C4F201039C
:1024C8009A422BD1FB8923F40063FB813B68DB89AB
:1024D8001B029AB2FB891343FB81FB8923F48063B7
:1024E800FB813B689B881B029AB2FB891343FB81E3
:1024F800BB8923F48053BB81BB8923F40053BB8180
:102508003B681B8A1B019AB2BB891343BB813B689A
:102518005B8A1B019AB2BB891343BB817B68BA896A
:102528009A807B687A899A833B689A687B68DA63C1
:102538007B68FA891A841437BD465DF8047B7047B6
:1025480080B485B000AF786039600023BB81002378
:102558007B810023FB817B681B8C9BB223F4805317
:102568009AB27B681A847B681B8C7B817B689B880A
:10257800FB817B689B8BBB81BB8923F4E043BB81D8
:10258800BB8923F44073BB813B681B881B029AB24A
:10259800BB891343BB817B8923F400537B813B6850
:1025A8009B891B039AB27B8913437B813B685B88B9
:1025B8001B039AB27B8913437B817A680023C4F298
:1025C80001039A4206D07A684FF48063C4F201038B
:1025D8009A420AD1FB8923F48043FB813B681B8A1A
:1025E8009B019AB2FB891343FB817B68FA899A8025
:1025F8007B68BA899A833B689A687B681A647B68A7
:102608007A891A841437BD465DF8047B704700BF89
:1026180080B485B000AF78600B467B800023FB81D7
:102628007B681B8BFB81FB8923F00803FB81FA89FC
:102638007B881343FB817B68FA891A831437BD466C
:102648005DF8047B704700BF80B485B000AF786048
:102658000B467B800023FB817B681B8BFB81FB89FE
:1026680023F40063FB817B881B029AB2FB89134326
:10267800FB817B68FA891A831437BD465DF8047BB1
:10268800704700BF80B485B000AF78600B467B8090
:102698000023FB817B689B8BFB81FB8923F008036C
:1026A800FB81FA897B881343FB817B68FA899A83CB
:1026B8001437BD465DF8047B704700BF80B485B011
:1026C80000AF78600B467B800023FB817B689B8B87
:1026D800FB81FB8923F40063FB817B881B029AB290
:1026E800FB891343FB817B68FA899A831437BD46BB
:1026F8005DF8047B704700BF80B483B000AF78609A
:1027080013460A467A807B707B78002B08D07B685A
:102718009B899AB27B8813439AB27B689A8109E0B5
:102728007B689B899AB27B88DB439BB213409AB241
:102738007B689A810C37BD465DF8047B704700BF03
:1027480080B485B000AF78600B467B800023FB73B4
:102758000023BB8100237B817B681B8A9AB27B881C
:102768001340BB817B689B899AB27B8813407B812D
:10277800BB89002B05D07B89002B02D00123FB737A
:1027880001E00023FB73FB7B18461437BD465DF858
:10279800047B704780B483B000AF78600B467B80C1
:1027A8007B88DB439AB27B681A820C37BD465DF89A
:1027B800047B704780B483B000AF786045F64C6303
:1027C800C2F201037A681A6000BF45F64C63C2F290
:1027D80001031B68002BF8D10C37BD465DF8047B5C
:1027E800704700BF80B400AF45F64C63C2F20103E6
:1027F8001B68002B0AD045F64C63C2F201031B6824
:102808005A1E45F64C63C2F201031A60BD465DF8D4
:10281800047B704780B483B000AF03463960FB7116
:1028280097F90730002B0EDA4FF46D43CEF2000310
:10283800FA7902F00F02111F3A68D2B21201D2B22D
:102848000B441A760CE04FF46143CEF2000397F97B
:1028580007103A68D2B21201D2B20B4483F80023AF
:102868000C37BD465DF8047B704700BF80B582B069
:1028780000AF78607B68B3F1807F01D301231AE051
:102888004EF21003CEF200037A6822F07F42013A3A
:102898005A604FF0FF300F21FFF7BCFF4EF21003D4
:1028A800CEF2000300229A604EF21003CEF200032B
:1028B80007221A60002318460837BD4680BD00BFAE
:1028C80080B58EB006AF43F2AF63FB61FEF7F0FA56
:1028D80040F20003C2F200031A6844F6D353C1F26F
:1028E8006203A3FB02139B091846FFF7BFFF0346C9
:1028F800002B00D0FEE701F05BFD45F67460C2F2E4
:1029080001009FEDDC0A43F2C821FFF77DF9F86961
:10291800FFF7EEF940F6AC50FFF710FA01F060FB54
:1029280046F21040C4F20200FEF710FE48F64023BB
:10293800C2F201034FF080621A6048F64023C2F2E7
:10294800010342F24C22C4F201025A6048F6FC121A
:10295800C2F2010248F64023C2F201039A6048F627
:102968004023C2F201030022DA6048F64023C2F293
:10297800010302221A6148F64023C2F20103002231
:102988005A6148F64023C2F201034FF480629A610B
:1029980048F64023C2F201034FF40062DA6148F6B8
:1029A8004023C2F201034FF400521A6248F6402352
:1029B800C2F201034FF480725A6248F64023C2F211
:1029C80001034FF400329A6248F64023C2F2010331
:1029D8000022DA6248F64023C2F2010301221A6398
:1029E80048F64023C2F2010300225A6348F6402306
:1029F800C2F2010300229A6346F21040C4F20200B8
:102A080048F64021C2F20101FEF7B6FE46F2104038
:102A1800C4F202000121FEF707FF46F24040C4F26B
:102A28000200FEF793FD48F64023C2F201034FF07F
:102A380000721A6048F64023C2F2010341F288325C
:102A48001A6148F64023C2F2010342F24C12C4F262
:102A580001025A6046F2D422C2F2010248F640232B
:102A6800C2F201039A6046F24040C4F2020048F6FE
:102A78004021C2F20101FEF77FFE46F24040C4F257
:102A880002000121FEF7D0FE01F060FB01F00EFC10
:102A980001F072FD4FF480500121FFF7AFF90BF000
:102AA800A1FF01F02DFC01F09BFF01F0EDFD4FF4BB
:102AB8004060C4F202004FF48051FFF74FF84BF228
:102AC8006C40C0F602000AF041FE40F20550C0F228
:102AD80005000AF067FE0BF047FF4AF25470C0F693
:102AE80002000BF045FD0223009343F28D13C0F65C
:102AF80000030193002302930020BE214FF4A0722B
:102B0800322306F0B9F8B8614FF400000AF04AFE23
:102B18000223009343F28D13C0F6000301930023B0
:102B28000293002010214FF4A072AE2306F0A4F8FF
:102B3800024648F63023C2F201031A6048F63023F1
:102B4800C2F201031B68184605F04CFF0BF00CFF9E
:102B5800B86905F047FFBB6900930223019300237E
:102B680002934FF4B87303930020002150223223BC
:102B780004F024FD786178694BF26C41C0F60201DB
:102B880004F054FD78694AF26471C0F6020104F059
:102B980025FD7869002104F05AFDBB6900930223E2
:102BA80001930023029340F27113039350200021F4
:102BB8005022322304F002FD386138694BF26C412F
:102BC800C0F6020104F032FD38694AF26C71C0F6B1
:102BD800020104F003FD3869002104F038FDBB69E7
:102BE800009302230193002302934FF4B9730393D4
:102BF800A02000215022322304F0E0FCF860F8689D
:102C08004BF26C41C0F6020104F010FDF8684AF27C
:102C18007471C0F6020104F0E1FCF868002104F0C8
:102C280016FDBB690093022301930023029340F22F
:102C380073130393F02000215022322304F0BEFCCA
:102C4800B860B8684BF26C41C0F6020104F0EEFCC3
:102C5800B8684AF27C71C0F6020104F0BFFCB8689B
:102C6800002104F0F4FC47F2BD00C0F6000004F0B7
:102C78009DFB01E00000C84248F63023C2F2010380
:102C88001B68009310230193002302934FF4BA7337
:102C98000393B4206A217422322304F08FFC024685
:102CA80046F2BC23C2F201031A6046F2BC23C2F208
:102CB80001031B6818464DF6EC71C0F6020104F0DA
:102CC800B5FC46F2BC23C2F201031B6818464AF25F
:102CD8008471C0F6020104F081FC46F2BC23C2F202
:102CE80001031B681846002104F0B1FC48F63023A4
:102CF800C2F201031B68009310230193002302937F
:102D080040F2751303931420782178221E2304F0CF
:102D180055FC024646F2CC23C2F201031A6046F281
:102D2800CC23C2F201031B6818464BF26C41C0F673
:102D3800020104F07BFC46F2CC23C2F201031B68BB
:102D480018464AF28C71C0F6020104F047FC46F2BC
:102D5800CC23C2F201031B681846002104F077FC5B
:102D680048F63023C2F201031B6800930023019345
:102D7800012302934FF404730393D72028213222AE
:102D8800782302F09DFE024648F62C23C2F2010386
:102D98001A6048F62C23C2F201031B68184600216A
:102DA8004FF4004202F06BFD48F62C23C2F20103F7
:102DB8001B6818460121002202F061FD48F6302305
:102DC800C2F201031B6800930023019300230293BE
:102DD80040F6010303934AF29C73C0F6020304937E
:102DE80043F28D13C0F6000305930A200A217822C6
:102DF8007D2303F045F9024648F62023C2F2010379
:102E08001A6048F62023C2F201031B68184605F031
:102E1800C0F87860786843F22131C0F6000104F008
:102E2800B1FE786805F046F803467A6800920222F7
:102E380001924FF42072029201220392C822049256
:102E4800002000211A46322302F06AFC024648F6A6
:102E58000023C2F201031A6048F60023C2F20103FC
:102E68001B68184601214FF68072C0F2FF0202F07B
:102E780052FB48F60023C2F201031B6818464DF2C4
:102E88004851C0F6020102F05DFC48F60023C2F288
:102E980001031A6840F21803C2F200031B681046C7
:102EA800194602F0DBFC48F62023C2F201031B6836
:102EB800184602F0BFFE0346C3F114037A68009275
:102EC80002220192002202924FF4BB72039218462A
:102ED8003C215022282304F071FB386038684BF2FB
:102EE8006C41C0F6020104F0A1FB38684AF2B471E3
:102EF800C0F6020104F072FB3868002104F0A7FB59
:102F08000BF032FD48F63023C2F201031B68184665
:102F180005F068FDB86904F063FD00F02FFA4FF47E
:102F28000850C4F201000121FEF7BCFA4FF4085022
:102F3800C4F20100FEF7A6FA4FF40450C4F20100EF
:102F48000121FEF7AFFA4FF40450C4F20100FEF776
:102F580099FA00F07BFD32200AF0D9FBF9E700BFAF
:102F680080B500AF4FF48060C4F200000121FFF784
:102F7800E7FB0346002B51D04FF48060C4F20000F9
:102F88000121FFF707FC40F21C03C2F200031B7883
:102F980003F00103002B29D045F66C63C2F201034C
:102FA8001B68322B0DDC45F66C63C2F201031A680C
:102FB80045F67463C2F2010353F822301846FEF74F
:102FC800FDFE45F66C63C2F201031B68312B0DDD73
:102FD80045F66C63C2F201031A6845F67463C2F2DF
:102FE800010353F822301846FEF7C8FE45F66C6315
:102FF800C2F201031B685A1C45F66C63C2F2010356
:103008001A6045F66C63C2F201031B68652B05D193
:1030180045F66C63C2F2010300221A6080BD00BF4E
:10302800B0B598B000AF786007F10803184646F2CB
:10303800D421C2F2010141F2883200F065FE46F265
:103048000803C2F201031B685A1C46F20803C2F2C5
:1030580001031A6046F20803C2F201031B68B3F5C4
:10306800FA7F12DD3A6A46F20C03C2F201031A60D3
:103078007A6946F21003C2F201031A6046F20803A5
:10308800C2F2010301221A601FE097ED087A46F2A6
:103098000C03C2F20103D3ED007A77EE277A46F2E9
:1030A8000C03C2F20103C3ED007A97ED057A46F2EC
:1030B8001003C2F20103D3ED007A77EE277A46F2C5
:1030C8001003C2F20103C3ED007A49F69A13C4F261
:1030D800F1137B6348F21F53C3F6AB73BB634DF622
:1030E8003B73C4F22123FB634FF2C353C4F2EF23B3
:1030F8003B6443F23333C4F233037B644FF6D503A6
:10310800C4F2A733BB644EF24813C4F26F23FB64C6
:103118004BF65203C4F251233B6547F6E123C4F250
:103128006F237B653B6BFB6597F82C3087F858302D
:103138007B681C4607F134050FCD0FC40FCD0FC4B3
:1031480095E8070084E8070078686037BD46B0BD99
:1031580090B486B000AF78601823FB604FF07C53C2
:103168003B610123BB6048237B617B681C4607F1F8
:1031780008030FCB84E80F0078681837BD4690BC69
:10318800704700BF80B584B000AF78607B681B686B
:10319800262B40F0B7807B689B68184604F0E1FE58
:1031A800F8607B68DB68BB60FB68A3F5B873052B28
:1031B80000F2AD8001A252F823F000BFDD31000813
:1031C8000F3200084132000873320008A5320008A7
:1031D800FB320008BB68012B13D0022B00D090E013
:1031E80045F66463C2F201031B68002B08D045F65C
:1031F8006463C2F2010300221A6000F0BFF801E024
:1032080000E000BF7DE0BB68012B13D0022B00D08B
:1032180077E045F66463C2F201031B68012B08D00E
:1032280045F66463C2F2010301221A6000F07EFAD7
:1032380001E000E000BF64E0BB68012B13D0022B63
:1032480000D05EE045F66463C2F201031B68022BFE
:1032580008D045F66463C2F2010302221A6000F046
:103268002BF901E000E000BF4BE0BB68012B13D055
:10327800022B00D045E045F66463C2F201031B68E7
:10328800032B08D045F66463C2F2010303221A60D7
:1032980000F0F8FA01E000E000BF32E0BB68022B62
:1032A80000D02EE040F21C03C2F200031B7883F02A
:1032B8000103DAB240F21C03C2F200031A7040F2B2
:1032C8001C03C2F200031B7803F00103002B07D094
:1032D8004FF44060C4F202000821FEF731FC06E01A
:1032E8004FF44060C4F202000821FEF737FC00BF2B
:1032F80007E0BB68022B00D002E000F047FB00BFEC
:1033080000BF04E0786805F075FF00BF00E000BF6B
:103318001037BD4680BD00BF80B584B000AF78606F
:103328007B681B680F2B02D0262B09D01FE04CF2BC
:10333800C000C0F2C0000AF035FA0BF015FB19E026
:103348007B689B68184604F00CFEF8607B68DB68B5
:10335800BB60FB68B3F5BB7F00D00BE0BB68022BFA
:1033680000D002E000F044FB00BF00BF02E0786834
:1033780005F040FF1037BD4680BD00BF80B500AFE7
:1033880048F63023C2F201031B68184605F02AFBF1
:1033980046F2BC23C2F201031B68184604F03EFA49
:1033A80046F2BC23C2F201031B68184604F020FE53
:1033B80046F2CC23C2F201031B68184604F03BFD19
:1033C80046F2CC23C2F201031B68184604F013FE30
:1033D80048F62C23C2F201031B68184604F02BFDA3
:1033E80048F62023C2F201031B68184604F023FDA7
:1033F8000BF0BAFA00200AF0D7F91420182110228D
:103408000BF098FB1420422110220BF093FB1420A0
:103418006C2110220BF08EFB1420962110220BF049
:1034280089FB40F21B10282120220BF083FBC020CF
:10343800282120220BF07EFB00F008FB4FF47F4090
:10344800C0F2FF000AF0B0F94BF26C40C0F602007F
:103458000AF07CF94AF2B870C0F602002C2110225A
:103468000BF07EF84AF26C70C0F602002C213A226A
:103478000BF076F84AF2C470C0F602002C216422E0
:103488000BF06EF84AF2D070C0F602002C218E22A2
:103498000BF066F84AF2E070C0F602004FF48A7149
:1034A8004C220BF05DF84AF2E470C0F60200B52138
:1034B8004C220BF055F880BD80B58CB000AF48F6B3
:1034C8003023C2F201031B68184605F08BFA46F256
:1034D800BC23C2F201031B68184604F0ACFC46F298
:1034E800BC23C2F201031B68184604F084FD46F2AF
:1034F800CC23C2F201031B68184604F09CFC46F278
:10350800CC23C2F201031B68184604F074FD48F688
:103518002C23C2F201031B68184604F08CFC48F601
:103528002023C2F201031B68184604F084FC0BF048
:103538001BFA3B1D1846FFF773FD4FF40040C0F21D
:1035480080000AF031F99F200421A02271230AF09B
:1035580039FB032076214FF49E7277230AF032FB61
:103568004FF47F40C0F2FF000AF01EF94BF26C40A6
:10357800C0F602000AF0EAF83C2010210AF0DEFA50
:103588004AF2E870C0F602000AF0F2FFD8200AF00A
:10359800CDFA4AF2F070C0F602000AF0E9FF4AF2EA
:1035A800FC70C0F602000AF0E3FFD7ED017AB0EE36
:1035B800670A062009F06EFE4AF60800C0F6020007
:1035C8000AF0D6FFA2200AF0B1FA4AF2FC70C0F65F
:1035D80002000AF0CDFFD7ED047AB0EE670A0620A4
:1035E80009F058FE4AF60C00C0F602000AF0C0FFC7
:1035F8004AF61000C0F602000AF0BAFFD7ED027AC8
:10360800B0EE670A062009F045FE4AF61C00C0F62F
:1036180002000AF0ADFFA2200AF088FA4AF610006C
:10362800C0F602000AF0A4FFD7ED057AB0EE670AEB
:10363800062009F02FFE4AF62000C0F602000AF024
:1036480097FF4AF62400C0F602000AF091FFD7ED72
:10365800037AB0EE670A062009F01CFE4AF62C0031
:10366800C0F602000AF084FFA2200AF05FFA4AF6C8
:103678002400C0F602000AF07BFFD7ED067AB0EE10
:10368800670A062009F006FE4AF63000C0F6020076
:103698000AF06EFFA2200AF049FA4AF63400C0F692
:1036A80002000AF065FFD7ED077AB0EE670A062038
:1036B80009F0F0FD4AF64000C0F602000AF058FF93
:1036C8004AF64800C0F602000AF052FFD7ED087A21
:1036D800B0EE670A062009F0DDFD20200BF014F893
:1036E800B0200BF011F84AF65800C0F602000AF0B4
:1036F8003FFF4AF65C00C0F602000AF039FFD7ED3A
:10370800097AB0EE670A062009F0C4FD20200AF005
:10371800FBFFB0200AF0F8FF43200AF0F5FF4FF452
:1037280000000AF03FF83037BD4680BD80B584B050
:1037380000AF48F63023C2F201031B68184605F0B3
:1037480051F946F2BC23C2F201031B68184604F083
:1037580072FB46F2BC23C2F201031B68184604F050
:103768004AFC46F2CC23C2F201031B68184604F057
:1037780055F846F2CC23C2F201031B68184604F040
:1037880037FC48F62C23C2F201031B68184604F0E4
:1037980045F80BF0E9F83B461846FFF7D9FC48F620
:1037A8002C23C2F201031A68FB681046194602F07E
:1037B80097F94FF47F40C0F2FF0009F0F5FF4BF294
:1037C8006C40C0F6020009F0C1FFE42010210AF0A5
:1037D800B5F9FB681846022109F0A7FD25200AF073
:1037E80093FF3B68002B08D04AF66C00C0F6020035
:1037F800002110220AF0B4FE07E04AF68000C0F665
:103808000200002110220AF0ABFE4AF2FC70C0F65A
:1038180002000AF0ADFE7B681846022109F085FD1A
:103828004AF60C00C0F602000AF0A2FE4AF61000A2
:10383800C0F602000AF09CFED7ED027AB0EE670AE5
:10384800032009F027FD4AF69400C0F602000AF0AA
:103858008FFE4AF69C00C0F602000AF089FE40F28C
:103868001803C2F200031B681846022109F05DFD27
:103878004AF6A800C0F602000AF07AFE1037BD46E4
:1038880080BD00BF80B500AF48F63023C2F2010307
:103898001B68184605F0A6F846F2BC23C2F20103DD
:1038A8001B68184604F0C7FA46F2BC23C2F20103AB
:1038B8001B68184604F09FFB46F2CC23C2F20103B2
:1038C8001B68184604F0B7FA46F2CC23C2F201038B
:1038D8001B68184604F08FFB48F62C23C2F201033C
:1038E8001B68184604F0A7FA48F62023C2F2010321
:1038F8001B68184604F09FFA0BF036F84AF240703D
:10390800C0F602000C210C220AF038FD4FF47F406B
:10391800C0F2FF0009F048FF4DF24850C0F602001F
:1039280009F014FFAE200C210AF008F94AF6AC00A1
:10393800C0F602000AF01CFEAE200AF0F7F84AF6BC
:10394800B800C0F602000AF013FE4FF2E440C0F6D9
:10395800020009F0FBFEAE207B210AF0EFF84AF6E0
:10396800C000C0F602000AF003FEAE2095210AF05E
:10397800E5F84AF6D800C0F602000AF0F9FD0AF0A8
:10398800EDF8034618460AF0F3FD80BD80B500AF98
:1039980046F2CC23C2F201031B68184604F02BFB45
:1039A80048F60023C2F201031A6840F21803C2F273
:1039B80000031B681046194601F050FF48F6202303
:1039C800C2F201031B68184605F00CF848F62023DC
:1039D800C2F201031B68184603F020FF48F62023B3
:1039E800C2F201031B68184603F0FAFF80BD00BF4E
:1039F80080B500AF48F60023C2F201031B681846E1
:103A080001F077FD024640F21803C2F200031A6083
:103A180048F63023C2F201031B68184604F0E2FF9F
:103A280048F62023C2F201031B68184604F003FA83
:103A380046F2CC23C2F201031B68184604F0FBF9D6
:103A48000AF092FFFFF772FE80BD00BF80B590B00C
:103A580000AF07F114031846FFF7E2FA3B1D1846BA
:103A6800FFF776FB45F66463C2F201031B68032B7C
:103A780000F2468101A252F823F000BF953A0008EF
:103A8800B33B0008413C0008093D000840F21C0314
:103A9800C2F200031B7803F01003002B04D04FF48C
:103AA8007F4009F081FE02E0FF2009F07DFE14202E
:103AB80018210C220BF03EF840F21C03C2F200035E
:103AC8001B7803F00803002B04D04FF47F4009F063
:103AD8006BFE02E0FF2009F067FE142042210C2251
:103AE8000BF028F840F21C03C2F200031B7803F025
:103AF8000403002B04D04FF47F4009F055FE02E088
:103B0800FF2009F051FE14206C210C220BF012F852
:103B180040F21C03C2F200031B7803F00203002BDF
:103B280004D04FF47F4009F03FFE05E044F2400026
:103B3800C0F2400009F038FE142096210C220AF049
:103B4800F9FF40F21C03C2F200031B7803F00103E3
:103B5800002B15D04FF47F4009F026FE40F21B10D1
:103B680028211B220AF0E6FF44F24000C0F2400080
:103B780009F01AFEC02028211B220AF0DBFFC0E052
:103B880044F24000C0F2400009F00EFE40F21B1063
:103B980028211B220AF0CEFFFF2009F005FEC020D5
:103BA80028211B220AF0C6FFABE048F63023C2F2F8
:103BB80001031B68184604F015FFE420102109F0E2
:103BC800BDFF3B691846022109F0AFFB38201021E0
:103BD80009F0B4FF7B68002B06D04AF6E400C0F673
:103BE80002000AF0C5FC05E04AF6F000C0F6020043
:103BF8000AF0BEFC4820202109F0A0FFBB68184647
:103C0800022109F092FB4820302109F097FFD7EDF7
:103C1800037AB0EE670A032009F03CFB50205021DC
:103C280009F08CFF40F21803C2F200031B68184623
:103C3800022109F07AFB64E04820302109F07EFF78
:103C4800D7ED057AB0EE670A062009F023FB482075
:103C5800402109F073FFD7ED067AB0EE670A062017
:103C680009F018FB3820502109F068FFD7ED077AD2
:103C7800B0EE670A062009F00DFBEA20302109F0B2
:103C88005DFFD7ED087AB0EE670A062009F002FB5F
:103C9800EA20402109F052FFD7ED097AB0EE670A11
:103CA800062009F0F7FADA20502109F047FFD7ED8E
:103CB8000A7AB0EE670A062009F0ECFAFA206021C9
:103CC80009F03CFFD7ED0B7AB0EE670A062009F041
:103CD800E1FA7020802109F031FFD7ED0C7AB0EEBF
:103CE800670A062009F0D6FA7020902109F026FF0D
:103CF800D7ED0D7AB0EE670A062009F0CBFA00E09E
:103D080000BF4037BD4680BDB0B598B000AFF86081
:103D1800B9607A600023FB650023BB6500237B65DF
:103D28004FF00003BB644FF000033B654FF0000306
:103D38007B644FF000033B64012387F84F30012375
:103D480087F84E30002387F84D30002387F84C3031
:103D58000023FB6593E0FB6D5B00BA6813441B8886
:103D68009BB21846FCF75EFB02460B461046194606
:103D780096A3D3E90023FCF7BBFB02460B4610468B
:103D880019464FF000024FF00003C3F6F873FCF732
:103D9800FBF902460B46104619468EA3D3E90023C9
:103DA800FCF7A6FB02460B4610461946FCF762FED6
:103DB8000346BB6497F84D30002B0BD197ED127A70
:103DC800D7ED127A67EE277A97ED147A77EE277A8D
:103DD800C7ED147A97ED127AF0EE007AB4EEE77A2E
:103DE800F1EE10FA2EDD97F84F30002B16D197F828
:103DF8004D30002B12D1012387F84F30BB6D002BBB
:103E080002D1FB6DBB6508E0BB6D002B05D07B6D57
:103E1800002B02D1FB6D7B6513E012E097F84E3062
:103E2800002B23D197F84C30002B1FD197F84D3039
:103E3800002B1BD0012387F84E30FB6D87F84C30E0
:103E480014E013E097ED127AF7EE007AB4EEE77A11
:103E5800F1EE10FA0AD597F84D30002B03D1002364
:103E680087F84F3002E0002387F84E3097F84D303E
:103E780083F0010387F84D30FB6D0133FB65FA6D64
:103E88007B689A42FFF667AF7B68DA0F13445B10D2
:103E980007EE103AF8EEC77A97ED147AC7EE277A4C
:103EA80017EE900AFCF7D0FA02460B4643EC102BAB
:103EB8000FF02AF953EC102B10461946FCF7DAFDDF
:103EC80003467B647B6C3B62BB6D002B02D07B6D31
:103ED800002B03D14FF00003FB6224E07A6DBB6D29
:103EE800D31ADA0F13445B101846FCF79BFA024604
:103EF8000B46104619464FF000024FF40043C4F237
:103F08003A03FCF7F5FA02460B4610461946FCF749
:103F1800B1FD03463B649FED2C7AD7ED107AC7EECE
:103F2800277AC7ED0B7A97F84C305A1EBB6D9A4228
:103F38000CDD97F84C30002B08D0022387F8383076
:103F480097F84C20BB6DD31AFB632DE097F84C30E3
:103F58005A1EBB6D9A4222DA97F84C30002B1ED0BD
:103F6800012387F8383097F84C30BA6DD31A1846C1
:103F7800FCF758FA02460B46104619464FF0000265
:103F88004FF40043C4F23A03FCF7B2FA02460B4678
:103F980010461946FCF746FD0346FB6304E0002380
:103FA80087F838300023FB63FB681C4607F11405CB
:103FB8000FCD0FC40FCD0FC495E8070084E80700A4
:103FC800F8686037BD46B0BD002474499CB2F61E3F
:103FD800FEFF473F6666666666662840AFF3008068
:103FE80080B500AF4FF480600121FDF77FFF4FF4EB
:103FF80000700121FDF77AFF08200121FDF7FEFE80
:1040080010200121FDF7FAFE04200121FDF7F6FE3C
:1040180001200121FDF7F2FE4FF480000121FDF798
:10402800EDFE4FF40060C4F2020008210222FDF701
:10403800A3FD4FF40060C4F2020009210222FDF73B
:104048009BFD4FF40060C4F2020007210222FDF735
:1040580093FD48F62423C2F2010306221A6048F6AB
:104068002423C2F2010303221A7148F62423C2F260
:1040780001030022DA714FF40060C4F2020048F62E
:104088002421C2F20101FDF7B3FC48F62423C2F251
:1040980001030C221A600020C4F2020048F6242111
:1040A800C2F20101FDF7A4FC48F62423C2F2010381
:1040B8004FF460721A6048F62423C2F20103022208
:1040C8001A7148F62423C2F2010300229A7148F6B5
:1040D8002423C2F2010303225A7148F62423C2F2B0
:1040E80001030022DA714FF40060C4F2020048F6BE
:1040F8002421C2F20101FDF77BFC48F62423C2F219
:10410800010308221A6048F62423C2F2010301229F
:104118001A7148F62423C2F2010300229A7148F664
:104128002423C2F2010303225A7148F62423C2F25F
:1041380001030022DA714FF44060C4F2020048F62D
:104148002421C2F20101FDF753FC80BD80B500AF08
:10415800FDF728F848F67C23C2F2010300221A6012
:1041680048F67C23C2F2010300225A6048F67C23F9
:10417800C2F2010300229A6048F67C23C2F20103CE
:104188000022DA6048F67C20C2F20100FDF76EF8E2
:1041980048F6E413C2F2010300221A6048F6E41359
:1041A800C2F2010301221A7148F6E413C2F20103B4
:1041B80001225A7148F6E413C2F2010300229A6000
:1041C80048F6E413C2F201030022DA6048F6E41369
:1041D800C2F2010300221A6148F6E413C2F2010395
:1041E80002221A754FF40850C4F2010048F6E4118F
:1041F800C2F20101FCF7E4FF4FF40450C4F20100DD
:1042080048F6E411C2F20101FCF7DAFF4FF4085056
:10421800C4F201000B2101220023FDF76FF84FF4CF
:104228000850C4F201000C2102220023FDF766F8B1
:104238004FF40450C4F20100022101220723FDF7C4
:104248005DF84FF40450C4F2010003210222072351
:10425800FDF754F84FF40850C4F201000121FDF7AE
:1042680059F94FF40450C4F201000121FDF752F945
:104278004FF40850C4F201000121FDF72FF94FF463
:104288000850C4F201000121FDF71CF84FF4045056
:10429800C4F201000121FDF721F94FF40450C4F2E2
:1042A80001000121FDF70EF880BD00BF80B500AF09
:1042B8004FF48060C4F2000001210122FEF71CFACD
:1042C80048F60823C2F201031D221A7048F6082393
:1042D800C2F2010300225A7048F60823C2F2010311
:1042E80001229A7048F60823C2F201030122DA700B
:1042F80048F60820C2F20100FCF7EEFE80BD00BFC0
:1043080080B500AF4FF40060C4F202004FF40051D2
:10431800FDF724FC1E20FEF74DFA4FF40060C4F2AE
:1043280002004FF40051FDF70BFC0A20FEF742FA99
:104338000720212100F024F80020012100F020F8B6
:104348000720232100F01CF81020002100F018F8A5
:104358001E20FEF72FFA0720332100F011F8112054
:1043680046F2180100F00CF802204FF4C06100F08A
:1043780007F8012042F63F3100F002F880BD00BF87
:1043880080B483B000AF02460B46FA80BB804FF67C
:10439800FE73C6F20103FA881A804FF6FE73C6F25E
:1043A8000103BA885A800C37BD465DF8047B704714
:1043B80080B582B000AF00233B6000237B601C20E7
:1043C8000121FDF71BFD4FF400533B6001233B71B6
:1043D80002237B713B464FF40060C4F20200194689
:1043E800FDF706FB4CF6B3733B6002233B710223D7
:1043F8007B710023BB710023FB713B464FF4406087
:10440800C4F202001946FDF7F3FA4FF44060C4F213
:10441800020000210C22FDF7AFFB4FF44060C4F20C
:10442800020001210C22FDF7A7FB4FF44060C4F203
:10443800020004210C22FDF79FFB4FF44060C4F2F8
:10444800020005210C22FDF797FB4FF44060C4F2EF
:10445800020007210C22FDF78FFB4FF44060C4F2E5
:10446800020008210C22FDF787FB4FF44060C4F2DC
:10447800020009210C22FDF77FFB4FF44060C4F2D3
:1044880002000A210C22FDF777FB4FF44060C4F2CA
:1044980002000B210C22FDF76FFB4FF44060C4F2C1
:1044A80002000E210C22FDF767FB4FF44060C4F2B6
:1044B80002000F210C22FDF75FFB4FF680733B6073
:1044C80002233B7102237B710023BB710023FB7124
:1044D8003B464FF48050C4F202001946FDF788FAB3
:1044E8004FF48050C4F2020007210C22FDF744FB70
:1044F8004FF48050C4F2020008210C22FDF73CFB67
:104508004FF48050C4F2020009210C22FDF734FB5D
:104518004FF48050C4F202000A210C22FDF72CFB54
:104528004FF48050C4F202000B210C22FDF724FB4B
:104538004FF48050C4F202000C210C22FDF71CFB42
:104548004FF48050C4F202000D210C22FDF714FB39
:104558004FF48050C4F202000E210C22FDF70CFB30
:104568004FF48050C4F202000F210C22FDF704FB27
:104578000837BD4680BD00BF80B596B000AF07F1D3
:104588003C0300221A60043300221A60043300221C
:104598001A60043300221A60043300221A600433BC
:1045A80000221A60043300221A6004333A463C237E
:1045B800104600211A4610F01DF801200121FDF7D0
:1045C80045FC0023FB630A237B640223FB6400236E
:1045D8007B6500233B6000237B600023BB601023C6
:1045E800FB6000233B610023BB610023FB610023C8
:1045F8003B624FF480537B620023BB620023FB6263
:1046080000233B6307F13C037B6307F13C03BB6377
:1046180000237B613B461846FDF722F90020012163
:10462800FDF7BCF95837BD4680BD00BF80B400AF68
:1046380048F68C23C2F201031B681846BD465DF894
:10464800047B704780B485B000AF786048F68C234F
:10465800C2F201031A687B681344FB6000BF48F686
:104668008C23C2F201031B68FA68D31A002BF6DC0C
:104678001437BD465DF8047B704700BF80B400AFB7
:10468800BD465DF8047B704780B58AB000AF042052
:104698000121FDF703FC08200121FDF7AFFB4FF4D2
:1046A80000533B62022387F82430032387F8253020
:1046B800002387F82630012387F8273007F12003E5
:1046C8004FF44060C4F202001946FDF791F94FF427
:1046D8004060C4F202000D210222FDF74DFA4FF4AA
:1046E80080533B62012387F82430032387F8253061
:1046F800002387F82630012387F8273007F12003A5
:104708004FF44060C4F202001946FDF771F946F211
:104718001403C2F2010301221A8040F65E03BB6152
:1047280046F21403C2F201031B88BB820023BB8339
:104738000023FB8207F114034FF40060C4F2000069
:104748001946FDF7BFFC70233B8001237B804FF4A3
:104758007A73BB600023BB813B464FF40060C4F210
:1047680000001946FDF7DEFD4FF40060C4F20000BA
:104778000821FDF769FF4FF40060C4F20000012131
:10478800FDF716FD4FF40060C4F200000121FDF7AB
:104798002FFD2837BD4680BD80B400AFBD465DF80B
:1047A800047B704780B400AFFEE700BF80B400AF61
:1047B800FEE700BF80B400AFFEE700BF80B400AFE3
:1047C800BD465DF8047B704780B400AFBD465DF818
:1047D800047B704780B400AFBD465DF8047B70472A
:1047E80080B500AF48F68C23C2F201031B685A1C3F
:1047F80048F68C23C2F201031A60FDF7F3FF40F27A
:104808002003C2F200031B78013BDAB240F2200316
:10481800C2F200031A7040F22003C2F200031B78B0
:10482800002B07D140F22003C2F2000364221A7061
:1048380000F0D0FA80BD00BF80B584B000AF034659
:10484800FB710023FB7300BF4FF46050C4F20000FB
:104858000221FDF71BFC0346002BF5D0FB799BB228
:104868004FF46050C4F200001946FDF701FC00BF88
:104878004FF46050C4F200000121FDF707FC034625
:10488800002BF5D04FF46050C4F20000FDF7E2FBB6
:104898000346FB73FB7B18461037BD4680BD00BF3F
:1048A80080B485B000AF78600023FB6002E0FB684D
:1048B8000133FB60FA687B689A42F8D31437BD4627
:1048C8005DF8047B704700BF80B582B000AF00235D
:1048D800FB804FF48060C4F202004FF40061FDF7E2
:1048E8003DF93220FFF7DCFFD020FFF7A5FF32208B
:1048F800FFF7D6FF0020FFF79FFF0346FB80FB88EA
:104908001B02FB800020FFF797FF03461A46FB882F
:104918001344FB804FF48060C4F202004FF400613E
:10492800FDF70EF9FB881B09FB80FB88C3F30B031B
:10493800FB80FB8818460837BD4680BD80B582B02D
:1049480000AF0023FB804FF48060C4F202004FF4F4
:104958000061FDF703F93220FFF7A2FF9020FFF76F
:104968006BFF3220FFF79CFF0020FFF765FF03462F
:10497800FB80FB881B02FB800020FFF75DFF0346DE
:104988001A46FB881344FB804FF48060C4F202008F
:104998004FF40061FDF7D4F8FB881B09FB80FB8806
:1049A800C3F30B03FB80FB8818460837BD4680BD60
:1049B80080B500AFFFF7C2FF03461A4648F6A423A6
:1049C800C2F201039A80FFF77FFF03461A4648F6B2
:1049D800A423C2F20103DA800123184680BD00BF78
:1049E80080B582B000AF4FF480400121FDF77EFA18
:1049F8004FF480400121FDF751FA02200121FDF713
:104A0800FDF94FF48060C4F202000D210522FDF784
:104A1800B3F84FF48060C4F202000E210522FDF7BE
:104A2800ABF84FF48060C4F202000F210522FDF7B5
:104A3800A3F802233B7102237B710023BB7102237D
:104A4800FB714FF400533B603B464FF48060C4F267
:104A580002001946FCF7CCFF4FF400433B603B468D
:104A68004FF48060C4F202001946FCF7C1FF4FF40E
:104A780080433B603B464FF48060C4F20200194615
:104A8800FCF7B6FF4FF400633B6001233B71002342
:104A9800BB7102237B710123FB713B464FF480609D
:104AA800C4F202001946FCF7A3FF4FF48060C4F279
:104AB80002004FF40061FDF743F848F69023C2F274
:104AC800010300221A8048F69023C2F201034FF432
:104AD80082725A8048F69023C2F2010300229A801B
:104AE80048F69023C2F201030222DA8048F69023A6
:104AF800C2F2010301221A8148F69023C2F201038F
:104B08004FF400725A8148F69023C2F20103302212
:104B18009A8148F69023C2F201030022DA8148F60E
:104B28009023C2F2010307221A824FF46050C4F2A4
:104B3800000048F69021C2F20101FDF727FA4FF470
:104B48006050C4F200000121FDF764FA4FF4804080
:104B58000121FDF7CBF900233B7102237B71002370
:104B6800FB714FF480533B603B464FF48060C4F2C6
:104B780002001946FCF73CFF0837BD4680BD00BF60
:104B880080B58CB000AF002387F82D3000237B85DB
:104B98004FF48060C4F202004FF48051FCF7B6FF76
:104BA8000346002B40F01181FFF702FF25E0FFF7D5
:104BB800FFFE0346002B20D097F82D1048F6A423BB
:104BC800C2F201039A884B0007F13000034423F82E
:104BD800302C97F82D1048F6A423C2F20103DA8886
:104BE80001F10A035B0007F130010B4423F8302C74
:104BF80097F82D30013387F82D3097F82D30092B91
:104C0800D5D997F82D300A2B40F0D980002387F8A2
:104C18002E30002387F82F303EE097F82F305B00C6
:104C280007F13002134433F8302C97F82F30013352
:104C38005B0007F13000034433F8303C9A4226D930
:104C480097F82F3001335B0007F130010B4433F83C
:104C5800303C7B8597F82F30591C97F82F305B0034
:104C680007F13002134433F8302C4B0007F13000C1
:104C7800034423F8302C97F82F305B0007F13001FC
:104C88000B447A8D23F8302C012387F82E3097F8BF
:104C98002F30013387F82F3097F82F2097F82D30D1
:104CA800013B9A42B9DB97F82E30002BAED1002396
:104CB80087F82E30002387F82F3045E097F82F30FB
:104CC8000A335B0007F13002134433F8302C97F8AD
:104CD8002F3001330A335B0007F13000034433F807
:104CE800303C9A422BD997F82F3001330A335B00B6
:104CF80007F130010B4433F8303C7B8597F82F30AF
:104D0800591C97F82F300A335B0007F1300213441F
:104D180033F8302C01F10A035B0007F1300003443B
:104D280023F8302C97F82F300A335B0007F1300155
:104D38000B447A8D23F8302C012387F82E3097F80E
:104D48002F30013387F82F3097F82F2097F82D3020
:104D5800013B9A42B2DB97F82E30002BA7D1FB8893
:104D68001A463B891A447B891A4445F25653C5F2C0
:104D7800555383FB0201D317CB1A9AB248F6A423E2
:104D8800C2F201039A807B8B1A46BB8B1A44FB8BB9
:104D98001A4445F25653C5F2555383FB0201D31703
:104DA800CB1A9AB248F6A423C2F20103DA8046F27B
:104DB8001603C2F2010301221A70012306E046F22B
:104DC8001603C2F2010300221A7000231846303776
:104DD800BD4680BD80B500AFFFF7D2FE48F6A423DC
:104DE800C2F201039B88A3F167024AF6AB23C2F61D
:104DF800AA2383FB0201D317CA1A46F26C23C2F214
:104E080001031A6048F6A423C2F20103DB8818469E
:104E1800FBF708FB02460B46104619464FF0000206
:104E28004FF00003C4F22103FBF78CFC02460B464B
:104E380010461946FBF7F6FD024646F26C23C2F20D
:104E480001035A604FF48060C4F202004FF48051AD
:104E5800FCF75CFE0346002B06D046F26C23C2F238
:104E6800010300221A7205E046F26C23C2F2010324
:104E780001221A7246F26C20C2F2010008F06AFDA3
:104E880080BD00BF031E02DA5B42022000E0012061
:104E9800092B04DD0A22013093FBF2F3F8E770478F
:104EA8002DE9F04188B080460D460AF00FFA034616
:104EB80008A893F9A27040F81C3D2FB1002183F88F
:104EC800A2100AF011FA2FE0D3F89840B3F88860DE
:104ED8000AF00AFA6B1C27D0204602F09DFFB8B1F1
:104EE8000E2002A9049007910122204604A9002D52
:104EF80014BF13251125CDF8188005940295039247
:104F080003F0F8FC204604A9039703F0F3FC0BE038
:104F180020461DB902F086F8811902E002F082F8F5
:104F2800811B204602F08CF808B0BDE8F0812DE91D
:104F3800F04389B00F4680460AF0C8F9034608A82E
:104F4800DC6AD3F8989040F81C3D93F88C6025688B
:104F5800B3F88A400AF0C8F9484602A902F0E6FF09
:104F680006A9404602F0E2FF384608F01DFCBDF8ED
:104F78000C20BDF80810A8B283185A1A93B2012E53
:104F8800ADF81000ADF814300AD0022E0FD101345C
:104F9800A2B211189C18ADF81010ADF8144006E034
:104FA800021901341B19ADF81020ADF81430BDF802
:104FB8000A10BDF81A30ADF812004A1ED11A8AB28A
:104FC80011B200B28142ADF8162002DB04A808F045
:104FD800EDFDBDF80E30BDF81A20591C881ABDF831
:104FE8001E108A1A551B83B2A8B2ADF8123005B24A
:104FF8001BB29D42ADF8160002DB04A808F0D6FDEE
:1050080009B0BDE8F0832DE9F3470C4690460AF055
:105018005DF9034602A8DA6ADD8893F88CA0B3F933
:105028000490B3F9001040F8043DB3F88A705B8827
:105038001668EA1AC1EB090995B20AF055F9BAF1EE
:10504800010F04D026D3BAF1020F39D10CE0B6B261
:10505800F7192680A7806808B8F1000F29D0421CEC
:10506800AE1B6280E6802BE0B0B22D1A6080E5802E
:10507800B8F1000F0AD11FFA89FCC7EB0C073F1AD9
:10508800C0EB0C092780A4F8049019E0C11920800E
:10509800A18015E01FFA89FEB2B2C7EB0E039F1A72
:1050A800C2EB0E092780A4F804906808B8F1000F35
:1050B80002D16680E08003E0411CAD1A6180E58082
:1050C800BDE8FC8713B50A4604466946FFF79BFF0F
:1050D8002046694603F028FC1CBD37B505460C463A
:1050E8000AF0F4F8826A019092071DD590F8A3108F
:1050F800E4B2012303FA04F321EA030280F8A320AF
:10510800D0F89C0040B102F0FCFA01980023FF217E
:10511800C0F89C3080F8A0102846022102F0C1FD9A
:1051280028462146FFF7CEFF01A80AF0DDF83EBD6C
:10513800F7B500260C4615466946324607460096DE
:105148000196FFF760FFBDF900309C420BDBBDF90B
:105158000400844207DCBDF902108D4203DBBDF96F
:10516800062095420DDD012238466946FFF74BFFC0
:10517800BDF90060B44203DBBDF904309C4202DD96
:10518800FF2670B2FEBDBDF902008542F8DBBDF90D
:1051980006108D42F4DC0126F3E7F0B5446885B0CB
:1051A800054620460AF092F804ABD0F8986043F818
:1051B8000C0DB0F8887018460AF096F828680D2883
:1051C8001ED1E968CB68002B00F091811A7A002A79
:1051D80000F08D81304602F01FFE002840F08781E4
:1051E800204602F019FE002800F08181204602F0D6
:1051F80037FE002840F07B81204602F0F1FB76E183
:105208001E280CD1304602F007FE40B1EA6830464D
:10521800012112B10AF01CFD01E00AF02EFD204622
:1052280029460AF047FD002800F061812968112904
:1052380000F0988007DC0E292AD00F2968D00B29A6
:1052480040F0528110E028294ED003DC262940F096
:105258004B814EE040F21313994200F0E480B1F51F
:10526800107F40F04181FAE020460AF02FF80190C3
:10527800D0F89C0040B102F044FA019B0020FF22C4
:10528800C3F89C0083F8A02001A80AF02DF82BE1B0
:10529800EC686268002A00F02781304602F0BCFD05
:1052A80088B9304601F0BEFE02462068112805D0B4
:1052B800132840F019813046D11B01E03046D1193E
:1052C80001F0BEFE10E1AB68B34208D1216809398C
:1052D800012900F20981686802F082FB04E1304686
:1052E800294603F007FBFFE03046E96802F05EFE5E
:1052F800FDE0E968052909D0C0F2F98008390129DB
:1053080000F2F580204603F04BFBF0E02046E8E091
:10531800204609F0DBFF04A9C56A41F80C0D0846D0
:105328002D6809F0E1FF204602F0D8FDA0EB450307
:10533800002B304602DD02F071FA01E002F07BFD3D
:10534800204609F0C3FF04A941F8040DD0F89400E1
:105358000568084609F0C8FF002D00F0C8802046FF
:10536800A847C4E0204609F0B1FFEE68029096E82D
:1053780006002046FFF7DCFE01210546204602F024
:10538800E5FB307A012801D080283FD1717A0029C5
:1053980045D1029A691C82F8A15032D0204609F002
:1053A80095FF836A03909A070FD590F8A3300121DF
:1053B800EEB201FA06F21A4380F8A320204602F062
:1053C80070FC20463146FFF77DFE03A809F08CFFEC
:1053D8006B1C16D0204609F079FFD0F89C3003905A
:1053E80006465BB9204640F2D2414FF4C87202F03B
:1053F800BFF9C6F89C00039880F8A05003A809F0EC
:1054080073FF20462946FFF74BFD08E038B9029B99
:1054180093F9A110481C02D02046FFF75EFE04A8AD
:1054280050F8081D57E0204609F050FF04AA42F83A
:10543800080D90F8A050104609F056FF204669B2B2
:10544800FFF72EFD204609F041FF04AC322144F855
:10545800040DD0F89C0002F0B9F920463DE0E96857
:10546800204600293CD009F031FF0390D0F898007D
:1054780002F0D2FC08B9204602E0039ED6F8980054
:1054880002F0AEFAEE68204696E80600FFF750FEF6
:10549800327A05460398A2B1691C07D190F9A11088
:1054A8004A1C03D0002380F8A2300EE0039B93F936
:1054B800A110A9420CD0012283F8A2206B1C02D1B2
:1054C80006E090F9A110481C02D02046FFF705FE1F
:1054D80004A850F8041D81F8A15009F005FF06E062
:1054E800032102F0DEFB02E0284603F083FE05B04C
:1054F800F0BD37B5054660B109F0E8FE02AC44F8E6
:10550800040DD0F8980001F08DFD0546204609F0FD
:10551800EBFE28463EBD2DE9F3410E4615460746EB
:10552800A0B109F0D3FE044602A8D4F8988040F848
:10553800044D04EB8604256709F0D6FE4046314643
:105548002A4601F045FD384603F02AFABDE8FC81F9
:1055580037B50D4660B109F0B9FE02AC294644F8EA
:10556800040DD0F8980000F0DFFE204609F0BCFEDC
:105578003EBD00002DE9F04F8BB01546179F189ED1
:10558800B742984602DB4FF0000ABDE0149C009435
:10559800159C01945E4C0294199C7834039403F092
:1055A800BBFA82460028EED009F090FE16990990C1
:1055B80010220AF077FB574BDDF824B018685649DB
:1055C800CBF8940060220BF13400FBF7A3FADBF868
:1055D8002C10BBF88A40D1F800C06CB96FF00102FA
:1055E80002FB0CF42B19984501DA444402E004202C
:1055F80095FBF0F4ABF88A403846CDF81CC0FFF7AD
:1056080041FC81463046FFF73DFC834600F09EFE94
:1056180008F0A0FADDF81CC06FF0010101FB0CF2E4
:1056280008EB0203984206DA0223C0EB080898FB4D
:10563800F3F1034600E06146B5EB040E58D4364852
:1056480090F85800012808D00ED3022810D16444DD
:10565800A5EB4405601CAA1E0CE0A4440EEB020452
:105668000CF10100621E05E07244013A604601E057
:1056780000200246159DCDF800A001950025029551
:105688000395CB45ACBFCDF810B0CDF8109001F024
:10569800C7FA09990446C1F89800C1F88070C1F8A2
:1056A80084603A46334639460095019500F0E8FF94
:1056B80020461A490AF0D8F9099B20461A6F29464C
:1056C80001F086FC099A20460121526F01F080FC06
:1056D800099B20469A6F294601F08FFC099A2046BB
:1056E8000121D26F01F089FC2046594600F023FEC3
:1056F80009A809F0F9FD50460021FFF729FF0548E0
:10570800016850464B68984750460BB0BDE8F08F8B
:10571800A35100088400002024000020800503080D
:1057280010B586B0089C0094099C01940A9C0294C8
:105738000B9C03940C9C049400240594FFF71AFF17
:1057480006B010BD2DE9F047894688B00746002805
:1057580000F0818009F0BAFD034608A8D3F89860E4
:10576800D96A40F8143D93F88CA0B3F88A500C68B5
:1057780009F0BAFD3046494601F01AFC384604A93A
:1057880002F0D4FB304606A902F0D0FBBDF9167032
:10579800BDF91200BDF91480BDF910303A1AC3EBF7
:1057A80008014846571C01F1010808F0D3F9BAF17D
:1057B800010F0AD011D3BAF1020F1AD1BDF8102087
:1057C800691CA3B2511859180BE0BDF81020A3B2F8
:1057D800D1186D18ADF8185007E0BDF81020A3B225
:1057E8009918521BADF81810013AD31A9844ADF81D
:1057F8001C80BDF91E20BDF91A10531A5A1CA7EBBC
:1058080044018A420DDA3F1A0221BDF8123097FB93
:10581800F1F2D718BFB23818ADF81A70ADF81E00FB
:105828000AE0BDF81200A4B2421E2318141BE7199F
:10583800ADF81A30ADF81E70BDF91A20BDF91E007A
:10584800BDF91810BDF91C30801A013000905B1AA0
:10585800304601F0F6FF08B0BDE8F08737B50D46D1
:1058680060B109F033FD02AC294644F8040DD0F8C4
:10587800980001F0E5FB204609F036FD3EBD73B502
:105888000C461546064668B109F020FD012C01902A
:1058980005D800EB84043046256503F081F801A89B
:1058A80009F022FD7CBD13B502AB426343F8041D29
:1058B800416C806C521A64246243411A92FBF1F0E5
:1058C800194609F0DDFF019B252200201A70587047
:1058D8001CBD37B545680446214628460AF0EAF952
:1058E80010B323680B2B10D00F2B1AD1284609F0C0
:1058F800EDFC02A941F8040D426E1468084609F04F
:10590800F3FC8CB12846A0470EE0284609F0DEFCDF
:1059180002AD45F8040D383009F02AFF284609F091
:10592800E3FC204603F066FC3EBD806B09F0CEBC6C
:105938002DE9F041B0F90030B0F9047004460D4685
:10594800F81AB4F90210B4F90680471C1046C1EBE6
:10595800080608F00DF906F10108064608F020F9D6
:10596800E26AB4F84030116803F00302012A06D055
:10597800022A09D1BF1B97FBF2F1298005E0CB432E
:10598800DF19BF1B2F8000E02980A28F2988C0EB78
:105998000808531802219AB298FBF1F3E18F2A8084
:1059A8005B1899B2013A013896190B186980AE80D4
:1059B800EB80BDE8F08170B590F86830C26A13F0EA
:1059C800010615BFB0F90230B0F90030B0F9065041
:1059D800B0F904501468ED1A436C806C0135994293
:1059E800B8BF19468142A8BF0146A5EB44050EB1D0
:1059F800411A00E0C91AC21A694391FBF2F3E01890
:105A080070BD00002DE9F04387B00E9C0F9F0094F5
:105A1800274C01970294129C4034039403F07CF8BD
:105A28000746002840D0052009F037FF80460028A7
:105A38003AD0384609F04AFCDFF880901199049072
:105A480000220AF02FF938461A491B4D0AF00CF8C3
:105A5800049ED9F80030C6F8388073660FCD06F179
:105A68004C040FC495E80300109A84E803006421ED
:105A780002200024A6F84000B16486F86820746407
:105A8800404609F023FC2246014605900498FFF79A
:105A98000AFF05A809F028FC04A809F025FCD9F894
:105AA8000030384659688847384607B0BDE8F08363
:105AB800DB580008800503088C00002088000020BF
:105AC80010B586B0089C0094099C01940A9C029425
