:020000040800F2
:10000000241100205D140008BD360008CD1400083E
:10001000C9360008D1360008D936000800000000B3
:10002000000000000000000000000000E1360008B1
:10003000ED36000800000000F9360008053700081A
:10004000CD140008CD140008CD140008CD1400080C
:10005000CD140008CD140008CD140008CD140008FC
:10006000CD140008CD140008CD140008CD140008EC
:10007000CD140008CD140008CD140008CD140008DC
:10008000CD140008CD140008CD140008CD140008CC
:10009000CD140008CD140008CD140008CD140008BC
:1000A000CD140008CD140008CD140008CD140008AC
:1000B000CD140008C52D0008CD140008CD1400088B
:1000C000CD140008CD140008CD140008CD1400088C
:1000D000CD140008CD140008CD140008CD1400087C
:1000E000CD140008CD140008CD140008CD1400086C
:1000F000CD140008CD140008CD140008CD1400085C
:10010000CD140008CD140008CD140008CD1400084B
:10011000CD140008CD140008CD140008CD1400083B
:10012000CD140008CD140008CD140008CD1400082B
:10013000CD140008CD140008CD140008CD1400081B
:10014000CD140008CD140008CD140008CD1400080B
:10015000CD140008CD140008CD140008CD140008FB
:10016000CD140008CD140008CD140008CD140008EB
:10017000CD140008CD140008CD140008CD140008DB
:08018000CD140008CD140008A5
:1001880081F0004102E000BF83F0004330B54FEA40
:1001980041044FEA430594EA050F08BF90EA020FAD
:1001A8001FBF54EA000C55EA020C7FEA645C7FEA40
:1001B800655C00F0E2804FEA5454D4EB5555B8BF63
:1001C8006D420CDD2C4480EA020281EA030382EAD4
:1001D800000083EA010180EA020281EA0303362D66
:1001E80088BF30BD11F0004F4FEA01314FF4801C39
:1001F8004CEA113102D0404261EB410113F0004F4B
:100208004FEA03334CEA133302D0524263EB430301
:1002180094EA050F00F0A780A4F10104D5F1200E9F
:100228000DDB02FA0EFC22FA05F2801841F10001FA
:1002380003FA0EF2801843FA05F359410EE0A5F1CE
:1002480020050EF1200E012A03FA0EFC28BF4CF0FF
:10025800020C43FA05F3C01851EBE37101F00045B5
:1002680007D54FF0000EDCF1000C7EEB00006EEBC2
:100278000101B1F5801F1BD3B1F5001F0CD349084C
:100288005FEA30004FEA3C0C04F101044FEA4452A3
:1002980012F5800F80F09A80BCF1004F08BF5FEA2A
:1002A800500C50F1000041EB045141EA050130BD0A
:1002B8005FEA4C0C404141EB010111F4801FA4F1AD
:1002C8000104E9D191F0000F04BF01460020B1FA02
:1002D80081F308BF2033A3F10B03B3F120020CDA3A
:1002E8000C3208DD02F1140CC2F10C0201FA0CF018
:1002F80021FA02F10CE002F11402D8BFC2F1200C7D
:1003080001FA02F120FA0CFCDCBF41EA0C01904032
:10031800E41AA2BF01EB0451294330BD6FEA04047B
:100328001F3C1CDA0C340EDC04F11404C4F1200266
:1003380020FA04F001FA02F340EA030021FA04F378
:1003480045EA030130BDC4F10C04C4F1200220FACF
:1003580002F001FA04F340EA0300294630BD21FA0D
:1003680004F0294630BD94F0000F83F4801306BFD3
:1003780081F480110134013D4EE77FEA645C18BFC7
:100388007FEA655C29D094EA050F08BF90EA020F5E
:1003980005D054EA000C04BF1946104630BD91EA56
:1003A800030F1EBF0021002030BD5FEA545C05D159
:1003B8004000494128BF41F0004130BD14F5800498
:1003C8003CBF01F5801130BD01F0004545F0FE410C
:1003D80041F470014FF0000030BD7FEA645C1ABF41
:1003E800194610467FEA655C1CBF0B46024650EA78
:1003F800013406BF52EA033591EA030F41F40021A4
:1004080030BD00BF90F0000F04BF0021704730B529
:100418004FF4806404F132044FF000054FF00001FE
:1004280050E700BF90F0000F04BF0021704730B5BF
:100438004FF4806404F1320410F0004548BF404294
:100448004FF000013EE700BF42004FEAE2014FEAE9
:1004580031014FEA02701FBF12F07F4393F07F4FC4
:1004680081F06051704792F0000F14BF93F07F4FF6
:10047800704730B54FF4607401F0004521F0004139
:1004880020E700BF50EA010208BF704730B54FF0BF
:1004980000050AE050EA010208BF704730B511F0C4
:1004A800004502D5404261EB41014FF4806404F1FC
:1004B80032045FEA915C3FF4DCAE4FF003025FEA7E
:1004C800DC0C18BF03325FEADC0C18BF033202EB06
:1004D800DC02C2F1200300FA03FC20FA02F001FA60
:1004E80003FE40EA0E0021FA02F11444C1E600BFFF
:1004F80070B54FF0FF0C4CF4E06C1CEA11541DBFB2
:100508001CEA135594EA0C0F95EA0C0F00F0DEF87C
:100518002C4481EA030621EA4C5123EA4C5350EA61
:10052800013518BF52EA033541F4801143F48013B2
:1005380038D0A0FB02CE4FF00005E1FB02E506F043
:100548000042E0FB03E54FF00006E1FB03569CF098
:10055800000F18BF4EF0010EA4F1FF04B6F5007F9E
:1005680064F5407404D25FEA4E0E6D4146EB060610
:1005780042EAC62141EA55514FEAC52040EA5E5099
:100588004FEACE2EB4F1FD0C88BFBCF5E06F1ED843
:10059800BEF1004F08BF5FEA500E50F1000041EB7A
:1005A800045170BD06F0004646EA010140EA020027
:1005B80081EA0301B4EB5C04C2BFD4EB0C0541EA49
:1005C800045170BD41F480114FF0000E013C00F35E
:1005D800AB8014F1360FDEBF002001F0004170BD82
:1005E800C4F10004203C35DA0C341BDC04F114049B
:1005F800C4F1200500FA05F320FA04F001FA05F227
:1006080040EA020001F0004221F0004110EBD370F3
:1006180021FA04F642EB06015EEA430E08BF20EA1F
:10062800D37070BDC4F10C04C4F1200500FA04F3C2
:1006380020FA05F001FA04F240EA020001F0004154
:1006480010EBD37041F100015EEA430E08BF20EAC7
:10065800D37070BDC4F1200500FA05F24EEA020E0F
:1006680020FA04F301FA05F243EA020321FA04F03E
:1006780001F0004121FA04F220EA020000EBD370F5
:100688005EEA430E08BF20EAD37070BD94F0000FF5
:100698000FD101F00046400041EB010111F4801F29
:1006A80008BF013CF7D041EA060195F0000F18BFDA
:1006B800704703F00046520043EB030313F4801F16
:1006C80008BF013DF7D043EA0603704794EA0C0FD0
:1006D8000CEA135518BF95EA0C0F0CD050EA4106E6
:1006E80018BF52EA4306D1D181EA030101F0004163
:1006F8004FF0000070BD50EA410606BF104619468B
:1007080052EA430619D094EA0C0F02D150EA013696
:1007180013D195EA0C0F05D152EA03361CBF1046D7
:1007280019460AD181EA030101F0004141F0FE4176
:1007380041F470014FF0000070BD41F0FE4141F4FA
:10074800780170BD70B54FF0FF0C4CF4E06C1CEAFA
:1007580011541DBF1CEA135594EA0C0F95EA0C0FAF
:1007680000F0A7F8A4EB050481EA030E52EA03356A
:100778004FEA013100F088804FEA03334FF080558B
:1007880045EA131343EA12634FEA022245EA1115B8
:1007980045EA10654FEA00260EF000419D4208BF69
:1007A800964244F1FD0404F5407402D25B084FEA16
:1007B8003202B61A65EB03055B084FEA32024FF4C2
:1007C80080104FF4002CB6EB020E75EB030E22BF1F
:1007D800B61A754640EA0C005B084FEA3202B6EBDF
:1007E800020E75EB030E22BFB61A754640EA5C008E
:1007F8005B084FEA3202B6EB020E75EB030E22BF1E
:10080800B61A754640EA9C005B084FEA3202B6EB1E
:10081800020E75EB030E22BFB61A754640EADC00DD
:1008280055EA060E18D04FEA051545EA16754FEA3F
:1008380006164FEAC30343EA52734FEAC2025FEA5D
:100848001C1CC0D111F4801F0BD141EA00014FF0EC
:1008580000004FF0004CB6E711F4801F04BF0143BD
:100868000020B4F1FD0C88BFBCF5E06F3FF6AFAED9
:10087800B5EB030C04BFB6EB020C5FEA500C50F169
:10088800000041EB045170BD0EF0004E4EEA1131EC
:1008980014EB5C04C2BFD4EB0C0541EA045170BDF3
:1008A80041F480114FF0000E013C90E645EA060E37
:1008B8008DE60CEA135594EA0C0F08BF95EA0C0F65
:1008C8003FF43BAF94EA0C0F0AD150EA01347FF4AD
:1008D80034AF95EA0C0F7FF425AF104619462CE784
:1008E80095EA0C0F06D152EA03353FF4FDAE1046E7
:1008F800194622E750EA410618BF52EA43067FF438
:10090800C5AE50EA41047FF40DAF52EA43057FF4C7
:10091800EBAE12E74FEA410212F5001215D211D5DB
:100928006FF47873B3EB625212D94FEAC12343F0E4
:10093800004343EA505311F0004F23FA02F018BF66
:10094800404270474FF00000704750EA013005D12F
:1009580011F0004008BF6FF0004070474FF00000F2
:10096800704700BF844641EA000313F003036DD1CA
:10097800403A41D351F8043B40F8043B51F8043B5A
:1009880040F8043B51F8043B40F8043B51F8043B61
:1009980040F8043B51F8043B40F8043B51F8043B51
:1009A80040F8043B51F8043B40F8043B51F8043B41
:1009B80040F8043B51F8043B40F8043B51F8043B31
:1009C80040F8043B51F8043B40F8043B51F8043B21
:1009D80040F8043B51F8043B40F8043B51F8043B11
:1009E80040F8043B51F8043B40F8043B51F8043B01
:1009F80040F8043B403ABDD2303211D351F8043BA1
:100A080040F8043B51F8043B40F8043B51F8043BE0
:100A180040F8043B51F8043B40F8043B103AEDD24F
:100A28000C3205D351F8043B40F8043B043AF9D2A0
:100A3800043208D0D2071CBF11F8013B00F8013B73
:100A480001D30B8803806046704700BF082A13D380
:100A58008B078DD010F003038AD0C3F10403D21A98
:100A6800DB071CBF11F8013B00F8013B80D331F8CC
:100A7800023B20F8023B7BE7043AD9D3013A11F84C
:100A8800013B00F8013BF9D20B7803704B784370B7
:100A98008B788370604670474FF0FF3C06E000BFDC
:100AA8004FF0010C02E000BF4FF0010C4DF804CDEF
:100AB8004FEA410C7FEA6C5C4FEA430C18BF7FEAAF
:100AC8006C5C1BD001B050EA410C0CBF52EA430CDD
:100AD80091EA030F02BF90EA020F0020704710F15D
:100AE800000F91EA030F58BF994208BF90422CBFEC
:100AF800D8176FEAE37040F0010070474FEA410CE5
:100B08007FEA6C5C02D150EA013C07D14FEA430C02
:100B18007FEA6C5CD6D152EA033CD3D05DF8040B73
:100B2800704700BF8446104662468C4619466346A5
:100B380000E000BF01B5FFF7B7FF002848BF10F17C
:100B4800000F01BD4DF808EDFFF7F4FF0CBF0120C1
:100B580000205DF808FB00BF4DF808EDFFF7EAFF3D
:100B680034BF012000205DF808FB00BF4DF808EDF8
:100B7800FFF7E0FF94BF012000205DF808FB00BFED
:100B88004DF808EDFFF7CEFF94BF012000205DF877
:100B980008FB00BF4DF808EDFFF7C4FF34BF012084
:100BA80000205DF808FB00BF4BB942B9002908BF17
:100BB800002802D04FF0FF31084600F03BB882B061
:100BC800EC462DE9005000F01DF8DDF804E002B015
:100BD8000CBC70472DE9F041069C154606460F46A9
:100BE800984600F029F805FB01F300FB0838A5FB3F
:100BF80000234344B21A67EB0303C4E90023BDE8AA
:100C0800F08100BF2DE9F041069C154606460F46C7
:100C1800984600F067F900FB08F8A0FB052305FBE0
:100C280001884344B21A67EB0303C4E90023BDE813
:100C3800F08100BF704700BF00292DE9F00FA8BF61
:100C48000026C0F2A980002BC0F2A18089469046F8
:100C58009C46144605460F46002B47D18A425BD96D
:100C6800B2FA82F353B1C3F1200201FA03F720FA72
:100C780002F208FA03F4174300FA03F5210CB7FB54
:100C8800F1F22B0C01FB127CA0B243EA0C4700FBEB
:100C980002F3BB4209D93F1902F1FF3C04D2BB421F
:100CA80084BF023A3F1900D86246FF1AB7FBF1F336
:100CB800ADB201FB137145EA014100FB03F0884224
:100CC80008D9091903F1FF3703D2884288BF023BCC
:100CD80000D83B4643EA024300221846114616B1A3
:100CE800404261EB4101BDE8F00F70478B4284BF81
:100CF80000221346F1D8BCFA8CF1002940F090800C
:100D0800CC4528BF80458CBF002201229CBF01230F
:100D18000A46E2D91346E0E712B90123B3FBF2F41D
:100D2800B4FA84F3002B3DD13F1B200C1FFA84FC3E
:100D38000122B7FBF0F12B0C00FB117743EA0747C0
:100D48000CFB01F3BB420AD93F1901F1FF3880F0CF
:100D5800C180BB4284BF02393F1940F2BB80FF1AF1
:100D6800B7FBF0F3ADB200FB137045EA00400CFB93
:100D780003FC844508D9001903F1FF3703D28445E1
:100D880088BF023B00D83B4643EA0143A5E7F64348
:100D9800524263EB430359E7404261EB41014FF094
:100DA800FF3650E79C40C3F1200227FA02F1200CDD
:100DB80025FA02F29F401743B1FBF0F24FEA1748B9
:100DC80000FB12111FFA84FC48EA01410CFB02F8EF
:100DD800884505FA03F508D9091902F1FF337FD2CE
:100DE800884584BF023A09197AD9C8EB0101B1FBD9
:100DF800F0F300FB1311BFB247EA01470CFB03F104
:100E0800B94209D93F1903F1FF3804D2B94284BF66
:100E1800023B3F1900D843467F1A43EA024288E75B
:100E2800C1F1200328FA03F20CFA01FC42EA0C0C87
:100E380029FA03F44FEA1C4A20FA03F309FA01F9E4
:100E480043EA0900B4FBFAF70AFB1744030C1FFA3C
:100E58008CF943EA044409FB07FBA34508FA01F2AD
:100E680009D914EB0C0407F1FF3337D2A34584BF2B
:100E7800023F644432D9CBEB0404B4FBFAF30AFB17
:100E8800134480B240EA044009FB03F4844209D9C0
:100E980010EB0C0003F1FF381ED2844284BF023BE2
:100EA800604419D943EA0747001BA7FB022398426D
:100EB8000DD314BF0023012305FA01F191422CBF81
:100EC800002203F001023B46002A3FF406AF7B1ED6
:100ED800002202E7414642E74346E3E71F46CAE7E6
:100EE8001A4682E72DE9F003144605460E46002B04
:100EF80041D18A4254D9B2FA82F34BB1C3F12006E8
:100F0800994020FA06F602FA03F40E4300FA03F5B4
:100F1800220CB6FBF2F02B0C02FB1061A7B243EADD
:100F2800014607FB00F3B34209D9361900F1FF3136
:100F380004D2B34284BF0238361900D80846F61ADC
:100F4800B6FBF2F3ADB202FB136245EA024207FBBD
:100F580003F7974209D9121903F1FF3180F0EA80AB
:100F6800974288BF023B40F2E58043EA00400021F7
:100F7800BDE8F00370478B4284BF00210846F7D8CC
:100F8800B3FA83F4002C49D18B4228BF82428CBF2C
:100F9800002101219CBF01202146E9D90846E7E745
:100FA80012B90124B4FBF2F4B4FA84F7002F40F02C
:100FB80082800B1B260CA7B20121B3FBF6F02A0C8A
:100FC80006FB103342EA034307FB00F29A420AD9B0
:100FD8001B1900F1FF3C80F0AF809A4284BF0238B1
:100FE8001B1940F2A9809B1AB3FBF6F2ADB206FBBF
:100FF800123345EA034507FB02F7AF4209D92C191A
:1010080002F1FF3380F09A80A74288BF023A40F28B
:10101800958042EA0040BDE8F0037047C4F120051E
:1010280022FA05F6A34033434FEA134821FA05F69E
:10103800A14020FA05F5B6FBF8FC0D4308FB1C6639
:10104800290C1FFA83F941EA064609FB0CF7B74257
:1010580002FA04F204D9F6180CF1FF3176D38C4663
:10106800F61BB6FBF8F708FB1766ADB245EA06456E
:1010780009FB07F6AE4204D9ED1807F1FF315FD33B
:101088000F4647EA0C47AD1BA7FB02239D420DD331
:1010980000FA04F114BF0025012591422CBF00215C
:1010A80005F00101384600293FF462AF781E00219F
:1010B800BDE8F0037047BC40C7F1200321FA03FCE8
:1010C800260CB94020FA03F30B43BCFBF6F11A0CCB
:1010D80006FB11CC1FFA84F842EA0C4C08FB01F21B
:1010E800624500FA07F509D91CEB040C01F1FF3041
:1010F80033D2624584BF0239A4442ED9C2EB0C0C0A
:10110800BCFBF6F29BB206FB12CC43EA0C4308FB8D
:1011180002F0984209D91B1902F1FF3704D298420C
:1011280084BF023A1B1900D83A461B1A42EA014109
:10113800474642E70B4618E7604654E71A4668E711
:10114800AE4284BF023FED189BD899E7B74284BFEF
:10115800ACF1020CF61883D881E70146CEE700BF50
:1011680080B500AF41F22410C2F200004FF4A8315C
:1011780009F0CCFC43F65060C0F6010009F056F8BF
:1011880080BD00BF80B483B000AF0346FB804FF63C
:10119800FE73C6F20103FA881A800C37BD465DF863
:1011A800047B704780B483B000AF0346FB804FF6E2
:1011B800FE73C6F20103FA885A800C37BD465DF803
:1011C800047B704780B483B000AF7860396007E073
:1011D8000023C6F202037A68911C796012881A808B
:1011E8003B685A1E3A60002BF2D10C37BD465DF8B9
:1011F800047B704780B483B000AF7860396007E043
:101208007A68931C7B600023C6F202031B88138054
:101218003B685A1E3A60002BF2D10C37BD465DF888
:10122800047B704780B5A2B002AF07F168030022C3
:101238001A60043300221A60043300221A6004334F
:1012480000221A60043300221A6004333A466823E5
:10125800104600211A460CF051FF46F2FC30C0F649
:10126800010046F26C51C0F601010022002308F08B
:1012780071FFF8670020F0214FF4A07207F085F99C
:101288000020F0214FF4A07207F068F906233B67AD
:101298000223BB6707F16803F86F194607F0FDF8EA
:1012A80041F28D13C0F600033B6241F2AD13C0F664
:1012B80000037B6241F2CD13C0F60003FB6241F2EA
:1012C800FD13C0F60003FB633B46F86F194647F66B
:1012D8001902C0F6000247F6A563C0F6000307F03E
:1012E800FAF807F0FBF90346002B0CD000204FF466
:1012F800A071F02207F049F900204FF4A071F02204
:1013080007F02CF90BE00020F0214FF4A07207F051
:101318003CF90020F0214FF4A07207F01FF947F6BE
:101328005853C2F2010343F25D72C0F600021A601C
:1013380047F65853C2F2010343F28172C0F6000225
:101348005A6047F65853C2F2010343F2D572C0F609
:1013580000029A6047F65853C2F2010343F2F97249
:10136800C0F60002DA6047F65853C2F2010343F6AA
:101378003102C0F600025A6347F65853C2F201031D
:1013880005221A6147F65853C2F2010300225A6136
:1013980047F65853C2F20103EF229A6147F65853B1
:1013A800C2F201035222DA6147F65853C2F201032E
:1013B80040F2AC721A6247F65853C2F20103002297
:1013C8005A6247F65853C2F2010340F23F129A623A
:1013D80047F65853C2F201037622DA6247F65853A9
:1013E800C2F2010340F27D721A6247F65850C2F207
:1013F800010004F097FA042008F068F940F2AC7391
:1014080000930020002140F23F12522308F064F9B3
:1014180040F27D73009301200021EF22762308F02B
:101428005BF98037BD4680BD80B487B000AFF860F7
:10143800B9607A60BB68012B01D1002303E04FF04B
:10144800FF337B617B6918461C37BD465DF8047B1A
:10145800704700BF80B582B000AF46F6E833C0F6EB
:1014680001037B6040F20003C2F200033B6007E027
:101478003B681A1D3A607A68111D796012681A6013
:101488003A6840F62413C2F200039A42F0D30A489D
:101498000A494FF000028842B8BF40F8042BFADB33
:1014A800DFF81C00016841F47001016001F0B4FA32
:1014B8000837BD4680BD0000241100209C7F012014
:1014C80088ED00E080B400AFFEE700BF80B500AF54
:1014D8004FF46D43CEF200034FF46D42CEF200029A
:1014E800D2F8882042F47002C3F888204FF4605381
:1014F800C4F202034FF46052C4F20202126842F0CE
:1015080001021A604FF46053C4F2020300229A6089
:101518004FF46053C4F202034FF46052C4F2020263
:10152800126822F0847222F480321A604FF46053F9
:10153800C4F2020343F21002C2F200425A604FF4AE
:101548006053C4F202034FF46052C4F202021268FC
:1015580022F480221A604FF46053C4F2020300227E
:10156800DA6000F009F84FF46D43CEF200034FF053
:1015780000629A6080BD00BF80B483B000AF0023D2
:101588007B6000233B604FF46053C4F202034FF4C6
:101598006052C4F20202126842F480321A604FF4B8
:1015A8006053C4F202031B6803F400333B607B689A
:1015B80001337B603B68002B03D17B68B3F5A06FD8
:1015C800EDD14FF46053C4F202031B6803F40033F7
:1015D800002B02D001233B6001E000233B603B6805
:1015E800012B40F082804FF46053C4F202034FF4A1
:1015F8006052C4F20202126C42F080521A644FF434
:10160800E043C4F200034FF4E042C4F2000212685F
:1016180042F480421A604FF46053C4F202034FF45C
:101628006052C4F2020292689A604FF46053C4F2A6
:1016380002034FF46052C4F20202926842F400427C
:101648009A604FF46053C4F202034FF46052C4F23C
:101658000202926842F4A0529A604FF46053C4F2B6
:10166800020345F20842C0F240725A604FF46053D8
:10167800C4F202034FF46052C4F20202126842F04C
:1016880080721A6000BF4FF46053C4F202031B68F3
:1016980003F00073002BF6D04FF47053C4F202032A
:1016A80040F205621A604FF46053C4F202034FF42B
:1016B8006052C4F20202926822F003029A604FF468
:1016C8006053C4F202034FF46052C4F202029268FB
:1016D80042F002029A6000BF4FF46053C4F2020362
:1016E8009B6803F00C03082BF6D10C37BD465DF858
:1016F800047B704780B485B000AF78600023FB732B
:101708000023BB730F237B737B68DB78002B40D0EF
:101718004FF46D43CEF20003DB68DB4303F4E06370
:101728001B0AFB73FB7BC3F10403BB737A7BFB7B54
:1017380042FA03F37B737B685B781A46BB7B02FA39
:1017480003F3FB737B689A787B7B1340DAB2FB7BED
:101758001343FB73FB7B1B01FB734FF46143CEF216
:1017680000037A6812781344FA7B83F800234FF455
:101778006143CEF200037A6812785209D2B27968CE
:10178800097801F01F01012000FA01F143F8221045
:1017980011E04FF46143CEF200037A6812785209DF
:1017A800D2B27968097801F01F01012000FA01F12D
:1017B800203243F822101437BD465DF8047B704789
:1017C80080B483B000AF78604FF020437A68126825
:1017D800796848687968896808437968C9680843F6
:1017E80079680969084379684969084379688969A2
:1017F80008437968C96908437968096A08437968B8
:10180800496A08437968896A08437968C96A084354
:101818007968096B014343F822107B689B68082BA1
:101828000DD14FF020437A6812684FF02041786854
:10183800006851F8201041F0400143F822104FF0A1
:1018480020437A68126801327968496B08687968B8
:10185800496B4968090108437968496B8968090235
:1018680008437968496BC968090408437968496B72
:101878000969090508437968496B496909060843F4
:101888007968496B8969014343F822107B68DB6AF0
:10189800B3F5804F23D14FF48273CAF200037A68FC
:1018A80012687968896B08687968896B49680901E1
:1018B80008437968896B8968090208437968896BE4
:1018C8000969090508437968896B49690906084364
:1018D8007968896B8969014343F8221009E04FF45C
:1018E8008273CAF200037A6812686FF0704143F895
:1018F80022100C37BD465DF8047B704780B483B076
:1019080000AF78600B46FB70FB78002B0CD04FF0D3
:1019180020434FF02042796852F8212042F001011B
:101928007A6843F822100EE04FF020424FF020432F
:10193800796853F821104FF6FE73C0F20F030B407D
:10194800796842F821300C37BD465DF8047B704752
:1019580080B487B000AF7860396000237B610023D2
:101968003B610023FB6000237B6176E07B690122F9
:1019780002FA03F33B613B681A683B691340FB605A
:10198800FA683B699A4265D17B681A687B695B0093
:10199800032101FA03F3DB431A407B681A607B6872
:1019A8001A683B681B7919467B695B0001FA03F3E7
:1019B8001A437B681A603B681B79012B03D03B688C
:1019C8001B79022B2ED17B689A687B695B00032107
:1019D80001FA03F3DB431A407B689A607B689A68D4
:1019E8003B685B7919467B695B0001FA03F31A438C
:1019F8007B689A607B685A687B699BB2012101FA0F
:101A080003F3DB431A407B685A607B685A683B687B
:101A18009B7919467B699BB201FA03F39BB21A437F
:101A28007B685A607B68DA687B699BB25B0003213C
:101A380001FA03F3DB431A407B68DA607B68DA68F3
:101A48003B68DB7919467B695B0001FA03F31A43AB
:101A58007B68DA607B6901337B617B690F2B85D9F1
:101A68001C37BD465DF8047B704700BF80B485B065
:101A780000AF78600B467B800023FB737B681A6994
:101A88007B881340002B02D00123FB7301E0002365
:101A9800FB73FB7B18461437BD465DF8047B704723
:101AA80080B483B000AF78600B467B807B687A880F
:101AB8001A830C37BD465DF8047B704780B483B049
:101AC80000AF78600B467B807B687A885A830C3736
:101AD800BD465DF8047B704780B485B000AF786080
:101AE80013460A467A807B700023FB600023BB60A4
:101AF8007A787B8803F007039B0002FA03F3FB6004
:101B08007B88DB089BB21A467B88DB089BB21946A8
:101B18007B68083153F821107B8803F007039B008A
:101B28000F2000FA03F3DB4319407B68083243F8BF
:101B380022107B88DB089BB21A467B68083253F870
:101B48002220FB681343BB607B88DB089BB21A46E4
:101B58007B680832B96843F822101437BD465DF82F
:101B6800047B7047000000002DE9B04388B000AF47
:101B7800F86087ED020A79600023FB610023BB61EE
:101B88004FF000037B619FED307AD7ED027AC7EE04
:101B9800277AC7ED057A0023FB613EE07868FEF7F7
:101BA80041FC80468946FB6907EE903AB8EEE77A31
:101BB800D7ED057A67EE277A17EE900AFEF744FC10
:101BC80002460B46104619461DA3D3E90023FEF72B
:101BD8008FFC02460B4643EC172BB0EE470AF0EE9B
:101BE800670A10F051F853EC102B40464946FEF7AF
:101BF8007FFC02460B46144623F000452046294642
:101C0800FEF788FE0346BB61FB699B00FA68134434
:101C1800BA691A60FB690133FB61FB6907EE903A08
:101C2800B8EEE77AD7ED027AB4EEE77AF1EE10FA79
:101C3800B4D918462037BD46BDE8B083AFF300805D
:101C480012E7FAA146DF913F0000B443AFF30080EA
:101C580080B586B000AF78600220012100F040F91D
:101C68000023BB810023FB817B683B610023BB828F
:101C78000023BB7507F10C034FF48060C4F2000029
:101C8800194600F061FB4FF48060C4F200000121A6
:101C980000F0F0FB18461837BD4680BD80B588B007
:101CA80000AF78607023BB810123FB8102233B8353
:101CB8007B687B6107F10C034FF48060C4F200007D
:101CC800194600F005FD4FF48060C4F200000821B9
:101CD80000F0A0FD2037BD4680BD00BF80B588B0AC
:101CE80000AF78607023BB810123FB8102233B8313
:101CF8007B687B6107F10C034FF48060C4F200003D
:101D0800194600F05FFC4FF48060C4F2000008211F
:101D180000F064FD2037BD4680BD00BF80B483B0AD
:101D280000AF0346FB712023C4F20E23FA791A6030
:101D38000C37BD465DF8047B704700BF80B483B0A4
:101D480000AF0346FB7143F67003C4F2020300229E
:101D58001A7043F67003C4F2020300221A70FB796A
:101D6800012B02D0042B07D00DE043F67003C4F218
:101D7800020301221A7006E043F67003C4F202035C
:101D880005221A7000BF0C37BD465DF8047B70470A
:101D980080B485B000AF78600023FB607B6803F4F3
:101DA8004073B3F5407F17D14FF46053C4F2020378
:101DB8009B68FB60FB6823F4F813FB607B6823F0E7
:101DC800704323F44073FA681343FB604FF4605385
:101DD800C4F20203FA689A604FF46053C4F2020333
:101DE8004FF46052C4F20202116F7A68C2F30B0218
:101DF8000A431A671437BD465DF8047B704700BF75
:101E080080B483B000AF0346FB7140F63C63C4F274
:101E18004723FA791A600C37BD465DF8047B704792
:101E280080B483B000AF0346FB714FF46463C4F21F
:101E38004723FA791A600C37BD465DF8047B704772
:101E480080B483B000AF78600B46FB70FB78002B42
:101E58000CD04FF46053C4F202034FF46052C4F242
:101E68000202116B7A680A431A630CE04FF460535C
:101E7800C4F202034FF46052C4F20202116B7A6892
:101E8800D2430A401A630C37BD465DF8047B70479D
:101E980080B483B000AF78600B46FB70FB78002BF2
:101EA8000CD04FF46053C4F202034FF46052C4F2F2
:101EB8000202916B7A680A439A630CE04FF460530C
:101EC800C4F202034FF46052C4F20202916B7A68C2
:101ED800D2430A409A630C37BD465DF8047B7047CD
:101EE80080B483B000AF78600B46FB70FB78002BA2
:101EF8000CD04FF46053C4F202034FF46052C4F2A2
:101F08000202116C7A680A431A640CE04FF46053B9
:101F1800C4F202034FF46052C4F20202116C7A68F0
:101F2800D2430A401A640C37BD465DF8047B7047FB
:101F380080B483B000AF78600B46FB70FB78002B51
:101F48000CD04FF46053C4F202034FF46052C4F251
:101F58000202516C7A680A435A640CE04FF46053E9
:101F6800C4F202034FF46052C4F20202516C7A6860
:101F7800D2430A405A640C37BD465DF8047B70476B
:101F880080B487B000AF0346FB710023FB600023D9
:101F98007B610023FB74FB795B09DBB2FB60FB68A8
:101FA800012B06D14FF46053C4F202031B687B6116
:101FB8000FE0FB68022B06D14FF46053C4F2020312
:101FC8001B6F7B6105E04FF46053C4F202035B6F43
:101FD8007B61FB7903F01F03FB60FB687A6922FAD7
:101FE80003F303F00103002B02D00123FB7401E08B
:101FF8000023FB74FB7C18461C37BD465DF8047B48
:10200800704700BF80B485B000AF00237B60002319
:10201800FB730023BB604FF42053C4F20003CA22B1
:102028005A624FF42053C4F2000353225A624FF409
:102038002053C4F200034FF42052C4F20002D268C5
:1020480022F0A002DA604FF42053C4F20003DB68E8
:1020580003F02003BB607B6801337B607B68B3F5CA
:10206800003F02D0BB68002BEDD04FF42053C4F2E0
:102078000003DB6803F02003002B02D00123FB736D
:1020880001E00023FB734FF42053C4F20003FF2246
:102098005A62FB7B18461437BD465DF8047B7047CF
:1020A80080B584B000AF786039600023FB604FF4DE
:1020B8002053C4F200031B6803F07F3323F0FE4370
:1020C800FB60FB6803F47C131B0CDAB23B681A70E4
:1020D800FB6803F4FE431B0ADAB23B685A70FB68DC
:1020E800DBB203F07F03DAB23B689A70FB6803F453
:1020F80080031B0CDAB23B68DA707B68002B1AD1BC
:102108003B681B78184600F067F803461A463B6898
:102118001A703B685B78184600F05EF803461A466A
:102128003B685A703B689B78184600F055F80346A0
:102138001A463B689A701037BD4680BD80B584B09A
:1021480000AF786039600023FB604FF42053C4F27D
:1021580000035B6823F07F4323F0C003FB60FB6848
:1021680003F47F031B0CDAB23B68DA70FB6803F4F4
:10217800F8531B0ADAB23B685A70FB68DBB203F00B
:102188003F03DAB23B689A70FB6803F460435B0B69
:10219800DAB23B681A707B68002B1AD13B68DB788F
:1021A800184600F019F803461A463B68DA703B688F
:1021B8005B78184600F010F803461A463B685A70D8
:1021C8003B689B78184600F007F803461A463B68B8
:1021D8009A701037BD4680BD80B485B000AF034605
:1021E800FB710023FB73FB791B09DBB21A469200D3
:1021F80013445B00FB73FB7903F00F03DAB2FB7B3C
:102208001344DBB218461437BD465DF8047B7047AB
:1022180080B485B000AF786039600023FB817B68AB
:102228001B88FB81FB8903F44153FB813B681A88B7
:102238003B685B8813439AB23B689B8813439AB206
:102248003B68DB8813439AB23B681B8913439AB2F5
:102258003B685B8913439AB23B689B8913439AB2E4
:102268003B68DB8913439AB2FB891343FB817B6884
:10227800FA891A807B689B8B9BB223F400639AB21D
:102288007B689A833B681A8A7B681A821437BD4632
:102298005DF8047B704700BF80B483B000AF7860FE
:1022A8000B46FB70FB78002B08D07B681B889BB221
:1022B80043F040039AB27B681A8007E07B681B886A
:1022C8009BB223F040039AB27B681A800C37BD4654
:1022D8005DF8047B704700BF80B483B000AF7860BE
:1022E8007B689B899BB218460C37BD465DF8047B1A
:1022F800704700BF80B483B000AF78600B467B8026
:102308007B687A889A810C37BD465DF8047B7047F4
:1023180080B485B000AF78600B467B800023FB73E8
:102328007B681B899AB27B8813409BB2002B02D032
:102338000123FB7301E00023FB73FB7B1846143772
:10234800BD465DF8047B704780B485B000AF786007
:1023580039600023FB817B681B88FB817A68002336
:10236800C4F201039A421FD07A684FF48063C4F222
:1023780001039A4218D07B68B3F1804F14D07A6871
:102388004FF48063C4F200039A420DD07A684FF488
:102398000063C4F200039A4206D07A684FF440639F
:1023A800C4F200039A4208D1FB8923F07003FB8131
:1023B8003B685A88FB891343FB817A684FF4805342
:1023C800C4F200039A420FD07A684FF4A053C4F2C3
:1023D80000039A4208D0FB8923F44073FB813B68D1
:1023E8001A89FB891343FB817B68FA891A803B6849
:1023F8005A687B68DA623B681A887B681A857A684B
:102408000023C4F201039A4206D07A684FF480632D
:10241800C4F201039A4204D13B689B7A1A467B684E
:102428001A867B6801229A821437BD465DF8047BC0
:10243800704700BF80B483B000AF78600B46FB7074
:10244800FB78002B08D07B681B889BB243F0800385
:102458009AB27B681A8007E07B681B889BB223F0DE
:1024680080039AB27B681A800C37BD465DF8047BFE
:10247800704700BF80B483B000AF78600B46FB7034
:10248800FB78002B08D07B681B889BB243F00103C4
:102498009AB27B681A8007E07B681B889BB223F09E
:1024A80001039AB27B681A800C37BD465DF8047B3D
:1024B800704700BF80B485B000AF786039600023F2
:1024C8007B810023FB810023BB817B681B8C9BB233
:1024D80023F010039AB27B681A847B681B8CFB81FB
:1024E8007B689B88BB817B681B8B7B817B8923F402
:1024F800E0437B817B8923F440737B813B681B88A5
:102508001B029AB27B8913437B81FB8923F020034A
:10251800FB813B689B891B019AB2FB891343FB81B2
:102528003B685B881B019AB2FB891343FB817A687D
:102538000023C4F201039A4206D07A684FF48063FC
:10254800C4F201039A422BD1FB8923F08003FB815B
:102558003B68DB891B019AB2FB891343FB81FB892A
:1025680023F04003FB813B689B881B019AB2FB89DF
:102578001343FB81BB8923F48063BB81BB8923F4AC
:102588000063BB813B681B8A9B009AB2BB891343DB
:10259800BB813B685B8A9B009AB2BB891343BB81B2
:1025A8007B68BA899A807B687A891A833B689A68BB
:1025B8007B689A637B68FA891A841437BD465DF88C
:1025C800047B704780B485B000AF78603960002321
:1025D8007B810023FB810023BB817B681B8C9BB222
:1025E80023F480739AB27B681A847B681B8CFB8106
:1025F8007B689B88BB817B689B8B7B817B8923F075
:1026080070037B817B8923F003037B813B681A88F5
:102618007B8913437B81FB8923F40073FB813B682F
:102628009B891B029AB2FB891343FB813B685B8839
:102638001B029AB2FB891343FB817A680023C4F218
:1026480001039A4206D07A684FF48063C4F201030A
:102658009A422BD1FB8923F40063FB813B68DB8919
:102668001B029AB2FB891343FB81FB8923F4806325
:10267800FB813B689B881B029AB2FB891343FB8151
:10268800BB8923F48053BB81BB8923F40053BB81EE
:102698003B681B8A1B019AB2BB891343BB813B6809
:1026A8005B8A1B019AB2BB891343BB817B68BA89D9
:1026B8009A807B687A899A833B689A687B68DA6330
:1026C8007B68FA891A841437BD465DF8047B704725
:1026D80080B485B000AF786039600023BB810023E7
:1026E8007B810023FB817B681B8C9BB223F4805386
:1026F8009AB27B681A847B681B8C7B817B689B8879
:10270800FB817B689B8BBB81BB8923F4E043BB8146
:10271800BB8923F44073BB813B681B881B029AB2B8
:10272800BB891343BB817B8923F400537B813B68BE
:102738009B891B039AB27B8913437B813B685B8827
:102748001B039AB27B8913437B817A680023C4F206
:1027580001039A4206D07A684FF48063C4F20103F9
:102768009A420AD1FB8923F48043FB813B681B8A88
:102778009B019AB2FB891343FB817B68FA899A8093
:102788007B68BA899A833B689A687B681A647B6815
:102798007A891A841437BD465DF8047B704700BFF8
:1027A80080B485B000AF78600B467B800023FB8146
:1027B8007B681B8BFB81FB8923F40063FB817B888F
:1027C8001B029AB2FB891343FB817B68FA891A833F
:1027D8001437BD465DF8047B704700BF80B485B0F0
:1027E80000AF78600B467B800023FB817B689B8B66
:1027F800FB81FB8923F00803FB81FA897B8813435B
:10280800FB817B68FA899A831437BD465DF8047B9F
:10281800704700BF80B485B000AF78600B467B80FE
:102828000023FB817B689B8BFB81FB8923F400637E
:10283800FB817B881B029AB2FB891343FB817B686F
:10284800FA899A831437BD465DF8047B704700BF48
:1028580080B483B000AF786013460A467A807B70F4
:102868007B78002B08D07B689B899AB27B881343BE
:102878009AB27B689A8109E07B689B899AB27B88C7
:10288800DB439BB213409AB27B689A810C37BD46F2
:102898005DF8047B704700BF80B485B000AF7860F6
:1028A8000B467B800023FB730023BB8100237B81C5
:1028B8007B681B8A9AB27B881340BB817B689B89A3
:1028C8009AB27B8813407B81BB89002B05D07B891A
:1028D800002B02D00123FB7301E00023FB73FB7B79
:1028E80018461437BD465DF8047B704780B483B042
:1028F80000AF78600B467B807B88DB439AB27B68AD
:102908001A820C37BD465DF8047B704780B483B0EB
:1029180000AF786046F22413C2F201037A681A60A5
:1029280000BF46F22413C2F201031B68002BF8D142
:102938000C37BD465DF8047B704700BF80B400AF1C
:1029480046F22413C2F201031B68002B0AD046F298
:102958002413C2F201031B685A1E46F22413C2F262
:1029680001031A60BD465DF8047B704780B483B0EC
:1029780000AF03463960FB7197F90730002B0EDA78
:102988004FF46D43CEF20003FA7902F00F02111FE3
:102998003A68D2B21201D2B20B441A760CE04FF464
:1029A8006143CEF2000397F907103A68D2B21201D8
:1029B800D2B20B4483F800230C37BD465DF8047B84
:1029C800704700BF80B582B000AF78607B68B3F114
:1029D800807F01D301231AE04EF21003CEF20003E8
:1029E8007A6822F07F42013A5A604FF0FF300F2197
:1029F800FFF7BCFF4EF21003CEF2000300229A60EC
:102A08004EF21003CEF2000307221A600023184684
:102A18000837BD4680BD00BF80B588B004AFFEF75B
:102A280055FD40F20003C2F200031A6844F6D3537E
:102A3800C1F26203A3FB02139B091846FFF7C2FF0A
:102A48000346002B00D0FEE708200121FFF7F8F924
:102A580010200121FFF7F4F904200121FFF7F0F914
:102A680046F23413C2F2010340F26A321A6046F2A7
:102A78003810C2F201009FEDD00A40F26A31FFF728
:102A880073F846F23413C2F201031B681846FFF7C5
:102A9800DFF84FF40060C4F2020008210222FFF7B9
:102AA8001BF84FF40060C4F2020009210222FFF76C
:102AB80013F847F6CC53C2F201034FF440721A6080
:102AC80047F6CC53C2F2010302221A7147F6CC53DF
:102AD800C2F2010300229A7147F6CC53C2F20103F5
:102AE80003225A7147F6CC53C2F201030022DA716D
:102AF8004FF40060C4F2020047F6CC51C2F2010163
:102B0800FEF726FF47F6CC53C2F201034FF470429A
:102B18001A6047F6CC53C2F2010301221A7147F634
:102B2800CC53C2F2010300229A7147F6CC53C2F289
:102B3800010303225A7147F6CC53C2F20103002263
:102B4800DA714FF44060C4F2020047F6CC51C2F289
:102B58000101FEF7FDFE47F6CC53C2F201034FF424
:102B68007F421A6047F6CC53C2F2010301221A7160
:102B780047F6CC53C2F2010300229A7147F6CC53B0
:102B8800C2F201030022DA714FF48050C4F202004D
:102B980047F6CC51C2F20101FEF7DAFE4FF480602D
:102BA800C4F2000001210122FFF752FE47F6B45398
:102BB800C2F201031D221A7047F6B453C2F2010390
:102BC80000225A7047F6B453C2F2010301229A70E8
:102BD80047F6B453C2F201030122DA7047F6B45043
:102BE800C2F20100FEF786FD00F070FB00F052FC17
:102BF8004FF480500121FFF723F907F08DFB00F017
:102C08000DFB00F0F7FE00F0CDFC4FF44060C4F27D
:102C180002004FF48051FEF751FF00F029F943F606
:102C28003C40C0F6010006F0BBFD4FF47F0006F003
:102C3800E3FD07F033FB42F6E870C0F6010007F049
:102C480077F942F6FC70C0F6010007F071F9FF232E
:102C580000934FF6FF7301930520962140F23B1233
:102C6800EB2307F011F943F66D60C0F6000001F0A0
:102C78005DFA0023009302230193002302934FF48B
:102C8800047303933220B421DB221E2301F0E6FBF8
:102C9800F860F86843F63C41C0F6010101F0C1FA5A
:102CA800F86800213B2201F0A3FAF86843F200011A
:102CB800C0F6010101F048FA00F036F947F64C5029
:102CC800C2F2010006F070FE43F63C40C0F6010077
:102CD80006F066FD47F64C53C2F201031B7A002B3F
:102CE80021D047F64C53C2F201031B6818464FF433
:102CF8008C711422042306F005FC47F64C53C2F2EB
:102D080001035B6818464FF48C712822042306F0EF
:102D1800F9FB43F20400C0F601004FF48C713C2229
:102D280007F0FEF816E000204FF48C7114220423FB
:102D380006F0E8FB00204FF48C712822042306F0EB
:102D4800E1FB43F20800C0F601004FF48C713C220D
:102D580007F0E6F847F6A853C2F201039B78BB6078
:102D6800BB6803F10F02002BB8BF13461B111A46AC
:102D780013469B0013445B001946BA68D3171B0F10
:102D88001A4402F00F02D31A0B44BB603B461846A4
:102D980043F20C01C0F60101BA680BF0F9F9F868C2
:102DA800B96801F06BFB3B46F868194601F0CCF9AD
:102DB800322006F055FC7FE70000C84480B500AF1C
:102DC8004FF48060C4F200000121FFF765FD03465F
:102DD800002B4CD04FF48060C4F200000121FFF7B3
:102DE80085FD46F23013C2F201031B68B3F5487F34
:102DF8000DDC46F23013C2F201031A6846F23813AA
:102E0800C2F2010353F822301846FEF747FF46F294
:102E18003013C2F201031B68B3F5487F0DDB46F29D
:102E28003013C2F201031A6846F23813C2F20103E2
:102E380053F822301846FEF751FF46F23013C2F21B
:102E480001031B685A1C46F23013C2F201031A60D0
:102E580046F23013C2F201031A6840F241639A4203
:102E680005D146F23013C2F2010300221A6080BD78
:102E780080B500AF01200121FEF7E2FF47F6CC53F1
:102E8800C2F2010301221A6047F6CC53C2F20103D1
:102E980000221A7147F6CC53C2F2010300229A713C
:102EA80047F6CC53C2F2010300225A7147F6CC53BD
:102EB800C2F201030022DA710020C4F2020047F6D0
:102EC800CC51C2F20101FEF743FD0120FEF7A8FF35
:102ED8000020FEF7A5FF4FF080500121FFF700F812
:102EE8000120FEF71BFF0120FEF728FF00BF41204D
:102EF800FFF746F80346002BF9D04FF48070FEF731
:102F080047FF47F64023C2F20103FF221A6047F643
:102F18003C23C2F201037F221A600120FEF770FFF2
:102F2800FFF770F880BD00BF90B58DB002AF0120EB
:102F380047F6B051C2F20101FFF700F945F6185003
:102F4800C0F6010006F02CFC43F21400C0F60100A4
:102F58002821322206F0E4FF47F6B053C2F20103FB
:102F68001B78013B062B42D801A252F823F000BF80
:102F7800952F0008A32F0008B12F0008BF2F0008C5
:102F8800CD2F0008DB2F0008E92F000843F21800B6
:102F9800C0F6010006F0CCFF29E043F22000C0F69D
:102FA800010006F0C5FF22E043F22800C0F6010048
:102FB80006F0BEFF1BE043F23000C0F6010006F049
:102FC800B7FF14E043F23800C0F6010006F0B0FF86
:102FD8000DE043F24000C0F6010006F0A9FF06E04C
:102FE80043F24800C0F6010006F0A2FF00BF47F612
:102FF800B053C2F201035B78013B112B7AD801A2CE
:1030080052F823F05530000863300008713000088A
:103018007F3000088D3000089B300008A930000878
:10302800B7300008C5300008FD300008FD30000842
:10303800FD300008FD300008FD300008FD300008B4
:10304800D3300008E1300008EF30000843F25000A8
:10305800C0F6010006F06CFF4CE043F25800C0F6E1
:10306800010006F065FF45E043F26000C0F601008C
:1030780006F05EFF3EE043F26800C0F6010006F08D
:1030880057FF37E043F27000C0F6010006F050FF2A
:1030980030E043F27800C0F6010006F049FF29E06D
:1030A80043F28000C0F6010006F042FF22E043F23E
:1030B8008800C0F6010006F03BFF1BE043F29000D9
:1030C800C0F6010006F034FF14E043F29800C0F6A1
:1030D800010006F02DFF0DE043F2A000C0F601004C
:1030E80006F026FF06E043F2A800C0F6010006F04D
:1030F8001FFF00BF47F6B053C2F201039B781A4680
:1031080047F6B053C2F20103DB783946084643F26A
:10311800B001C0F601010BF03BF83B46184606F03B
:1031280007FF43F2C000C0F6010006F001FF0120CE
:1031380047F6A851C2F20101FEF7B2FF47F6A853BD
:10314800C2F201031B781A4647F6A853C2F20103DC
:103158005B781C4647F6A853C2F201039B781946D0
:1031680007F114030091184643F2C401C0F60101A7
:1031780023460BF00DF807F11403184682215A2252
:1031880006F0B4FE47F6A853C2F20103DB78002B21
:1031980006D143F2D400C0F6010006F0C9FE05E0EE
:1031A80043F2D800C0F6010006F0C2FE43F2C000A8
:1031B800C0F6010006F0BCFE2C37BD4690BD00BF2E
:1031C80080B485B000AF786047F64423C2F20103AB
:1031D8001B68002B08D147F64423C2F2010347F6C7
:1031E8009C72C2F201021A6047F64423C2F201033C
:1031F8001B68FB6047F64423C2F201031A687B6828
:103208001A4447F64423C2F201031A60FB681846C1
:103218001437BD465DF8047B704700BF80B500AF2A
:103228004FF40060C4F202004FF40051FEF746FC70
:103238001E20FFF76BFB4FF40060C4F202004FF44E
:103248000051FEF72DFC0A20FFF760FB0720212123
:1032580000F024F80020012100F020F807202321A5
:1032680000F01CF81020002100F018F81E20FFF7CD
:103278004DFB0720332100F011F8112046F2180108
:1032880000F00CF802204FF4C06100F007F80120AC
:1032980042F63F3100F002F880BD00BF80B483B031
:1032A80000AF02460B46FA80BB804FF6FE73C6F2AB
:1032B8000103FA881A804FF6FE73C6F20103BA8832
:1032C8005A800C37BD465DF8047B704780B582B0E4
:1032D80000AF00233B6000237B601C200121FEF728
:1032E800AFFD4FF400533B6001233B7102237B7118
:1032F8003B464FF40060C4F202001946FEF728FB73
:103308004CF6B3733B6002233B7102237B710023AD
:10331800BB710023FB713B464FF44060C4F20200CE
:103328001946FEF715FB4FF44060C4F20200002175
:103338000C22FEF7D1FB4FF44060C4F202000121D9
:103348000C22FEF7C9FB4FF44060C4F202000421CE
:103358000C22FEF7C1FB4FF44060C4F202000521C5
:103368000C22FEF7B9FB4FF44060C4F202000721BB
:103378000C22FEF7B1FB4FF44060C4F202000821B2
:103388000C22FEF7A9FB4FF44060C4F202000921A9
:103398000C22FEF7A1FB4FF44060C4F202000A21A0
:1033A8000C22FEF799FB4FF44060C4F202000B2197
:1033B8000C22FEF791FB4FF44060C4F202000E218C
:1033C8000C22FEF789FB4FF44060C4F202000F2183
:1033D8000C22FEF781FB4FF680733B6002233B71A2
:1033E80002237B710023BB710023FB713B464FF422
:1033F8008050C4F202001946FEF7AAFA4FF4805032
:10340800C4F2020007210C22FEF766FB4FF480503D
:10341800C4F2020008210C22FEF75EFB4FF4805034
:10342800C4F2020009210C22FEF756FB4FF480502B
:10343800C4F202000A210C22FEF74EFB4FF4805022
:10344800C4F202000B210C22FEF746FB4FF4805019
:10345800C4F202000C210C22FEF73EFB4FF4805010
:10346800C4F202000D210C22FEF736FB4FF4805007
:10347800C4F202000E210C22FEF72EFB4FF48050FE
:10348800C4F202000F210C22FEF726FB0837BD46C6
:1034980080BD00BF80B596B000AF07F13C030022A5
:1034A8001A60043300221A60043300221A600433BD
:1034B80000221A60043300221A60043300221A60C2
:1034C800043300221A6004333A463C231046002194
:1034D8001A460AF013FE01200121FEF7D9FC002349
:1034E800FB630A237B640023FB6400237B650023C2
:1034F8003B6000237B600023BB601023FB6000233C
:103508003B610023BB610023FB6100233B624FF456
:1035180080537B620023BB620023FB6200233B6372
:1035280007F13C037B6307F13C03BB6300237B612A
:103538003B461846FEF744F900200121FEF7DEF964
:103548005837BD4680BD00BF80B400AF47F6E05392
:10355800C2F201031B681846BD465DF8047B70473C
:1035680080B485B000AF786047F6E053C2F201033B
:103578001A687B681344FB6000BF47F6E053C2F249
:1035880001031B68FA68D31A002BF6DC1437BD4612
:103598005DF8047B704700BF80B400AFBD465DF89E
:1035A800047B704780B58AB000AF04200121FEF784
:1035B80097FC08200121FEF743FC4FF400533B62BF
:1035C800022387F82430032387F82530002387F85F
:1035D8002630012387F8273007F120034FF4406095
:1035E800C4F202001946FEF7B3F94FF44060C4F282
:1035F80002000D210222FEF76FFA4FF480533B625E
:10360800012387F82430032387F82530002387F81F
:103618002630012387F8273007F120034FF4406054
:10362800C4F202001946FEF793F947F64823C2F29E
:10363800010301221A8040F65E03BB6147F6482366
:10364800C2F201031B88BB820023BB830023FB82D9
:1036580007F114034FF40060C4F200001946FEF7A6
:1036680073FE70233B8001237B804FF47A73BB6029
:103678000023BB813B464FF40060C4F200001946AA
:10368800FEF718FF4FF40060C4F200000821FFF7AE
:1036980087F84FF40060C4F200000121FEF7CAFE6B
:1036A8004FF40060C4F200000121FEF7E3FE283762
:1036B800BD4680BD80B400AFBD465DF8047B704751
:1036C80080B400AFFEE700BF80B400AFFEE700BFE4
:1036D80080B400AFFEE700BF80B400AFBD465DF820
:1036E800047B704780B400AFBD465DF8047B70472B
:1036F80080B400AFBD465DF8047B704780B500AF6D
:1037080047F6E053C2F201031B685A1C47F6E05320
:10371800C2F201031A60FFF711F940F21403C2F272
:1037280000031B78013BDAB240F21403C2F2000333
:103738001A7040F21403C2F200031B78002B07D161
:1037480040F21403C2F2000364221A7000F050FB26
:1037580080BD00BF80B582B000AF0346FB71FB7926
:103768009BB24FF46050C4F200001946FEF7C2FD48
:103778000837BD4680BD00BF80B582B000AF0023CA
:10378800FB80322000F096F8502000F05FF83220DD
:1037980000F090F8002000F059F80346FB80FB8801
:1037A8001B02FB80002000F051F803461A46FB88F4
:1037B8001344FB80FB881B09FB80FB88C3F30B03C6
:1037C800FB80FB8818460837BD4680BD80B500AF32
:1037D8004FF46050C4F200008021FEF799FD0346C3
:1037E800002B01D0012300E00023184680BD00BF54
:1037F80080B582B000AF0346FB71FB79002B08D07F
:103808004FF48060C4F202004FF40061FEF748F9FB
:1038180007E04FF48060C4F202004FF40061FEF745
:103828004DF90837BD4680BD80B500AF4FF48060C4
:10383800C4F202004FF48051FEF718F90346002B3A
:1038480001D0002300E00123184680BD80B584B074
:1038580000AF0346FB710023FB7300BF4FF46050B9
:10386800C4F200000221FEF753FD0346002BF5D0F9
:10387800FB799BB24FF46050C4F200001946FEF782
:1038880039FD00BF4FF46050C4F200000121FEF77B
:103898003FFD0346002BF5D04FF46050C4F2000002
:1038A800FEF71AFD0346FB73FB7B18461037BD462F
:1038B80080BD00BF80B485B000AF78600023FB6096
:1038C80002E0FB680133FB60FA687B689A42F8D330
:1038D8001437BD465DF8047B704700BF80B582B0E1
:1038E80000AF0023FB804FF48060C4F202004FF465
:1038F8000061FEF7E3F83220FFF7DCFFD020FFF786
:10390800A5FF3220FFF7D6FF0020FFF79FFF0346F1
:10391800FB80FB881B02FB800020FFF797FF034614
:103928001A46FB881344FB804FF48060C4F20200FF
:103938004FF40061FEF7B4F8FB881B09FB80FB8895
:10394800C3F30B03FB80FB8818460837BD4680BDD0
:1039580080B582B000AF0023FB804FF48060C4F2D2
:1039680002004FF40061FEF7A9F83220FFF7A2FF2A
:103978009020FFF76BFF3220FFF79CFF0020FFF736
:1039880065FF0346FB80FB881B02FB800020FFF7D6
:103998005DFF03461A46FB881344FB804FF48060A2
:1039A800C4F202004FF40061FEF77AF8FB881B09A5
:1039B800FB80FB88C3F30B03FB80FB8818460837A2
:1039C800BD4680BD80B500AFFFF7C2FF03461A466B
:1039D80047F6F853C2F201039A80FFF77FFF0346C8
:1039E8001A4647F6F853C2F20103DA800123184653
:1039F80080BD00BF80B582B000AF4FF48040012188
:103A0800FEF796FA4FF480400121FEF769FA02208A
:103A18000121FEF715FA4FF48060C4F202000D216F
:103A28000522FEF759F84FF48060C4F202000E2117
:103A38000522FEF751F84FF48060C4F202000F210E
:103A48000522FEF749F802233B7102237B7100230C
:103A5800BB710223FB714FF400533B603B464FF4AC
:103A68008060C4F202001946FDF772FF4FF400436C
:103A78003B603B464FF48060C4F202001946FDF7F4
:103A880067FF4FF480433B603B464FF48060C4F2CD
:103A980002001946FDF75CFF4FF400633B60012309
:103AA8003B710023BB7102237B710123FB713B46F1
:103AB8004FF48060C4F202001946FDF749FF4FF445
:103AC8008060C4F202004FF40061FDF7E9FF47F699
:103AD800E453C2F2010300221A8047F6E453C2F20B
:103AE80001034FF482725A8047F6E453C2F201038D
:103AF80000229A8047F6E453C2F201030222DA80D8
:103B080047F6E453C2F2010301221A8147F6E4534F
:103B1800C2F201034FF400725A8147F6E453C2F22D
:103B2800010330229A8147F6E453C2F201030022CE
:103B3800DA8147F6E453C2F2010307221A824FF4EE
:103B48006050C4F2000047F6E451C2F20101FEF7EA
:103B58005FFB4FF46050C4F200000121FEF79CFBAC
:103B68004FF480400121FEF7E3F900233B71022363
:103B78007B710023FB714FF480533B603B464FF44D
:103B88008060C4F202001946FDF7E2FE0837BD4620
:103B980080BD00BF80B58CB000AF002387F82D3002
:103BA80000237B854FF48060C4F202004FF48051FB
:103BB800FDF75CFF0346002B40F01581FFF702FF7D
:103BC80025E0FFF7FFFE0346002B20D097F82D10C5
:103BD80047F6F853C2F201039A884B0007F1300008
:103BE800034423F8302C97F82D1047F6F853C2F207
:103BF8000103DA8801F10A035B0007F130010B4485
:103C080023F8302C97F82D30013387F82D3097F8AA
:103C18002D30092BD5D997F82D300A2B40F0DD80AF
:103C2800002387F82E30002387F82F303EE097F8DE
:103C38002F305B0007F13002134433F8302C97F82B
:103C48002F3001335B0007F13000034433F8303C78
:103C58009A4226D997F82F3001335B0007F13001DB
:103C68000B4433F8303C7B8597F82F30591C97F874
:103C78002F305B0007F13002134433F8302C4B002F
:103C880007F13000034423F8302C97F82F305B00FD
:103C980007F130010B447A8D23F8302C012387F883
:103CA8002E3097F82F30013387F82F3097F82F20D0
:103CB80097F82D30013B9A42B9DB97F82E30002B4C
:103CC800AED1002387F82E30002387F82F3045E047
:103CD80097F82F300A335B0007F13002134433F8AA
:103CE800302C97F82F3001330A335B0007F130008E
:103CF800034433F8303C9A422BD997F82F300133DC
:103D08000A335B0007F130010B4433F8303C7B8504
:103D180097F82F30591C97F82F300A335B0007F1BA
:103D28003002134433F8302C01F10A035B0007F129
:103D38003000034423F8302C97F82F300A335B0007
:103D480007F130010B447A8D23F8302C012387F8D2
:103D58002E3097F82F30013387F82F3097F82F201F
:103D680097F82D30013B9A42B2DB97F82E30002BA2
:103D7800A7D1FB881A463B891A447B891A4445F225
:103D88005653C5F2555383FB0201D317CB1A9AB287
:103D980047F6F853C2F201039A807B8B1A46BB8B15
:103DA8001A44FB8B1A4445F25653C5F2555383FB0C
:103DB8000201D317CB1A9BB2C3F5FF6307339AB23C
:103DC80047F6F853C2F20103DA8047F64A23C2F2F3
:103DD800010301221A70012306E047F64A23C2F2C2
:103DE800010300221A70002318463037BD4680BDF3
:103DF80080B500AFFFF7CEFE47F6F853C2F20103D5
:103E08009B881A4647F64C53C2F201031A6047F6DC
:103E1800F853C2F20103DB881A4647F64C53C2F244
:103E280001035A604FF48060C4F202004FF48051DD
:103E3800FDF71CFE0346002B06D047F64C53C2F292
:103E4800010300221A7205E047F64C53C2F201033F
:103E580001221A7247F64C50C2F2010005F0B6FD75
:103E680080BD00BF43680B2BF7B50446056A06D032
:103E7800122B00F08F80052B40F09B801CE04E48F1
:103E8800006A05F0BBFC60692169A26905F0BAFE09
:103E9800E0692169A26905F0B5FE6369E2692069F4
:103EA800591C013A05F08EFE6169E369A069013188
:103EB8005A1E05F087FE7CE02868002834D0226965
:103EC800A7696B683C49BE1A701C461023B90F6974
:103ED80048694FF0010C04E00F68486801234FF06F
:103EE800000C019000976169E769501CFB1A614456
:103EF800921905F0C9FF6B682F4D1BB9AF69ED69C1
:103F0800012103E0AF68ED68012300212269B018A0
:103F18006669A269E4690097019501308919013A37
:103F2800E31A05F0B1FF44E0E7696369224EF91A24
:103F38004A1C57106A6822B9D6F800C07168012077
:103F480003E0D6F810C071690122A669CDF800C057
:103F580001912169B21A4018591CDB1905F062FF5A
:103F68006A68154D1AB9AE68ED68012003E0AE69BC
:103F7800ED69012200206369D4F810E0F918A769F7
:103F8800E3690096019570440131BA1A013B05F0C6
:103F980049FF0EE02B6863B90749AD68486A05F028
:103FA8002DFC022005F0F2FB28462169626905F024
:103FB800B7FF0020FEBD00BF1800002030B58BB051
:103FC800054606F07DFD0AAB426E43F8280D6846AB
:103FD800946806F083FD002002900AA8216840F842
:103FE800245D88470BB030BD2DE9F04393B00446FB
:103FF80006F066FD90F86820066E009002F0010158
:104008000691416BD0F84C9000F0A4F90746684639
:1040180006F064FD0DF1080806A8119041462046F7
:1040280000F0F2FABDF90830BDF90A20BDF90C100C
:10403800BDF90E000D930B250A950E920F91109065
:10404800099409A8B04798E8030004AD85E803007F
:1040580001222946284604F0D0FF284600F0B8FA85
:10406800BDF90800BDF90A200699099405230A93A9
:104078000D900E9229B1BDF90C10D2190F91109222
:1040880004E0C319BDF90E000F93109000230793A5
:1040980009A8B0470699BDF9080031B1BDF90A1061
:1040A8000D90CF1901370E9705E0C219BDF90A0026
:1040B800531C0D930E90BDF90C20BDF90E300F92D4
:1040C80001201093079009A8B047204606F0F8FC95
:1040D800009000F0F9F80190F8B1484605F060FB4F
:1040E80002A9019A009800F0F2F8684606F0F6FC7A
:1040F8000199BDF90A00089112220A92BDF9083007
:10410800BDF90C10BDF90E200E9009940D930F9176
:10411800109209A8B04701A800E0684606F0DEFC46
:10412800002000F055FA13B0BDE8F0830349044AB3
:10413800044B1A604A6948611046704750000020D5
:10414800400000204C00002070B50D4688B00446A1
:1041580000284BD006F0B4FC836B0190C06C03932D
:1041680005F01EFB0646019800F0AEF804A90246C9
:104178000290019800F0ABF802A806F0AFFC75B900
:10418800019890F8681021F0020380F8683004A9BB
:10419800204600F0A3FE01A806F0A0FC23E001A839
:1041A80006F09CFC03A8294604F0EDFED8B1204691
:1041B80006F086FC039A90F86830826343F00202A6
:1041C80080F8682006A92A46019000F080F801A826
:1041D80006F084FC04A8014606AA05F087FC2046E0
:1041E80004A900F07BFE304605F0DAFA08B070BD8D
:1041F80073B50C461546064690B106F061FCA5421B
:1042080001900ADD826C954202D1416C8C4204D047
:1042180044648564304600F09DFE01A806F05EFC0B
:104228007CBD37B50C46054658B106F049FC024638
:1042380002A8D46440F8042D06F050FC284600F08B
:1042480089FE3EBD13B502AB426343F8041D416CC1
:10425800806C521A64246243411A92FBF1F01946A9
:1042680006F0EEFE019B252200201A7058701CBD36
:1042780037B5456804462146284607F00DF810B3BF
:1042880023680B2B10D00F2B1AD1284606F018FCE8
:1042980002A941F8040D426E1468084606F01EFC97
:1042A8008CB12846A0470EE0284606F009FC02AD6E
:1042B80045F8040D383006F055FE284606F00EFC89
:1042C800204601F05DFA3EBD806B06F0F9BB2DE992
:1042D800F041B0F90030B0F9047004460D46F81A00
:1042E800B4F90210B4F90680471C1046C1EB080661
:1042F80005F030FC06F10108064605F043FCE26AC9
:10430800B4F84030116803F00302012A06D0022AEB
:1043180009D1BF1B97FBF2F1298005E0CB43DF19D8
:10432800BF1B2F8000E02980A28F2988C0EB0808D6
:10433800531802219AB298FBF1F3E18F2A805B1897
:1043480099B2013A013896190B186980AE80EB8052
:10435800BDE8F08170B590F86830C26A13F00106C4
:1043680015BFB0F90230B0F90030B0F90650B0F915
:1043780004501468ED1A436C806C01359942B8BF3B
:1043880019468142A8BF0146A5EB44050EB1411A62
:1043980000E0C91AC21A694391FBF2F3E01870BD34
:1043A8002DE9F04387B00E9C0F9F0094274C01978E
:1043B8000294129C4034039400F088FE07460028BB
:1043C80040D0052006F049FE804600283AD03846FD
:1043D80006F076FBDFF8809011990490002206F031
:1043E80053FF38461A491B4D06F0DEFE049ED9F8E5
:1043F8000030C6F8388073660FCD06F14C040FC440
:1044080095E80300109A84E8030064210220002440
:10441800A6F84000B16486F868207464404606F047
:104428004FFB2246014605900498FFF70BFF05A8AD
:1044380006F054FB04A806F051FBD9F800303846C2
:1044480059688847384607B0BDE8F08379420008C4
:104458009C650108500000204C00002010B586B073
:10446800089C0094099C01940A9C02940B9C039458
:1044780000240494FFF794FF06B010BD2DE9F04125
:104488000D4686B00746002800F09F8006F018FB0E
:10449800436C816C466B00909D42B8BF1D468D42AF
:1044A800A8BF0D46AE42044600F08C8090F86880A4
:1044B80018F0010F1CD0B54207DA2946FFF74AFF6A
:1044C8003146ADF80E00204606E03146FFF742FFC0
:1044D8002946ADF80E002046FFF73CFF002240F6C3
:1044E800FF73ADF80A00ADF80820ADF80C3064E0B1
:1044F800B54207DA2946FFF72DFF3146ADF8080027
:10450800204606E03146FFF725FF2946ADF80800AA
:104518002046FFF71FFF08F00203ADF80C0040F635
:10452800FF720020D9B2ADF80A00ADF80E200029BC
:1045380043D1A06B0491059106F0F0FA042810DC31
:1045480006AC54F8180D846B684606F0C7FA204686
:10455800052105F0CAF90446384606F0B1FA00907C
:1045680084630098FFF7B0FE019038B3009EF06CAA
:1045780005F016F904A90646019A0098FFF7A7FE68
:1045880002A804AA06AC014605F0B0FA9DE80300AB
:104598002A46FFF757FE54F8142D009804A9FFF790
:1045A80096FE02A8014604AA05F0A0FA304605F0D6
:1045B800F7F8204606F092FA00E06563384602A94B
:1045C80000F08CFC684606F089FA06B0BDE8F08178
:1045D800044B196810B54C6C486400F007FB204682
:1045E80010BD00BF8000002037B50D4658B151B14D
:1045F80006F066FA02AC294644F8040D00F062FCA5
:10460800204606F06BFA3EBDFFF7EEBF044B0146AD
:10461800186810B903480268906CFFF7E5BF00BF3F
:10462800247E0120800000200A4A0B480B49002301
:10463800137003600B600A480A4A0B490360136051
:104648000B60436053600948094A0A4903601360D4
:104658000B607047747A01204C7A01205C7E01203F
:10466800387E0120647E0120707E0120247E012096
:10467800507E0120607E012010B5044606F016FA2F
:10468800836A044A044913F4803F08BF1146204650
:10469800884710BDC9540008955B00082DE9F3410F
:1046A800214C23680546986C06F00AFA00902846C3
:1046B80006F006FA014601900098083005F0F8F86F
:1046C800064640B302AE2068019956F8082DD0F886
:1046D8004C80076D154E01F10800083204F010FDFA
:1046E800684606F0FBF902A8236850F8042D3560E7
:1046F800B2F90010B2F90220D9641A6506F0EEF991
:104708002846FFF7B9FF236800203060C3F84C80C3
:104718001F65012006E0684606F0E0F901A806F0EA
:10472800DDF93046BDE8FC8180000020247E0120B0
:1047380030B585B0054606F0C3F9826A0190930743
:1047480004D401A806F0CAF905B030BDC469002C2C
:10475800F7D0204606F0B4F9816A009001F0030210
:10476800032A33D10199083105F0A2F800282DD089
:104778000198083003C804AB03E9030001A806F058
:10478800ADF9684606F0AAF92046FFF787FF70B131
:10479800204606F08BF900902046FFF7C9FF204617
:1047A80006F084F90090284606F080F90190284622
:1047B80006F086F90190204606F082F904A90090D7
:1047C800019C11E90300083484E8030004A850F8A8
:1047D800102D6846146A06F081F9B8E7F0B5064668
:1047E80085B00C461546002E4CD0304606F068F9C8
:1047F800876A0190BA0701463DD502AE25B1304619
:104808002A4604F07DFC02E003C886E8030020463F
:10481800314605F04DF870B317F0010F019B1ED11A
:104828003DB1B3F90220B5F902008242A8BF104693
:1048380001E0B3F90200B4F90210B4F90660884245
:1048480006DDBDF80A2011B28E4214DB531E04E0C7
:10485800BDF80E3018B286420DDDE3800BE0DE694C
:104868004EB13046214602AAFFF7B8FF304606F09F
:104878001DF9066AF4E704A850F80C6D366A06F0CC
:104888002DF9B0E705B0F0BD2DE9FF4105460E460C
:1048980017460024002D38D0284606F011F9D0F824
:1048A8002880019018F0020F014627D002AD27B1E9
:1048B80028463A4604F024FC02E003C885E80300D1
:1048C8003046294604F0F4FFC0B118F0010F05D1B5
:1048D800BDF80C00411C318001240FE0019BDD690B
:1048E80065B12846314602AAFFF7CEFF002818BF57
:1048F8000124284606F0DAF8056AF1E704A850F81A
:104908000C2D156A06F0EAF8C4E7204604B0BDE8A5
:10491800F081F0B5044685B00D461646002C31D01E
:10492800204606F0CDF8876A01900146B80722D5DF
:1049380002AC26B12046324604F0E2FB02E003C98D
:1049480084E803002846214604F0B2FF98B1F9072D
:1049580004D4BDF80800411EA9800CE0019BDC6965
:104968004CB12046294602AAFFF7D3FF204606F09D
:104978009DF8046AF4E704A850F80C2D146A06F0B0
:10498800ADF8CBE705B0F0BD37B5044606F098F8AA
:10499800826A019040F601031340012B05D001A85B
:1049A80006F09CF82046FFF767FE1348016811B32C
:1049B8002046FFF7BDFE204606F078F88569046AB0
:1049C800CDB194B1204606F071F8826A02F0030373
:1049D800032B02D12046FFF761FE2046FFF7A8FE11
:1049E800204606F063F8046AEBE7284606F05EF80E
:1049F800046A8569E4E73EBD707E01207FB5144DE9
:104A08002B680646986C06F05BF800F108030190E5
:104A18002A6893E80300083202AC84E8030092E8AD
:104A2800030083E8030001A806F058F83068FFF790
:104A3800ABFF2868806C06F043F800F1080301908A
:104A480094E8030083E8030001A806F047F87FBD57
:104A580080000020F7B507460D46284606F030F8D6
:104A6800836A02AC13F00206014644F8040D04D12F
:104A7800204606F033F8304619E0384604F072FB59
:104A88000198866920466EB906F028F808490A6830
:104A980095420BD04B68B5EB030CDCF1000050EBF2
:104AA8000C0004E006F01AF83546D6E70120FEBDF2
:104AB800287E01207FB504460D46002947D005F021
:104AC800FFFF0023856101900362284605F0F8FF87
:104AD8000199C56902908E6A2DB9C46101A805F0D3
:104AE800FDFF02A831E0284605F0EAFF06F00806B7
:104AF800039076B9806A02070BD5019A029B15626A
:104B0800DC6101A805F0EAFF02A805F0E7FF03A8A9
:104B18001BE002A805F0E2FF03A805F0DFFF284626
:104B280005F0C4FF0390039A156A0DB914620BE0EF
:104B3800284605F0BBFF002EF4D1836A1B07F1D588
:104B4800039901980C62056201A805F0C7FF7FBDB3
:104B580070B5044605F0AAFF05468069A8B105F0BE
:104B6800A5FFC369A342064605D1184605F09EFF76
:104B7800006AF06170BD43B1184605F097FF036AFB
:104B8800A342F8D1296A016270BD70BD0346084688
:104B9800B3F90220B3F9001004F098BF114B30B5F7
:104BA8001C68626C85B00546BAB11068516802ABE2
:104BB80003C30D48006800B9A06C05F081FF04AC80
:104BC80002A944F80C0DFFF7E1FF204605F086FF27
:104BD80002A8294604F0C6FA02A803F0A7FC05B00B
:104BE80030BD00BF80000020247E01201FB50E4B81
:104BF800186890F854200AB10C4811E0806C05F050
:104C08005FFF019003C802AC84E8030001A805F027
:104C180065FF0749096811B12046FFF71BFF2046C9
:104C2800FFF7BCFF1FBD00BF80000020607A012095
:104C3800247E0120064B10B50446186828B1A0420E
:104C480004D005F033FF4069F8E710BD012010BD1E
:104C5800447E012013B5044600B305F031FF826A93
:104C68000190910717D5406A40B10D4B1968A142D0
:104C780004D002F02BFB019A00205062204607F076
:104C8800AAF904463CB12046FFF7E4FF204605F0A8
:104C98000DFF046AF6E701A805F020FF1CBD00BF60
:104CA8006C7E012038B5084B0546186850B105F0F0
:104CB800FDFE04464069A842F8D105F0F7FE4069B8
:104CC800606138BD38BD00BF447E0120B0F90020C6
:104CD800B0F904309A4208DCB0F90210B0F90620A5
:104CE8009142CCBF0020012070470020704700008F
:104CF800F0B585B006460D46174605F0D7FE846A1E
:104D08000190A00734D52846FFF7E0FF00282FD0F0
:104D180040F601032340012B2AD0304605F0D0FE8F
:104D280002AC024601902946204604F0E9F92046E3
:104D3800FFF7CCFFC8B1019A966A44F220013140CE
:104D480002F1080529B128462946224604F0CEFE7C
:104D58000BE094E8030085E80300064803883E4317
:104D680096625A1C028004F0C5FB01A805F0B6FE45
:104D780005B0F0BD407E01207FB50E4615460446BD
:104D880038B305F09DFE836A01909B07024603D461
:104D980001A805F0A3FE1CE002A8314604F0B0F912
:104DA8000028F5D001A805F099FE204602A92A4658
:104DB800FFF79EFF204607F00EF904464CB1204647
:104DC80002A92A46FFF7D8FF204605F06FFE046ABD
:104DD800F4E77FBD2DE9FF41804617461D460C4686
:104DE800002930D0084605F06BFE866A0190B107AD
:104DF800024625D502A8414604F082F900B340F6E0
:104E080001033340012B07D1019A02A89169126A64
:104E18002B46FFF7DFFF04E0204602A92A46FFF7EA
:104E280067FF0198C4695CB1BC4209D0204602A959
:104E38002A46FFF7A1FF204605F038FE046AF2E78C
:104E480001A805F04BFEBDE8FF812023FFF7C2BF94
:104E580013B5044605F034FE8169019041B1026A38
:104E6800FFF7F3FF2046FFF773FE019800228261E7
:104E780001A805F033FE1CBD70B5054608460C4672
:104E8800164605F013FE836A13F4803F2846214630
:104E980032460CBF20234FF48043BDE87040FFF733
:104EA80099BF2022FFF724BF08B106F0DFBB704787
:104EB8001FB504AB019043F8101D694606F0D6FBF8
:104EC80005B000BD00230B8082884B800388D21A6E
:104ED8008A80C2884088131ACB80704770B50E4606
:104EE80086B00446002833D005F0EAFD856A0190B3
:104EF800AB072AD503C806AB03E90300E80302D5CC
:104F08002046FFF7A7FE5EB13068716802AA03C2A7
:104F1800019802A9FFF73AFE04A802A904F022F9B1
:104F280004A82146FFF796FD78B140F60100284015
:104F3800012806D1019B04A899691A6AFFF785FF21
:104F480003E0204604A9FFF7ACFF01A805F0C6FD61
:104F580006B070BD0021FFF7C1BF000010B50446C0
:104F680005F0A4FD80690028F9D1054B1A68944220
:104F780005D05868844214BF4FF0FF30012010BD9F
:104F8800287E012008B5FFF7E9FF002803DBBDE80C
:104F9800084004F05BBC08BD38B50D4B19680446E1
:104FA8008D6C08B90B4A14688C642046FFF7EAFF39
:104FB80003F0CEFE204605F079FD054BB0F9001050
:104FC8001B68B0F90200D9641865284638BD00BFCF
:104FD80080000020447E012073B50446002861D07B
:104FE800FFF728FE00285DD02046FFF7B7FF0B210A
:104FF80006462046FFF75CFF204606F08FFD204658
:1050080005F05EFD0190406A08B102F05FF926489C
:10501800264B0568264A27480021196052F8253092
:10502800A34208BF42F8251050F82510A14202D12A
:10503800002240F82520204D2D682DB16868A04237
:10504800FAD100236B60F7E72046072106F01EFF20
:10505800019DE869FFF7C0FFEB69002BF9D12046F5
:10506800FFF7F6FE2046FFF71DFE0198836AD90771
:1050780003D5124A1168481E10609A0603D5104BD2
:105088001A88511E198001A805F028FD0D480388CB
:105098005A1E0280204605F04DFD0B4951F82600A6
:1050A800FFF77AFF7CBD00BF487E0120707A01209F
:1050B800387E0120647E01205C7E0120707E012004
:1050C800407E0120207E0120287E01202DE9F74F17
:1050D8000C9E9B464E4B8046894692461D6866BB91
:1050E8004C48018861B34C4A4C4B1468607C53F8B7
:1050F80020104C1C24D019B30E46304605F0E0FCB5
:10510800B0F90020B0F9024001909044A144BAF1EE
:10511800000F05D1B0F904A0C2EB0A0303F1010A9C
:10512800BBF1000F05D1B0F906B0C4EB0B0000F1DC
:10513800010B01A805F0D2FC02E0701CDDD10026AD
:105148000F982C3005F089FF044600285CD00D9F8D
:105158002F43304D29884A1C2A8005F0B1FC02AB48
:10516800054643F8080D2E49A0F80080A0F80290E3
:10517800D044D944AA6A08F1FF3809F1FF39394007
:10518800A0F80480A0F806900E9842EA010328616E
:10519800AB62684605F0A2FC2249086848B105F0F0
:1051A80085FC0546204605F081FC6A6942616C6110
:1051B80000E00C6020463146FFF77CFCB80602D5BB
:1051C8002046FFF7E9FEF90703D517480368591C7D
:1051D80001607A0602D5204606F074FFBB070FD59A
:1051E800204605F06DFC836A02AA43F0020142F8EA
:1051F800080D8162684605F071FC2046FFF7AAFE9B
:1052080020460121FFF754FE2046BDE8FE8F00BF6F
:10521800507E0120207E012080000020287E012071
:105228009F3F3F00447E0120707E012030B55D4BDA
:10523800186890F8540085B0002800F0B1805A4BE7
:10524800596901292CDC03F108011A6903C90132E3
:1052580004AC1A6104E9030022B91A88ADF80820E1
:105268005A8812E098895989B3F90430ADF80A10C0
:10527800421C94B220B28342ADF8084007DA4A488B
:105288000488C389ADF808405A1CADF80A20464C7A
:10529800BDF90A10B4F90630994205DD424B596947
:1052A800481E586100207BE03E4D2868806C05F060
:1052B80007FCBDF90820B4F9001001908A4218D102
:1052C8002868E388A488826CADF80E30ADF80C40ED
:1052D80052B1104605F0EAFB04460022006A02A912
:1052E800FFF77CFAA269F3E70199C86902A9FFF7F9
:1052F80075FA2C4BBDF808201C68ADF80C20A26C80
:1053080002AC62B1104605F0D1FB214605460022E9
:10531800006AFFF7B9FA0028EBD1AA69F0E701980B
:105328002146C069FFF7B0FA0028E2D11E4BBDF94B
:1053380008109A8810B28142ADF80C2008DD94E874
:105348000300083383E8030001A805F0C7FB96E7CC
:10535800144D2C68A26C02AC52B1104605F0A6FBA5
:1053680005460022006A2146FFF7D3FAAA69F2E748
:1053780004AD214655F80C3DD869FFF7CAFA28460E
:1053880005F0ACFB084B1A6944F620618A4285DCBB
:1053980094E80300083383E80300FFF727FC0120A3
:1053A80005B030BD80000020587A012070B53B4B15
:1053B8000546186890F8542086B012B9FFF716FC15
:1053C80068E0374C61694B1C012B636162DC806CBF
:1053D80005F076FB334900900B784FF0FF322261DD
:1053E80023B100F1080102AC03C905E0866A16F092
:1053F800020609D003C802AC84E8030065B102A81C
:10540800294603F0AFFE07E06069421E6846626104
:1054180005F064FB30463EE0204B1868426CCAB188
:10542800009C5168019410681F4C04AB03C32168A9
:1054380031B101A805F052FB206805F041FB01904D
:10544800019804A9FFF7A2FB02A804A903F08AFEA9
:1054580001A800E0684605F041FB1348016802AC6A
:1054680029B12046FFF7F6FA08B90D4B07E00B4AB9
:1054780013682046996CFFF7EDFA094B18B959697A
:105488004A1E5A6107E094E8030083E80300FFF727
:10549800CDFE00E0012006B070BD00BF80000020F6
:1054A800587A01204D7E0120247E012008B504F0A1
:1054B80083F9024B18680022426408BD800000206E
:1054C800F0B589B0044605F0FBFA07690190866AD1
:1054D800083003C802AD85E8030001A805F0FEFA0C
:1054E800002F30D0B2072ED520462E2106F0D6FB4D
:1054F800164B1A78501C1870F3040AD50F2205941D
:1055080004920795FFF7D2FF204604A906F0AEF8EB
:1055180011E02846FFF74AFF68B10F2102AB04915A
:1055280007930594FFF7C2FF204604A906F09EF8EA
:10553800FFF77CFEF0E7054801784B1E03702F212A
:10554800204606F0ABFB09B0F0BD00BF4D7E012040
:105558002DE9F04188B006AE039005F0B1FA034694
:1055680000F10802059092E803009D6A9F69D3F84C
:10557800108044F2200486E803002C4005A805F0BA
:10558800ADFA002C35D0B8F1000F17D0304603998A
:10559800FFF760FA90B10398FFF7FEFC68070FD594
:1055A80027B105F0010585F0010500E0012500950A
:1055B80006A8124903AA002300F042FB002403E0D6
:1055C8000398FFF7E1F90124039805F079FA816A55
:1055D800059021F4804323F02002890448BF42F05B
:1055E8000402826205A805F079FA054801884B1E75
:1055F8000380204608B0BDE8F08100BF054A0008D6
:10560800407E01202DE9F0434B4B18689FB000B154
:105618008047002649490A68E2B1494C2468BCB170
:10562800204605F04DFA856A1EA915F4004F41F889
:10563800740D456907D0084605F050FA2046FFF773
:10564800CBFC2C46EBE708462C4605F047FAE6E784
:105658003A4D2C603B4B186800B180473A490A68BC
:105668002AB93A4C256895F8543043B103E090477D
:105678000028F6D055E004F00BFA002851D1206834
:1056880090F854504DB132490D8835B1314A1568FA
:10569800002D48D02B68984701252C48016891F8BF
:1056A800542012B9002D33D141E0294B1888002825
:1056B800F8D0294F3C680CB9214C246802A804F0A2
:1056C800E3F822490A68D2F83080576B24B90024DD
:1056D8000DE0B9F1000F0AD12046FFF739FF8146E6
:1056E800204605F0E3F94469002CF2D1EFE71A4BA4
:1056F80040461C6004F082F8384604F07DF802A8A1
:1057080004F0CCF8124801880029CBD00126C4E760
:10571800104A106810B14368984708E003F0E8FCA5
:1057280005E0012676E7012003F0E2FCB4E7304605
:105738001FB0BDE8F08300BF347E01204C7A012001
:10574800447E0120307E0120A47E012080000020BC
:10575800407E0120607E0120707A0120024B18688B
:10576800012280F85420704780000020034B1868FD
:10577800002280F8542003F0EBBA00BF800000201C
:1057880010B5044640682368E168172B0FD006DC83
:105798000E2B0ED0142B14D1FEF726FF11E0222B6E
:1057A8000CD0282B0DD1BDE81040FFF7D3BBE0602B
:1057B80010BD2146BDE8104006F062BA6FF0704097
:1057C80000E00020E06010BD03680E2B10B5044611
:1057D80002D00F2B21D108E0C3685868012821D1D5
:1057E8001868BDE8104004F04BB90F4A40681168CA
:1057F800884206D05368984214BF4FF0FF3001200A
:1058080000E00020094A52F820006FF070418842F9
:1058180003D003F0F1FF04F041FD2046BDE810403D
:10582800FFF7AEBF10BD00BF287E0120547E0120C7
:105838001FB52B4B187800284FD12A492A4A2B4CE0
:105848000860106023682A492A4A58640880108032
:105858000446204604F00AFCC8B1274843F6FF7204
:105868004FF0FF334FF0020E029000208DE8084001
:10587800014613460390FFF729FC204B204A43F8C2
:1058880024006FF0704142F82410FFF763FB0134E5
:10589800022CDED11B4806F0BDFB1B4806F0BAFB04
:1058A8001A4806F0B7FB1A4806F0B4FB194806F088
:1058B800B1FB194806F0AEFB10480068FFF76CFB17
:1058C800FFF74CFF064B1548154A01211970026075
:1058D80004B0BDE8104004F0F1BC04B010BD00BF36
:1058E800747A0120447E0120707A01208000002013
:1058F800407E0120207E0120D1570008287E01200B
:10590800547E0120847F0120747F0120647F012060
:105918008C7F01207C7F01206C7F0120507A012040
:10592800314600082DE9F0413A4C3B4D01464422EE
:105938002046FBF717F82369286813F0040F407C0A
:1059480007D102F09EFE2A688046507C02F09CFE39
:1059580006E002F099FE29688046487C02F091FE34
:105968002C4BDA695E691F6A9C69C2EB070E7542A7
:1059780005FB0EF1A71B91FBF7F408F1FF318E1B15
:1059880006FB0EF191FBF7F7D11914195F6ADE6A6D
:105998001A6B9B6A214DC6EB020C7A42C7EB030EC9
:1059A800013802FB0CF393FBFEF2C31B03FB0CF064
:1059B80090FBFEF3B218F3182C606960AA60EB60E4
:1059C8001748184D8C42B9BF046029602C600160EB
:1059D800154C16499A42B4BF22600A600D4AA8BF06
:1059E80023600D4CB8BF0B601369206813F0040FD7
:1059F800407C07D102F045FE2268507CBDE8F041AA
:105A080002F042BE02F040FE2168487CBDE8F04149
:105A180002F037BE8C7A0120800000207C7A0120B9
:105A2800D07A0120D47A0120787A0120D87A01200E
:105A38002DE9F04387B0044605F042F8034606A86E
:105A4800B3F90460B3F90070B3F90650B3F90280F2
:105A580040F8043DD3F8249005F040F8F01B461CAC
:105A6800C8EB05014D1C002E4BDD002D49DDB9F1B9
:105A7800000F48D0484605F023F806A9B0F904609D
:105A880041F8080DC588084605F028F8BE4202D13D
:105A98002DB2454530D048463946424600F084F894
:105AA8002AE0826A42F480338362084605F016F8D9
:105AB800384601F067FC8046484603F0A1FE3846A8
:105AC80005FB06F72C4E2D4D00F0AEF831782C4E24
