:020000040800F2
:100000004C0E0020410E000869460008B10E0008A1
:10001000754600087D46000885460008000000007F
:100020000000000000000000000000008D460008F5
:100030009946000800000000A5460008B1460008E7
:10004000B10E0008B10E0008B10E0008B10E000894
:10005000B10E0008B10E0008B10E0008B10E000884
:10006000B10E0008B10E0008B10E0008B10E000874
:10007000B10E0008B10E0008B10E0008B10E000864
:10008000B10E0008B10E0008B10E0008B10E000854
:10009000B10E0008B10E0008B10E0008B10E000844
:1000A000B10E0008B10E0008B10E0008B10E000834
:1000B000B10E00084D2F0008B10E0008B10E000867
:1000C000B10E0008B10E0008B10E0008B10E000814
:1000D000B10E0008B10E0008B10E0008B10E000804
:1000E000B10E0008B10E0008B10E0008B10E0008F4
:1000F000B10E0008B10E0008B10E0008B10E0008E4
:10010000B10E0008B10E0008B10E0008B10E0008D3
:10011000B10E0008B10E0008B10E0008B10E0008C3
:10012000B10E0008B10E0008B10E0008B10E0008B3
:10013000B10E0008B10E0008B10E0008B10E0008A3
:10014000B10E0008B10E0008B10E0008B10E000893
:10015000B10E0008B10E0008B10E0008B10E000883
:10016000B10E0008B10E0008B10E0008B10E000873
:10017000B10E0008B10E0008B10E0008B10E000863
:08018000B10E0008B10E0008E9
:1001880081F0004102E000BF83F0004330B54FEA40
:1001980041044FEA430594EA050F08BF90EA020FAD
:1001A8001FBF54EA000C55EA020C7FEA645C7FEA40
:1001B800655C00F0E2804FEA5454D4EB5555B8BF63
:1001C8006D420CDD2C4480EA020281EA030382EAD4
:1001D800000083EA010180EA020281EA0303362D66
:1001E80088BF30BD11F0004F4FEA01314FF4801C39
:1001F8004CEA113102D0404261EB410113F0004F4B
:100208004FEA03334CEA133302D0524263EB430301
:1002180094EA050F00F0A780A4F10104D5F1200E9F
:100228000DDB02FA0EFC22FA05F2801841F10001FA
:1002380003FA0EF2801843FA05F359410EE0A5F1CE
:1002480020050EF1200E012A03FA0EFC28BF4CF0FF
:10025800020C43FA05F3C01851EBE37101F00045B5
:1002680007D54FF0000EDCF1000C7EEB00006EEBC2
:100278000101B1F5801F1BD3B1F5001F0CD349084C
:100288005FEA30004FEA3C0C04F101044FEA4452A3
:1002980012F5800F80F09A80BCF1004F08BF5FEA2A
:1002A800500C50F1000041EB045141EA050130BD0A
:1002B8005FEA4C0C404141EB010111F4801FA4F1AD
:1002C8000104E9D191F0000F04BF01460020B1FA02
:1002D80081F308BF2033A3F10B03B3F120020CDA3A
:1002E8000C3208DD02F1140CC2F10C0201FA0CF018
:1002F80021FA02F10CE002F11402D8BFC2F1200C7D
:1003080001FA02F120FA0CFCDCBF41EA0C01904032
:10031800E41AA2BF01EB0451294330BD6FEA04047B
:100328001F3C1CDA0C340EDC04F11404C4F1200266
:1003380020FA04F001FA02F340EA030021FA04F378
:1003480045EA030130BDC4F10C04C4F1200220FACF
:1003580002F001FA04F340EA0300294630BD21FA0D
:1003680004F0294630BD94F0000F83F4801306BFD3
:1003780081F480110134013D4EE77FEA645C18BFC7
:100388007FEA655C29D094EA050F08BF90EA020F5E
:1003980005D054EA000C04BF1946104630BD91EA56
:1003A800030F1EBF0021002030BD5FEA545C05D159
:1003B8004000494128BF41F0004130BD14F5800498
:1003C8003CBF01F5801130BD01F0004545F0FE410C
:1003D80041F470014FF0000030BD7FEA645C1ABF41
:1003E800194610467FEA655C1CBF0B46024650EA78
:1003F800013406BF52EA033591EA030F41F40021A4
:1004080030BD00BF90F0000F04BF0021704730B529
:100418004FF4806404F132044FF000054FF00001FE
:1004280050E700BF90F0000F04BF0021704730B5BF
:100438004FF4806404F1320410F0004548BF404294
:100448004FF000013EE700BF42004FEAE2014FEAE9
:1004580031014FEA02701FBF12F07F4393F07F4FC4
:1004680081F06051704792F0000F14BF93F07F4FF6
:10047800704730B54FF4607401F0004521F0004139
:1004880020E700BF50EA010208BF704730B54FF0BF
:1004980000050AE050EA010208BF704730B511F0C4
:1004A800004502D5404261EB41014FF4806404F1FC
:1004B80032045FEA915C3FF4DCAE4FF003025FEA7E
:1004C800DC0C18BF03325FEADC0C18BF033202EB06
:1004D800DC02C2F1200300FA03FC20FA02F001FA60
:1004E80003FE40EA0E0021FA02F11444C1E600BFFF
:1004F80070B54FF0FF0C4CF4E06C1CEA11541DBFB2
:100508001CEA135594EA0C0F95EA0C0F00F0DEF87C
:100518002C4481EA030621EA4C5123EA4C5350EA61
:10052800013518BF52EA033541F4801143F48013B2
:1005380038D0A0FB02CE4FF00005E1FB02E506F043
:100548000042E0FB03E54FF00006E1FB03569CF098
:10055800000F18BF4EF0010EA4F1FF04B6F5007F9E
:1005680064F5407404D25FEA4E0E6D4146EB060610
:1005780042EAC62141EA55514FEAC52040EA5E5099
:100588004FEACE2EB4F1FD0C88BFBCF5E06F1ED843
:10059800BEF1004F08BF5FEA500E50F1000041EB7A
:1005A800045170BD06F0004646EA010140EA020027
:1005B80081EA0301B4EB5C04C2BFD4EB0C0541EA49
:1005C800045170BD41F480114FF0000E013C00F35E
:1005D800AB8014F1360FDEBF002001F0004170BD82
:1005E800C4F10004203C35DA0C341BDC04F114049B
:1005F800C4F1200500FA05F320FA04F001FA05F227
:1006080040EA020001F0004221F0004110EBD370F3
:1006180021FA04F642EB06015EEA430E08BF20EA1F
:10062800D37070BDC4F10C04C4F1200500FA04F3C2
:1006380020FA05F001FA04F240EA020001F0004154
:1006480010EBD37041F100015EEA430E08BF20EAC7
:10065800D37070BDC4F1200500FA05F24EEA020E0F
:1006680020FA04F301FA05F243EA020321FA04F03E
:1006780001F0004121FA04F220EA020000EBD370F5
:100688005EEA430E08BF20EAD37070BD94F0000FF5
:100698000FD101F00046400041EB010111F4801F29
:1006A80008BF013CF7D041EA060195F0000F18BFDA
:1006B800704703F00046520043EB030313F4801F16
:1006C80008BF013DF7D043EA0603704794EA0C0FD0
:1006D8000CEA135518BF95EA0C0F0CD050EA4106E6
:1006E80018BF52EA4306D1D181EA030101F0004163
:1006F8004FF0000070BD50EA410606BF104619468B
:1007080052EA430619D094EA0C0F02D150EA013696
:1007180013D195EA0C0F05D152EA03361CBF1046D7
:1007280019460AD181EA030101F0004141F0FE4176
:1007380041F470014FF0000070BD41F0FE4141F4FA
:10074800780170BD70B54FF0FF0C4CF4E06C1CEAFA
:1007580011541DBF1CEA135594EA0C0F95EA0C0FAF
:1007680000F0A7F8A4EB050481EA030E52EA03356A
:100778004FEA013100F088804FEA03334FF080558B
:1007880045EA131343EA12634FEA022245EA1115B8
:1007980045EA10654FEA00260EF000419D4208BF69
:1007A800964244F1FD0404F5407402D25B084FEA16
:1007B8003202B61A65EB03055B084FEA32024FF4C2
:1007C80080104FF4002CB6EB020E75EB030E22BF1F
:1007D800B61A754640EA0C005B084FEA3202B6EBDF
:1007E800020E75EB030E22BFB61A754640EA5C008E
:1007F8005B084FEA3202B6EB020E75EB030E22BF1E
:10080800B61A754640EA9C005B084FEA3202B6EB1E
:10081800020E75EB030E22BFB61A754640EADC00DD
:1008280055EA060E18D04FEA051545EA16754FEA3F
:1008380006164FEAC30343EA52734FEAC2025FEA5D
:100848001C1CC0D111F4801F0BD141EA00014FF0EC
:1008580000004FF0004CB6E711F4801F04BF0143BD
:100868000020B4F1FD0C88BFBCF5E06F3FF6AFAED9
:10087800B5EB030C04BFB6EB020C5FEA500C50F169
:10088800000041EB045170BD0EF0004E4EEA1131EC
:1008980014EB5C04C2BFD4EB0C0541EA045170BDF3
:1008A80041F480114FF0000E013C90E645EA060E37
:1008B8008DE60CEA135594EA0C0F08BF95EA0C0F65
:1008C8003FF43BAF94EA0C0F0AD150EA01347FF4AD
:1008D80034AF95EA0C0F7FF425AF104619462CE784
:1008E80095EA0C0F06D152EA03353FF4FDAE1046E7
:1008F800194622E750EA410618BF52EA43067FF438
:10090800C5AE50EA41047FF40DAF52EA43057FF4C7
:10091800EBAE12E74FF0FF3C06E000BF4FF0010CD2
:1009280002E000BF4FF0010C4DF804CD4FEA410C36
:100938007FEA6C5C4FEA430C18BF7FEA6C5C1BD003
:1009480001B050EA410C0CBF52EA430C91EA030F84
:1009580002BF90EA020F0020704710F1000F91EAE1
:10096800030F58BF994208BF90422CBFD8176FEAAF
:10097800E37040F0010070474FEA410C7FEA6C5C7D
:1009880002D150EA013C07D14FEA430C7FEA6C5C84
:10099800D6D152EA033CD3D05DF8040B704700BFB0
:1009A8008446104662468C461946634600E000BFFE
:1009B80001B5FFF7B7FF002848BF10F1000F01BDD0
:1009C8004DF808EDFFF7F4FF0CBF012000205DF89B
:1009D80008FB00BF4DF808EDFFF7EAFF34BF012020
:1009E80000205DF808FB00BF4DF808EDFFF7E0FFB9
:1009F80094BF012000205DF808FB00BF4DF808ED0A
:100A0800FFF7CEFF94BF012000205DF808FB00BF70
:100A18004DF808EDFFF7C4FF34BF012000205DF852
:100A280008FB00BF4FEA410212F5001215D211D59A
:100A38006FF47873B3EB625212D94FEAC12343F0D3
:100A4800004343EA505311F0004F23FA02F018BF55
:100A5800404270474FF00000704750EA013005D11E
:100A680011F0004008BF6FF0004070474FF00000E1
:100A7800704700BF4FEA4102B2F1E04324BFB3F52B
:100A8800001CDCF1FE5C0DD901F0004C4FEAC002FD
:100A98004CEA5070B2F1004F40EB830008BF20F0E1
:100AA8000100704711F0804F21D113F13872BCBF9B
:100AB80001F00040704741F480114FEA5252C2F1F0
:100AC8001802C2F1200C10FA0CF320FA02F018BF39
:100AD80040F001004FEAC1234FEAD32303FA0CFC8C
:100AE80040EA0C0023FA02F34FEA4303CCE77FEA1B
:100AF800625307D150EA01331EBF4FF0FE4040F465
:100B08004000704701F0004040F0FE4040F4000013
:100B1800704700BF844641EA000313F003036DD118
:100B2800403A41D351F8043B40F8043B51F8043BA8
:100B380040F8043B51F8043B40F8043B51F8043BAF
:100B480040F8043B51F8043B40F8043B51F8043B9F
:100B580040F8043B51F8043B40F8043B51F8043B8F
:100B680040F8043B51F8043B40F8043B51F8043B7F
:100B780040F8043B51F8043B40F8043B51F8043B6F
:100B880040F8043B51F8043B40F8043B51F8043B5F
:100B980040F8043B51F8043B40F8043B51F8043B4F
:100BA80040F8043B403ABDD2303211D351F8043BEF
:100BB80040F8043B51F8043B40F8043B51F8043B2F
:100BC80040F8043B51F8043B40F8043B103AEDD29E
:100BD8000C3205D351F8043B40F8043B043AF9D2EF
:100BE800043208D0D2071CBF11F8013B00F8013BC2
:100BF80001D30B8803806046704700BF082A13D3CF
:100C08008B078DD010F003038AD0C3F10403D21AE6
:100C1800DB071CBF11F8013B00F8013B80D331F81A
:100C2800023B20F8023B7BE7043AD9D3013A11F89A
:100C3800013B00F8013BF9D20B7803704B78437005
:100C48008B7883706046704780B500AF40F64C6083
:100C5800C2F200004FF4A8310EF0A4FA4BF208508B
:100C6800C0F602000DF08EFD80BD00BF80B483B0D9
:100C780000AF0346FB804FF6FE73C6F20103FA8805
:100C88001A800C37BD465DF8047B704780B483B08A
:100C980000AF0346FB804FF6FE73C6F20103FA88E5
:100CA8005A800C37BD465DF8047B704780B483B02A
:100CB80000AF7860396007E00023C6F202037A6863
:100CC800911C796012881A803B685A1E3A60002B82
:100CD800F2D10C37BD465DF8047B704780B483B011
:100CE80000AF7860396007E07A68931C7B60002366
:100CF800C6F202031B8813803B685A1E3A60002B19
:100D0800F2D10C37BD465DF8047B704780B5A0B0C2
:100D180000AF07F1680300221A60043300221A604A
:100D2800043300221A60043300221A6004330022BC
:100D38001A6004333A466823104600211A4613F015
:100D48009DFB40F25820C0F6030040F2D831C0F6AF
:100D58000301002200230DF0A9FCF8670020F02110
:100D68004FF4A0720BF00BF80020F0214FF4A072A2
:100D78000AF0EEFF06233B670223BB6707F168030F
:100D8800F86F19460AF083FF40F67543C0F6000372
:100D98003B6240F69543C0F600037B6240F6B543DC
:100DA800C0F60003FB6240F6E543C0F60003FB63B0
:100DB8003B46F86F19464BF20D02C0F600024BF2A3
:100DC8009963C0F600030AF080FF0BF081F8034630
:100DD800002B0CD000204FF4A071F0220AF0CFFFB6
:100DE80000204FF4A071F0220AF0B2FF0BE00020BF
:100DF800F0214FF4A0720AF0C2FF0020F0214FF456
:100E0800A0720AF0A5FF8037BD4680BD80B487B0C8
:100E180000AFF860B9607A60BB68012B01D100238C
:100E280003E04FF0FF337B617B6918461C37BD46F2
:100E38005DF8047B704700BF80B582B000AF41F217
:100E4800FC63C0F603037B6040F20003C2F20003B8
:100E58003B6007E03B681A1D3A607A68111D7960AB
:100E680012681A603A6840F24C63C2F200039A4270
:100E7800F0D30A480A494FF000028842B8BF40F848
:100E8800042BFADBDFF81C00016841F470010160F3
:100E980001F016FD0837BD4680BD00004C0E00204D
:100EA8005C8C012088ED00E080B400AFFEE700BF55
:100EB80080B500AF4FF46D43CEF200034FF46D429E
:100EC800CEF20002D2F8882042F47002C3F88820DB
:100ED8004FF46053C4F202034FF46052C4F20202AA
:100EE800126842F001021A604FF46053C4F2020320
:100EF80000229A604FF46053C4F202034FF4605228
:100F0800C4F20202126822F0847222F480321A605B
:100F18004FF46053C4F2020343F21002C2F20042DB
:100F28005A604FF46053C4F202034FF46052C4F2A3
:100F38000202126822F480221A604FF46053C4F24D
:100F480002030022DA6000F009F84FF46D43CEF294
:100F580000034FF000629A6080BD00BF80B483B088
:100F680000AF00237B6000233B604FF46053C4F262
:100F780002034FF46052C4F20202126842F4803253
:100F88001A604FF46053C4F202031B6803F4003381
:100F98003B607B6801337B603B68002B03D17B6837
:100FA800B3F5A06FEDD14FF46053C4F202031B6890
:100FB80003F40033002B02D001233B6001E000233F
:100FC8003B603B68012B40F082804FF46053C4F2D1
:100FD80002034FF46052C4F20202126C42F08052D3
:100FE8001A644FF4E043C4F200034FF4E042C4F241
:100FF8000002126842F480421A604FF46053C4F24F
:1010080002034FF46052C4F2020292689A604FF4ED
:101018006053C4F202034FF46052C4F202029268B1
:1010280042F400429A604FF46053C4F202034FF452
:101038006052C4F20202926842F4A0529A604FF4DD
:101048006053C4F2020345F20842C0F240725A608B
:101058004FF46053C4F202034FF46052C4F2020228
:10106800126842F080721A6000BF4FF46053C4F2F5
:1010780002031B6803F00073002BF6D04FF4705383
:10108800C4F2020340F205621A604FF46053C4F2DE
:1010980002034FF46052C4F20202926822F0030283
:1010A8009A604FF46053C4F202034FF46052C4F2E2
:1010B8000202926842F002029A6000BF4FF4605345
:1010C800C4F202039B6803F00C03082BF6D10C371B
:1010D800BD465DF8047B704780B485B000AF78608A
:1010E8000023FB730023BB730F237B737B68DB78C0
:1010F800002B40D04FF46D43CEF20003DB68DB4396
:1011080003F4E0631B0AFB73FB7BC3F10403BB73AB
:101118007A7BFB7B42FA03F37B737B685B781A4626
:10112800BB7B02FA03F3FB737B689A787B7B1340E3
:10113800DAB2FB7B1343FB73FB7B1B01FB734FF49E
:101148006143CEF200037A6812781344FA7B83F87D
:1011580000234FF46143CEF200037A6812785209F3
:10116800D2B27968097801F01F01012000FA01F173
:1011780043F8221011E04FF46143CEF200037A687D
:1011880012785209D2B27968097801F01F0101205A
:1011980000FA01F1203243F822101437BD465DF8F9
:1011A800047B704780B500AF4FF48070012100F0D8
:1011B800C5FE4FF48070002100F0C0FE80BD00BF66
:1011C80080B485B000AF786039600023FB600023ED
:1011D800FB727B685B68FB60FB6823F0407323F459
:1011E8008073FB603B681B791A023B681B681343DA
:1011F800FA681343FB607B68FA685A607B689B68EF
:10120800FB60FA684FF2FD73CCF2FF031340FB60FA
:101218003B681A693B68DB681A433B689B681A435A
:101228003B685B795B001343FA681343FB607B6898
:10123800FA689A607B68DB6AFB60FB6823F47003DA
:10124800FB603B681B7D013BDAB2FB7A1343FB7200
:10125800FB7A1B05FA681343FB607B68FA68DA625D
:101268001437BD465DF8047B704700BF80B485B075
:1012780000AF78600023FB604FF40C53C4F2010305
:101288005B68FB60FA6843F2E003CFF6FC73134037
:10129800FB607B681A687B685B681A437B689B689D
:1012A8001A437B68DB681343FA681343FB604FF407
:1012B8000C53C4F20103FA685A601437BD465DF84E
:1012C800047B704780B483B000AF78600B46FB7036
:1012D800FB78002B06D07B689B6843F001027B6893
:1012E8009A6005E07B689B6823F001027B689A603E
:1012F8000C37BD465DF8047B704700BF80B485B0ED
:1013080000AF7860F970BA707B700023FB6000232F
:10131800BB60FB78092B23D97B68DB68FB60FB7813
:10132800A3F10A0213465B001344072202FA03F3EF
:10133800BB60BB68DB43FA681340FB607978FB78D5
:10134800A3F10A0213465B00134401FA03F3BB60DE
:10135800FA68BB681343FB607B68FA68DA601EE0D2
:101368007B681B69FB60FA7813465B00134407220D
:1013780002FA03F3BB60BB68DB43FA681340FB6007
:101388007978FA7813465B00134401FA03F3BB60DB
:10139800FA68BB681343FB607B68FA681A61BB781C
:1013A800062B21D87B685B6BFB60BB785A1E134603
:1013B8009B0013441F2202FA03F3BB60BB68DB43A4
:1013C800FA681340FB60F978BB785A1E13469B00F5
:1013D800134401FA03F3BB60FA68BB681343FB606C
:1013E8007B68FA685A6347E0BB780C2B21D87B6886
:1013F8001B6BFB60BB78DA1F13469B0013441F224C
:1014080002FA03F3BB60BB68DB43FA681340FB6076
:10141800F978BB78DA1F13469B00134401FA03F3EB
:10142800BB60FA68BB681343FB607B68FA681A63A1
:1014380022E07B68DB6AFB60BB78A3F10D021346F0
:101448009B0013441F2202FA03F3BB60BB68DB4313
:10145800FA681340FB60F978BB78A3F10D021346D4
:101468009B00134401FA03F3BB60FA68BB6813439B
:10147800FB607B68FA68DA621437BD465DF8047B66
:10148800704700BF80B483B000AF78607B689B680A
:1014980043F080427B689A600C37BD465DF8047B58
:1014A800704700BF80B483B000AF78600B46FB7014
:1014B800FB78002B06D07B689B6843F002027B68B0
:1014C8009A6005E07B689B6823F002027B689A605B
:1014D8000C37BD465DF8047B704700BF80B483B00D
:1014E80000AF78600B46FB70FB78002B06D07B685A
:1014F8009B6843F480727B689A6005E07B689B6810
:1015080023F480727B689A600C37BD465DF8047BD3
:10151800704700BF80B483B000AF78600B46FB70A3
:10152800FB78002B06D07B689B6843F400727B68CD
:101538009A6005E07B689B6823F400727B689A6078
:101548000C37BD465DF8047B704700BF80B483B09C
:1015580000AF78607B681B6823F001027B681A6023
:101568007B6800221A607B6800225A607B68002230
:101578009A607B680022DA607B6800221A617B68C7
:1015880021225A617A6846F21003C4F202039A4291
:1015980006D14FF4C043C4F202033D229A60E6E04C
:1015A8007A6846F22803C4F202039A4207D14FF43C
:1015B800C043C4F202034FF474629A60D7E07A68B9
:1015C80046F24003C4F202039A4207D14FF4C043E3
:1015D800C4F202034FF474129A60C8E07A6846F2C3
:1015E8005803C4F202039A4207D14FF4C043C4F22D
:1015F80002034FF074629A60B9E07A6846F27003A9
:10160800C4F202039A4208D14FF4C043C4F2020361
:101618003D22C2F20002DA60A9E07A6846F2880345
:10162800C4F202039A4209D14FF4C043C4F2020340
:101638004FF47462C2F20002DA6098E07A6846F207
:10164800A003C4F202039A4208D14FF4C043C4F283
:1016580002030022C2F23D02DA6088E07A6846F2AC
:10166800B803C4F202039A4207D14FF4C043C4F24C
:1016780002034FF03D52DA6079E07A6846F210438F
:10168800C4F202039A4206D14FF4C843C4F20203DB
:101698003D229A606BE07A6846F22843C4F202035E
:1016A8009A4207D14FF4C843C4F202034FF474625C
:1016B8009A605CE07A6846F24043C4F202039A42B8
:1016C80007D14FF4C843C4F202034FF474129A606E
:1016D8004DE07A6846F25843C4F202039A4207D1B1
:1016E8004FF4C843C4F202034FF074629A603EE0BC
:1016F8007A6846F27043C4F202039A4208D14FF462
:10170800C843C4F202033D22C2F20002DA602EE0AE
:101718007A6846F28843C4F202039A4209D14FF428
:10172800C843C4F202034FF47462C2F20002DA60E2
:101738001DE07A6846F2A043C4F202039A4208D137
:101748004FF4C843C4F202030022C2F23D02DA6039
:101758000DE07A6846F2B843C4F202039A4206D111
:101768004FF4C843C4F202034FF03D52DA600C371D
:10177800BD465DF8047B704780B485B000AF7860E3
:1017880039600023FB607B681B68FB60FA6848F2DD
:101798003F03CFF21C031340FB603B681A683B68A9
:1017A800DB681A433B685B691A433B689B691A43C9
:1017B8003B68DB691A433B681B6A1A433B685B6AF0
:1017C8001A433B689B6A1A433B685B6B1A433B6846
:1017D8009B6B1343FA681343FB607B68FA681A60D3
:1017E8007B685B69FB60FB6823F00703FB603B6871
:1017F800DA6A3B681B6B1343FA681343FB607B6828
:10180800FA685A613B681A697B685A603B685A688B
:101818007B689A603B689A687B68DA601437BD46D3
:101828005DF8047B704700BF80B483B000AF786078
:101838000B46FB70FB78002B06D07B681B6843F0D7
:1018480001027B681A6005E07B681B6823F00102CF
:101858007B681A600C37BD465DF8047B704700BF93
:1018680080B483B000AF78604FF020437A68126884
:10187800796848687968896808437968C968084355
:101888007968096908437968496908437968896901
:1018980008437968C96908437968096A0843796817
:1018A800496A08437968896A08437968C96A0843B4
:1018B8007968096B014343F822107B689B68082B01
:1018C8000DD14FF020437A6812684FF020417868B4
:1018D800006851F8201041F0400143F822104FF001
:1018E80020437A68126801327968496B0868796818
:1018F800496B4968090108437968496B8968090295
:1019080008437968496BC968090408437968496BD1
:101918000969090508437968496B49690906084353
:101928007968496B8969014343F822107B68DB6A4F
:10193800B3F5804F23D14FF48273CAF200037A685B
:1019480012687968896B08687968896B4968090140
:1019580008437968896B8968090208437968896B43
:101968000969090508437968896B496909060843C3
:101978007968896B8969014343F8221009E04FF4BB
:101988008273CAF200037A6812686FF0704143F8F4
:1019980022100C37BD465DF8047B704780B483B0D5
:1019A80000AF78600B46FB70FB78002B0CD04FF033
:1019B80020434FF02042796852F8212042F001017B
:1019C8007A6843F822100EE04FF020424FF020438F
:1019D800796853F821104FF6FE73C0F20F030B40DD
:1019E800796842F821300C37BD465DF8047B7047B2
:1019F80080B487B000AF7860396000237B61002332
:101A08003B610023FB6000237B6176E07B69012258
:101A180002FA03F33B613B681A683B691340FB60B9
:101A2800FA683B699A4265D17B681A687B695B00F2
:101A3800032101FA03F3DB431A407B681A607B68D1
:101A48001A683B681B7919467B695B0001FA03F346
:101A58001A437B681A603B681B79012B03D03B68EB
:101A68001B79022B2ED17B689A687B695B00032166
:101A780001FA03F3DB431A407B689A607B689A6833
:101A88003B685B7919467B695B0001FA03F31A43EB
:101A98007B689A607B685A687B699BB2012101FA6E
:101AA80003F3DB431A407B685A607B685A683B68DB
:101AB8009B7919467B699BB201FA03F39BB21A43DF
:101AC8007B685A607B68DA687B699BB25B0003219C
:101AD80001FA03F3DB431A407B68DA607B68DA6853
:101AE8003B68DB7919467B695B0001FA03F31A430B
:101AF8007B68DA607B6901337B617B690F2B85D951
:101B08001C37BD465DF8047B704700BF80B485B0C4
:101B180000AF78600B467B800023FB737B681A69F3
:101B28007B881340002B02D00123FB7301E00023C4
:101B3800FB73FB7B18461437BD465DF8047B704782
:101B480080B483B000AF78600B467B807B687A886E
:101B58001A830C37BD465DF8047B704780B483B0A8
:101B680000AF78600B467B807B687A885A830C3795
:101B7800BD465DF8047B704780B485B000AF7860DF
:101B880013460A467A807B700023FB600023BB6003
:101B98007A787B8803F007039B0002FA03F3FB6063
:101BA8007B88DB089BB21A467B88DB089BB2194608
:101BB8007B68083153F821107B8803F007039B00EA
:101BC8000F2000FA03F3DB4319407B68083243F81F
:101BD80022107B88DB089BB21A467B68083253F8D0
:101BE8002220FB681343BB607B88DB089BB21A4644
:101BF8007B680832B96843F822101437BD465DF88F
:101C0800047B7047000000002DE9B04388B000AFA6
:101C1800F86087ED020A79600023FB610023BB614D
:101C28004FF000037B619FED307AD7ED027AC7EE63
:101C3800277AC7ED057A0023FB613EE07868FEF756
:101C4800F1FB80468946FB6907EE903AB8EEE77AE1
:101C5800D7ED057A67EE277A17EE900AFEF7F4FBC0
:101C680002460B46104619461DA3D3E90023FEF78A
:101C78003FFC02460B4643EC172BB0EE470AF0EE4A
:101C8800670A11F025F953EC102B40464946FEF738
:101C98002FFC02460B46144623F0004520462946F1
:101CA800FEF7C0FE0346BB61FB699B00FA6813445C
:101CB800BA691A60FB690133FB61FB6907EE903A68
:101CC800B8EEE77AD7ED027AB4EEE77AF1EE10FAD9
:101CD800B4D918462037BD46BDE8B083AFF30080BD
:101CE80012E7FAA146DF913F0000B443AFF300804A
:101CF80080B586B000AF78600220012100F0CEF8F0
:101D08000023BB810023FB817B683B610023BB82EE
:101D18000023BB7507F10C034FF48060C4F2000088
:101D2800194600F0CFF94FF48060C4F20000012199
:101D380000F05EFA18461837BD4680BD80B588B0F9
:101D480000AF78607023BB810123FB8102233B83B2
:101D58007B687B6107F10C034FF48060C4F20000DC
:101D6800194600F065FA4FF48060C4F200000821BB
:101D780000F04EFC2037BD4680BD00BF80B588B05E
:101D880000AF78607023BB810123FB8102233B8372
:101D98007B687B6107F10C034FF48060C4F200009C
:101DA800194600F047FB4FF48060C4F20000082198
:101DB80000F068FC2037BD4680BD00BF80B588B004
:101DC80000AF78607023BB810123FB8102233B8332
:101DD8007B687B6107F10C034FF48060C4F200005C
:101DE800194600F0ADFB4FF48060C4F200000821F2
:101DF80000F064FC2037BD4680BD00BF80B483B0CE
:101E080000AF78600B46FB70FB78002B0CD04FF4CA
:101E18006053C4F202034FF46052C4F20202116B21
:101E28007A680A431A630CE04FF46053C4F2020361
:101E38004FF46052C4F20202116B7A68D2430A402E
:101E48001A630C37BD465DF8047B704780B483B0D5
:101E580000AF78600B46FB70FB78002B0CD04FF47A
:101E68006053C4F202034FF46052C4F20202916B51
:101E78007A680A439A630CE04FF46053C4F2020391
:101E88004FF46052C4F20202916B7A68D2430A405E
:101E98009A630C37BD465DF8047B704780B483B005
:101EA80000AF78600B46FB70FB78002B0CD04FF42A
:101EB8006053C4F202034FF46052C4F20202116C80
:101EC8007A680A431A640CE04FF46053C4F20203C0
:101ED8004FF46052C4F20202116C7A68D2430A408D
:101EE8001A640C37BD465DF8047B704780B483B034
:101EF80000AF78600B46FB70FB78002B0CD04FF4DA
:101F08006053C4F202034FF46052C4F20202516CEF
:101F18007A680A435A640CE04FF46053C4F202032F
:101F28004FF46052C4F20202516C7A68D2430A40FC
:101F38005A640C37BD465DF8047B704780B483B0A3
:101F480000AF78600B46FB70FB78002B0CD04FF489
:101F58006053C4F202034FF46052C4F20202516AA1
:101F68007A680A435A620CE04FF46053C4F20203E1
:101F78004FF46052C4F20202516A7A68D2430A40AE
:101F88005A620C37BD465DF8047B704780B485B053
:101F980000AF786039600023FB817B681B88FB8178
:101FA800FB8903F44153FB813B681A883B685B88D3
:101FB80013439AB23B689B8813439AB23B68DB8809
:101FC80013439AB23B681B8913439AB23B685B89F7
:101FD80013439AB23B689B8913439AB23B68DB89E7
:101FE80013439AB2FB891343FB817B68FA891A80F1
:101FF8007B689B8B9BB223F400639AB27B689A83BD
:102008003B681A8A7B681A821437BD465DF8047BE0
:10201800704700BF80B483B000AF78600B46FB7098
:10202800FB78002B08D07B681B889BB243F04003E9
:102038009AB27B681A8007E07B681B889BB223F002
:1020480040039AB27B681A800C37BD465DF8047B62
:10205800704700BF80B483B000AF78607B689B890D
:102068009BB218460C37BD465DF8047B704700BF2D
:1020780080B483B000AF78600B467B807B687A8839
:102088009A810C37BD465DF8047B704780B485B0F3
:1020980000AF78600B467B800023FB737B681B894D
:1020A8009AB27B8813409BB2002B02D00123FB73AA
:1020B80001E00023FB73FB7B18461437BD465DF82F
:1020C800047B704780B485B000AF78603960002326
:1020D800FB817B681B88FB817A680023C4F20103BB
:1020E8009A421FD07A684FF48063C4F201039A427F
:1020F80018D07B68B3F1804F14D07A684FF48063AE
:10210800C4F200039A420DD07A684FF40063C4F217
:1021180000039A4206D07A684FF44063C4F2000381
:102128009A4208D1FB8923F07003FB813B685A88E7
:10213800FB891343FB817A684FF48053C4F2000390
:102148009A420FD07A684FF4A053C4F200039A421F
:1021580008D0FB8923F44073FB813B681A89FB890B
:102168001343FB817B68FA891A803B685A687B684D
:10217800DA623B681A887B681A857A680023C4F299
:1021880001039A4206D07A684FF48063C4F20103CF
:102198009A4204D13B689B7A1A467B681A867B6808
:1021A80001229A821437BD465DF8047B704700BF50
:1021B80080B483B000AF78600B46FB70FB78002BCF
:1021C80008D07B681B889BB243F080039AB27B6877
:1021D8001A8007E07B681B889BB223F080039AB2C1
:1021E8007B681A800C37BD465DF8047B704700BFDA
:1021F80080B483B000AF78600B46FB70FB78002B8F
:1022080008D07B681B889BB243F001039AB27B68B5
:102218001A8007E07B681B889BB223F001039AB2FF
:102228007B681A800C37BD465DF8047B704700BF99
:1022380080B485B000AF7860396000237B810023CB
:10224800FB810023BB817B681B8C9BB223F00103BD
:102258009AB27B681A847B681B8CFB817B689B889D
:10226800BB817B681B8B7B817B8923F070037B811F
:102278007B8923F003037B813B681A887B8913439E
:102288007B81FB8923F00203FB813B689A89FB89E8
:102298001343FB813B685A88FB891343FB817A68A7
:1022A8000023C4F201039A4206D07A684FF480638F
:1022B800C4F201039A4223D1FB8923F00803FB816E
:1022C8003B68DA89FB891343FB81FB8923F004030C
:1022D800FB813B689A88FB891343FB81BB8923F404
:1022E8008073BB81BB8923F40073BB813B681A8A66
:1022F800BB891343BB813B685A8ABB891343BB81A3
:102308007B68BA899A807B687A891A833B689A685D
:102318007B685A637B68FA891A841437BD465DF86E
:10232800047B704780B485B000AF786039600023C3
:102338007B810023FB810023BB817B681B8C9BB2C4
:1023480023F010039AB27B681A847B681B8CFB818C
:102358007B689B88BB817B681B8B7B817B8923F493
:10236800E0437B817B8923F440737B813B681B8836
:102378001B029AB27B8913437B81FB8923F02003DC
:10238800FB813B689B891B019AB2FB891343FB8144
:102398003B685B881B019AB2FB891343FB817A680F
:1023A8000023C4F201039A4206D07A684FF480638E
:1023B800C4F201039A422BD1FB8923F08003FB81ED
:1023C8003B68DB891B019AB2FB891343FB81FB89BC
:1023D80023F04003FB813B689B881B019AB2FB8971
:1023E8001343FB81BB8923F48063BB81BB8923F43E
:1023F8000063BB813B681B8A9B009AB2BB8913436D
:10240800BB813B685B8A9B009AB2BB891343BB8143
:102418007B68BA899A807B687A891A833B689A684C
:102428007B689A637B68FA891A841437BD465DF81D
:10243800047B704780B485B000AF786039600023B2
:102448007B810023FB810023BB817B681B8C9BB2B3
:1024580023F480739AB27B681A847B681B8CFB8197
:102468007B689B88BB817B689B8B7B817B8923F006
:1024780070037B817B8923F003037B813B681A8887
:102488007B8913437B81FB8923F40073FB813B68C1
:102498009B891B029AB2FB891343FB813B685B88CB
:1024A8001B029AB2FB891343FB817A680023C4F2AA
:1024B80001039A4206D07A684FF48063C4F201039C
:1024C8009A422BD1FB8923F40063FB813B68DB89AB
:1024D8001B029AB2FB891343FB81FB8923F48063B7
:1024E800FB813B689B881B029AB2FB891343FB81E3
:1024F800BB8923F48053BB81BB8923F40053BB8180
:102508003B681B8A1B019AB2BB891343BB813B689A
:102518005B8A1B019AB2BB891343BB817B68BA896A
:102528009A807B687A899A833B689A687B68DA63C1
:102538007B68FA891A841437BD465DF8047B7047B6
:1025480080B485B000AF786039600023BB81002378
:102558007B810023FB817B681B8C9BB223F4805317
:102568009AB27B681A847B681B8C7B817B689B880A
:10257800FB817B689B8BBB81BB8923F4E043BB81D8
:10258800BB8923F44073BB813B681B881B029AB24A
:10259800BB891343BB817B8923F400537B813B6850
:1025A8009B891B039AB27B8913437B813B685B88B9
:1025B8001B039AB27B8913437B817A680023C4F298
:1025C80001039A4206D07A684FF48063C4F201038B
:1025D8009A420AD1FB8923F48043FB813B681B8A1A
:1025E8009B019AB2FB891343FB817B68FA899A8025
:1025F8007B68BA899A833B689A687B681A647B68A7
:102608007A891A841437BD465DF8047B704700BF89
:1026180080B485B000AF78600B467B800023FB81D7
:102628007B681B8BFB81FB8923F00803FB81FA89FC
:102638007B881343FB817B68FA891A831437BD466C
:102648005DF8047B704700BF80B485B000AF786048
:102658000B467B800023FB817B681B8BFB81FB89FE
:1026680023F40063FB817B881B029AB2FB89134326
:10267800FB817B68FA891A831437BD465DF8047BB1
:10268800704700BF80B485B000AF78600B467B8090
:102698000023FB817B689B8BFB81FB8923F008036C
:1026A800FB81FA897B881343FB817B68FA899A83CB
:1026B8001437BD465DF8047B704700BF80B485B011
:1026C80000AF78600B467B800023FB817B689B8B87
:1026D800FB81FB8923F40063FB817B881B029AB290
:1026E800FB891343FB817B68FA899A831437BD46BB
:1026F8005DF8047B704700BF80B483B000AF78609A
:1027080013460A467A807B707B78002B08D07B685A
:102718009B899AB27B8813439AB27B689A8109E0B5
:102728007B689B899AB27B88DB439BB213409AB241
:102738007B689A810C37BD465DF8047B704700BF03
:1027480080B485B000AF78600B467B800023FB73B4
:102758000023BB8100237B817B681B8A9AB27B881C
:102768001340BB817B689B899AB27B8813407B812D
:10277800BB89002B05D07B89002B02D00123FB737A
:1027880001E00023FB73FB7B18461437BD465DF858
:10279800047B704780B483B000AF78600B467B80C1
:1027A8007B88DB439AB27B681A820C37BD465DF89A
:1027B800047B704780B483B000AF786045F64C6303
:1027C800C2F201037A681A6000BF45F64C63C2F290
:1027D80001031B68002BF8D10C37BD465DF8047B5C
:1027E800704700BF80B400AF45F64C63C2F20103E6
:1027F8001B68002B0AD045F64C63C2F201031B6824
:102808005A1E45F64C63C2F201031A60BD465DF8D4
:10281800047B704780B483B000AF03463960FB7116
:1028280097F90730002B0EDA4FF46D43CEF2000310
:10283800FA7902F00F02111F3A68D2B21201D2B22D
:102848000B441A760CE04FF46143CEF2000397F97B
:1028580007103A68D2B21201D2B20B4483F80023AF
:102868000C37BD465DF8047B704700BF80B582B069
:1028780000AF78607B68B3F1807F01D301231AE051
:102888004EF21003CEF200037A6822F07F42013A3A
:102898005A604FF0FF300F21FFF7BCFF4EF21003D4
:1028A800CEF2000300229A604EF21003CEF200032B
:1028B80007221A60002318460837BD4680BD00BFAE
:1028C80080B590B006AF00237B6243F2AF633B62F2
:1028D800FEF7EEFA40F20003C2F200031A6844F66B
:1028E800D353C1F26203A3FB02139B091846FFF7F7
:1028F800BDFF0346002B00D0FEE701F0BDFC45F606
:102908007460C2F201009FEDDC0A43F2AF61FFF789
:102918007BF9386AFFF7ECF940F6AC50FFF70EFA8E
:1029280001F0EAFA46F21040C4F20200FEF70EFE89
:1029380048F63C23C2F201034FF080621A6048F661
:102948003C23C2F2010342F24C22C4F201025A6053
:1029580048F6F812C2F2010248F63C23C2F201031B
:102968009A6048F63C23C2F201030022DA6048F676
:102978003C23C2F2010302221A6148F63C23C2F248
:10298800010300225A6148F63C23C2F201034FF4C6
:1029980080629A6148F63C23C2F201034FF4006258
:1029A800DA6148F63C23C2F201034FF400521A627E
:1029B80048F63C23C2F201034FF480725A6248F68B
:1029C8003C23C2F201034FF400329A6248F63C23DA
:1029D800C2F201030022DA6248F63C23C2F2010384
:1029E80001221A6348F63C23C2F2010300225A630B
:1029F80048F63C23C2F2010300229A6346F21040D3
:102A0800C4F2020048F63C21C2F20101FEF7B4FE0E
:102A180046F21040C4F202000121FEF705FF46F21B
:102A28004040C4F20200FEF791FD48F63C23C2F292
:102A380001034FF000721A6048F63C23C2F201030A
:102A480041F288321A6148F63C23C2F2010342F28D
:102A58004C12C4F201025A6046F2D022C2F20102BC
:102A680048F63C23C2F201039A6046F24040C4F2A1
:102A7800020048F63C21C2F20101FEF77DFE46F253
:102A88004040C4F202000121FEF7CEFE01F0C2FA76
:102A980001F070FB01F0D4FC4FF480500121FFF7E6
:102AA800ADF90BF0E5FE01F08FFB01F0FDFE01F042
:102AB8004FFD4FF44060C4F202004FF48051FFF71D
:102AC8004DF84BF2F420C0F602000AF085FD002014
:102AD8000AF0AEFD0BF08EFE4AF2DC50C0F60200A2
:102AE8000BF08CFC0223009343F25D13C0F6000345
:102AF8000193002302930020BE214FF4A0723223D9
:102B080006F000F8F8614FF400000AF091FD022386
:102B1800009343F25D13C0F6000301930023029370
:102B2800002010214FF4A072AE2305F0EBFF0246FF
:102B380048F62C23C2F201031A6048F62C23C2F28D
:102B480001031B68184605F093FE0BF053FEF86965
:102B580005F08EFEFB690093022301930023029384
:102B68004FF4B8730393002000215022322304F05D
:102B78006BFCB861B8694BF2F421C0F6020104F0AD
:102B88009BFCB8694AF2EC51C0F6020104F06CFCF7
:102B9800B869002104F0A1FCFB69009302230193AA
:102BA8000023029340F27113039350200021502216
:102BB800322304F049FC786178694BF2F421C0F6BD
:102BC800020104F079FC78694AF2F451C0F6020176
:102BD80004F04AFC7869002104F07FFCFB6900934B
:102BE80002230193002302934FF4B9730393A020A7
:102BF80000215022322304F027FC386138694BF257
:102C0800F421C0F6020104F057FC38694AF2FC517D
:102C1800C0F6020104F028FC3869002104F05DFCCC
:102C2800FB690093022301930023029340F273137C
:102C38000393F02000215022322304F005FCF860B1
:102C4800F8684BF2F421C0F6020104F035FCF8688C
:102C58004AF20461C0F6020104F006FCF86800219B
:102C680004F03BFC46F64970C0F6000004F0E4FAB4
:102C780048F62C2302E000BF0000C842C2F201035C
:102C88001B68009310230193002302934FF4BA7337
:102C98000393B4206A217422322304F0D5FB024640
:102CA80046F2B823C2F201031A6046F2B823C2F210
:102CB80001031B6818464DF67461C0F6020104F062
:102CC800FBFB46F2B823C2F201031B6818464AF21E
:102CD8000C61C0F6020104F0C7FB46F2B823C2F249
:102CE80001031B681846002104F0F7FB48F62C2363
:102CF800C2F201031B68009310230193002302937F
:102D080040F2751303931420782178221E2304F0CF
:102D18009BFB024646F2C823C2F201031A6046F240
:102D2800C823C2F201031B6818464BF2F421C0F60F
:102D3800020104F0C1FB46F2C823C2F201031B687A
:102D480018464AF21461C0F6020104F08DFB46F2FF
:102D5800C823C2F201031B681846002104F0BDFB1A
:102D680048F62C23C2F201031B6800930023019349
:102D7800012302934FF404730393D72028213222AE
:102D8800782302F0E3FD024648F62823C2F2010345
:102D98001A6048F62823C2F201031B68184600216E
:102DA8004FF4004202F0B1FC48F62823C2F20103B6
:102DB8001B6818460121002202F0A7FC48F62C23C4
:102DC800C2F201031B6800930023019300230293BE
:102DD80040F6010303934AF22463C0F60203049306
:102DE80043F25D13C0F6000305930A200A217822F6
:102DF8007D2303F08BF8024648F61C23C2F2010338
:102E08001A6048F61C23C2F201031B68184605F035
:102E180006F8B860B86843F2C121C0F6000104F0B2
:102E2800F7FDB86804F08CFF0346BA6800920222E6
:102E380001924FF42072029201220392C822049256
:102E4800002000211A46322302F0B0FB024648F661
:102E5800FC13C2F201031A6048F6FC13C2F2010324
:102E68001B6818464DF2D031C0F6020102F0B0FBE3
:102E780048F6FC13C2F201031A6840F21803C2F2C2
:102E880000031B681046194602F02EFC48F61C2366
:102E9800C2F201031B68184602F012FE0346C3F192
:102EA8001403BA68009202220192002202924FF49F
:102EB800BB72039218463C215022282304F0C4FA1E
:102EC800786078684BF2F421C0F6020104F0F4FA55
:102ED80078684AF23C61C0F6020104F0C5FA7868E5
:102EE800002104F0FAFA0BF085FC48F62C23C2F214
:102EF80001031B68184605F0BBFCF86904F0B6FC32
:102F080000F00CFA4FF40850C4F201000121FEF75A
:102F1800C9FA4FF40850C4F20100FEF7B3FA4FF4AF
:102F28000450C4F201000121FEF7BCFA4FF404502A
:102F3800C4F20100FEF7A6FA00F058FD32200AF0AC
:102F48002CFBF9E780B500AF4FF48060C4F20000B5
:102F58000121FFF7F5FB0346002B48D04FF48060B2
:102F6800C4F200000121FFF715FC45F66C63C2F2BC
:102F780001031B68322B0DDC45F66C63C2F20103BA
:102F88001A6845F67463C2F2010353F822301846F2
:102F9800FEF714FF45F66C63C2F201031B68312B80
:102FA8000DDD45F66C63C2F201031A6845F67463D9
:102FB800C2F2010353F822301846FEF7DFFE45F649
:102FC8006C63C2F201031B685A1C45F66C63C2F2BB
:102FD80001031A6045F66C63C2F201031B68652B96
:102FE80005D145F66C63C2F2010300221A6080BD68
:102FF800B0B596B002AF786007F1080302220092DC
:10300800184646F2D021C2F2010141F2883200236B
:1030180000F096FE46F20803C2F201031B685A1C30
:1030280046F20803C2F201031A6046F20803C2F22C
:1030380001031B68B3F57A7F0CDD3A6A46F20C038C
:10304800C2F201031A6046F20803C2F20103012228
:103058001A600FE097ED087A46F20C03C2F20103FA
:10306800D3ED007A77EE277A46F20C03C2F2010319
:10307800C3ED007A49F69A13C4F2F113FB6248F2E1
:103088001F53C3F6AB733B634DF63B73C4F2212366
:103098007B637B69BB6343F23333C4F23303FB6363
:1030A8004FF6D503C4F2A7333B6446F20C03C2F2D1
:1030B800010393ED007A46F20803C2F201031B688C
:1030C80006EE903AF8EEE67AC7EE277AC7ED117A5F
:1030D80048F6F813C2F201031B889BB2184600F0A9
:1030E800E3FDF0EE407AC7ED127A48F6F813C2F223
:1030F80001035B889BB2184600F0D6FDF0EE407ADB
:10310800C7ED137A7B681C4607F12C050FCD0FC459
:103118000FCD0FC42B68236078685037BD46B0BD0B
:1031280090B486B000AF78601823FB604FF07C53F2
:103138003B610123BB6048237B617B681C4607F128
:1031480008030FCB84E80F0078681837BD4690BC99
:10315800704700BF80B584B000AF78607B681B689B
:10316800262B40F09F807B689B68184604F03FFE42
:10317800F8607B68DB68BB60FB68A3F5B873052B58
:1031880000F2958001A252F823F000BFAD3100088B
:10319800DF31000811320008433200087532000898
:1031A8009B320008BB68012B13D0022B00D078E0BB
:1031B80045F66463C2F201031B68002B08D045F68C
:1031C8006463C2F2010300221A6000F0A7F801E06C
:1031D80000E000BF65E0BB68012B13D0022B00D0D4
:1031E8005FE045F66463C2F201031B68012B08D057
:1031F80045F66463C2F2010301221A6000F066FA20
:1032080001E000E000BF4CE0BB68012B13D0022BAB
:1032180000D046E045F66463C2F201031B68022B46
:1032280008D045F66463C2F2010302221A6000F076
:1032380013F901E000E000BF33E0BB68012B13D0B5
:10324800022B00D02DE045F66463C2F201031B682F
:10325800032B08D045F66463C2F2010303221A6007
:1032680000F0E0FA01E000E000BF1AE0BB68022BC2
:1032780000D016E040F21C03C2F200031B7883F072
:103288000103DAB240F21C03C2F200031A7000BF55
:1032980007E0BB68022B00D002E000F047FB00BF4C
:1032A80000BF04E0786805F0EBFE00BF00E000BF57
:1032B8001037BD4680BD00BF80B584B000AF7860D0
:1032C8007B681B680F2B02D0262B09D01FE04CF21D
:1032D800C000C0F2C0000AF0ABF90BF08BFA19E09D
:1032E8007B689B68184604F082FDF8607B68DB68A1
:1032F800BB60FB68B3F5BB7F00D00BE0BB68022B5B
:1033080000D002E000F044FB00BF00BF02E0786894
:1033180005F0B6FE1037BD4680BD00BF80B500AFD2
:1033280048F62C23C2F201031B68184605F0A0FAE0
:1033380046F2B823C2F201031B68184604F0B4F938
:1033480046F2B823C2F201031B68184604F096FD42
:1033580046F2C823C2F201031B68184604F0B1FC08
:1033680046F2C823C2F201031B68184604F089FD1F
:1033780048F62823C2F201031B68184604F0A1FC92
:1033880048F61C23C2F201031B68184604F099FC96
:103398000BF030FA00200AF04DF914201821102201
:1033A8000BF00EFB1420422110220BF009FB142015
:1033B8006C2110220BF004FB1420962110220BF034
:1033C800FFFA40F21B10282120220BF0F9FAC02046
:1033D800282120220BF0F4FA00F008FB4FF47F407C
:1033E800C0F2FF000AF026F94BF2F420C0F6020002
:1033F8000AF0F2F84AF24060C0F602002C211022CE
:103408000AF0F4FF4AF2F450C0F602002C213A22E6
:103418000AF0ECFF4AF24C60C0F602002C2164224C
:103428000AF0E4FF4AF25860C0F602002C218E220E
:103438000AF0DCFF4AF26860C0F602004FF48A71B5
:103448004C220AF0D3FF4AF26C60C0F60200B521A4
:103458004C220AF0CBFF80BD80B58AB000AF48F699
:103468002C23C2F201031B68184605F001FA46F244
:10347800B823C2F201031B68184604F022FC46F286
:10348800B823C2F201031B68184604F0FAFC46F29E
:10349800C823C2F201031B68184604F012FC46F266
:1034A800C823C2F201031B68184604F0EAFC48F678
:1034B8002823C2F201031B68184604F002FC48F6F0
:1034C8001C23C2F201031B68184604F0FAFB0BF038
:1034D80091F93B1D1846FFF78BFD4FF40040C0F2F1
:1034E80080000AF0A7F89F200421A02271230AF087
:1034F800AFFA032076214FF49E7277230AF0A8FAD8
:103508004FF47F40C0F2FF000AF094F84BF2F42029
:10351800C0F602000AF060F83C2010210AF054FAC4
:103528004AF27060C0F602000AF068FFD8200AF07C
:1035380043FA4AF27860C0F602000AF05FFF4AF2E6
:103548008460C0F602000AF059FFD7ED017AB0EEA8
:10355800670A062009F0E4FD4AF29060C0F602000E
:103568000AF04CFFA2200AF027FA4AF28460C0F65B
:1035780002000AF043FFD7ED047AB0EE670A06208E
:1035880009F0CEFD4AF29460C0F602000AF036FF58
:103598004AF29860C0F602000AF030FFD7ED027ACE
:1035A800B0EE670A062009F0BBFD4AF2A460C0F637
:1035B80002000AF023FFA2200AF0FEF94AF29860FE
:1035C800C0F602000AF01AFFD7ED057AB0EE670AD6
:1035D800062009F0A5FD4AF2A860C0F602000AF02C
:1035E8000DFF4AF2AC60C0F602000AF007FFD7ED03
:1035F800037AB0EE670A062009F092FD4AF2B46039
:10360800C0F602000AF0FAFEA2200AF0D5F94AF242
:10361800AC60C0F602000AF0F1FED7ED067AB0EE13
:10362800670A062009F07CFD4AF2B860C0F602007D
:103638000AF0E4FEA2200AF0BFF94AF2BC60C0F624
:1036480002000AF0DBFED7ED077AB0EE670A062023
:1036580009F066FD4AF2C860C0F602000AF0CEFE24
:103668004AF2D060C0F602000AF0C8FED7ED087A28
:10367800B0EE670A062009F053FD20200AF08AFF01
:10368800B0200AF087FF4AF2E060C0F602000AF0B4
:10369800B5FE4AF2E460C0F602000AF0AFFED7EDCC
:1036A800097AB0EE670A062009F03AFD20200AF0F0
:1036B80071FFB0200AF06EFF43200AF06BFF4FF451
:1036C800000009F0B5FF2837BD4680BD80B584B03D
:1036D80000AF48F62C23C2F201031B68184605F018
:1036E800C7F846F2B823C2F201031B68184604F073
:1036F800E8FA46F2B823C2F201031B68184604F040
:10370800C0FB46F2C823C2F201031B68184603F047
:10371800CBFF46F2C823C2F201031B68184604F027
:10372800ADFB48F62823C2F201031B68184603F0D4
:10373800BBFF0BF05FF83B461846FFF7F1FC48F675
:103748002823C2F201031A68FB681046194602F0E2
:103758000DF94FF47F40C0F2FF0009F06BFF4BF208
:10376800F420C0F6020009F037FFE42010210AF027
:103778002BF9FB681846022109F01DFD25200AF0E7
:1037880009FF3B68002B08D04AF2F460C0F602003B
:10379800002110220AF02AFE07E04AF20870C0F65B
:1037A8000200002110220AF021FE4AF28460C0F6CD
:1037B80002000AF023FE7B681846022109F0FBFC90
:1037C8004AF29460C0F602000AF018FE4AF29860C5
:1037D800C0F602000AF012FED7ED027AB0EE670AD0
:1037E800032009F09DFC4AF21C70C0F602000AF0A2
:1037F80005FE4AF22470C0F602000AF0FFFD40F20E
:103808001803C2F200031B681846022109F0D3FC12
:103818004AF23070C0F602000AF0F0FD1037BD46DB
:1038280080BD00BF80B500AF48F62C23C2F201036B
:103838001B68184605F01CF846F2B823C2F20103CB
:103848001B68184604F03DFA46F2B823C2F2010399
:103858001B68184604F015FB46F2C823C2F20103A0
:103868001B68184604F02DFA46F2C823C2F2010379
:103878001B68184604F005FB48F62823C2F201032A
:103888001B68184604F01DFA48F61C23C2F201030F
:103898001B68184604F015FA0AF0ACFF4AF2C85043
:1038A800C0F602000C210C220AF0AEFC4FF47F4057
:1038B800C0F2FF0009F0BEFE4DF2D030C0F60200A3
:1038C80009F08AFEAE200C210AF07EF84AF2347024
:1038D800C0F602000AF092FDAE200AF06DF84AF236
:1038E8004070C0F602000AF089FD4FF26C30C0F655
:1038F800020009F071FEAE207B210AF065F84AF259
:103908004870C0F602000AF079FDAE2095210AF051
:103918005BF84AF26070C0F602000AF06FFD0AF028
:1039280063F8034618460AF069FD80BD80B500AF0C
:1039380046F2C823C2F201031B68184604F0A1FA34
:1039480048F6FC13C2F201031A6840F21803C2F2E7
:1039580000031B681046194601F0C6FE48F61C23F2
:10396800C2F201031B68184604F082FF48F61C23C4
:10397800C2F201031B68184603F096FE48F61C23A2
:10398800C2F201031B68184603F070FF80BD00BF38
:1039980080B500AF48F6FC13C2F201031B68184655
:1039A80001F00BFD024640F21803C2F200031A6050
:1039B80048F62C23C2F201031B68184604F058FF8E
:1039C80048F61C23C2F201031B68184604F079F973
:1039D80046F2C823C2F201031B68184604F071F9C5
:1039E8000AF008FFFFF772FE80BD00BF80B58EB0F9
:1039F80000AF07F114031846FFF7FAFA3B1D184603
:103A0800FFF78EFB45F66463C2F201031B68032BC4
:103A180000F2468101A252F823F000BF353A0008AF
:103A2800533B0008E13B0008A93C000840F21C0396
:103A3800C2F200031B7803F01003002B04D04FF4EC
:103A48007F4009F0F7FD02E0FF2009F0F3FD1420A4
:103A580018210C220AF0B4FF40F21C03C2F2000342
:103A68001B7803F00803002B04D04FF47F4009F0C3
:103A7800E1FD02E0FF2009F0DDFD142042210C22C7
:103A88000AF09EFF40F21C03C2F200031B7803F009
:103A98000403002B04D04FF47F4009F0CBFD02E073
:103AA800FF2009F0C7FD14206C210C220AF088FFC2
:103AB80040F21C03C2F200031B7803F00203002B40
:103AC80004D04FF47F4009F0B5FD05E044F2400012
:103AD800C0F2400009F0AEFD142096210C220AF035
:103AE8006FFF40F21C03C2F200031B7803F00103CE
:103AF800002B15D04FF47F4009F09CFD40F21B10BD
:103B080028211B220AF05CFF44F24000C0F240006A
:103B180009F090FDC02028211B220AF051FFC0E0C7
:103B280044F24000C0F2400009F084FD40F21B104E
:103B380028211B220AF044FFFF2009F07BFDC0204A
:103B480028211B220AF03CFFABE048F62C23C2F2E6
:103B580001031B68184604F08BFEE420102109F0CD
:103B680033FF3B691846022109F025FB3820102154
:103B780009F02AFF7B68002B06D04AF26C70C0F669
:103B880002000AF03BFC05E04AF27870C0F6020039
:103B98000AF034FC4820202109F016FFBB681846BB
:103BA800022109F008FB4820302109F00DFFD7ED6C
:103BB800037AB0EE670A032009F0B2FA50205021C8
:103BC80009F002FF40F21803C2F200031B6818460E
:103BD800022109F0F0FA64E04820302109F0F4FEEF
:103BE800D7ED057AB0EE670A062009F099FA482061
:103BF800402109F0E9FED7ED067AB0EE670A062003
:103C080009F08EFA3820502109F0DEFED7ED077A48
:103C1800B0EE670A062009F083FAEA20302109F09D
:103C2800D3FED7ED087AB0EE670A062009F078FAD5
:103C3800EA20402109F0C8FED7ED097AB0EE670AFC
:103C4800062009F06DFADA20502109F0BDFED7ED03
:103C58000A7AB0EE670A062009F062FAFA206021B3
:103C680009F0B2FED7ED0B7AB0EE670A062009F02C
:103C780057FA7020802109F0A7FED7ED0C7AB0EE34
:103C8800670A062009F04CFA7020902109F09CFE82
:103C9800D7ED0D7AB0EE670A062009F041FA00E088
:103CA80000BF3837BD4680BD80B584B000AF7860AE
:103CB8004FF00003FB607868FCF7B4FB02460B4644
:103CC800104619461BA3D3E90023FCF711FC024652
:103CD8000B4610461946FCF7CDFE0346FB6097EDF0
:103CE800037ADFED137A77EE677A17EE900AFCF71E
:103CF800ABFB02460B46104619460BA3D3E900233B
:103D0800FCF720FD02460B4610461946FCF7B2FEAA
:103D18000346FB60FB6807EE903AB0EE670A10377F
:103D2800BD4680BDAFF30080CDCCCCCCCCCCFC3F25
:103D3800000000428ABB3088FEBFB23FAFF300806C
:103D4800B0B596B000AFF860B9607A603B60002308
:103D58007B6500233B650023FB644FF000033B6455
:103D68004FF00003BB644FF00003FB634FF0000308
:103D7800BB63002387F847303B687B6554E07B6D65
:103D88005B00BA6813441B889BB21846FCF74AFBD1
:103D980002460B461046194653A3D3E90023FCF705
:103DA800A7FB02460B4610461946FCF763FE03467E
:103DB8003B6497ED107AD7ED107A67EE277A97ED86
:103DC800127A77EE277AC7ED127A97ED107AF0EE2D
:103DD800007AB4EEE77AF1EE10FA15DD97F847307D
:103DE800002B1DD1012387F847303B6D002B02D1F2
:103DF8007B6D3B6514E03B6D002B11D0FB6C002BF9
:103E08000ED17B6DFB640BE097ED107AF7EE007A2C
:103E1800B4EEE77AF1EE10FA02D5002387F84730BE
:103E28007A6DBB6E13447B657A6D7B689A42A6DB1C
:103E38007A68BB6E92FBF3F307EE103AF8EEC77A96
:103E480097ED127AC7EE277A17EE900AFCF7FCFA7C
:103E580002460B4643EC102B0FF09AF853EC102B4C
:103E680010461946FCF706FE0346FB63FB6B3B62F4
:103E78003B6D002B02D0FB6C002B03D14FF00003ED
:103E8800FB6221E0FA6C3B6DD21ABB6E92FBF3F336
:103E98001846FCF7C7FA02460B461046194614A303
:103EA800D3E90023FCF724FB02460B4610461946CB
:103EB800FCF7E0FD0346BB63B7EE007AD7ED0E7A58
:103EC800C7EE277AC7ED0B7AFB681C4607F1140585
:103ED8000FCD0FC40FCD0FC42B682360F868583777
:103EE800BD46B0BDAFF300809CB2F61EFEFF473F53
:103EF8005D18E945ED7EF53E80B500AF4FF4806072
:103F08000121FDF7F3FF4FF400700121FDF7EEFFEB
:103F180008200121FDF772FF10200121FDF76EFF37
:103F280004200121FDF76AFF01200121FDF766FF4A
:103F38004FF480000121FDF761FF4FF40060C4F2E7
:103F4800020008210222FDF717FE4FF40060C4F2B8
:103F5800020009210222FDF70FFE4FF40060C4F2AF
:103F6800020007210222FDF707FE48F62023C2F2CD
:103F7800010306221A6048F62023C2F20103032235
:103F88001A7148F62023C2F201030022DA714FF4B5
:103F98000060C4F2020048F62021C2F20101FDF7D8
:103FA80027FD48F62023C2F201030C221A600020E4
:103FB800C4F2020048F62021C2F20101FDF718FD03
:103FC80048F62023C2F201034FF460721A6048F6E3
:103FD8002023C2F2010302221A7148F62023C2F2FA
:103FE800010300229A7148F62023C2F2010303223A
:103FF8005A7148F62023C2F201030022DA714FF405
:104008000060C4F2020048F62021C2F20101FDF767
:10401800EFFC80BD80B500AFFDF7C4F848F6782303
:10402800C2F2010300221A6048F67823C2F20103A3
:1040380000225A6048F67823C2F2010300229A60EF
:1040480048F67823C2F201030022DA6048F67820A5
:10405800C2F20100FDF70AF948F6E013C2F20103C3
:1040680000221A6048F6E013C2F2010301221A7115
:1040780048F6E013C2F2010301225A7148F6E01330
:10408800C2F2010300229A6048F6E013C2F201036B
:104098000022DA6048F6E013C2F2010300221A6136
:1040A80048F6E013C2F2010302221A754FF40850D1
:1040B800C4F2010048F6E011C2F20101FDF780F8F0
:1040C8004FF40450C4F2010048F6E011C2F20101B5
:1040D800FDF776F84FF40850C4F201000B210122D5
:1040E8000023FDF70BF94FF40850C4F201000C212E
:1040F80002220023FDF702F94FF40450C4F2010034
:10410800022101220723FDF7F9F84FF40450C4F205
:104118000100032102220723FDF7F0F84FF40850AD
:10412800C4F201000121FDF7F5F94FF40450C4F27F
:1041380001000121FDF7EEF94FF40850C4F2010027
:104148000121FDF7CBF94FF40850C4F20100012119
:10415800FDF7B8F84FF40450C4F201000121FDF74F
:10416800BDF94FF40450C4F201000121FDF7AAF88B
:1041780080BD00BF80B500AF4FF48060C4F200007E
:1041880001210122FEF7B8FA48F60423C2F201031E
:104198001D221A7048F60423C2F2010300225A7045
:1041A80048F60423C2F2010301229A7048F6042358
:1041B800C2F201030122DA7048F60420C2F20100BB
:1041C800FCF78AFF80BD00BF80B500AF4FF40060E8
:1041D800C4F202004FF40051FDF7C0FC1E20FEF7A8
:1041E800E9FA4FF40060C4F202004FF40051FDF701
:1041F800A7FC0A20FEF7DEFA0720212100F024F8A8
:104208000020012100F020F80720232100F01CF8ED
:104218001020002100F018F81E20FEF7CBFA072026
:10422800332100F011F8112046F2180100F00CF8C3
:1042380002204FF4C06100F007F8012042F63F3138
:1042480000F002F880BD00BF80B483B000AF024622
:104258000B46FA80BB804FF6FE73C6F20103FA885C
:104268001A804FF6FE73C6F20103BA885A800C37DB
:10427800BD465DF8047B704780B582B000AF00236F
:104288003B6000237B601C200121FDF7B7FD4FF444
:1042980000533B6001233B7102237B713B464FF483
:1042A8000060C4F202001946FDF7A2FB4CF6B37396
:1042B8003B6002233B7102237B710023BB71002307
:1042C800FB713B464FF44060C4F202001946FDF70B
:1042D8008FFB4FF44060C4F2020000210C22FDF76E
:1042E8004BFC4FF44060C4F2020001210C22FDF7A0
:1042F80043FC4FF44060C4F2020004210C22FDF795
:104308003BFC4FF44060C4F2020005210C22FDF78B
:1043180033FC4FF44060C4F2020007210C22FDF781
:104328002BFC4FF44060C4F2020008210C22FDF778
:1043380023FC4FF44060C4F2020009210C22FDF76F
:104348001BFC4FF44060C4F202000A210C22FDF766
:1043580013FC4FF44060C4F202000B210C22FDF75D
:104368000BFC4FF44060C4F202000E210C22FDF752
:1043780003FC4FF44060C4F202000F210C22FDF749
:10438800FBFB4FF680733B6002233B7102237B717A
:104398000023BB710023FB713B464FF48050C4F2ED
:1043A80002001946FDF724FB4FF48050C4F20200C6
:1043B80007210C22FDF7E0FB4FF48050C4F2020005
:1043C80008210C22FDF7D8FB4FF48050C4F20200FC
:1043D80009210C22FDF7D0FB4FF48050C4F20200F3
:1043E8000A210C22FDF7C8FB4FF48050C4F20200EA
:1043F8000B210C22FDF7C0FB4FF48050C4F20200E1
:104408000C210C22FDF7B8FB4FF48050C4F20200D7
:104418000D210C22FDF7B0FB4FF48050C4F20200CE
:104428000E210C22FDF7A8FB4FF48050C4F20200C5
:104438000F210C22FDF7A0FB0837BD4680BD00BF49
:1044480080B596B000AF07F13C0300221A60043330
:1044580000221A60043300221A60043300221A6012
:10446800043300221A60043300221A600433002245
:104478001A6004333A463C23104600211A460FF0CE
:10448800FDFF01200121FDF7E1FC0023FB630A2366
:104498007B640023FB6400237B6500233B600023CF
:1044A8007B600023BB601023FB6000233B6100237B
:1044B800BB610023FB6100233B624FF480537B62A6
:1044C8000023BB620023FB6200233B6307F13C032C
:1044D8007B6307F13C03BB6300237B613B461846C3
:1044E800FDF7BEF900200121FDF758FA5837BD46FF
:1044F80080BD00BF80B400AF48F68823C2F2010334
:104508001B681846BD465DF8047B704780B485B0CB
:1045180000AF786048F68823C2F201031A687B6806
:104528001344FB6000BF48F68823C2F201031B68EE
:10453800FA68D31A002BF6DC1437BD465DF8047B05
:10454800704700BF80B400AFBD465DF8047B70477C
:1045580080B58AB000AF04200121FDF79FFC082038
:104568000121FDF74BFC4FF400533B62022387F80F
:104578002430032387F82530002387F826300123C9
:1045880087F8273007F120034FF44060C4F2020097
:104598001946FDF72DFA4FF44060C4F202000D21D0
:1045A8000222FDF7E9FA4FF480533B62012387F8B2
:1045B8002430032387F82530002387F82630012389
:1045C80087F8273007F120034FF44060C4F2020057
:1045D8001946FDF70DFA46F21003C2F20103012253
:1045E8001A8040F65E03BB6146F21003C2F2010373
:1045F8001B88BB820023BB830023FB8207F11403C3
:104608004FF40060C4F200001946FDF75BFD70230B
:104618003B8001237B804FF47A73BB600023BB810E
:104628003B464FF40060C4F200001946FDF77AFEDD
:104638004FF40060C4F200000821FEF705F84FF4BB
:104648000060C4F200000121FDF7B2FD4FF40060E4
:10465800C4F200000121FDF7CBFD2837BD4680BD1F
:1046680080B400AFBD465DF8047B704780B400AFEE
:10467800FEE700BF80B400AFFEE700BF80B400AF24
:10468800FEE700BF80B400AFBD465DF8047B70470D
:1046980080B400AFBD465DF8047B704780B400AFBE
:1046A800BD465DF8047B704780B500AF48F68823A7
:1046B800C2F201031B685A1C48F68823C2F20103A0
:1046C8001A60FEF78FF840F22003C2F200031B784D
:1046D800013BDAB240F22003C2F200031A7040F242
:1046E8002003C2F200031B78002B07D140F22003FD
:1046F800C2F2000364221A7000F0D0FA80BD00BF35
:1047080080B584B000AF0346FB710023FB7300BF84
:104718004FF46050C4F200000221FDF7B7FC0346D5
:10472800002BF5D0FB799BB24FF46050C4F2000027
:104738001946FDF79DFC00BF4FF46050C4F200001D
:104748000121FDF7A3FC0346002BF5D04FF4605080
:10475800C4F20000FDF77EFC0346FB73FB7B1846A2
:104768001037BD4680BD00BF80B485B000AF78600B
:104778000023FB6002E0FB680133FB60FA687B689A
:104788009A42F8D31437BD465DF8047B704700BFE2
:1047980080B582B000AF0023FB804FF48060C4F284
:1047A80002004FF40061FDF7D9F93220FFF7DCFF72
:1047B800D020FFF7A5FF3220FFF7D6FF0020FFF734
:1047C8009FFF0346FB80FB881B02FB800020FFF74E
:1047D80097FF03461A46FB881344FB804FF480601A
:1047E800C4F202004FF40061FDF7AAF9FB881B0927
:1047F800FB80FB88C3F30B03FB80FB881846083754
:10480800BD4680BD80B582B000AF0023FB804FF469
:104818008060C4F202004FF40061FDF79FF9322076
:10482800FFF7A2FF9020FFF76BFF3220FFF79CFFF6
:104838000020FFF765FF0346FB80FB881B02FB8017
:104848000020FFF75DFF03461A46FB881344FB80F0
:104858004FF48060C4F202004FF40061FDF770F974
:10486800FB881B09FB80FB88C3F30B03FB80FB88D9
:1048780018460837BD4680BD80B500AFFFF7C2FFB8
:1048880003461A4648F6A023C2F201039A80FFF7AE
:104898007FFF03461A4648F6A023C2F20103DA80D6
:1048A8000123184680BD00BF80B582B000AF4FF429
:1048B80080400121FDF71AFB4FF480400121FDF7EC
:1048C800EDFA02200121FDF799FA4FF48060C4F255
:1048D80002000D210522FDF74FF94FF48060C4F264
:1048E80002000E210522FDF747F94FF48060C4F25B
:1048F80002000F210522FDF73FF902233B71022335
:104908007B710023BB710223FB714FF400533B60A2
:104918003B464FF48060C4F202001946FDF768F880
:104928004FF400433B603B464FF48060C4F2020002
:104938001946FDF75DF84FF480433B603B464FF462
:104948008060C4F202001946FDF752F84FF4006384
:104958003B6001233B710023BB7102237B71012360
:10496800FB713B464FF48060C4F202001946FDF724
:104978003FF84FF48060C4F202004FF40061FDF785
:10498800DFF848F68C23C2F2010300221A8048F6A9
:104998008C23C2F201034FF482725A8048F68C23AA
:1049A800C2F2010300229A8048F68C23C2F2010366
:1049B8000222DA8048F68C23C2F2010301221A810E
:1049C80048F68C23C2F201034FF400725A8148F66C
:1049D8008C23C2F2010330229A8148F68C23C2F25A
:1049E80001030022DA8148F68C23C2F20103072270
:1049F8001A824FF46050C4F2000048F68C21C2F2CB
:104A08000101FDF7C3FA4FF46050C4F20000012120
:104A1800FDF700FB4FF480400121FDF767FA002302
:104A28003B7102237B710023FB714FF480533B6081
:104A38003B464FF48060C4F202001946FCF7D8FFE9
:104A48000837BD4680BD00BF80B58CB000AF0023DD
:104A580087F82D3000237B854FF48060C4F2020074
:104A68004FF48051FDF752F80346002B40F01181B6
:104A7800FFF702FF25E0FFF7FFFE0346002B20D0DB
:104A880097F82D1048F6A023C2F201039A884B002C
:104A980007F13000034423F8302C97F82D1048F61E
:104AA800A023C2F20103DA8801F10A035B0007F1CF
:104AB80030010B4423F8302C97F82D30013387F858
:104AC8002D3097F82D30092BD5D997F82D300A2B92
:104AD80040F0D980002387F82E30002387F82F3044
:104AE8003EE097F82F305B0007F13002134433F8AB
:104AF800302C97F82F3001335B0007F13000034466
:104B080033F8303C9A4226D997F82F3001335B00AE
:104B180007F130010B4433F8303C7B8597F82F3090
:104B2800591C97F82F305B0007F13002134433F813
:104B3800302C4B0007F13000034423F8302C97F851
:104B48002F305B0007F130010B447A8D23F8302CAD
:104B5800012387F82E3097F82F30013387F82F304C
:104B680097F82F2097F82D30013B9A42B9DB97F838
:104B78002E30002BAED1002387F82E30002387F883
:104B88002F3045E097F82F300A335B0007F13002E9
:104B9800134433F8302C97F82F3001330A335B0075
:104BA80007F13000034433F8303C9A422BD997F888
:104BB8002F3001330A335B0007F130010B4433F81F
:104BC800303C7B8597F82F30591C97F82F300A33E3
:104BD8005B0007F13002134433F8302C01F10A036B
:104BE8005B0007F13000034423F8302C97F82F308E
:104BF8000A335B0007F130010B447A8D23F8302C1F
:104C0800012387F82E3097F82F30013387F82F309B
:104C180097F82F2097F82D30013B9A42B2DB97F88E
:104C28002E30002BA7D1FB881A463B891A447B8972
:104C38001A4445F25653C5F2555383FB0201D31764
:104C4800CB1A9AB248F6A023C2F201039A807B8B52
:104C58001A46BB8B1A44FB8B1A4445F25653C5F2CD
:104C6800555383FB0201D317CB1A9AB248F6A023F7
:104C7800C2F20103DA8046F21203C2F201030122F2
:104C88001A70012306E046F21203C2F20103002261
:104C98001A70002318463037BD4680BD80B500AF76
:104CA800FFF7D2FE48F6A023C2F201039B88A3F1C6
:104CB80067024AF6AB23C2F6AA2383FB0201D31785
:104CC800CA1A46F26823C2F201031A6048F6A02302
:104CD800C2F20103DB881846FBF7A4FB02460B4629
:104CE800104619464FF000024FF00003C4F22103AA
:104CF800FBF728FD02460B4610461946FBF792FEC5
:104D0800024646F26823C2F201035A604FF48060FB
:104D1800C4F202004FF48051FCF7F8FE0346002B62
:104D280006D046F26823C2F2010300221A7205E097
:104D380046F26823C2F2010301221A7246F2682081
:104D4800C2F2010008F04CFD80BD00BF031E02DA6C
:104D58005B42022000E00120092B04DD0A22013019
:104D680093FBF2F3F8E770472DE9F04188B08046ED
:104D78000D460AF0F1F9034608A893F9A27040F825
:104D88001C3D2FB1002183F8A2100AF0F3F92FE09F
:104D9800D3F89840B3F888600AF0ECF96B1C27D078
:104DA800204602F07FFFB8B10E2002A904900791B7
:104DB8000122204604A9002D14BF13251125CDF882
:104DC800188005940295039203F0DAFC204604A9A2
:104DD800039703F0D5FC0BE020461DB902F068F8F4
:104DE800811902E002F064F8811B204602F06EF897
:104DF80008B0BDE8F0812DE9F04389B00F46804640
:104E08000AF0AAF9034608A8DC6AD3F8989040F893
:104E18001C3D93F88C602568B3F88A400AF0AAF91B
:104E2800484602A902F0C8FF06A9404602F0C4FF9E
:104E3800384608F0FFFBBDF80C20BDF80810A8B2F2
:104E480083185A1A93B2012EADF81000ADF8143039
:104E58000AD0022E0FD10134A2B211189C18ADF855
:104E68001010ADF8144006E0021901341B19ADF812
:104E78001020ADF81430BDF80A10BDF81A30ADF89E
:104E880012004A1ED11A8AB211B200B28142ADF89C
:104E9800162002DB04A808F0CFFDBDF80E30BDF8DF
:104EA8001A20591C881ABDF81E108A1A551B83B27D
:104EB800A8B2ADF8123005B21BB29D42ADF816008B
:104EC80002DB04A808F0B8FD09B0BDE8F0832DE9BD
:104ED800F3470C4690460AF03FF9034602A8DA6AFF
:104EE800DD8893F88CA0B3F90490B3F9001040F86A
:104EF800043DB3F88A705B881668EA1AC1EB0909A1
:104F080095B20AF037F9BAF1010F04D026D3BAF1F5
:104F1800020F39D10CE0B6B2F7192680A7806808CD
:104F2800B8F1000F29D0421CAE1B6280E6802BE04E
:104F3800B0B22D1A6080E580B8F1000F0AD11FFACF
:104F480089FCC7EB0C073F1AC0EB0C092780A4F8B3
:104F5800049019E0C1192080A18015E01FFA89FE8C
:104F6800B2B2C7EB0E039F1AC2EB0E092780A4F852
:104F780004906808B8F1000F02D16680E08003E071
:104F8800411CAD1A6180E580BDE8FC8713B50A466F
:104F980004466946FFF79BFF2046694603F00AFC72
:104FA8001CBD37B505460C460AF0D6F8826A019052
:104FB80092071DD590F8A310E4B2012303FA04F375
:104FC80021EA030280F8A320D0F89C0040B102F047
:104FD800DEFA01980023FF21C0F89C3080F8A01069
:104FE8002846022102F0A3FD28462146FFF7CEFFFE
:104FF80001A80AF0BFF83EBDF7B500260C461546D5
:1050080069463246074600960196FFF760FFBDF9EC
:1050180000309C420BDBBDF90400844207DCBDF97B
:1050280002108D4203DBBDF9062095420DDD0122F9
:1050380038466946FFF74BFFBDF90060B44203DB11
:10504800BDF904309C4202DDFF2670B2FEBDBDF9F9
:1050580002008542F8DBBDF906108D42F4DC01261A
:10506800F3E7F0B5446885B0054620460AF074F8C1
:1050780004ABD0F8986043F80C0DB0F88870184667
:105088000AF078F828680D281ED1E968CB68002B4B
:1050980000F091811A7A002A00F08D81304602F0E2
:1050A80001FE002840F08781204602F0FBFD002821
:1050B80000F08181204602F019FE002840F07B8133
:1050C800204602F0D3FB76E11E280CD1304602F0D0
:1050D800E9FD40B1EA683046012112B10AF0FEFC50
:1050E80001E00AF010FD204629460AF029FD0028B3
:1050F80000F061812968112900F0988007DC0E29E9
:105108002AD00F2968D00B2940F0528110E02829B5
:105118004ED003DC262940F04B814EE040F21313B9
:10512800994200F0E480B1F5107F40F04181FAE047
:1051380020460AF011F80190D0F89C0040B102F026
:1051480026FA019B0020FF22C3F89C0083F8A020C8
:1051580001A80AF00FF82BE1EC686268002A00F059
:105168002781304602F09EFD88B9304601F0A0FE46
:1051780002462068112805D0132840F019813046CE
:10518800D11B01E03046D11901F0A0FE10E1AB6857
:10519800B34208D121680939012900F209816868F8
:1051A80002F064FB04E13046294603F0E9FAFFE027
:1051B8003046E96802F040FEFDE0E968052909D0BB
:1051C800C0F2F9800839012900F2F580204603F081
:1051D8002DFBF0E02046E8E0204609F0BDFF04A9D9
:1051E800C56A41F80C0D08462D6809F0C3FF204632
:1051F80002F0BAFDA0EB4503002B304602DD02F0B9
:1052080053FA01E002F05DFD204609F0A5FF04A96C
:1052180041F8040DD0F894000568084609F0AAFF83
:10522800002D00F0C8802046A847C4E0204609F0B9
:1052380093FFEE68029096E806002046FFF7DCFE32
:1052480001210546204602F0C7FB307A012801D02B
:1052580080283FD1717A002945D1029A691C82F8C9
:10526800A15032D0204609F077FF836A03909A074D
:105278000FD590F8A3300121EEB201FA06F21A43D5
:1052880080F8A320204602F052FC20463146FFF762
:105298007DFE03A809F06EFF6B1C16D0204609F0AE
:1052A8005BFFD0F89C30039006465BB9204640F27D
:1052B800D2414FF4C87202F0A1F9C6F89C000398D5
:1052C80080F8A05003A809F055FF20462946FFF7AB
:1052D8004BFD08E038B9029B93F9A110481C02D095
:1052E8002046FFF75EFE04A850F8081D57E0204648
:1052F80009F032FF04AA42F8080D90F8A0501046B1
:1053080009F038FF204669B2FFF72EFD204609F064
:1053180023FF04AC322144F8040DD0F89C0002F0BD
:105328009BF920463DE0E968204600293CD009F079
:1053380013FF0390D0F8980002F0B4FC08B9204697
:1053480002E0039ED6F8980002F090FAEE68204634
:1053580096E80600FFF750FE327A05460398A2B198
:10536800691C07D190F9A1104A1C03D0002380F8CA
:10537800A2300EE0039B93F9A110A9420CD00122A0
:1053880083F8A2206B1C02D106E090F9A110481CFA
:1053980002D02046FFF705FE04A850F8041D81F846
:1053A800A15009F0E7FE06E0032102F0C0FB02E08D
:1053B800284603F065FE05B0F0BD37B5054660B177
:1053C80009F0CAFE02AC44F8040DD0F8980001F0C8
:1053D8006FFD0546204609F0CDFE28463EBD37B58F
:1053E8000D4660B109F0B8FE02AC294644F8040D38
:1053F800D0F8980000F0DEFE204609F0BBFE3EBD66
:105408002DE9F04F8BB01546179F189EB742984666
:1054180002DB4FF0000ABDE0149C0094159C019437
:105428005E4C0294199C7834039403F0BBFA8246CC
:105438000028EED009F090FE1699099010220AF083
:1054480077FB574BDDF824B018685649CBF8940021
:1054580060220BF13400FBF75DFBDBF82C10BBF886
:105468008A40D1F800C06CB96FF0010202FB0CF45D
:105478002B19984501DA444402E0042095FBF0F426
:10548800ABF88A403846CDF81CC0FFF75FFC814670
:105498003046FFF75BFC834600F09EFE08F0A0FA5A
:1054A800DDF81CC06FF0010101FB0CF208EB0203F0
:1054B800984206DA0223C0EB080898FBF3F103468A
:1054C80000E06146B5EB040E58D4364890F8580011
:1054D800012808D00ED3022810D16444A5EB440556
:1054E800601CAA1E0CE0A4440EEB02040CF101009F
:1054F800621E05E07244013A604601E0002002465F
:10550800159DCDF800A00195002502950395CB4582
:10551800ACBFCDF810B0CDF8109001F0C7FA0999DA
:105528000446C1F89800C1F88070C1F884603A4612
:10553800334639460095019500F0E8FF20461A49A0
:105548000AF0D8F9099B20461A6F294601F086FC13
:10555800099A20460121526F01F080FC099B2046E0
:105568009A6F294601F08FFC099A20460121D26FD3
:1055780001F089FC2046594600F023FE09A809F0ED
:10558800F9FD50460021FFF72AFF054801685046FB
:105598004B68984750460BB0BDE8F08F6B50000839
:1055A80084000020240000200804030810B586B0F9
:1055B800089C0094099C01940A9C02940B9C0394F7
:1055C8000C9C049400240594FFF71AFF06B010BD44
:1055D8002DE9F047894688B00746002800F0818009
:1055E80009F0BAFD034608A8D3F89860D96A40F8CC
:1055F800143D93F88CA0B3F88A500C6809F0BAFDF2
:105608003046494601F01AFC384604A902F0D4FB9A
:10561800304606A902F0D0FBBDF91670BDF912009C
:10562800BDF91480BDF910303A1AC3EB0801484699
:10563800571C01F1010808F0D3F9BAF1010F0AD09B
:1056480011D3BAF1020F1AD1BDF81020691CA3B208
:10565800511859180BE0BDF81020A3B2D1186D18D5
:10566800ADF8185007E0BDF81020A3B29918521BE6
:10567800ADF81810013AD31A9844ADF81C80BDF95A
:105688001E20BDF91A10531A5A1CA7EB44018A426E
:105698000DDA3F1A0221BDF8123097FBF1F2D71844
:1056A800BFB23818ADF81A70ADF81E000AE0BDF8A0
:1056B8001200A4B2421E2318141BE719ADF81A30C1
:1056C800ADF81E70BDF91A20BDF91E00BDF91810FD
:1056D800BDF91C30801A013000905B1A304601F089
:1056E800F6FF08B0BDE8F08737B50D4660B109F0A0
:1056F80033FD02AC294644F8040DD0F8980001F0B7
:10570800E5FB204609F036FD3EBD73B50C4615464F
:10571800064668B109F020FD012C019005D800EB80
:1057280084043046256503F081F801A809F022FDBC
:105738007CBD13B502AB426343F8041D416C806C19
:10574800521A64246243411A92FBF1F0194609F097
:10575800DDFF019B252200201A7058701CBD37B54B
:1057680045680446214628460AF0EAF910B323683A
:105778000B2B10D00F2B1AD1284609F0EDFC02A9EB
:1057880041F8040D426E1468084609F0F3FC8CB128
:105798002846A0470EE0284609F0DEFC02AD45F891
:1057A800040D383009F02AFF284609F0E3FC2046AA
:1057B80003F066FC3EBD806B09F0CEBC2DE9F041DC
:1057C800B0F90030B0F9047004460D46F81AB4F97F
:1057D8000210B4F90680471C1046C1EB080608F011
:1057E8000DF906F10108064608F020F9E26AB4F856
:1057F8004030116803F00302012A06D0022A09D1B9
:10580800BF1B97FBF2F1298005E0CB43DF19BF1BD3
:105818002F8000E02980A28F2988C0EB0808531840
:1058280002219AB298FBF1F3E18F2A805B1899B2B2
:10583800013A013896190B186980AE80EB80BDE8F3
:10584800F08170B590F86830C26A13F0010615BF90
:10585800B0F90230B0F90030B0F90650B0F9045090
:105868001468ED1A436C806C01359942B8BF19462B
:105878008142A8BF0146A5EB44050EB1411A00E0DC
:10588800C91AC21A694391FBF2F3E01870BD00000F
:105898002DE9F04387B00E9C0F9F0094274C019789
:1058A8000294129C4034039403F07CF807460028C5
:1058B80040D0052009F037FF804600283AD0384606
:1058C80009F04AFCDFF880901199049000220AF050
:1058D8002FF938461A491B4D0AF00CF8049ED9F8DE
:1058E8000030C6F8388073660FCD06F14C040FC43B
:1058F80095E80300109A84E803006421022000243C
:10590800A6F84000B16486F868207464404609F03F
:1059180023FC2246014605900498FFF70AFF05A8D4
:1059280009F028FC04A809F025FCD9F8003038460D
:1059380059688847384607B0BDE8F08367570008BC
:10594800080403088C0000208800002010B586B0E9
:10595800089C0094099C01940A9C02940B9C039453
:1059680000240494FFF794FF06B010BD2DE9F04120
:105978000D4686B00746002800F09F8009F0ECFB32
:10598800436C816C466B00909D42B8BF1D468D42AA
:10599800A8BF0D46AE42044600F08C8090F868809F
:1059A80018F0010F1CD0B54207DA2946FFF749FF66
:1059B8003146ADF80E00204606E03146FFF741FFBC
:1059C8002946ADF80E002046FFF73BFF002240F6BF
:1059D800FF73ADF80A00ADF80820ADF80C3064E0AC
:1059E800B54207DA2946FFF72CFF3146ADF8080023
:1059F800204606E03146FFF724FF2946ADF80800A7
:105A08002046FFF71EFF08F00203ADF80C0040F631
:105A1800FF720020D9B2ADF80A00ADF80E200029B7
:105A280043D1A06B0491059109F0C4FB042810DC54
:105A380006AC54F8180D846B684609F09BFB2046A9
:105A4800052107F06EFE0446384609F085FB0090F4
:105A580084630098FFF7AFFE019038B3009EF06CA6
:105A680007F0BAFD04A90646019A0098FFF7A6FEBA
:105A780002A804AA06AC014607F042FF9DE803000D
:105A88002A46FFF756FE54F8142D009804A9FFF78C
:105A980095FE02A8014604AA07F032FF304607F037
:105AA8009BFD204609F066FB00E06563384602A9C5
:105AB80002F080FE684609F05DFB06B0BDE8F081A3
:105AC80037B5054670B109F047FB02ACC36D44F821
