:020000040800F2
:1000000050090020410E000859330008B10E0008C5
:10001000653300086D3300087533000800000000E8
:100020000000000000000000000000007D33000818
:10003000893300080000000095330008A133000850
:10004000B10E0008B10E0008B10E0008B10E000894
:10005000B10E0008B10E0008B10E0008B10E000884
:10006000B10E0008B10E0008B10E0008B10E000874
:10007000B10E0008B10E0008B10E0008B10E000864
:10008000B10E0008B10E0008B10E0008B10E000854
:10009000B10E0008B10E0008B10E0008B10E000844
:1000A000B10E0008B10E0008B10E0008B10E000834
:1000B000B10E0008B1240008B10E0008B10E00080E
:1000C000B10E0008B10E0008B10E0008B10E000814
:1000D000B10E0008B10E0008B10E0008B10E000804
:1000E000B10E0008B10E0008B10E0008B10E0008F4
:1000F000B10E0008B10E0008B10E0008B10E0008E4
:10010000B10E0008B10E0008B10E0008B10E0008D3
:10011000B10E0008B10E0008B10E0008B10E0008C3
:10012000B10E0008B10E0008B10E0008B10E0008B3
:10013000B10E0008B10E0008B10E0008B10E0008A3
:10014000B10E0008B10E0008B10E0008B10E000893
:10015000B10E0008B10E0008B10E0008B10E000883
:10016000B10E0008B10E0008B10E0008B10E000873
:10017000B10E0008B10E0008B10E0008B10E000863
:08018000B10E0008B10E0008E9
:1001880081F0004102E000BF83F0004330B54FEA40
:1001980041044FEA430594EA050F08BF90EA020FAD
:1001A8001FBF54EA000C55EA020C7FEA645C7FEA40
:1001B800655C00F0E2804FEA5454D4EB5555B8BF63
:1001C8006D420CDD2C4480EA020281EA030382EAD4
:1001D800000083EA010180EA020281EA0303362D66
:1001E80088BF30BD11F0004F4FEA01314FF4801C39
:1001F8004CEA113102D0404261EB410113F0004F4B
:100208004FEA03334CEA133302D0524263EB430301
:1002180094EA050F00F0A780A4F10104D5F1200E9F
:100228000DDB02FA0EFC22FA05F2801841F10001FA
:1002380003FA0EF2801843FA05F359410EE0A5F1CE
:1002480020050EF1200E012A03FA0EFC28BF4CF0FF
:10025800020C43FA05F3C01851EBE37101F00045B5
:1002680007D54FF0000EDCF1000C7EEB00006EEBC2
:100278000101B1F5801F1BD3B1F5001F0CD349084C
:100288005FEA30004FEA3C0C04F101044FEA4452A3
:1002980012F5800F80F09A80BCF1004F08BF5FEA2A
:1002A800500C50F1000041EB045141EA050130BD0A
:1002B8005FEA4C0C404141EB010111F4801FA4F1AD
:1002C8000104E9D191F0000F04BF01460020B1FA02
:1002D80081F308BF2033A3F10B03B3F120020CDA3A
:1002E8000C3208DD02F1140CC2F10C0201FA0CF018
:1002F80021FA02F10CE002F11402D8BFC2F1200C7D
:1003080001FA02F120FA0CFCDCBF41EA0C01904032
:10031800E41AA2BF01EB0451294330BD6FEA04047B
:100328001F3C1CDA0C340EDC04F11404C4F1200266
:1003380020FA04F001FA02F340EA030021FA04F378
:1003480045EA030130BDC4F10C04C4F1200220FACF
:1003580002F001FA04F340EA0300294630BD21FA0D
:1003680004F0294630BD94F0000F83F4801306BFD3
:1003780081F480110134013D4EE77FEA645C18BFC7
:100388007FEA655C29D094EA050F08BF90EA020F5E
:1003980005D054EA000C04BF1946104630BD91EA56
:1003A800030F1EBF0021002030BD5FEA545C05D159
:1003B8004000494128BF41F0004130BD14F5800498
:1003C8003CBF01F5801130BD01F0004545F0FE410C
:1003D80041F470014FF0000030BD7FEA645C1ABF41
:1003E800194610467FEA655C1CBF0B46024650EA78
:1003F800013406BF52EA033591EA030F41F40021A4
:1004080030BD00BF90F0000F04BF0021704730B529
:100418004FF4806404F132044FF000054FF00001FE
:1004280050E700BF90F0000F04BF0021704730B5BF
:100438004FF4806404F1320410F0004548BF404294
:100448004FF000013EE700BF42004FEAE2014FEAE9
:1004580031014FEA02701FBF12F07F4393F07F4FC4
:1004680081F06051704792F0000F14BF93F07F4FF6
:10047800704730B54FF4607401F0004521F0004139
:1004880020E700BF50EA010208BF704730B54FF0BF
:1004980000050AE050EA010208BF704730B511F0C4
:1004A800004502D5404261EB41014FF4806404F1FC
:1004B80032045FEA915C3FF4DCAE4FF003025FEA7E
:1004C800DC0C18BF03325FEADC0C18BF033202EB06
:1004D800DC02C2F1200300FA03FC20FA02F001FA60
:1004E80003FE40EA0E0021FA02F11444C1E600BFFF
:1004F80070B54FF0FF0C4CF4E06C1CEA11541DBFB2
:100508001CEA135594EA0C0F95EA0C0F00F0DEF87C
:100518002C4481EA030621EA4C5123EA4C5350EA61
:10052800013518BF52EA033541F4801143F48013B2
:1005380038D0A0FB02CE4FF00005E1FB02E506F043
:100548000042E0FB03E54FF00006E1FB03569CF098
:10055800000F18BF4EF0010EA4F1FF04B6F5007F9E
:1005680064F5407404D25FEA4E0E6D4146EB060610
:1005780042EAC62141EA55514FEAC52040EA5E5099
:100588004FEACE2EB4F1FD0C88BFBCF5E06F1ED843
:10059800BEF1004F08BF5FEA500E50F1000041EB7A
:1005A800045170BD06F0004646EA010140EA020027
:1005B80081EA0301B4EB5C04C2BFD4EB0C0541EA49
:1005C800045170BD41F480114FF0000E013C00F35E
:1005D800AB8014F1360FDEBF002001F0004170BD82
:1005E800C4F10004203C35DA0C341BDC04F114049B
:1005F800C4F1200500FA05F320FA04F001FA05F227
:1006080040EA020001F0004221F0004110EBD370F3
:1006180021FA04F642EB06015EEA430E08BF20EA1F
:10062800D37070BDC4F10C04C4F1200500FA04F3C2
:1006380020FA05F001FA04F240EA020001F0004154
:1006480010EBD37041F100015EEA430E08BF20EAC7
:10065800D37070BDC4F1200500FA05F24EEA020E0F
:1006680020FA04F301FA05F243EA020321FA04F03E
:1006780001F0004121FA04F220EA020000EBD370F5
:100688005EEA430E08BF20EAD37070BD94F0000FF5
:100698000FD101F00046400041EB010111F4801F29
:1006A80008BF013CF7D041EA060195F0000F18BFDA
:1006B800704703F00046520043EB030313F4801F16
:1006C80008BF013DF7D043EA0603704794EA0C0FD0
:1006D8000CEA135518BF95EA0C0F0CD050EA4106E6
:1006E80018BF52EA4306D1D181EA030101F0004163
:1006F8004FF0000070BD50EA410606BF104619468B
:1007080052EA430619D094EA0C0F02D150EA013696
:1007180013D195EA0C0F05D152EA03361CBF1046D7
:1007280019460AD181EA030101F0004141F0FE4176
:1007380041F470014FF0000070BD41F0FE4141F4FA
:10074800780170BD70B54FF0FF0C4CF4E06C1CEAFA
:1007580011541DBF1CEA135594EA0C0F95EA0C0FAF
:1007680000F0A7F8A4EB050481EA030E52EA03356A
:100778004FEA013100F088804FEA03334FF080558B
:1007880045EA131343EA12634FEA022245EA1115B8
:1007980045EA10654FEA00260EF000419D4208BF69
:1007A800964244F1FD0404F5407402D25B084FEA16
:1007B8003202B61A65EB03055B084FEA32024FF4C2
:1007C80080104FF4002CB6EB020E75EB030E22BF1F
:1007D800B61A754640EA0C005B084FEA3202B6EBDF
:1007E800020E75EB030E22BFB61A754640EA5C008E
:1007F8005B084FEA3202B6EB020E75EB030E22BF1E
:10080800B61A754640EA9C005B084FEA3202B6EB1E
:10081800020E75EB030E22BFB61A754640EADC00DD
:1008280055EA060E18D04FEA051545EA16754FEA3F
:1008380006164FEAC30343EA52734FEAC2025FEA5D
:100848001C1CC0D111F4801F0BD141EA00014FF0EC
:1008580000004FF0004CB6E711F4801F04BF0143BD
:100868000020B4F1FD0C88BFBCF5E06F3FF6AFAED9
:10087800B5EB030C04BFB6EB020C5FEA500C50F169
:10088800000041EB045170BD0EF0004E4EEA1131EC
:1008980014EB5C04C2BFD4EB0C0541EA045170BDF3
:1008A80041F480114FF0000E013C90E645EA060E37
:1008B8008DE60CEA135594EA0C0F08BF95EA0C0F65
:1008C8003FF43BAF94EA0C0F0AD150EA01347FF4AD
:1008D80034AF95EA0C0F7FF425AF104619462CE784
:1008E80095EA0C0F06D152EA03353FF4FDAE1046E7
:1008F800194622E750EA410618BF52EA43067FF438
:10090800C5AE50EA41047FF40DAF52EA43057FF4C7
:10091800EBAE12E74FEA410212F5001215D211D5DB
:100928006FF47873B3EB625212D94FEAC12343F0E4
:10093800004343EA505311F0004F23FA02F018BF66
:10094800404270474FF00000704750EA013005D12F
:1009580011F0004008BF6FF0004070474FF00000F2
:10096800704700BF4FEA4102B2F1E04324BFB3F53C
:10097800001CDCF1FE5C0DD901F0004C4FEAC0020E
:100988004CEA5070B2F1004F40EB830008BF20F0F2
:100998000100704711F0804F21D113F13872BCBFAC
:1009A80001F00040704741F480114FEA5252C2F101
:1009B8001802C2F1200C10FA0CF320FA02F018BF4A
:1009C80040F001004FEAC1234FEAD32303FA0CFC9D
:1009D80040EA0C0023FA02F34FEA4303CCE77FEA2C
:1009E800625307D150EA01331EBF4FF0FE4040F476
:1009F8004000704701F0004040F0FE4040F4000025
:100A0800704700BF844641EA000313F003036DD129
:100A1800403A41D351F8043B40F8043B51F8043BB9
:100A280040F8043B51F8043B40F8043B51F8043BC0
:100A380040F8043B51F8043B40F8043B51F8043BB0
:100A480040F8043B51F8043B40F8043B51F8043BA0
:100A580040F8043B51F8043B40F8043B51F8043B90
:100A680040F8043B51F8043B40F8043B51F8043B80
:100A780040F8043B51F8043B40F8043B51F8043B70
:100A880040F8043B51F8043B40F8043B51F8043B60
:100A980040F8043B403ABDD2303211D351F8043B00
:100AA80040F8043B51F8043B40F8043B51F8043B40
:100AB80040F8043B51F8043B40F8043B103AEDD2AF
:100AC8000C3205D351F8043B40F8043B043AF9D200
:100AD800043208D0D2071CBF11F8013B00F8013BD3
:100AE80001D30B8803806046704700BF082A13D3E0
:100AF8008B078DD010F003038AD0C3F10403D21AF8
:100B0800DB071CBF11F8013B00F8013B80D331F82B
:100B1800023B20F8023B7BE7043AD9D3013A11F8AB
:100B2800013B00F8013BF9D20B7803704B78437016
:100B38008B788370604670474FF0FF3C06E000BF3B
:100B48004FF0010C02E000BF4FF0010C4DF804CD4E
:100B58004FEA410C7FEA6C5C4FEA430C18BF7FEA0E
:100B68006C5C1BD001B050EA410C0CBF52EA430C3C
:100B780091EA030F02BF90EA020F0020704710F1BC
:100B8800000F91EA030F58BF994208BF90422CBF4B
:100B9800D8176FEAE37040F0010070474FEA410C44
:100BA8007FEA6C5C02D150EA013C07D14FEA430C62
:100BB8007FEA6C5CD6D152EA033CD3D05DF8040BD3
:100BC800704700BF8446104662468C461946634605
:100BD80000E000BF01B5FFF7B7FF002848BF10F1DC
:100BE800000F01BD4DF808EDFFF7F4FF0CBF012021
:100BF80000205DF808FB00BF4DF808EDFFF7EAFF9D
:100C080034BF012000205DF808FB00BF4DF808ED57
:100C1800FFF7E0FF94BF012000205DF808FB00BF4C
:100C28004DF808EDFFF7CEFF94BF012000205DF8D6
:100C380008FB00BF4DF808EDFFF7C4FF34BF0120E3
:100C480000205DF808FB00BF80B500AF40F65010EB
:100C5800C2F200004FF4A8310AF0BAFB47F2402074
:100C6800C0F6020009F0A4FE80BD00BF80B483B0C6
:100C780000AF0346FB804FF6FE73C6F20103FA8805
:100C88001A800C37BD465DF8047B704780B483B08A
:100C980000AF0346FB804FF6FE73C6F20103FA88E5
:100CA8005A800C37BD465DF8047B704780B483B02A
:100CB80000AF7860396007E00023C6F202037A6863
:100CC800911C796012881A803B685A1E3A60002B82
:100CD800F2D10C37BD465DF8047B704780B483B011
:100CE80000AF7860396007E07A68931C7B60002366
:100CF800C6F202031B8813803B685A1E3A60002B19
:100D0800F2D10C37BD465DF8047B704780B5A0B0C2
:100D180000AF07F1680300221A60043300221A604A
:100D2800043300221A60043300221A6004330022BC
:100D38001A6004333A466823104600211A460EF01A
:100D480035F84BF65810C0F602004BF6D821C0F61D
:100D580002010022002309F0BFFDF8670020F021FE
:100D68004FF4A07207F083FB0020F0214FF4A0722B
:100D780007F066FB06233B670223BB6707F168039E
:100D8800F86F194607F0FBFA40F67543C0F6000302
:100D98003B6240F69543C0F600037B6240F6B543DC
:100DA800C0F60003FB6240F6E543C0F60003FB63B0
:100DB8003B46F86F194647F2FD62C0F6000247F657
:100DC8008953C0F6000307F0F8FA07F0F9FB034669
:100DD800002B0CD000204FF4A071F02207F047FB45
:100DE80000204FF4A071F02207F02AFB0BE000204E
:100DF800F0214FF4A07207F03AFB0020F0214FF4E5
:100E0800A07207F01DFB8037BD4680BD80B487B057
:100E180000AFF860B9607A60BB68012B01D100238C
:100E280003E04FF0FF337B617B6918461C37BD46F2
:100E38005DF8047B704700BF80B582B000AF4CF20C
:100E4800D873C0F602037B6040F20003C2F20003CD
:100E58003B6007E03B681A1D3A607A68111D7960AB
:100E680012681A603A6840F25013C2F200039A42BC
:100E7800F0D30A480A494FF000028842B8BF40F848
:100E8800042BFADBDFF81C00016841F470010160F3
:100E980001F0D8F80837BD4680BD00005009002091
:100EA800985F012088ED00E080B400AFFEE700BF46
:100EB80080B500AF4FF46D43CEF200034FF46D429E
:100EC800CEF20002D2F8882042F47002C3F88820DB
:100ED8004FF46053C4F202034FF46052C4F20202AA
:100EE800126842F001021A604FF46053C4F2020320
:100EF80000229A604FF46053C4F202034FF4605228
:100F0800C4F20202126822F0847222F480321A605B
:100F18004FF46053C4F2020343F21002C2F20042DB
:100F28005A604FF46053C4F202034FF46052C4F2A3
:100F38000202126822F480221A604FF46053C4F24D
:100F480002030022DA6000F009F84FF46D43CEF294
:100F580000034FF000629A6080BD00BF80B483B088
:100F680000AF00237B6000233B604FF46053C4F262
:100F780002034FF46052C4F20202126842F4803253
:100F88001A604FF46053C4F202031B6803F4003381
:100F98003B607B6801337B603B68002B03D17B6837
:100FA800B3F5A06FEDD14FF46053C4F202031B6890
:100FB80003F40033002B02D001233B6001E000233F
:100FC8003B603B68012B40F082804FF46053C4F2D1
:100FD80002034FF46052C4F20202126C42F08052D3
:100FE8001A644FF4E043C4F200034FF4E042C4F241
:100FF8000002126842F480421A604FF46053C4F24F
:1010080002034FF46052C4F2020292689A604FF4ED
:101018006053C4F202034FF46052C4F202029268B1
:1010280042F400429A604FF46053C4F202034FF452
:101038006052C4F20202926842F4A0529A604FF4DD
:101048006053C4F2020345F20842C0F240725A608B
:101058004FF46053C4F202034FF46052C4F2020228
:10106800126842F080721A6000BF4FF46053C4F2F5
:1010780002031B6803F00073002BF6D04FF4705383
:10108800C4F2020340F205621A604FF46053C4F2DE
:1010980002034FF46052C4F20202926822F0030283
:1010A8009A604FF46053C4F202034FF46052C4F2E2
:1010B8000202926842F002029A6000BF4FF4605345
:1010C800C4F202039B6803F00C03082BF6D10C371B
:1010D800BD465DF8047B704780B485B000AF78608A
:1010E8000023FB730023BB730F237B737B68DB78C0
:1010F800002B40D04FF46D43CEF20003DB68DB4396
:1011080003F4E0631B0AFB73FB7BC3F10403BB73AB
:101118007A7BFB7B42FA03F37B737B685B781A4626
:10112800BB7B02FA03F3FB737B689A787B7B1340E3
:10113800DAB2FB7B1343FB73FB7B1B01FB734FF49E
:101148006143CEF200037A6812781344FA7B83F87D
:1011580000234FF46143CEF200037A6812785209F3
:10116800D2B27968097801F01F01012000FA01F173
:1011780043F8221011E04FF46143CEF200037A687D
:1011880012785209D2B27968097801F01F0101205A
:1011980000FA01F1203243F822101437BD465DF8F9
:1011A800047B704780B483B000AF78604FF0204371
:1011B8007A6812687968486879688968084379683C
:1011C800C96808437968096908437968496908431F
:1011D8007968896908437968C96908437968096A37
:1011E80008437968496A08437968896A08437968CD
:1011F800C96A08437968096B014343F822107B6880
:101208009B68082B0DD14FF020437A6812684FF085
:1012180020417868006851F8201041F0400143F8F7
:1012280022104FF020437A68126801327968496BBE
:1012380008687968496B4968090108437968496B06
:101248008968090208437968496BC9680904084331
:101258007968496B0969090508437968496B4969DF
:10126800090608437968496B8969014343F82210E4
:101278007B68DB6AB3F5804F23D14FF48273CAF2DF
:1012880000037A6812687968896B08687968896BDD
:101298004968090108437968896B89680902084324
:1012A8007968896B0969090508437968896B49690F
:1012B800090608437968896B8969014343F8221054
:1012C80009E04FF48273CAF200037A6812686FF07B
:1012D800704143F822100C37BD465DF8047B704717
:1012E80080B483B000AF78600B46FB70FB78002BAE
:1012F8000CD04FF020434FF02042796852F821205B
:1013080042F001017A6843F822100EE04FF02042C3
:101318004FF02043796853F821104FF6FE73C0F25E
:101328000F030B40796842F821300C37BD465DF851
:10133800047B704780B487B000AF786039600023C1
:101348007B6100233B610023FB6000237B6176E027
:101358007B69012202FA03F33B613B681A683B6927
:101368001340FB60FA683B699A4265D17B681A684A
:101378007B695B00032101FA03F3DB431A407B68B6
:101388001A607B681A683B681B7919467B695B00A1
:1013980001FA03F31A437B681A603B681B79012B37
:1013A80003D03B681B79022B2ED17B689A687B6936
:1013B8005B00032101FA03F3DB431A407B689A6060
:1013C8007B689A683B685B7919467B695B0001FA20
:1013D80003F31A437B689A607B685A687B699BB2FF
:1013E800012101FA03F3DB431A407B685A607B68EA
:1013F8005A683B689B7919467B699BB201FA03F3EB
:101408009BB21A437B685A607B68DA687B699BB237
:101418005B00032101FA03F3DB431A407B68DA60BF
:101428007B68DA683B68DB7919467B695B0001FAFF
:1014380003F31A437B68DA607B6901337B617B695C
:101448000F2B85D91C37BD465DF8047B704700BF5C
:1014580080B485B000AF78600B467B800023FB73B7
:101468007B681A697B881340002B02D00123FB7329
:1014780001E00023FB73FB7B18461437BD465DF87B
:10148800047B704780B483B000AF78600B467B80E4
:101498007B687A881A830C37BD465DF8047B7047F1
:1014A80080B483B000AF78600B467B807B687A8815
:1014B8005A830C37BD465DF8047B704780B485B00D
:1014C80000AF786013460A467A807B700023FB6081
:1014D8000023BB607A787B8803F007039B0002FA3D
:1014E80003F3FB607B88DB089BB21A467B88DB082A
:1014F8009BB219467B68083153F821107B8803F0AA
:1015080007039B000F2000FA03F3DB4319407B68B5
:10151800083243F822107B88DB089BB21A467B68A6
:10152800083253F82220FB681343BB607B88DB0832
:101538009BB21A467B680832B96843F82210143700
:10154800BD465DF8047B70472DE9B04388B000AF15
:10155800F86087ED020A79600023FB610023BB6114
:101568004FF000037B619FED307AD7ED027AC7EE2A
:10157800277AC7ED057A0023FB613EE07868FEF71D
:1015880051FF80468946FB6907EE903AB8EEE77A44
:10159800D7ED057A67EE277A17EE900AFEF754FF23
:1015A80002460B46104619461DA3D3E90023FEF751
:1015B8009FFF02460B4643EC172BB0EE470AF0EEAE
:1015C800670A0DF0D1FD53EC102B40464946FEF753
:1015D8008FFF02460B46144623F000452046294655
:1015E800FFF798F90346BB61FB699B00FA6813444F
:1015F800BA691A60FB690133FB61FB6907EE903A2F
:10160800B8EEE77AD7ED027AB4EEE77AF1EE10FA9F
:10161800B4D918462037BD46BDE8B083AFF3008083
:1016280012E7FAA146DF913F0000B443AFF3008010
:1016380080B586B000AF78600220012100F0AEF8D6
:101648000023BB810023FB817B683B610023BB82B5
:101658000023BB7507F10C034FF48060C4F200004F
:10166800194600F087F94FF48060C4F200000121A8
:1016780000F016FA18461837BD4680BD80B588B008
:1016880000AF78607023BB810123FB8102233B8379
:101698007B687B6107F10C034FF48060C4F20000A3
:1016A800194600F02BFB4FF48060C4F200000821BB
:1016B80000F0C6FB2037BD4680BD00BF80B588B0AE
:1016C80000AF78607023BB810123FB8102233B8339
:1016D8007B687B6107F10C034FF48060C4F2000063
:1016E800194600F085FA4FF48060C4F20000082122
:1016F80000F08AFB2037BD4680BD00BF80B483B0B0
:1017080000AF78600B46FB70FB78002B0CD04FF4D1
:101718006053C4F202034FF46052C4F20202116B28
:101728007A680A431A630CE04FF46053C4F2020368
:101738004FF46052C4F20202116B7A68D2430A4035
:101748001A630C37BD465DF8047B704780B483B0DC
:1017580000AF78600B46FB70FB78002B0CD04FF481
:101768006053C4F202034FF46052C4F20202916B58
:101778007A680A439A630CE04FF46053C4F2020398
:101788004FF46052C4F20202916B7A68D2430A4065
:101798009A630C37BD465DF8047B704780B483B00C
:1017A80000AF78600B46FB70FB78002B0CD04FF431
:1017B8006053C4F202034FF46052C4F20202116C87
:1017C8007A680A431A640CE04FF46053C4F20203C7
:1017D8004FF46052C4F20202116C7A68D2430A4094
:1017E8001A640C37BD465DF8047B704780B483B03B
:1017F80000AF78600B46FB70FB78002B0CD04FF4E1
:101808006053C4F202034FF46052C4F20202516CF6
:101818007A680A435A640CE04FF46053C4F2020336
:101828004FF46052C4F20202516C7A68D2430A4003
:101838005A640C37BD465DF8047B704780B485B0A8
:1018480000AF786039600023FB817B681B88FB81CF
:10185800FB8903F44153FB813B681A883B685B882A
:1018680013439AB23B689B8813439AB23B68DB8860
:1018780013439AB23B681B8913439AB23B685B894E
:1018880013439AB23B689B8913439AB23B68DB893E
:1018980013439AB2FB891343FB817B68FA891A8048
:1018A8007B689B8B9BB223F400639AB27B689A8314
:1018B8003B681A8A7B681A821437BD465DF8047B38
:1018C800704700BF80B483B000AF78600B46FB70F0
:1018D800FB78002B08D07B681B889BB243F0400341
:1018E8009AB27B681A8007E07B681B889BB223F05A
:1018F80040039AB27B681A800C37BD465DF8047BBA
:10190800704700BF80B483B000AF78607B689B8964
:101918009BB218460C37BD465DF8047B704700BF84
:1019280080B483B000AF78600B467B807B687A8890
:101938009A810C37BD465DF8047B704780B485B04A
:1019480000AF78600B467B800023FB737B681B89A4
:101958009AB27B8813409BB2002B02D00123FB7301
:1019680001E00023FB73FB7B18461437BD465DF886
:10197800047B704780B485B000AF7860396000237D
:10198800FB817B681B88FB817A680023C4F2010312
:101998009A421FD07A684FF48063C4F201039A42D6
:1019A80018D07B68B3F1804F14D07A684FF4806305
:1019B800C4F200039A420DD07A684FF40063C4F26F
:1019C80000039A4206D07A684FF44063C4F20003D9
:1019D8009A4208D1FB8923F07003FB813B685A883F
:1019E800FB891343FB817A684FF48053C4F20003E8
:1019F8009A420FD07A684FF4A053C4F200039A4277
:101A080008D0FB8923F44073FB813B681A89FB8962
:101A18001343FB817B68FA891A803B685A687B68A4
:101A2800DA623B681A887B681A857A680023C4F2F0
:101A380001039A4206D07A684FF48063C4F2010326
:101A48009A4204D13B689B7A1A467B681A867B685F
:101A580001229A821437BD465DF8047B704700BFA7
:101A680080B483B000AF78600B46FB70FB78002B26
:101A780008D07B681B889BB243F080039AB27B68CE
:101A88001A8007E07B681B889BB223F080039AB218
:101A98007B681A800C37BD465DF8047B704700BF31
:101AA80080B483B000AF78600B46FB70FB78002BE6
:101AB80008D07B681B889BB243F001039AB27B680D
:101AC8001A8007E07B681B889BB223F001039AB257
:101AD8007B681A800C37BD465DF8047B704700BFF1
:101AE80080B485B000AF7860396000237B81002323
:101AF800FB810023BB817B681B8C9BB223F0100306
:101B08009AB27B681A847B681B8CFB817B689B88F4
:101B1800BB817B681B8B7B817B8923F4E0437B81C2
:101B28007B8923F440737B813B681B881B029AB234
:101B38007B8913437B81FB8923F02003FB813B686E
:101B48009B891B019AB2FB891343FB813B685B8825
:101B58001B019AB2FB891343FB817A680023C4F204
:101B680001039A4206D07A684FF48063C4F20103F5
:101B78009A422BD1FB8923F08003FB813B68DB89E8
:101B88001B019AB2FB891343FB81FB8923F04003B5
:101B9800FB813B689B881B019AB2FB891343FB813D
:101BA800BB8923F48063BB81BB8923F40063BB81B9
:101BB8003B681B8A9B009AB2BB891343BB813B6875
:101BC8005B8A9B009AB2BB891343BB817B68BA8945
:101BD8009A807B687A891A833B689A687B689A63DB
:101BE8007B68FA891A841437BD465DF8047B704710
:101BF80080B485B000AF7860396000237B81002312
:101C0800FB810023BB817B681B8C9BB223F4807310
:101C18009AB27B681A847B681B8CFB817B689B88E3
:101C2800BB817B689B8B7B817B8923F070037B81E5
:101C38007B8923F003037B813B681A887B891343E4
:101C48007B81FB8923F40073FB813B689B891B0222
:101C58009AB2FB891343FB813B685B881B029AB2EB
:101C6800FB891343FB817A680023C4F201039A427B
:101C780006D07A684FF48063C4F201039A422BD1EC
:101C8800FB8923F40063FB813B68DB891B029AB262
:101C9800FB891343FB81FB8923F48063FB813B6849
:101CA8009B881B029AB2FB891343FB81BB8923F4EF
:101CB8008053BB81BB8923F40053BB813B681B8ADB
:101CC8001B019AB2BB891343BB813B685B8A1B012A
:101CD8009AB2BB891343BB817B68BA899A807B68B7
:101CE8007A899A833B689A687B68DA637B68FA89A1
:101CF8001A841437BD465DF8047B704780B485B0FC
:101D080000AF786039600023BB8100237B8100230A
:101D1800FB817B681B8C9BB223F480539AB27B684F
:101D28001A847B681B8C7B817B689B88FB817B6822
:101D38009B8BBB81BB8923F4E043BB81BB8923F424
:101D48004073BB813B681B881B029AB2BB89134353
:101D5800BB817B8923F400537B813B689B891B03F0
:101D68009AB27B8913437B813B685B881B039AB2D9
:101D78007B8913437B817A680023C4F201039A426A
:101D880006D07A684FF48063C4F201039A420AD1FC
:101D9800FB8923F48043FB813B681B8A9B019AB231
:101DA800FB891343FB817B68FA899A807B68BA892F
:101DB8009A833B689A687B681A647B687A891A8474
:101DC8001437BD465DF8047B704700BF80B485B00A
:101DD80000AF78600B467B800023FB817B681B8B00
:101DE800FB81FB8923F40063FB817B881B029AB289
:101DF800FB891343FB817B68FA891A831437BD4634
:101E08005DF8047B704700BF80B485B000AF786090
:101E18000B467B800023FB817B689B8BFB81FB89C6
:101E280023F00803FB81FA897B881343FB817B68D5
:101E3800FA899A831437BD465DF8047B704700BF62
:101E480080B485B000AF78600B467B800023FB81AF
:101E58007B689B8BFB81FB8923F40063FB817B8878
:101E68001B029AB2FB891343FB817B68FA899A8328
:101E78001437BD465DF8047B704700BF80B483B05B
:101E880000AF786013460A467A807B707B78002B17
:101E980008D07B689B899AB27B8813439AB27B6887
:101EA8009A8109E07B689B899AB27B88DB439BB265
:101EB80013409AB27B689A810C37BD465DF8047B63
:101EC800704700BF80B485B000AF78600B467B8058
:101ED8000023FB730023BB8100237B817B681B8A63
:101EE8009AB27B881340BB817B689B899AB27B88B6
:101EF80013407B81BB89002B05D07B89002B02D046
:101F08000123FB7301E00023FB73FB7B18461437A6
:101F1800BD465DF8047B704780B483B000AF78603D
:101F28000B467B807B88DB439AB27B681A820C372E
:101F3800BD465DF8047B704780B483B000AF78601D
:101F480045F65013C2F201037A681A6000BF45F6DD
:101F58005013C2F201031B68002BF8D10C37BD46A1
:101F68005DF8047B704700BF80B400AF45F650139E
:101F7800C2F201031B68002B0AD045F65013C2F2C7
:101F880001031B685A1E45F65013C2F201031A607A
:101F9800BD465DF8047B704780B483B000AF03464C
:101FA8003960FB7197F90730002B0EDA4FF46D4357
:101FB800CEF20003FA7902F00F02111F3A68D2B28A
:101FC8001201D2B20B441A760CE04FF46143CEF200
:101FD800000397F907103A68D2B21201D2B20B4443
:101FE80083F800230C37BD465DF8047B704700BFBB
:101FF80080B582B000AF78607B68B3F1807F01D391
:1020080001231AE04EF21003CEF200037A6822F0A0
:102018007F42013A5A604FF0FF300F21FFF7BCFFB3
:102028004EF21003CEF2000300229A604EF2100323
:10203800CEF2000307221A60002318460837BD466F
:1020480080BD00BF80B58AB004AF43F2AF637B6147
:10205800FEF72EFF40F20003C2F200031A6844F6AE
:10206800D353C1F26203A3FB02139B091846FFF77F
:10207800BFFF0346002B00D0FEE700F075FF45F6D2
:102088006410C2F201009FEDDA0A43F2AF61FFF774
:102098005BFA7869FFF7CCFA4FF40060C4F20200EB
:1020A80008210222FFF70AFA4FF40060C4F2020086
:1020B80009210222FFF702FA45F6C453C2F20103CE
:1020C8004FF440721A6045F6C453C2F2010302226B
:1020D8001A7145F6C453C2F2010300229A7145F6FB
:1020E800C453C2F2010303225A7145F6C453C2F223
:1020F80001030022DA714FF40060C4F2020045F6D1
:10210800C451C2F20101FFF715F94FF48060C4F21F
:10211800000001210122FFF7B1FE45F6AC53C2F2DF
:1021280001031D221A7045F6AC53C2F201030022C6
:102138005A7045F6AC53C2F2010301229A7045F673
:10214800AC53C2F201030122DA7045F6AC50C2F278
:102158000100FEF7C1FF00F0EBFF4FF480500121B2
:10216800FFF7CCFA08F09AFC00F0A6FE01F014FA8A
:1021780001F066F84FF44060C4F202004FF4805159
:10218800FFF78EF947F22C00C0F6020007F07EFB3D
:10219800002007F0A7FB08F043FC46F23C30C0F6ED
:1021A800020008F041FA0223009342F2DD53C0F620
:1021B80000030193002302930020BE214FF4A07274
:1021C800322303F017F838614FF4000007F08AFB58
:1021D8000223009342F2DD53C0F60003019300236B
:1021E8000293002010214FF4A072AE2303F002F8EE
:1021F800024645F6D053C2F201031A6045F6D053A1
:10220800C2F201031B68184602F0AAFE08F008FC97
:10221800386902F0A5FE3B6900930223019300236D
:1022280002934FF4B8730393002000215022322305
:1022380002F062F8F860F86847F22C01C0F6020173
:1022480002F092F8F86846F24C31C0F6020102F04A
:1022580063F8F868002102F098F83B6900930223BC
:1022680001930023029340F271130393502000213D
:102278005022322302F040F8B860B86847F22C01C7
:10228800C0F6020102F070F8B86846F25431C0F6A0
:10229800020102F041F8B868002102F076F83B69C3
:1022A800009302230193002302934FF4B97303931D
:1022B800A02000215022322302F01EF878607868AE
:1022C80047F22C01C0F6020102F04EF8786846F297
:1022D8005C31C0F6020102F01FF87868002102F0B4
:1022E80054F83B690093022301930023029340F2C0
:1022F80073130393F02000215022322301F0FCFFD6
:102308003860386847F22C01C0F6020102F02CF858
:10231800386846F26431C0F6020101F0FDFF386802
:10232800002102F032F843F6F950C0F6000001F03F
:10233800DBFE45F6D053C2F201031B68009310235D
:102348000193002302934FF4BA730393B4206A21D4
:102358007422322301F0D0FF024645F69053C2F2B0
:1023680001031A6045F69053C2F201031B68184630
:1023780049F6AC31C0F6020101F0F6FF45F690537C
:10238800C2F201031B68184646F26C31C0F602011E
:1023980001F0C2FF45F69053C2F201031B681846CC
:1023A800002101F0F2FF45F6D053C2F201031B6889
:1023B8000093102301930023029340F275130393B3
:1023C8001420782178221E2301F096FF024645F654
:1023D800A053C2F201031A6045F6A053C2F20103EA
:1023E8001B68184647F22C01C0F6020102E000BF44
:1023F8000000C84201F0B8FF45F6A053C2F201033D
:102408001B68184646F27431C0F6020101F084FFD9
:1024180045F6A053C2F201031B681846002101F0DB
:10242800B4FF45F6D053C2F201031B6800930023A2
:102438000193012302934FF404730393D7202821B7
:102448003222782301F01AFC024645F6CC53C2F238
:1024580001031A6045F6CC53C2F201031B68184603
:1024680000214FF4004201F0E9FA45F6CC53C2F2DC
:1024780001031B6818460121002201F0DFFA08F069
:10248800CFFA45F6D053C2F201031B68184602F092
:1024980067FD386901F0CEFF00F044F900F0FAFB5F
:1024A800322007F0D5F9F9E780B500AF4FF4806026
:1024B800C4F200000121FFF705FD0346002B48D0B8
:1024C8004FF48060C4F200000121FFF725FD45F6B6
:1024D8006013C2F201031B68322B0DDC45F6601352
:1024E800C2F201031A6845F66413C2F2010353F8F5
:1024F80022301846FFF7C2F845F66013C2F201030E
:102508001B68312B0DDD45F66013C2F201031A6812
:1025180045F66413C2F2010353F822301846FFF758
:10252800CDF845F66013C2F201031B685A1C45F644
:102538006013C2F201031A6045F66013C2F2010388
:102548001B68652B05D145F66013C2F20103002212
:102558001A6080BDB0B48DB000AF786049F69A13A8
:10256800C4F2F113FB6048F21F53C3F6AB733B612F
:102578004DF63B73C4F221237B614FF2C353C4F27F
:10258800EF23BB6143F23333C4F23303FB614FF6ED
:10259800D503C4F2A7333B624EF24813C4F26F234B
:1025A8007B624BF65203C4F25123BB6247F6E12328
:1025B800C4F26F23FB627B681C4607F10C050FCD44
:1025C8000FC40FCD0FC42B68236078683437BD461D
:1025D800B0BC704780B584B000AF78607B681B687A
:1025E800262B40F095807B689B68184601F0C0FF59
:1025F800F8607B68DB68BB60FB68A3F5B873042BE5
:1026080000F28B8001A252F823F000BF29260008AF
:102618005B2600088D260008BF260008F126000862
:10262800BB68012B13D0022B00D070E045F658137D
:10263800C2F201031B68002B08D045F65813C2F2FA
:10264800010300221A6000F06DF801E000E000BF0D
:102658005DE0BB68012B13D0022B00D057E045F694
:102668005813C2F201031B68012B08D045F6581312
:10267800C2F2010301221A6000F01CFA01E000E036
:1026880000BF44E0BB68012B13D0022B00D03EE012
:1026980045F65813C2F201031B68022B08D045F611
:1026A8005813C2F2010302221A6000F0D1F801E0C7
:1026B80000E000BF2BE0BB68012B13D0022B00D039
:1026C80025E045F65813C2F201031B68032B08D016
:1026D80045F65813C2F2010303221A6000F05EFAAD
:1026E80001E000E000BF12E0BB68022B00D00DE063
:1026F80040F21803C2F200031B7883F00103DAB238
:1027080040F21803C2F200031A7000BF00BF04E0D1
:10271800786803F02DF800BF00E000BF1037BD4611
:1027280080BD00BF80B500AF45F6D053C2F20103AB
:102738001B68184602F014FC45F69053C2F20103D8
:102748001B68184601F044FE45F69053C2F2010397
:102758001B68184601F046FF45F6A053C2F2010374
:102768001B68184601F0BFFE45F6A053C2F20103EC
:102778001B68184601F039FF45F6CC53C2F2010335
:102788001B68184601F0AFFE08F04AF9002007F070
:10279800ABF814201821102208F028FA142042213E
:1027A800102208F023FA14206C21102208F01EFAD7
:1027B80014209621102208F019FA40F21B10282143
:1027C800202208F013FAC0202821202208F00EFA4F
:1027D80000F060FA4FF47F40C0F2FF0007F084F881
:1027E80047F22C00C0F6020007F050F846F2843099
:1027F800C0F602002C21102207F00EFF46F25430DA
:10280800C0F602002C213A2207F006FF46F290306B
:10281800C0F602002C21642207F0FEFE46F29C302E
:10282800C0F602002C218E2207F0F6FE46F2AC30EC
:10283800C0F602004FF48A714C2207F0EDFE46F212
:10284800B030C0F60200B5214C2207F0E5FE80BD8D
:1028580080B58AB000AF45F6D053C2F201031B68B9
:10286800184602F07DFB45F69053C2F201031B683F
:10287800184601F038FE45F69053C2F201031B6872
:10288800184601F0B2FE45F6A053C2F201031B68D8
:10289800184601F028FE45F6A053C2F201031B6852
:1028A800184601F0A2FE45F6CC53C2F201031B689C
:1028B800184601F018FE08F0B3F83B1D1846FFF75C
:1028C80049FE4FF40040C0F2800007F00DF89F2049
:1028D8000421A022712307F0D1F9032076214FF4B7
:1028E8009E72772307F0CAF94FF47F40C0F2FF00C9
:1028F80006F0FAFF47F22C00C0F6020006F0C6FF09
:102908003C20102107F08AF946F2B430C0F60200E4
:1029180007F08AFED82007F079F946F2BC30C0F6F5
:10292800020007F081FE46F2C830C0F6020007F048
:102938007BFED7ED017AB0EE670A062006F0A2FE0C
:1029480046F2D430C0F6020007F06EFEA22007F06F
:102958005DF946F2C830C0F6020007F065FED7ED13
:10296800047AB0EE670A062006F08CFE46F2D830EC
:10297800C0F6020007F058FE46F2DC30C0F602004E
:1029880007F052FED7ED027AB0EE670A062006F08D
:1029980079FE46F2E830C0F6020007F045FEA220B4
:1029A80007F034F946F2DC30C0F6020007F03CFECE
:1029B800D7ED057AB0EE670A062006F063FE46F208
:1029C800EC30C0F6020007F02FFE46F2F030C0F6F9
:1029D800020007F029FED7ED037AB0EE670A062059
:1029E80006F050FE46F2F830C0F6020007F01CFE72
:1029F800A22007F00BF946F2F030C0F6020007F00B
:102A080013FED7ED067AB0EE670A062006F03AFE06
:102A180046F2FC30C0F6020007F006FEA22007F0DE
:102A2800F5F846F20040C0F6020007F0FDFDD7EDCC
:102A3800077AB0EE670A062006F024FE46F20C403C
:102A4800C0F6020007F0F0FD46F21440C0F602009E
:102A580007F0EAFDD7ED087AB0EE670A062006F01F
:102A680011FE202007F0ACFEB02007F0A9FE46F2C8
:102A78002440C0F6020007F0D7FD46F22840C0F611
:102A8800020007F0D1FDD7ED097AB0EE670A0620FB
:102A980006F0F8FD202007F093FEB02007F090FE26
:102AA800432007F08DFE4FF4000006F01BFF283787
:102AB800BD4680BD80B500AF45F6D053C2F20103D4
:102AC8001B68184602F04CFA45F69053C2F201030F
:102AD8001B68184601F007FD45F69053C2F2010342
:102AE8001B68184601F081FD45F6A053C2F20103A8
:102AF8001B68184601F06CFC45F6A053C2F20103AE
:102B08001B68184601F06EFD45F6CC53C2F201036E
:102B18001B68184601F05CFC07F082FF45F6CC53B1
:102B2800C2F201031B681846482101F0B7F846F2C3
:102B38003840C0F60200E421102207F06DFD4FF482
:102B48007F40C0F2FF0006F0CFFE47F22C00C0F62F
:102B5800020006F09BFE46F23840C0F60200E4216F
:102B6800102207F059FD46F23C40C0F60200002151
:102B7800102207F051FD46F25040C0F6020007F05F
:102B880053FD46F26040C0F6020007F04DFD46F2E4
:102B98007440C0F6020007F047FD80BD80B500AF65
:102BA80045F6D053C2F201031B68184602F0D8F963
:102BB80045F69053C2F201031B68184601F093FCD6
:102BC80045F69053C2F201031B68184601F00DFD4B
:102BD80045F6A053C2F201031B68184601F083FCB6
:102BE80045F6A053C2F201031B68184601F0FDFC2C
:102BF80045F6CC53C2F201031B68184601F073FC7A
:102C080007F00EFF46F22830C0F602000C210C2215
:102C180007F010FC4FF47F40C0F2FF0006F064FE9E
:102C280049F20810C0F6020006F030FEAE200C2172
:102C380006F0F4FF46F28440C0F6020007F0F4FC08
:102C4800AE2006F0E3FF46F29040C0F6020007F01F
:102C5800EBFC4BF2A400C0F6020006F017FEAE2013
:102C68007B2106F0DBFF46F29840C0F6020007F031
:102C7800DBFCAE20952106F0D1FF46F2B040C0F64D
:102C8800020007F0D1FC06F0D1FF0346184607F012
:102C9800CBFC80BD80B58AB000AF3B1D1846FFF75E
:102CA80059FC45F65813C2F201031B68032B00F2C6
:102CB800FE8001A252F823F0D12C0008B72E00089C
:102CC800EF2D0008B72E000840F21803C2F20003E7
:102CD8001B7803F01003002B04D04FF47F4006F05C
:102CE80003FE02E0FF2006F0FFFD142018210C224D
:102CF80007F07CFF40F21803C2F200031B7803F0D0
:102D08000803002B04D04FF47F4006F0EDFD02E0ED
:102D1800FF2006F0E9FD142042210C2207F066FF8F
:102D280040F21803C2F200031B7803F00403002BDF
:102D380004D04FF47F4006F0D7FD02E0FF2006F0F4
:102D4800D3FD14206C210C2207F050FF40F2180329
:102D5800C2F200031B7803F00203002B04D04FF4E7
:102D68007F4006F0C1FD05E044F24000C0F240009B
:102D780006F0BAFD142096210C2207F037FF40F226
:102D88001803C2F200031B7803F00103002B15D0CF
:102D98004FF47F4006F0A8FD40F21B1028211B22AB
:102DA80007F024FF44F24000C0F2400006F09CFD0A
:102DB800C02028211B2207F019FF79E044F24000C7
:102DC800C0F2400006F090FD40F21B1028211B22A3
:102DD80007F00CFFFF2006F087FDC02028211B22EA
:102DE80007F004FF64E04820302106F017FFD7ED14
:102DF800017AB0EE670A062006F044FC482040211C
:102E080006F00CFFD7ED027AB0EE670A062006F04E
:102E180039FC3820502106F001FFD7ED037AB0EED7
:102E2800670A062006F02EFCEA20302106F0F6FE9E
:102E3800D7ED047AB0EE670A062006F023FCEA20F4
:102E4800402106F0EBFED7ED057AB0EE670A0620C2
:102E580006F018FCDA20502106F0E0FED7ED067ADD
:102E6800B0EE670A062006F00DFCFA20602106F095
:102E7800D5FED7ED077AB0EE670A062006F002FC09
:102E88007020802106F0CAFED7ED087AB0EE670AF6
:102E9800062006F0F7FB7020902106F0BFFED7ED64
:102EA800097AB0EE670A062006F0ECFB00E000BFE6
:102EB8002837BD4680BD00BF80B500AF4FF4006025
:102EC800C4F202004FF40051FEF7EAFA1E20FFF7A1
:102ED80033F84FF40060C4F202004FF40051FEF7DB
:102EE800D1FA0A20FFF728F80720212100F024F85A
:102EF8000020012100F020F80720232100F01CF811
:102F08001020002100F018F81E20FFF715F8072000
:102F1800332100F011F8112046F2180100F00CF8E6
:102F280002204FF4C06100F007F8012042F63F315B
:102F380000F002F880BD00BF80B483B000AF024645
:102F48000B46FA80BB804FF6FE73C6F20103FA887F
:102F58001A804FF6FE73C6F20103BA885A800C37FE
:102F6800BD465DF8047B704780B582B000AF002392
:102F78003B6000237B601C200121FEF7BFFB4FF460
:102F880000533B6001233B7102237B713B464FF4A6
:102F98000060C4F202001946FEF7CCF94CF6B37390
:102FA8003B6002233B7102237B710023BB7100232A
:102FB800FB713B464FF44060C4F202001946FEF72D
:102FC800B9F94FF44060C4F2020000210C22FEF768
:102FD80075FA4FF44060C4F2020001210C22FEF79A
:102FE8006DFA4FF44060C4F2020004210C22FEF78F
:102FF80065FA4FF44060C4F2020005210C22FEF786
:103008005DFA4FF44060C4F2020007210C22FEF77B
:1030180055FA4FF44060C4F2020008210C22FEF772
:103028004DFA4FF44060C4F2020009210C22FEF769
:1030380045FA4FF44060C4F202000A210C22FEF760
:103048003DFA4FF44060C4F202000B210C22FEF757
:1030580035FA4FF44060C4F202000E210C22FEF74C
:103068002DFA4FF44060C4F202000F210C22FEF743
:1030780025FA4FF680733B6002233B7102237B7174
:103088000023BB710023FB713B464FF48050C4F210
:1030980002001946FEF74EF94FF48050C4F20200C0
:1030A80007210C22FEF70AFA4FF48050C4F20200FE
:1030B80008210C22FEF702FA4FF48050C4F20200F5
:1030C80009210C22FEF7FAF94FF48050C4F20200ED
:1030D8000A210C22FEF7F2F94FF48050C4F20200E4
:1030E8000B210C22FEF7EAF94FF48050C4F20200DB
:1030F8000C210C22FEF7E2F94FF48050C4F20200D2
:103108000D210C22FEF7DAF94FF48050C4F20200C8
:103118000E210C22FEF7D2F94FF48050C4F20200BF
:103128000F210C22FEF7CAF90837BD4680BD00BF43
:1031380080B596B000AF07F13C0300221A60043353
:1031480000221A60043300221A60043300221A6035
:10315800043300221A60043300221A600433002268
:103168001A6004333A463C23104600211A460BF0F5
:103178001DFE01200121FEF7E9FA0023FB630A2363
:103188007B640023FB6400237B6500233B600023F2
:103198007B600023BB601023FB6000233B6100239E
:1031A800BB610023FB6100233B624FF480537B62C9
:1031B8000023BB620023FB6200233B6307F13C034F
:1031C8007B6307F13C03BB6300237B613B461846E6
:1031D800FDF7E8FF00200121FEF782F85837BD46C9
:1031E80080BD00BF80B400AF45F6E053C2F20103D2
:1031F8001B681846BD465DF8047B704780B485B0EF
:1032080000AF786045F6E053C2F201031A687B68A4
:103218001344FB6000BF45F6E053C2F201031B688C
:10322800FA68D31A002BF6DC1437BD465DF8047B28
:10323800704700BF80B400AFBD465DF8047B70479F
:1032480080B58AB000AF04200121FEF7A7FA082054
:103258000121FEF753FA4FF400533B62022387F82B
:103268002430032387F82530002387F826300123EC
:1032780087F8273007F120034FF44060C4F20200BA
:103288001946FEF757F84FF44060C4F202000D21CA
:103298000222FEF713F94FF480533B62012387F8AB
:1032A8002430032387F82530002387F826300123AC
:1032B80087F8273007F120034FF44060C4F202007A
:1032C8001946FEF737F845F6F823C2F20103012242
:1032D8001A8040F65E03BB6145F6F823C2F201038B
:1032E8001B88BB820023BB830023FB8207F11403E6
:1032F8004FF40060C4F200001946FEF73BFB702350
:103308003B8001237B804FF47A73BB600023BB8131
:103318003B464FF40060C4F200001946FEF7E0FB9C
:103328004FF40060C4F200000821FEF74FFD4FF48F
:103338000060C4F200000121FEF792FB4FF4006028
:10334800C4F200000121FEF7ABFB2837BD4680BD63
:1033580080B400AFBD465DF8047B704780B400AF11
:10336800FEE700BF80B400AFFEE700BF80B400AF47
:10337800FEE700BF80B400AFBD465DF8047B704730
:1033880080B400AFBD465DF8047B704780B400AFE1
:10339800BD465DF8047B704780B500AF45F6E05345
:1033A800C2F201031B685A1C45F6E053C2F201033E
:1033B8001A60FEF7D9FD40F21A03C2F200031B7827
:1033C800013BDAB240F21A03C2F200031A7040F26B
:1033D8001A03C2F200031B78002B07D140F21A032C
:1033E800C2F2000364221A7000F0D0FA80BD00BF58
:1033F80080B584B000AF0346FB710023FB7300BFA8
:103408004FF46050C4F200000221FEF797FA034619
:10341800002BF5D0FB799BB24FF46050C4F200004A
:103428001946FEF77DFA00BF4FF46050C4F2000061
:103438000121FEF783FA0346002BF5D04FF46050C4
:10344800C4F20000FEF75EFA0346FB73FB7B1846E6
:103458001037BD4680BD00BF80B485B000AF78602E
:103468000023FB6002E0FB680133FB60FA687B68BD
:103478009A42F8D31437BD465DF8047B704700BF05
:1034880080B582B000AF0023FB804FF48060C4F2A7
:1034980002004FF40061FEF703F83220FFF7DCFF6B
:1034A800D020FFF7A5FF3220FFF7D6FF0020FFF757
:1034B8009FFF0346FB80FB881B02FB800020FFF771
:1034C80097FF03461A46FB881344FB804FF480603D
:1034D800C4F202004FF40061FDF7D4FFFB881B091A
:1034E800FB80FB88C3F30B03FB80FB881846083777
:1034F800BD4680BD80B582B000AF0023FB804FF48D
:103508008060C4F202004FF40061FDF7C9FF322069
:10351800FFF7A2FF9020FFF76BFF3220FFF79CFF19
:103528000020FFF765FF0346FB80FB881B02FB803A
:103538000020FFF75DFF03461A46FB881344FB8013
:103548004FF48060C4F202004FF40061FDF79AFF67
:10355800FB881B09FB80FB88C3F30B03FB80FB88FC
:1035680018460837BD4680BD80B500AFFFF7C2FFDB
:1035780003461A4645F6F853C2F201039A80FFF74C
:103588007FFF03461A4645F6F853C2F20103DA8074
:103598000123184680BD00BF80B582B000AF4FF44C
:1035A80080400121FEF722F94FF480400121FEF707
:1035B800F5F802200121FEF7A1F84FF48060C4F26B
:1035C80002000D210522FDF779FF4FF48060C4F257
:1035D80002000E210522FDF771FF4FF48060C4F24E
:1035E80002000F210522FDF769FF02233B71022328
:1035F8007B710023BB710223FB714FF400533B60C6
:103608003B464FF48060C4F202001946FDF792FE73
:103618004FF400433B603B464FF48060C4F2020025
:103628001946FDF787FE4FF480433B603B464FF455
:103638008060C4F202001946FDF77CFE4FF4006377
:103648003B6001233B710023BB7102237B71012383
:10365800FB713B464FF48060C4F202001946FDF747
:1036680069FE4FF48060C4F202004FF40061FDF778
:1036780009FF45F6E453C2F2010300221A8045F619
:10368800E453C2F201034FF482725A8045F6E453C0
:10369800C2F2010300229A8045F6E453C2F2010304
:1036A8000222DA8045F6E453C2F2010301221A81AC
:1036B80045F6E453C2F201034FF400725A8145F60D
:1036C800E453C2F2010330229A8145F6E453C2F270
:1036D80001030022DA8145F6E453C2F2010307220E
:1036E8001A824FF46050C4F2000045F6E451C2F269
:1036F8000101FEF7A3F84FF46050C4F20000012165
:10370800FEF7E0F84FF480400121FEF76FF8002340
:103718003B7102237B710023FB714FF480533B60A4
:103728003B464FF48060C4F202001946FDF702FEE2
:103738000837BD4680BD00BF80B58CB000AF002300
:1037480087F82D3000237B854FF48060C4F2020097
:103758004FF48051FDF77CFE0346002B40F01181A9
:10376800FFF702FF25E0FFF7FFFE0346002B20D0FE
:1037780097F82D1045F6F853C2F201039A884B00CA
:1037880007F13000034423F8302C97F82D1045F644
:10379800F853C2F20103DA8801F10A035B0007F16A
:1037A80030010B4423F8302C97F82D30013387F87B
:1037B8002D3097F82D30092BD5D997F82D300A2BB5
:1037C80040F0D980002387F82E30002387F82F3067
:1037D8003EE097F82F305B0007F13002134433F8CE
:1037E800302C97F82F3001335B0007F13000034489
:1037F80033F8303C9A4226D997F82F3001335B00D2
:1038080007F130010B4433F8303C7B8597F82F30B3
:10381800591C97F82F305B0007F13002134433F836
:10382800302C4B0007F13000034423F8302C97F874
:103838002F305B0007F130010B447A8D23F8302CD0
:10384800012387F82E3097F82F30013387F82F306F
:1038580097F82F2097F82D30013B9A42B9DB97F85B
:103868002E30002BAED1002387F82E30002387F8A6
:103878002F3045E097F82F300A335B0007F130020C
:10388800134433F8302C97F82F3001330A335B0098
:1038980007F13000034433F8303C9A422BD997F8AB
:1038A8002F3001330A335B0007F130010B4433F842
:1038B800303C7B8597F82F30591C97F82F300A3306
:1038C8005B0007F13002134433F8302C01F10A038E
:1038D8005B0007F13000034423F8302C97F82F30B1
:1038E8000A335B0007F130010B447A8D23F8302C42
:1038F800012387F82E3097F82F30013387F82F30BF
:1039080097F82F2097F82D30013B9A42B2DB97F8B1
:103918002E30002BA7D1FB881A463B891A447B8995
:103928001A4445F25653C5F2555383FB0201D31787
:10393800CB1A9AB245F6F853C2F201039A807B8BF0
:103948001A46BB8B1A44FB8B1A4445F25653C5F2F0
:10395800555383FB0201D317CB1A9AB245F6F85395
:10396800C2F20103DA8045F6FA23C2F2010301220A
:103978001A70012306E045F6FA23C2F20103002279
:103988001A70002318463037BD4680BD80B500AF99
:10399800FFF7D2FE45F6F853C2F201039B88A3F164
:1039A80067024AF6AB23C2F6AA2383FB0201D317A8
:1039B800CA1A45F64053C2F201031A6045F6F85395
:1039C800C2F20103DB881846FCF72CFD02460B46C1
:1039D800104619464FF000024FF00003C4F22103CD
:1039E800FCF7B0FE02460B4610461946FCF792FF5C
:1039F800024645F64053C2F201035A604FF4806014
:103A0800C4F202004FF48051FDF722FD0346002B5B
:103A180006D045F64053C2F2010300221A7205E0AF
:103A280045F64053C2F2010301221A7245F640508E
:103A3800C2F2010006F02EF880BD00BF73B50C4637
:103A48001546064668B107F09DFC012C019005D883
:103A580000EB84043046256501F060FA01A807F000
:103A68009FFC7CBD13B502AB426343F8041D416C57
:103A7800806C521A64246243411A92FBF1F0194691
:103A880007F05AFF019B252200201A7058701CBDB0
:103A980037B5456804462146284608F0E3F810B3D0
:103AA80023680B2B10D00F2B1AD1284607F06AFC7D
:103AB80002A941F8040D426E1468084607F070FC2C
:103AC8008CB12846A0470EE0284607F05BFC02AD03
:103AD80045F8040D383007F0A7FE284607F060FCCB
:103AE800204601F045FE3EBD806B07F04BBC2DE93A
:103AF800F041B0F90030B0F9047004460D46F81AE8
:103B0800B4F90210B4F90680471C1046C1EB080648
:103B180006F096F806F10108064606F0A9F8E26AEA
:103B2800B4F84030116803F00302012A06D0022AD3
:103B380009D1BF1B97FBF2F1298005E0CB43DF19C0
:103B4800BF1B2F8000E02980A28F2988C0EB0808BE
:103B5800531802219AB298FBF1F3E18F2A805B187F
:103B680099B2013A013896190B186980AE80EB803A
:103B7800BDE8F08170B590F86830C26A13F00106AC
:103B880015BFB0F90230B0F90030B0F90650B0F9FD
:103B980004501468ED1A436C806C01359942B8BF23
:103BA80019468142A8BF0146A5EB44050EB1411A4A
:103BB80000E0C91AC21A694391FBF2F3E01870BD1C
:103BC8002DE9F04387B00E9C0F9F0094274C019776
:103BD8000294129C4034039401F05CFA07460028D2
:103BE80040D0052007F0B5FE804600283AD0384678
:103BF80007F0C8FBDFF8809011990490002208F0C4
:103C080029F838461A491B4D07F08AFF049ED9F84F
:103C18000030C6F8388073660FCD06F14C040FC427
:103C280095E80300109A84E8030064210220002428
:103C3800A6F84000B16486F868207464404607F02E
:103C4800A1FB2246014605900498FFF70BFF05A843
:103C580007F0A6FB04A807F0A3FBD9F80030384604
:103C680059688847384607B0BDE8F083993A000894
:103C780008BB0208200000201C00002010B586B0F8
:103C8800089C0094099C01940A9C02940B9C039440
:103C980000240494FFF794FF06B010BD2DE9F0410D
:103CA8000D4686B00746002800F09F8007F06AFBA3
:103CB800436C816C466B00909D42B8BF1D468D4297
:103CC800A8BF0D46AE42044600F08C8090F868808C
:103CD80018F0010F1CD0B54207DA2946FFF74AFF52
:103CE8003146ADF80E00204606E03146FFF742FFA8
:103CF8002946ADF80E002046FFF73CFF002240F6AB
:103D0800FF73ADF80A00ADF80820ADF80C3064E098
:103D1800B54207DA2946FFF72DFF3146ADF808000E
:103D2800204606E03146FFF725FF2946ADF8080092
:103D38002046FFF71FFF08F00203ADF80C0040F61D
:103D4800FF720020D9B2ADF80A00ADF80E200029A4
:103D580043D1A06B0491059107F042FB042810DCC5
:103D680006AC54F8180D846B684607F019FB20461A
:103D7800052105F030FE0446384607F003FB0090A5
:103D880084630098FFF7B0FE019038B3009EF06C92
:103D980005F07CFD04A90646019A0098FFF7A7FEE6
:103DA80002A804AA06AC014605F004FF9DE803003A
:103DB8002A46FFF757FE54F8142D009804A9FFF778
:103DC80096FE02A8014604AA05F0F4FE304605F066
:103DD8005DFD204607F0E4FA00E06563384602A975
:103DE80001F060F8684607F0DBFA06B0BDE8F0813C
:103DF800F0B583688B4A0446406852F8235005287A
:103E080089B00ED006DC002840F00881206800F058
:103E1800F3FA03E1062800F08A80122840F0FE80B9
:103E2800ABE0EE69002E52D000962E6801966868C5
:103E38000290AB6804F1100203930FCA05F040F931
:103E4800002655F8260005F04FFDEF69A369606963
:103E58002169DA1B3018791805F070FFEF69E069FD
:103E68002169A269801B7918D21B05F067FFEB69ED
:103E780027696169E269F0195918D21A05F03EFFFD
:103E8800EB69A0696769E269801BD919D21A013602
:103E980005F034FF022ED4D1A86805F025FDEB69A2
:103EA8002069E6696169C71859187A1EF31A023041
:103EB80005F0E4FEEB69A2696169E769D01A59184F
:103EC8000130023AFB1A05F0D9FEEE6910E055F808
:103ED800260004F1100705F007FD97E80F003018D9
:103EE8007118921B9B1B013607F048FD022EEED17C
:103EF80004F110020FCAEF6800972F69CB18301829
:103F08000231921B5B10019706F028F8E36961699A
:103F180020695A185110A2696C690094AC6930186C
:103F280001940131921B023B06F018F876E02068F4
:103F380007F028FA0490206800F02EFA049D30B1AA
:103F4800A16851B92A6F131C18BF012306E0686FD6
:103F5800002814BF0223002300E0002308A850F81B
:103F6800105D05EB8301CD6E07F01AFA0022284692
:103F78002168134607F0DEFF50E0206807F002FAD8
:103F8800866E0490002E46D0A168B0F95C7021B10D
:103F980003290CBF0224002400E0012400EB840361
:103FA800406D1C6C05F072FC204605F09DFC06A8CF
:103FB80005F060FEA88BBDF81820BDF81C308118EC
:103FC8001C1ABDF81A00ADF81C4008AC821CADF8EC
:103FD8001810ADF81A20BDF81E1054F8102D8B1EBD
:103FE80006A8B2F95E10B2F96020ADF81E3005F0EF
:103FF800D1FD204607F0D4F9022005F03DFC3046FB
:1040080007F0C0F908AC06A944F80C0D3A4606F0CA
:10401800FEFA204600E004A807F0C2F9002009B023
:10402800F0BD00BF0465020830B58BB0002104461E
:10403800242201A80AF0BAFE204607F0A3F90AAB29
:10404800426E43F8280D9568684607F0A9F90020E4
:1040580002900194296801A888470BB030BD2DE96A
:10406800F0418AB0054607F08DF903460AA89E6A12
:1040780040F8283D68469C6D5F8E07F091F9284608
:1040880000F046FA8046284600F056FA0021431E02
:1040980008F1FF3216F01006019506910591079276
:1040A800089301D003220AE007F4807081B209B1B5
:1040B800039605E0FB0701D5012200E002220392E6
:1040C8000523029301A8A0470620029001A8A04753
:1040D8001221029101A8A0470A22029201A8A04732
:1040E8000AB0BDE8F08100000349044A044B1A6095
:1040F8004A6A486210467047C8000020B80000208D
:10410800F800002037B54FF48071044607F078FDB9
:10411800204607F037F902AB856A43F8040D1846C4
:1041280007F03EF9AB0703D52046012100F0D0F98E
:104138003EBDF7B505460C464FF4807107F075FD96
:10414800284607F01FF9024602A8966A40F8042D8F
:10415800178E07F025F9022C02D1384605F0F4FC39
:10416800B20703D52846214600F0B2F9FEBD73B563
:104178000D46044607F006F902AB468E43F8040DD7
:10418800184607F00DF9EA6862B1107A06F48071F2
:1041980020B159B92046FFF7B5FF07E031B12046F5
:1041A800022101E020460321FFF7C3FF7CBD000088
:1041B80037B5446805462946204607F053FD0028D0
:1041C8005DD02B680F2B16D004DC0B2B23D00E2BC5
:1041D80052D132E0282B48D0B3F5107F05D0112BEF
:1041E8004AD12748036813B949E026490B68204695
:1041F8002946984743E0204607F0C4F802A941F849
:10420800040D456E2D68084607F0CAF8002D36D013
:104218002046A84733E0204607F0B4F802AC0190E6
:10422800683007F001FB54F8040D03216C3007F0E7
:1042380003FB204607F0B4F81EE0EA680CCA0D2A12
:1042480002D0202A11D106E0002B0EDD2046FFF710
:1042580059FF204605E0002B204602DDFFF752FFFC
:104268000DE00221FFF765FF09E0EA6822B9204660
:104278004FF4807107F0D9FC284601F079FA3EBD69
:10428800FC5A0120C4000020F0B587B00C9C0D9F9B
:104298000094164C01970294109C4C34039400F03F
:1042A800F9FE0746F8B107F06DF8114D0F99059022
:1042B800102207F0CFFC06AE0FCD56F804ED0EF134
:1042C80034040FC40FCD0FC495E80F0084E80F0025
:1042D800084C23683046CEF8643007F061F820684F
:1042E800416838468847384607B0F0BDB9410008EC
:1042F800C8000020F800002010B586B0089C009483
:10430800099C01940A9C02940B9C03940024049435
:10431800FFF7BAFF06B010BD73B50C46054600B3EB
:1043280007F030F8866E00906846019607F038F876
:10433800214601A804F099FDD0F1010438BF0024FA
:1043480084B9019BB34208D0284607F01BF80199AD
:1043580000908166684607F023F8284600F0DEFDE5
:1043680000E0012420467CBD37B50C46054658B10F
:1043780007F008F8024602A8546540F8042D07F033
:104388000FF8284600F0CAFD3EBD11B1102107F014
:1043980037BC102107F049BC08B506F0E9FF806A70
:1043A80080F01001C1F3001008BD10B5044670B1CB
:1043B80000F0B4FD204600F0EBF804463CB120467E
:1043C800FFF7F3FF204606F0D3FF046AF6E710BDB7
:1043D80013B5044670B106F0D5FF826A01909307C1
:1043E80005D442F0020181622046FFF7DEFF01A8F2
:1043F80006F0D6FF1CBD000013B50446B8B106F0A0
:10440800C1FF836A0190DB070ED4204607F006FF40
:104418000198074B826A42F0010181621868421CC8
:1044280020461A6000F07AFD01A806F0B9FF1CBD0D
:10443800705E012030B587B00446002102A8102222
:104448000AF0B4FC002C3AD01F4B20481A6850F8E8
:104458002200844233D01E218DE81100029110B150
:1044680002A907F0B3FE0125204602A9059507F029
:10447800ADFE059D25BB144B14481A6840F8224030
:10448800204600F06DF8044638B100A920220591B5
:1044980002A9029207F09AFEF2E7009C204600F07B
:1044A80020F868B1204600F05BF8044640B12021AE
:1044B800029100AB02A9059307F088FEF2E70125F7
:1044C800284607B030BD00BF485E0120385E012095
:1044D8001FB5262303916946009308F055F905B0E6
:1044E80000BD00F08BBB13B588B106F04BFF826AA4
:1044F80002AC910744F8040D06D522F0020181624E
:10450800026A816900F085FC204606F049FF1CBD5F
:1045180013B508B900F07CFE06F034FF02ABB0F921
:104528000440B0F9002043F8040DA01A441C1846B2
:1045380006F036FF20461CBD13B508B900F068FE2A
:1045480006F020FF02ABB0F90640B0F9022043F8AC
:10455800040DA01A441C184606F022FF20461CBD74
:1045680008B5034610B106F003FF8369184608BD75
:104578001FB504460021102268460AF017FC1523CF
:1045880020466946009300F073FC039804B010BD00
:1045980008B5034610B106F0EBFEC369184608BD1E
:1045A80070B50D4686B00646D0B106F0EBFE019018
:1045B800846A15B124F0100201E044F0100294421C
:1045C8000BD0826201A806F0EBFE2823304602A930
:1045D8000293059507F0FAFD02E001A806F0E0FE57
:1045E80006B070BD0121FFF7DBBF0021FFF7D8BF80
:1045F8000A4A0B480B490023137003600B600A48F2
:104608000A4A0B49036013600B6043605360094812
:10461800094A0A49036013600B607047285B012050
:10462800005B01205C5E0120385E0120645E012091
:10463800705E0120245E0120505E0120605E012032
:1046480010B5044606F094FE836A044A044913F43C
:10465800803F08BF11462046884710BDB95400085E
:10466800795A00082DE9F341214C23680546986CD6
:1046780006F088FE0090284606F084FE0146019068
:104688000098083005F08AF9064640B302AE206863
:10469800019956F8082DD0F84C80076D154E01F198
:1046A8000800083204F090FC684606F079FE02A87B
:1046B800236850F8042D3560B2F90010B2F90220D1
:1046C800D9641A6506F06CFE2846FFF7B9FF23681F
:1046D80000203060C3F84C801F65012006E0684662
:1046E80006F05EFE01A806F05BFE3046BDE8FC81E0
:1046F8001C010020245E012030B585B0054606F077
:1047080041FE826A0190930704D401A806F048FE8E
:1047180005B030BDC469002CF7D0204606F032FE43
:10472800816A009001F00302032A33D1019908310C
:1047380005F034F900282DD00198083003C804ABDF
:1047480003E9030001A806F02BFE684606F028FEE0
:104758002046FFF787FF70B1204606F009FE00905B
:104768002046FFF7C9FF204606F002FE00902846C3
:1047780006F0FEFD0190284606F004FE0190204652
:1047880006F000FE04A90090019C11E9030008341A
:1047980084E8030004A850F8102D6846146A06F04F
:1047A800FFFDB8E7F0B5064685B00C461546002E65
:1047B8004CD0304606F0E6FD876A0190BA070146FC
:1047C8003DD502AE25B130462A4604F0FDFB02E095
:1047D80003C886E803002046314605F0DFF870B3C9
:1047E80017F0010F019B1ED13DB1B3F90220B5F9B5
:1047F80002008242A8BF104601E0B3F90200B4F9F2
:104808000210B4F90660884206DDBDF80A2011B22C
:104818008E4214DB531E04E0BDF80E3018B28642F7
:104828000DDDE3800BE0DE694EB13046214602AA79
:10483800FFF7B8FF304606F09BFD066AF4E704A8C8
:1048480050F80C6D366A06F0ABFDB0E705B0F0BD68
:104858002DE9FF4105460E4617460024002D38D0A5
:10486800284606F08FFDD0F82880019018F0020F36
:10487800014627D002AD27B128463A4604F0A4FBEA
:1048880002E003C885E803003046294605F086F8AB
:10489800C0B118F0010F05D1BDF80C00411C3180E2
:1048A80001240FE0019BDD6965B12846314602AA63
:1048B800FFF7CEFF002818BF0124284606F058FD50
:1048C800056AF1E704A850F80C2D156A06F068FD92
:1048D800C4E7204604B0BDE8F081F0B5044685B0D1
:1048E8000D461646002C31D0204606F04BFD876A4F
:1048F80001900146B80722D502AC26B120463246BF
:1049080004F062FB02E003C984E80300284621465C
:1049180005F044F898B1F90704D4BDF80800411E21
:10492800A9800CE0019BDC694CB12046294602AA0B
:10493800FFF7D3FF204606F01BFD046AF4E704A83E
:1049480050F80C2D146A06F02BFDCBE705B0F0BD2E
:1049580037B5044606F016FD826A019040F6010359
:104968001340012B05D001A806F01AFD2046FFF7D9
:1049780067FE1348016811B32046FFF7BDFE2046C5
:1049880006F0F6FC8569046ACDB194B1204606F0BC
:10499800EFFC826A02F00303032B02D12046FFF7E3
:1049A80061FE2046FFF7A8FE204606F0E1FC046AF7
:1049B800EBE7284606F0DCFC046A8569E4E73EBDBF
:1049C800705E01207FB5144D2B680646986C06F082
:1049D800D9FC00F1080301902A6893E80300083223
:1049E80002AC84E8030092E8030083E8030001A80E
:1049F80006F0D6FC3068FFF7ABFF2868806C06F03D
:104A0800C1FC00F10803019094E8030083E8030067
:104A180001A806F0C5FC7FBD1C010020F7B50746BC
:104A28000D46284606F0AEFC836A02AC13F0020677
:104A3800014644F8040D04D1204606F0B1FC304686
:104A480019E0384604F0F2FA0198866920466EB9F2
:104A580006F0A6FC08490A6895420BD04B68B5EBEE
:104A6800030CDCF1000050EB0C0004E006F098FCAD
:104A78003546D6E70120FEBD285E01207FB50446F5
:104A88000D46002947D006F07DFC00238561019082
:104A98000362284606F076FC0199C56902908E6A81
:104AA8002DB9C46101A806F07BFC02A831E02846B4
:104AB80006F068FC06F00806039076B9806A0207DB
:104AC8000BD5019A029B1562DC6101A806F068FC0F
:104AD80002A806F065FC03A81BE002A806F060FC2B
:104AE80003A806F05DFC284606F042FC0390039AF2
:104AF800156A0DB914620BE0284606F039FC002E41
:104B0800F4D1836A1B07F1D5039901980C620562F9
:104B180001A806F045FC7FBD70B5044606F028FCE8
:104B280005468069A8B106F023FCC369A34206467E
:104B380005D1184606F01CFC006AF06170BD43B14F
:104B4800184606F015FC036AA342F8D1296A0162E7
:104B580070BD70BD03460846B3F90220B3F90010D2
:104B680005F018B8114B30B51C68626C85B0054665
:104B7800BAB11068516802AB03C30D48006800B9A8
:104B8800A06C06F0FFFB04AC02A944F80C0DFFF77B
:104B9800E1FF204606F004FC02A8294604F046FA84
:104BA80002A803F035FC05B030BD00BF1C01002091
:104BB800245E01201FB50E4B186890F854200AB1E6
:104BC8000C4811E0806C06F0DDFB019003C802ACD4
:104BD80084E8030001A806F0E3FB0749096811B15E
:104BE8002046FFF71BFF2046FFF7BCFF1FBD00BF95
:104BF8001C010020145B0120245E0120064B10B527
:104C08000446186828B1A04204D006F0B1FB4069F8
:104C1800F8E710BD012010BD445E012013B504461D
:104C280000B306F0AFFB826A0190910717D5406A7E
:104C380040B10D4B1968A14204D002F0B9FA019AAB
:104C4800002050622046FFF7A3FC04463CB12046F2
:104C5800FFF7E4FF204606F08BFB046AF6E701A89D
:104C680006F09EFB1CBD00BF6C5E012038B5084BEA
:104C78000546186850B106F07BFB04464069A84217
:104C8800F8D106F075FB4069606138BD38BD00BFDA
:104C9800445E0120B0F90020B0F904309A4208DCE3
:104CA800B0F90210B0F906209142CCBF00200120D3
:104CB8007047002070470000F0B585B006460D46E5
:104CC800174606F055FB846A0190A00734D528469C
:104CD800FFF7E0FF00282FD040F601032340012B07
:104CE8002AD0304606F04EFB02AC02460190294617
:104CF800204604F069F92046FFF7CCFFC8B1019AB5
:104D0800966A44F22001314002F1080529B128468B
:104D18002946224604F04EFF0BE094E8030085E89C
:104D28000300064803883E4396625A1C028004F03A
:104D38005DFC01A806F034FB05B0F0BD405E012023
:104D48007FB50E461546044638B306F01BFB836A4A
:104D580001909B07024603D401A806F021FB1CE042
:104D680002A8314604F030F90028F5D001A806F071
:104D780017FB204602A92A46FFF79EFF2046FFF7A9
:104D880007FC04464CB1204602A92A46FFF7D8FF83
:104D9800204606F0EDFA046AF4E77FBD2DE9FF41ED
:104DA800804617461D460C46002930D0084606F0B6
:104DB800E9FA866A0190B107024625D502A841465C
:104DC80004F002F900B340F601033340012B07D188
:104DD800019A02A89169126A2B46FFF7DFFF04E0E7
:104DE800204602A92A46FFF767FF0198C4695CB10B
:104DF800BC4209D0204602A92A46FFF7A1FF204657
:104E080006F0B6FA046AF2E701A806F0C9FABDE8A6
:104E1800FF812023FFF7C2BF13B5044606F0B2FA9C
:104E28008169019041B1026AFFF7F3FF2046FFF75D
:104E380073FE01980022826101A806F0B1FA1CBD38
:104E480070B5054608460C46164606F091FA836A80
:104E580013F4803F2846214632460CBF20234FF4E6
:104E68008043BDE87040FFF799BF2022FFF724BFB9
:104E780008B107F0ABB970471FB504AB019043F810
:104E8800101D694607F0A2F905B000BD00230B808C
:104E980082884B800388D21A8A80C2884088131A75
:104EA800CB80704770B50E4686B00446002833D0D4
:104EB80006F068FA856A0190AB072AD503C806ABE5
:104EC80003E90300E80302D52046FFF7A7FE5EB119
:104ED8003068716802AA03C2019802A9FFF73AFE76
:104EE80004A802A904F0A2F804A82146FFF796FD39
:104EF80078B140F601002840012806D1019B04A89A
:104F080099691A6AFFF785FF03E0204604A9FFF7AD
:104F1800ACFF01A806F044FA06B070BD0021FFF707
:104F2800C1BF000010B5044606F022FA80690028C7
:104F3800F9D1054B1A68944205D05868844214BFC9
:104F48004FF0FF30012010BD285E012008B5FFF7A3
:104F5800E9FF002803DBBDE8084004F0EDBC08BD0C
:104F680038B50D4B196804468D6C08B90B4A14689E
:104F78008C642046FFF7EAFF03F05CFE204606F04B
:104F8800F7F9054BB0F900101B68B0F90200D964B5
:104F98001865284638BD00BF1C010020445E01206A
:104FA80073B50446002861D0FFF728FE00285DD0BD
:104FB8002046FFF7B7FF0B2106462046FFF75CFFA8
:104FC800204607F071FB204606F0DCF90190406AA4
:104FD80008B102F0EDF82648264B0568264A27480E
:104FE8000021196052F82530A34208BF42F8251065
:104FF80050F82510A14202D1002240F82520204D6A
:105008002D682DB16868A042FAD100236B60F7E7DC
:1050180020460721FFF75CFA019DE869FFF7C0FF0A
:10502800EB69002BF9D12046FFF7F6FE2046FFF783
:105038001DFE0198836AD90703D5124A1168481ED4
:1050480010609A0603D5104B1A88511E198001A8C2
:1050580006F0A6F90D4803885A1E0280204606F07D
:10506800CBF90B4951F82600FFF77AFF7CBD00BF4A
:10507800485E0120245B0120385E0120645E012027
:105088005C5E0120705E0120405E0120205E0120F0
:10509800285E01202DE9F74F0C9E9B464E4B80461B
:1050A800894692461D6866BB4C48018861B34C4AE4
:1050B8004C4B1468607C53F820104C1C24D019B356
:1050C8000E46304606F05EF9B0F90020B0F902400D
:1050D80001909044A144BAF1000F05D1B0F904A0A1
:1050E800C2EB0A0303F1010ABBF1000F05D1B0F9C5
:1050F80006B0C4EB0B0000F1010B01A806F050F953
:1051080002E0701CDDD100260F982C3006F021FC3F
:10511800044600285CD00D9F2F43304D29884A1C37
:105128002A8006F02FF902AB054643F8080D2E49F0
:10513800A0F80080A0F80290D044D944AA6A08F1E7
:10514800FF3809F1FF393940A0F80480A0F806902B
:105158000E9842EA01032861AB62684606F020F91E
:105168002249086848B106F003F90546204606F0CA
:10517800FFF86A6942616C6100E00C6020463146C4
:10518800FFF77CFCB80602D52046FFF7E9FEF907D1
:1051980003D517480368591C01607A0602D52046D2
:1051A80007F016FDBB070FD5204606F0EBF8836A1B
:1051B80002AA43F0020142F8080D8162684606F02F
:1051C800EFF82046FFF7AAFE20460121FFF754FE1C
:1051D8002046BDE8FE8F00BF505E0120205E012002
:1051E8001C010020285E01209F3F3F00445E0120F3
:1051F800705E01201FB500240094069C0194079C52
:105208000294089C0394FFF745FF04B010BD00000A
:10521800014B1868806C70471C01002030B55D4B4D
:10522800186890F8540085B0002800F0B1805A4BF7
:10523800596901292CDC03F108011A6903C90132F3
:1052480004AC1A6104E9030022B91A88ADF80820F1
:105258005A8812E098895989B3F90430ADF80A10D0
:10526800421C94B220B28342ADF8084007DA4A489B
:105278000488C389ADF808405A1CADF80A20464C8A
:10528800BDF90A10B4F90630994205DD424B596957
:10529800481E586100207BE03E4D2868806C06F06F
:1052A80071F8BDF90820B4F9001001908A4218D1AC
:1052B8002868E388A488826CADF80E30ADF80C40FD
:1052C80052B1104606F054F804460022006A02A9BA
:1052D800FFF768FAA269F3E70199C86902A9FFF71D
:1052E80061FA2C4BBDF808201C68ADF80C20A26CA4
:1052F80002AC62B1104606F03BF821460546002292
:10530800006AFFF7A5FA0028EBD1AA69F0E701982F
:105318002146C069FFF79CFA0028E2D11E4BBDF96F
:1053280008109A8810B28142ADF80C2008DD94E884
:105338000300083383E8030001A806F031F896E774
:10534800144D2C68A26C02AC52B1104606F010F84D
:1053580005460022006A2146FFF7BFFAAA69F2E76C
:1053680004AD214655F80C3DD869FFF7B6FA284632
:1053780006F016F8084B1A6944F620618A4285DC63
:1053880094E80300083383E80300FFF713FC0120C7
:1053980005B030BD1C0100200C5B012070B53B4BF3
:1053A8000546186890F8542086B012B9FFF702FC39
:1053B80068E0374C61694B1C012B636162DC806CCF
:1053C80005F0E0FF334900900B784FF0FF3222617F
:1053D80023B100F1080102AC03C905E0866A16F0A2
:1053E800020609D003C802AC84E8030065B102A82C
:1053F800294603F01BFE07E06069421E68466261A9
:1054080005F0CEFF30463EE0204B1868426CCAB12A
:10541800009C5168019410681F4C04AB03C32168B9
:1054280031B101A805F0BCFF206805F0ABFF019081
:10543800019804A9FFF78EFB02A804A903F0F6FD62
:1054480001A800E0684605F0ABFF1348016802AC0C
:1054580029B12046FFF7E2FA08B90D4B07E00B4ADD
:1054680013682046996CFFF7D9FA094B18B959699E
:105478004A1E5A6107E094E8030083E80300FFF737
:10548800CDFE00E0012006B070BD00BF1C01002069
:105498000C5B01204D5E0120245E012008B504F05C
:1054A80001FA024B18680022426408BD1C01002062
:1054B800F0B589B0044605F065FF07690190866A72
:1054C800083003C802AD85E8030001A805F068FFAD
:1054D800002F30D0B2072ED520462E2107F062F9D2
:1054E800164B1A78501C1870F3040AD50F2205942D
:1054F80004920795FFF7D2FF204604A906F066FE3E
:1055080011E02846FFF74AFF68B10F2102AB04916A
:1055180007930594FFF7C2FF204604A906F056FE3C
:10552800FFF77CFEF0E7054801784B1E03702F213A
:10553800204607F037F909B0F0BD00BF4D5E0120E5
:105548002DE9F04188B006AE039005F01BFF034635
:1055580000F10802059092E803009D6A9F69D3F85C
:10556800108044F2200486E803002C4005A805F0CA
:1055780017FF002C35D0B8F1000F17D0304603992B
:10558800FFF74CFA90B10398FFF7EAFC68070FD5CC
:1055980027B105F0010585F0010500E0012500951A
:1055A80006A8124903AA002300F0BCFA002403E06D
:1055B8000398FFF7CDF90124039805F0E3FE816A0B
:1055C800059021F4804323F02002890448BF42F06B
:1055D8000402826205A805F0E3FE054801884B1E17
:1055E8000380204608B0BDE8F08100BFCD4900081F
:1055F800405E01202DE9F0434B4B18689FB000B185
:105608008047002649490A68E2B1494C2468BCB180
:10561800204605F0B7FE856A1EA915F4004F41F82B
:10562800740D456907D0084605F0BAFE2046FFF715
:10563800B7FC2C46EBE708462C4605F0B1FEE6E73A
:105648003A4D2C603B4B186800B180473A490A68CC
:105658002AB93A4C256895F8543043B103E090478D
:105668000028F6D055E004F077FA002851D12068D8
:1056780090F854504DB132490D8835B1314A15680A
:10568800002D48D02B68984701252C48016891F8CF
:10569800542012B9002D33D141E0294B1888002835
:1056A800F8D0294F3C680CB9214C246802A804F0B2
:1056B80061F922490A68D2F83080576B24B900246E
:1056C8000DE0B9F1000F0AD12046FFF739FF8146F6
:1056D800204605F04DFE4469002CF2D1EFE71A4B45
:1056E80040461C6004F000F9384604F0FBF802A8B4
:1056F80004F04AF9124801880029CBD00126C4E7F2
:10570800104A106810B14368984708E003F054FC49
:1057180005E0012676E7012003F04EFCB4E73046A9
:105728001FB0BDE8F08300BF345E0120005B01209C
:10573800445E0120305E0120A45E01201C0100208F
:10574800405E0120605E0120245B0120024B186846
:10575800012280F8542070471C010020034B186870
:10576800002280F8542003F065BA00BF1C01002015
:1057780010B5044640682368E168172B0FD006DC93
:105788000E2B0ED0142B14D107F0ACF911E0222BFC
:105798000CD0282B0DD1BDE81040FFF7BFBBE0604F
:1057A80010BD2146BDE8104006F0EEBF6FF0704016
:1057B80000E00020E06010BD03680E2B10B5044621
:1057C80002D00F2B21D108E0C3685868012821D1E5
:1057D8001868BDE8104004F0B7B90F4A406811686E
:1057E800884206D05368984214BF4FF0FF3001201A
:1057F80000E00020094A52F820006FF0704188420A
:1058080003D004F06FF805F00BF92046BDE810400E
:10581800FFF7AEBF10BD00BF285E0120545E012017
:105828001FB52B4B187800284FD12A492A4A2B4CF0
:105838000860106023682A492A4A58640880108042
:105848000446204604F0D4FFC8B1274843F6FF7247
:105858004FF0FF334FF0020E029000208DE8084011
:10586800014613460390FFF715FC204B204A43F8E6
:1058780024006FF0704142F82410FFF74FFB013409
:10588800022CDED11B4807F04BF91B4807F048F9FA
:105898001A4807F045F91A4807F042F9194807F07D
:1058A8003FF9194807F03CF910480068FFF758FB22
:1058B800FFF74CFF064B1548154A01211970026085
:1058C80004B0BDE8104005F0BBB804B010BD00BF7F
:1058D800285B0120445E0120245B01201C0100207C
:1058E800405E0120205E0120C1570008285E01208B
:1058F800545E0120845F0120745F0120645F0120F1
:105908008C5F01207C5F01206C5F0120045B01201B
:10591800F94500082DE9F04387B0044605F032FD4B
:10592800034606A8B3F90460B3F90070B3F906504A
:10593800B3F9028040F8043DD3F8249005F030FD17
:10594800F01B461CC8EB05014D1C002E4BDD002D3D
:1059580049DDB9F1000F48D0484605F013FD06A906
:10596800B0F9046041F8080DC588084605F018FD2F
:10597800BE4202D12DB2454530D04846394642464E
:1059880000F084F82AE0826A42F480338362084691
:1059980005F006FD384601F067FC8046484603F0EE
:1059A800A5FF384605FB06F72C4E2D4D00F0AEF846
:1059B80031782C4EBA0003F02EFA20462F68346056
:1059C80007F072F828602046FFF772FD00202F606C
:1059D800306003F08BFF404601F046FC204605F09E
:1059E800C7FC406A37E0002035E007F06FF88442D2
:1059F80012D102F0CDFD814602F0D2FD4E4502DC07
:105A0800854209DD00E04E468542A8BF054631467D
:105A180020462A4606F078FE134A144B01924FF0AE
:105A2800010941460293384632462B46CDF800908C
:105A380001F02CFB0746204605F0A4FC06A94762A6
:105A480041F8040D002F9ED1084605F0A9FC204618
:105A5800FFF72EFD384607B0BDE8F083FC000020B4
:105A68007C5E01206C5E012054650208F0BA0208D1
:105A780038B5054605242846FFF74CFF10B9013C08
:105A8800F9D138BDBDE8384007F0AABD37B50D4695
:105A9800144618B9114B1868006EE8B105F072FC8D
:105AA800A4B2ADB2C4808580009003F0C3F8009919
:105AB800486970B105F066FC009B01901A89598904
:105AC8008280C18012B109B10580448001A805F027
