:020000040800F2
:10000000140800202510000885100008851000083D
:100010008510000885100008851000080000000009
:100020000000000000000000000000008510000833
:1000300085100008000000008510000881210008DC
:10004000851000088510000885100008851000083C
:10005000851000088510000885100008851000082C
:10006000851000088510000885100008851000081C
:10007000851000088510000885100008851000080C
:1000800085100008851000088510000885100008FC
:1000900085100008851000088510000885100008EC
:1000A00085100008851000088510000885100008DC
:1000B000851000088D2100088510000885100008B3
:1000C00085100008851000088510000885100008BC
:1000D00085100008851000088510000885100008AC
:1000E000851000088510000885100008851000089C
:1000F000851000088510000885100008851000088C
:10010000851000088510000885100008851000087B
:10011000851000088510000885100008851000086B
:10012000851000088510000885100008851000085B
:10013000851000088510000885100008851000084B
:10014000851000088510000885100008851000083B
:10015000851000088510000885100008851000082B
:10016000851000088510000885100008851000081B
:10017000851000088510000885100008851000080B
:0801800085100008851000083D
:1001880081F0004102E000BF83F0004330B54FEA40
:1001980041044FEA430594EA050F08BF90EA020FAD
:1001A8001FBF54EA000C55EA020C7FEA645C7FEA40
:1001B800655C00F0E2804FEA5454D4EB5555B8BF63
:1001C8006D420CDD2C4480EA020281EA030382EAD4
:1001D800000083EA010180EA020281EA0303362D66
:1001E80088BF30BD11F0004F4FEA01314FF4801C39
:1001F8004CEA113102D0404261EB410113F0004F4B
:100208004FEA03334CEA133302D0524263EB430301
:1002180094EA050F00F0A780A4F10104D5F1200E9F
:100228000DDB02FA0EFC22FA05F2801841F10001FA
:1002380003FA0EF2801843FA05F359410EE0A5F1CE
:1002480020050EF1200E012A03FA0EFC28BF4CF0FF
:10025800020C43FA05F3C01851EBE37101F00045B5
:1002680007D54FF0000EDCF1000C7EEB00006EEBC2
:100278000101B1F5801F1BD3B1F5001F0CD349084C
:100288005FEA30004FEA3C0C04F101044FEA4452A3
:1002980012F5800F80F09A80BCF1004F08BF5FEA2A
:1002A800500C50F1000041EB045141EA050130BD0A
:1002B8005FEA4C0C404141EB010111F4801FA4F1AD
:1002C8000104E9D191F0000F04BF01460020B1FA02
:1002D80081F308BF2033A3F10B03B3F120020CDA3A
:1002E8000C3208DD02F1140CC2F10C0201FA0CF018
:1002F80021FA02F10CE002F11402D8BFC2F1200C7D
:1003080001FA02F120FA0CFCDCBF41EA0C01904032
:10031800E41AA2BF01EB0451294330BD6FEA04047B
:100328001F3C1CDA0C340EDC04F11404C4F1200266
:1003380020FA04F001FA02F340EA030021FA04F378
:1003480045EA030130BDC4F10C04C4F1200220FACF
:1003580002F001FA04F340EA0300294630BD21FA0D
:1003680004F0294630BD94F0000F83F4801306BFD3
:1003780081F480110134013D4EE77FEA645C18BFC7
:100388007FEA655C29D094EA050F08BF90EA020F5E
:1003980005D054EA000C04BF1946104630BD91EA56
:1003A800030F1EBF0021002030BD5FEA545C05D159
:1003B8004000494128BF41F0004130BD14F5800498
:1003C8003CBF01F5801130BD01F0004545F0FE410C
:1003D80041F470014FF0000030BD7FEA645C1ABF41
:1003E800194610467FEA655C1CBF0B46024650EA78
:1003F800013406BF52EA033591EA030F41F40021A4
:1004080030BD00BF90F0000F04BF0021704730B529
:100418004FF4806404F132044FF000054FF00001FE
:1004280050E700BF90F0000F04BF0021704730B5BF
:100438004FF4806404F1320410F0004548BF404294
:100448004FF000013EE700BF42004FEAE2014FEAE9
:1004580031014FEA02701FBF12F07F4393F07F4FC4
:1004680081F06051704792F0000F14BF93F07F4FF6
:10047800704730B54FF4607401F0004521F0004139
:1004880020E700BF50EA010208BF704730B54FF0BF
:1004980000050AE050EA010208BF704730B511F0C4
:1004A800004502D5404261EB41014FF4806404F1FC
:1004B80032045FEA915C3FF4DCAE4FF003025FEA7E
:1004C800DC0C18BF03325FEADC0C18BF033202EB06
:1004D800DC02C2F1200300FA03FC20FA02F001FA60
:1004E80003FE40EA0E0021FA02F11444C1E600BFFF
:1004F80070B54FF0FF0C4CF4E06C1CEA11541DBFB2
:100508001CEA135594EA0C0F95EA0C0F00F0DEF87C
:100518002C4481EA030621EA4C5123EA4C5350EA61
:10052800013518BF52EA033541F4801143F48013B2
:1005380038D0A0FB02CE4FF00005E1FB02E506F043
:100548000042E0FB03E54FF00006E1FB03569CF098
:10055800000F18BF4EF0010EA4F1FF04B6F5007F9E
:1005680064F5407404D25FEA4E0E6D4146EB060610
:1005780042EAC62141EA55514FEAC52040EA5E5099
:100588004FEACE2EB4F1FD0C88BFBCF5E06F1ED843
:10059800BEF1004F08BF5FEA500E50F1000041EB7A
:1005A800045170BD06F0004646EA010140EA020027
:1005B80081EA0301B4EB5C04C2BFD4EB0C0541EA49
:1005C800045170BD41F480114FF0000E013C00F35E
:1005D800AB8014F1360FDEBF002001F0004170BD82
:1005E800C4F10004203C35DA0C341BDC04F114049B
:1005F800C4F1200500FA05F320FA04F001FA05F227
:1006080040EA020001F0004221F0004110EBD370F3
:1006180021FA04F642EB06015EEA430E08BF20EA1F
:10062800D37070BDC4F10C04C4F1200500FA04F3C2
:1006380020FA05F001FA04F240EA020001F0004154
:1006480010EBD37041F100015EEA430E08BF20EAC7
:10065800D37070BDC4F1200500FA05F24EEA020E0F
:1006680020FA04F301FA05F243EA020321FA04F03E
:1006780001F0004121FA04F220EA020000EBD370F5
:100688005EEA430E08BF20EAD37070BD94F0000FF5
:100698000FD101F00046400041EB010111F4801F29
:1006A80008BF013CF7D041EA060195F0000F18BFDA
:1006B800704703F00046520043EB030313F4801F16
:1006C80008BF013DF7D043EA0603704794EA0C0FD0
:1006D8000CEA135518BF95EA0C0F0CD050EA4106E6
:1006E80018BF52EA4306D1D181EA030101F0004163
:1006F8004FF0000070BD50EA410606BF104619468B
:1007080052EA430619D094EA0C0F02D150EA013696
:1007180013D195EA0C0F05D152EA03361CBF1046D7
:1007280019460AD181EA030101F0004141F0FE4176
:1007380041F470014FF0000070BD41F0FE4141F4FA
:10074800780170BD70B54FF0FF0C4CF4E06C1CEAFA
:1007580011541DBF1CEA135594EA0C0F95EA0C0FAF
:1007680000F0A7F8A4EB050481EA030E52EA03356A
:100778004FEA013100F088804FEA03334FF080558B
:1007880045EA131343EA12634FEA022245EA1115B8
:1007980045EA10654FEA00260EF000419D4208BF69
:1007A800964244F1FD0404F5407402D25B084FEA16
:1007B8003202B61A65EB03055B084FEA32024FF4C2
:1007C80080104FF4002CB6EB020E75EB030E22BF1F
:1007D800B61A754640EA0C005B084FEA3202B6EBDF
:1007E800020E75EB030E22BFB61A754640EA5C008E
:1007F8005B084FEA3202B6EB020E75EB030E22BF1E
:10080800B61A754640EA9C005B084FEA3202B6EB1E
:10081800020E75EB030E22BFB61A754640EADC00DD
:1008280055EA060E18D04FEA051545EA16754FEA3F
:1008380006164FEAC30343EA52734FEAC2025FEA5D
:100848001C1CC0D111F4801F0BD141EA00014FF0EC
:1008580000004FF0004CB6E711F4801F04BF0143BD
:100868000020B4F1FD0C88BFBCF5E06F3FF6AFAED9
:10087800B5EB030C04BFB6EB020C5FEA500C50F169
:10088800000041EB045170BD0EF0004E4EEA1131EC
:1008980014EB5C04C2BFD4EB0C0541EA045170BDF3
:1008A80041F480114FF0000E013C90E645EA060E37
:1008B8008DE60CEA135594EA0C0F08BF95EA0C0F65
:1008C8003FF43BAF94EA0C0F0AD150EA01347FF4AD
:1008D80034AF95EA0C0F7FF425AF104619462CE784
:1008E80095EA0C0F06D152EA03353FF4FDAE1046E7
:1008F800194622E750EA410618BF52EA43067FF438
:10090800C5AE50EA41047FF40DAF52EA43057FF4C7
:10091800EBAE12E74FEA410212F5001215D211D5DB
:100928006FF47873B3EB625212D94FEAC12343F0E4
:10093800004343EA505311F0004F23FA02F018BF66
:10094800404270474FF00000704750EA013005D12F
:1009580011F0004008BF6FF0004070474FF00000F2
:10096800704700BF80F0004002E000BF81F0004106
:1009780042001FBF5FEA410392EA030F7FEA226C3D
:100988007FEA236C6AD04FEA1262D2EB1363C1BFCD
:10099800D218414048404140B8BF5B42192B88BF3C
:1009A800704710F0004F40F4000020F07F4018BF5F
:1009B800404211F0004F41F4000121F07F4118BF7F
:1009C800494292EA030F3FD0A2F1010241FA03FC27
:1009D80010EB0C00C3F1200301FA03F100F000430F
:1009E80002D5494260EB4000B0F5000F13D3B0F1D7
:1009F800807F06D340084FEA310102F10102FE2A46
:100A080051D2B1F1004F40EBC25008BF20F00100B5
:100A180040EA03007047490040EB000010F4000F63
:100A2800A2F10102EDD1B0FA80FCACF1080CB2EBF6
:100A38000C0200FA0CF0AABF00EBC2505242184355
:100A4800BCBFD0401843704792F0000F81F40001FA
:100A580006BF80F400000132013BB5E74FEA4103CD
:100A68007FEA226C18BF7FEA236C21D092EA030F39
:100A780004D092F0000F08BF0846704790EA010FB3
:100A88001CBF0020704712F07F4F04D1400028BFE0
:100A980040F00040704712F100723CBF00F50000C2
:100AA800704700F0004343F0FE4040F400007047F8
:100AB8007FEA226216BF08467FEA236301464202A4
:100AC80006BF5FEA412390EA010F40F480007047B7
:100AD8004FF0000304E000BF10F0004348BF40425D
:100AE8005FEA000C08BF704743F0964301464FF099
:100AF80000001CE050EA010208BF70474FF00003F5
:100B08000AE000BF50EA010208BF704711F0004335
:100B180002D5404261EB41015FEA010C02BF844605
:100B28000146002043F0B64308BFA3F18053A3F564
:100B38000003BCFA8CF2083AA3EBC25310DB01FAAB
:100B480002FC634400FA02FCC2F12002BCF1004F2F
:100B580020FA02F243EB020008BF20F001007047C0
:100B680002F1200201FA02FCC2F1200250EA4C0014
:100B780021FA02F243EB020008BF20EADC7070475A
:100B88004FF0FF0C1CEAD0521EBF1CEAD15392EA68
:100B98000C0F93EA0C0F6FD01A4480EA010C400244
:100BA80018BF5FEA41211ED04FF0006343EA50109E
:100BB80043EA5111A0FB01310CF00040B1F5000FE0
:100BC8003EBF490041EAD3715B0040EA010062F18F
:100BD8007F02FD2A1DD8B3F1004F40EBC25008BF79
:100BE80020F00100704790F0000F0CF0004C08BF97
:100BF80049024CEA502040EA51207F3AC2BFD2F164
:100C0800FF0340EAC250704740F400004FF0000371
:100C1800013A5DDC12F1190FDCBF00F000407047AB
:100C2800C2F10002410021FA02F1C2F1200200FAE9
:100C380002FC5FEA310040F1000053EA4C0308BFB0
:100C480020EADC70704792F0000F00F0004C02BF01
:100C5800400010F4000F013AF9D040EA0C0093F07C
:100C6800000F01F0004C02BF490011F4000F013BD6
:100C7800F9D041EA0C018FE70CEAD15392EA0C0F44
:100C880018BF93EA0C0F0AD030F0004C18BF31F0AF
:100C9800004CD8D180EA010000F00040704790F085
:100CA800000F17BF90F0004F084691F0000F91F029
:100CB800004F14D092EA0C0F01D142020FD193EAEF
:100CC8000C0F03D14B0218BF084608D180EA010077
:100CD80000F0004040F0FE4040F40000704740F053
:100CE800FE4040F4400070474FF0FF0C1CEAD05221
:100CF8001EBF1CEAD15392EA0C0F93EA0C0F69D07D
:100D0800A2EB030280EA010C49024FEA402037D0E7
:100D18004FF0805343EA111143EA10130CF00040DE
:100D28008B4238BF5B0042F17D024FF4000C8B42CE
:100D380024BF5B1A40EA0C00B3EB510F24BFA3EBAE
:100D4800510340EA5C00B3EB910F24BFA3EB91037E
:100D580040EA9C00B3EBD10F24BFA3EBD10340EAD8
:100D6800DC001B0118BF5FEA1C1CE0D1FD2A3FF61E
:100D780050AF8B4240EBC25008BF20F001007047D3
:100D88000CF0004C4CEA50207F32C2BFD2F1FF0376
:100D980040EAC250704740F400004FF00003013AA7
:100DA80037E792F0000F00F0004C02BF400010F44B
:100DB800000F013AF9D040EA0C0093F0000F01F05F
:100DC800004C02BF490011F4000F013BF9D041EA81
:100DD8000C0195E70CEAD15392EA0C0F08D14202B4
:100DE8007FF47DAF93EA0C0F7FF470AF084676E787
:100DF80093EA0C0F04D14B023FF44CAF08466EE760
:100E080030F0004C18BF31F0004CCAD130F000422D
:100E18007FF45CAF31F000437FF43CAF5FE700BF85
:100E28004FF0FF3C06E000BF4FF0010C02E000BFAE
:100E38004FF0010C4DF804CD4FEA40024FEA410350
:100E48007FEA226C18BF7FEA236C11D001B052EA06
:100E5800530C18BF90EA010F58BFB2EB030088BFCC
:100E6800C81738BF6FEAE17018BF40F0010070473B
:100E78007FEA226C02D15FEA402C05D17FEA236C1D
:100E8800E4D15FEA412CE1D05DF8040B704700BF64
:100E9800844608466146FFE70FB5FFF7C9FF0028FB
:100EA80048BF10F1000F0FBD4DF808EDFFF7F4FF34
:100EB8000CBF012000205DF808FB00BF4DF808EDCD
:100EC800FFF7EAFF34BF012000205DF808FB00BFF0
:100ED8004DF808EDFFF7E0FF94BF012000205DF812
:100EE80008FB00BF4DF808EDFFF7D2FF94BF0120C3
:100EF80000205DF808FB00BF4DF808EDFFF7C8FFBC
:100F080034BF012000205DF808FB00BF4FF0FF3C14
:100F180006E000BF4FF0010C02E000BF4FF0010CEB
:100F28004DF804CD4FEA410C7FEA6C5C4FEA430C64
:100F380018BF7FEA6C5C1BD001B050EA410C0CBFB3
:100F480052EA430C91EA030F02BF90EA020F002015
:100F5800704710F1000F91EA030F58BF994208BF7C
:100F680090422CBFD8176FEAE37040F00100704739
:100F78004FEA410C7FEA6C5C02D150EA013C07D190
:100F88004FEA430C7FEA6C5CD6D152EA033CD3D0DB
:100F98005DF8040B704700BF8446104662468C46D5
:100FA8001946634600E000BF01B5FFF7B7FF002808
:100FB80048BF10F1000F01BD4DF808EDFFF7F4FF31
:100FC8000CBF012000205DF808FB00BF4DF808EDBC
:100FD800FFF7EAFF34BF012000205DF808FB00BFDF
:100FE8004DF808EDFFF7E0FF94BF012000205DF801
:100FF80008FB00BF4DF808EDFFF7CEFF94BF0120B6
:1010080000205DF808FB00BF4DF808EDFFF7C4FFAE
:1010180034BF012000205DF808FB00BF80B582B016
:1010280000AF43F21873C0F600037B6040F2000380
:10103800C2F200033B6007E03B681A1D3A607A6819
:10104800111D796012681A603A6840F21403C2F2FE
:1010580000039A42F0D3074807494FF0000288423C
:10106800B8BF40F8042BFADB00F008FF0837BD468C
:1010780080BD0000140800203421002080B400AF97
:10108800FEE700BF80B500AF4FF46053C4F202031F
:101098004FF46052C4F20202126842F001021A6070
:1010A8004FF46053C4F2020300229A604FF4605375
:1010B800C4F202034FF46052C4F20202126822F032
:1010C800847222F480321A604FF46053C4F202032F
:1010D80043F21002C2F200425A604FF46053C4F265
:1010E80002034FF46052C4F20202126822F4802212
:1010F8001A604FF46053C4F202030022DA6000F071
:1011080009F84FF46D43CEF200034FF000629A6085
:1011180080BD00BF80B483B000AF00237B60002394
:101128003B604FF46053C4F202034FF46052C4F2C0
:101138000202126842F480321A604FF46053C4F21B
:1011480002031B6803F400333B607B6801337B6058
:101158003B68002B03D17B68B3F5A06FEDD14FF44A
:101168006053C4F202031B6803F40033002B02D05F
:1011780001233B6001E000233B603B68012B40F00A
:1011880082804FF46053C4F202034FF46052C4F2F9
:101198000202126C42F080521A644FF4E043C4F227
:1011A80000034FF4E042C4F20002126842F48042A5
:1011B8001A604FF46053C4F202034FF46052C4F251
:1011C800020292689A604FF46053C4F202034FF42B
:1011D8006052C4F20202926842F400429A604FF4EC
:1011E8006053C4F202034FF46052C4F202029268E0
:1011F80042F4A0529A604FF46053C4F2020345F2DD
:101208000842C0F240725A604FF46053C4F20203BD
:101218004FF46052C4F20202126842F080721A60FF
:1012280000BF4FF46053C4F202031B6803F000735D
:10123800002BF6D04FF47053C4F2020340F205625B
:101248001A604FF46053C4F202034FF46052C4F2C0
:101258000202926822F003029A604FF46053C4F2CB
:1012680002034FF46052C4F20202926842F0020292
:101278009A6000BF4FF46053C4F202039B6803F006
:101288000C03082BF6D10C37BD465DF8047B70477C
:1012980080B485B000AF78600023FB730023BB7374
:1012A8000F237B737B68DB78002B40D04FF46D43B2
:1012B800CEF20003DB68DB4303F4E0631B0AFB7335
:1012C800FB7BC3F10403BB737A7BFB7B42FA03F31A
:1012D8007B737B685B781A46BB7B02FA03F3FB736C
:1012E8007B689A787B7B1340DAB2FB7B1343FB73F2
:1012F800FB7B1B01FB734FF46143CEF200037A685A
:1013080012781344FA7B83F800234FF46143CEF23A
:1013180000037A6812785209D2B27968097801F024
:101328001F01012000FA01F143F8221011E04FF4E7
:101338006143CEF200037A6812785209D2B2796812
:10134800097801F01F01012000FA01F1203243F869
:1013580022101437BD465DF8047B704780B487B00F
:1013680000AF7860396000237B6100233B61002374
:10137800FB6000237B6176E07B69012202FA03F3BC
:101388003B613B681A683B691340FB60FA683B693C
:101398009A4265D17B681A687B695B00032101FA70
:1013A80003F3DB431A407B681A607B681A683B6862
:1013B8001B7919467B695B0001FA03F31A437B68C2
:1013C8001A603B681B79012B03D03B681B79022B01
:1013D8002ED17B689A687B695B00032101FA03F3CD
:1013E800DB431A407B689A607B689A683B685B7944
:1013F80019467B695B0001FA03F31A437B689A601C
:101408007B685A687B699BB2012101FA03F3DB43CD
:101418001A407B685A607B685A683B689B79194612
:101428007B699BB201FA03F39BB21A437B685A604B
:101438007B68DA687B699BB25B00032101FA03F3DE
:10144800DB431A407B68DA607B68DA683B68DB79E3
:1014580019467B695B0001FA03F31A437B68DA607B
:101468007B6901337B617B690F2B85D91C37BD46AE
:101478005DF8047B704700BF80B483B000AF78602C
:101488000B467B807B687A881A830C37BD465DF8EB
:10149800047B704780B483B000AF78600B467B80D4
:1014A8007B687A885A830C37BD465DF8047B7047A1
:1014B80080B483B000AF786013460A467A807B70A8
:1014C8007B78002B03D07B687A881A8302E07B68DC
:1014D8007A885A830C37BD465DF8047B704700BF95
:1014E80080B485B000AF786013460A467A807B7076
:1014F8000023FB600023BB607A787B8803F0070336
:101508009B0002FA03F3FB607B88DB089BB21A4658
:101518007B88DB089BB219467B68083153F8211099
:101528007B8803F007039B000F2000FA03F3DB43DB
:1015380019407B68083243F822107B88DB089BB28D
:101548001A467B68083253F82220FB681343BB60B5
:101558007B88DB089BB21A467B680832B96843F877
:1015680022101437BD465DF8047B70470000000068
:101578002DE9B04388B000AFF860B9607A60002305
:10158800FB610023BB614FF000037B614FF000005B
:10159800C4F2B430B968FFF7A7FB03467B610023A8
:1015A800FB6139E07868FEF73DFF80468946F869B7
:1015B800FFF792FA034618467969FFF7E1FA0346FE
:1015C8001846FEF741FF02460B46104619461AA375
:1015D800D3E90023FEF78CFF02460B461046194656
:1015E80000F02AFE02460B4640464946FEF780FFB9
:1015F80002460B46144623F0004520462946FFF7CD
:1016080089F90346BB61FB699B00FA681344BA6910
:101618001A60FB690133FB61F869FFF75DFA03465D
:101628001846B968FFF754FC0346002BBAD1184690
:101638002037BD46BDE8B08312E7FAA146DF913FE7
:1016480080B586B000AF78600220012100F086F8EE
:101658000023BB810023FB817B683B610023BB82A5
:101668000023BB7507F10C034FF48060C4F200003F
:10167800194600F09BF84FF48060C4F20000012185
:1016880000F00AF918461837BD4680BD80B588B005
:1016980000AF78607023BB810123FB8102233B8369
:1016A8007B687B6107F10C034FF48060C4F2000093
:1016B800194600F097F94FF48060C4F20000082141
:1016C80000F014FA2037BD4680BD00BF80B588B051
:1016D80000AF78607023BB810123FB8102233B8329
:1016E8007B687B6107F10C034FF48060C4F2000053
:1016F800194600F0F1F84FF48060C4F200000821A8
:1017080000F0D8F92037BD4680BD00BF80B483B053
:1017180000AF78600B46FB70FB78002B0CD04FF4C1
:101728006053C4F202034FF46052C4F20202116B18
:101738007A680A431A630CE04FF46053C4F2020358
:101748004FF46052C4F20202116B7A68D2430A4025
:101758001A630C37BD465DF8047B704780B483B0CC
:1017680000AF78600B46FB70FB78002B0CD04FF471
:101778006053C4F202034FF46052C4F20202116CC7
:101788007A680A431A640CE04FF46053C4F2020307
:101798004FF46052C4F20202116C7A68D2430A40D4
:1017A8001A640C37BD465DF8047B704780B485B079
:1017B80000AF786039600023FB817B681B88FB8160
:1017C8007A680023C4F201039A421FD07A684FF462
:1017D8008063C4F201039A4218D07B68B3F1804F4A
:1017E80014D07A684FF48063C4F200039A420DD093
:1017F8007A684FF40063C4F200039A4206D07A680C
:101808004FF44063C4F200039A4208D1FB8923F0E5
:101818007003FB813B685A88FB891343FB817A6814
:101828004FF48053C4F200039A420FD07A684FF401
:10183800A053C4F200039A4208D0FB8923F44073F2
:10184800FB813B681A89FB891343FB817B68FA8912
:101858001A803B685A687B68DA623B681A887B683A
:101868001A857A680023C4F201039A4206D07A687E
:101878004FF48063C4F201039A4204D13B689B7A17
:101888001A467B681A867B6801229A821437BD46FD
:101898005DF8047B704700BF80B483B000AF786008
:1018A8000B46FB70FB78002B08D07B681B889BB22B
:1018B80043F001039AB27B681A8007E07B681B88B3
:1018C8009BB223F001039AB27B681A800C37BD469D
:1018D8005DF8047B704700BF80B485B000AF7860C6
:1018E800396000237B810023FB810023BB817B6857
:1018F8001B8C9BB223F480739AB27B681A847B6832
:101908001B8CFB817B689B88BB817B689B8B7B8165
:101918007B8923F070037B817B8923F003037B8120
:101928003B681A887B8913437B81FB8923F4007306
:10193800FB813B689B891B029AB2FB891343FB819D
:101948003B685B881B029AB2FB891343FB817A6868
:101958000023C4F201039A4206D07A684FF48063E8
:10196800C4F201039A422BD1FB8923F40063FB8163
:101978003B68DB891B029AB2FB891343FB81FB8915
:1019880023F48063FB813B689B881B029AB2FB8926
:101998001343FB81BB8923F48053BB81BB8923F4A8
:1019A8000053BB813B681B8A1B019AB2BB89134356
:1019B800BB813B685B8A1B019AB2BB891343BB811D
:1019C8007B68BA899A807B687A899A833B689A6827
:1019D8007B68DA637B68FA891A841437BD465DF838
:1019E800047B704780B485B000AF7860396000230D
:1019F800BB8100237B810023FB817B681B8C9BB20E
:101A080023F480539AB27B681A847B681B8C7B8191
:101A18007B689B88FB817B689B8BBB81BB8923F49C
:101A2800E043BB81BB8923F44073BB813B681B88BF
:101A38001B029AB2BB891343BB817B8923F40053F1
:101A48007B813B689B891B039AB27B8913437B810B
:101A58003B685B881B039AB27B8913437B817A6856
:101A68000023C4F201039A4206D07A684FF48063D7
:101A7800C4F201039A420AD1FB8923F48043FB8113
:101A88003B681B8A9B019AB2FB891343FB817B68E5
:101A9800FA899A807B68BA899A833B689A687B68D6
:101AA8001A647B687A891A841437BD465DF8047B0A
:101AB800704700BF80B485B000AF78600B467B806C
:101AC8000023FB817B689B8BFB81FB8923F0080348
:101AD800FB81FA897B881343FB817B68FA899A83A7
:101AE8001437BD465DF8047B704700BF80B485B0ED
:101AF80000AF78600B467B800023FB817B689B8B63
:101B0800FB81FB8923F40063FB817B881B029AB26B
:101B1800FB891343FB817B68FA899A831437BD4696
:101B28005DF8047B704700BF80B483B000AF786075
:101B380013460A467A807B707B78002B08D07B6836
:101B48009B899AB27B8813439AB27B689A8109E091
:101B58007B689B899AB27B88DB439BB213409AB21D
:101B68007B689A810C37BD465DF8047B704700BFDF
:101B780080B485B000AF78600B467B800023FB7390
:101B88000023BB8100237B817B681B8A9AB27B88F8
:101B98001340BB817B689B899AB27B8813407B8109
:101BA800BB89002B05D07B89002B02D00123FB7356
:101BB80001E00023FB73FB7B18461437BD465DF834
:101BC800047B704780B483B000AF78600B467B809D
:101BD8007B88DB439AB27B681A820C37BD465DF876
:101BE800047B704780B582B000AF0346FB714FF4A9
:101BF8008053C4F202034FF470425A834FF4805367
:101C0800C4F20203FA7992B202F0F00292B212021E
:101C180092B21A834FF48050C4F202004FF48061EC
:101C2800FFF72AFC012000F077FA4FF48050C4F245
:101C380002004FF48061FFF72DFC4FF48053C4F28B
:101C480002034FF470425A834FF48053C4F20203E4
:101C5800FA79120392B21A834FF48050C4F2020048
:101C68004FF48061FFF708FC012000F055FA4FF4AB
:101C78008050C4F202004FF48061FFF70BFC012092
:101C880000F04AFA0837BD4680BD00BF80B500AFF6
:101C98004FF48050C4F202004FF40071FFF7ECFBE0
:101CA800012000F039FA4FF48050C4F202004FF4DA
:101CB8000071FFF7EFFB4FF48050C4F202004FF4BD
:101CC80080710022FFF7F4FB0120FFF78BFF022051
:101CD80000F022FA80BD00BF80B582B000AF786006
:101CE8004FF48050C4F202004FF40071FFF7C4FBB8
:101CF800012000F011FA4FF48050C4F202004FF4B2
:101D08000071FFF7C7FB4FF48050C4F202004FF494
:101D18008071FFF7B1FB06E07B685A1C7A601B787C
:101D28001846FFF75FFF7B681B78002BF4D1083754
:101D3800BD4680BD80B500AF4FF48050C4F20200AC
:101D48004FF480610022FFF7B3FB4FF48050C4F2D8
:101D580002004FF40071FFF78FFB012000F0DCF95F
:101D68004FF48050C4F202004FF40071FFF792FB69
:101D78004FF48050C4F202004FF480710022FFF744
:101D880097FB1E2000F0C8F90320FFF72BFF052062
:101D980000F0C2F90320FFF725FF052000F0BCF989
:101DA8000320FFF71FFF052000F0B6F90220FFF718
:101DB80019FF052000F0B0F92820FFF713FF0C20C9
:101DC800FFF710FFFFF762FF0620FFF70BFF80BD4C
:101DD80080B483B000AF03463960FB7197F90730D0
:101DE800002B0EDA4FF46D43CEF20003FA7902F0BD
:101DF8000F02111F3A68D2B21201D2B20B441A76FE
:101E08000CE04FF46143CEF2000397F907103A68EB
:101E1800D2B21201D2B20B4483F800230C37BD466C
:101E28005DF8047B704700BF80B582B000AF786072
:101E38007B68B3F1807F01D301231AE04EF21003CF
:101E4800CEF200037A6822F07F42013A5A604FF0DE
:101E5800FF300F21FFF7BCFF4EF21003CEF2000354
:101E680000229A604EF21003CEF2000307221A6095
:101E7800002318460837BD4680BD00BF80B582B034
:101E880000AFFFF7FFF840F20003C2F200031A6840
:101E980044F6D353C1F26203A3FB02139B0918460D
:101EA800FFF7C2FF0346002B00D0FEE70820012100
:101EB800FFF72CFC10200121FFF728FC042001214A
:101EC800FFF724FC40F62003C2F2000340F26A3216
:101ED8001A6040F62400C2F200004FF00001C4F27C
:101EE800C84140F26A32FFF743FB40F62003C2F2D2
:101EF80000031B681846FFF7A3FB4FF40060C4F209
:101F0800020008210222FFF7EBFA4FF40060C4F246
:101F1800020009210222FFF7E3FA42F22C13C2F26F
:101F280000034FF440721A6042F22C13C2F200030D
:101F380002221A7142F22C13C2F2000300229A7193
:101F480042F22C13C2F2000303225A7142F22C13FC
:101F5800C2F200030022DA714FF40060C4F20200FA
:101F680042F22C11C2F20001FFF7F8F942F22C13E9
:101F7800C2F200034FF470421A6042F22C13C2F20C
:101F8800000301221A7142F22C13C2F2000300224C
:101F98009A7142F22C13C2F2000303225A7142F2E0
:101FA8002C13C2F200030022DA714FF44060C4F22D
:101FB800020042F22C11C2F20001FFF7CFF942F2FF
:101FC8002C13C2F200034FF47F421A6042F22C1322
:101FD800C2F2000301221A7142F22C13C2F200036A
:101FE80000229A7142F22C13C2F200030022DA7125
:101FF8004FF48050C4F2020042F22C11C2F20001E8
:10200800FFF7ACF94FF48060C4F20000012101220F
:10201800FFF78AFD42F22813C2F200031D221A704C
:1020280042F22813C2F2000300225A7042F2281327
:10203800C2F2000301229A7042F22813C2F200038E
:102048000122DA7042F22810C2F20000FFF720F9EC
:1020580043F22053C0F600037B60FFF76BFE7868FD
:10206800FFF73AFE4FF44060C4F202004FF480518B
:10207800FFF702FAFA2000F04FF84FF44060C4F27C
:1020880002004FF48051FFF705FAFA2000F044F8F7
:102098004FF44060C4F202004FF40051FFF7ECF92E
:1020A800FA2000F039F84FF44060C4F202004FF40F
:1020B8000051FFF7EFF9FA2000F02EF84FF44060D6
:1020C800C4F202004FF48041FFF7D6F9FA2000F07D
:1020D80023F84FF44060C4F202004FF48041FFF748
:1020E800D9F9FA2000F018F84FF44060C4F2020061
:1020F8004FF40041FFF7C0F9FA2000F00DF84FF453
:102108004060C4F202004FF40041FFF7C3F9FA201F
:1021180000F002F8A6E700BF80B483B000AF786093
:1021280040F61403C2F200037A681A6000BF40F652
:102138001403C2F200031B68002BF8D10C37BD460C
:102148005DF8047B704700BF80B400AF40F614030D
:10215800C2F200031B68002B0AD040F61403C2F237
:1021680000031B685A1E40F61403C2F200031A60EB
:10217800BD465DF8047B704780B500AFFFF7E4FF0C
:1021880080BD00BF80B500AF4FF48060C4F200008E
:102198000121FFF7EDFC0346002B4CD04FF4806083
:1021A800C4F200000121FFF70DFD40F61C03C2F246
:1021B80000031B68B3F5487F0DDC40F61C03C2F230
:1021C80000031A6840F62403C2F2000353F82230D1
:1021D8001846FFF75BFA40F61C03C2F200031B68BF
:1021E800B3F5487F0DDB40F61C03C2F200031A6802
:1021F80040F62403C2F2000353F822301846FFF7D2
:1022080065FA40F61C03C2F200031B685A1C40F62C
:102218001C03C2F200031A6040F61C03C2F200035A
:102228001A6840F241639A4205D140F61C03C2F293
:10223800000300221A6080BD30B542F2FB1421F081
:102248000045C3F6E974A54287B002460B461CDD7B
:102258004FF6FF74C7F6EF74A54203DDFDF794FF50
:1022680007B030BD02AA00F033F800F003000128DF
:102278001ED0022811D010B3DDE90201DDE90423E4
:1022880000F052FA01F10041EAE70023009300222E
:10229800002300F061FF07B030BD0124DDE9020131
:1022A800DDE90423009400F057FF01F10041D7E76E
:1022B800DDE90201DDE9042300F036FAD0E7012464
:1022C800DDE90201DDE90423009400F045FFC7E7DA
:1022D8002DE9F04F42F2FB1321F00047C3F6E973F2
:1022E8009F4291B004460D468B46904640F3A48029
:1022F8004DF67B13C4F202039F4229DC002998A300
:10230800D3E9002340F3B881FDF73EFF42F2FB1307
:10231800C3F6F9739F4204460D4600F0A28092A3CB
:10232800D3E90023FDF730FF02460B46C8E9002336
:1023380020462946FDF728FF8BA3D3E90023FDF7A4
:1023480023FF0126C8E90201304611B0BDE8F08F2D
:1023580042F2FB13C4F239139F4240F39F804FF6B9
:10236800FF73C7F6EF739F4271DC4FEA2759A9F252
:102378001649A7EB095529460446FEF7CBFAFEF79E
:1023880051F806460F4602460B4620462946CDE937
:102398000A67FDF7F9FE00230022C4F27013FEF766
:1023A800A7F80F460646FEF7B5FAFEF73BF80246D1
:1023B8000B4604460D4630463946CDE90C45FDF737
:1023C800E3FE00230022C4F27013FEF791F8002305
:1023D8000022CDE90E01FEF7EFFD032348B10023EB
:1023E800204629460022FEF7E7FD002814BF0123F6
:1023F800022343F2BC51C0F6000102244A4601916F
:1024080000940AA8414600F0BFFABBF1000FBDBF17
:10241800D8F80420D8F80C3046420646BCBF02F172
:10242800004203F100433046BCBFC8F80420C8F896
:102438000C3011B0BDE8F08F00220023C8E9004538
:10244800C8E902230026304611B0BDE8F08F0246E5
:102458000B46FDF799FE0026C8E90201C8E900010C
:10246800F1E743A3D3E90023FDF78EFE42A3D3E9A6
:10247800002304460D46FDF787FE02460B46C8E9D1
:10248800002320462946FDF77FFE3BA3D3E900231E
:10249800FDF77AFE0126C8E90201D4E700F010FF33
:1024A80037A3D3E9002304460D46FEF721F800239D
:1024B8000022C3F6E073FDF769FEFEF72BFA064625
:1024C800FDF7B0FF26A3D3E90023CDE90601FEF707
:1024D8000FF802460B4620462946FDF755FE22A373
:1024E800D3E90023CDE90201DDE90601FEF700F892
:1024F8001F2ECDE90401DDE9020145DC43F23C531E
:10250800C0F60003721E53F82230BB423CD0DDE90E
:102518000423FDF739FE02460B46C8E900230546A9
:102528000C462A462346DDE90201FDF72DFEDDE9CA
:102538000423FDF729FEBBF1000F02460B46C8E94C
:10254800022380DA04F1004401F10041C8F8044094
:10255800C8F80C10C8F80050C8F80800764272E7AE
:1025680000004054FB21F93F3163621A61B4D03D49
:102578000000601A61B4D03D7370032E8A19A33B22
:1025880083C8C96D305FE43FDDE90423FDF7FCFD36
:102598003F150C46C1F30A51791A02462346102901
:1025A8000546C8E90023BCDD55A3D3E90023DDE9CE
:1025B8000601FDF79DFF04460D4622462B46DDE940
:1025C8000201FDF7E1FDCDE90801DDE90823DDE9B8
:1025D8000201FDF7D9FD22462B46FDF7D5FD4AA39A
:1025E800D3E9002304460D46DDE90601FDF780FF27
:1025F80022462B46FDF7C8FDCDE90401DDE9042399
:10260800DDE90801FDF7C0FD0C46C1F30A517F1A48
:1026180002462346312F0546C8E900236BDD3CA35B
:10262800D3E90023DDE90601FDF762FF04460D4604
:1026380022462B46DDE90801FDF7A6FDCDE902019A
:10264800DDE90223DDE90801FDF79EFD22462B4660
:10265800FDF79AFD30A3D3E9002304460D46DDE9D2
:102668000601FDF745FF22462B46FDF78DFDCDE916
:102678000401DDE902014AE7FDF788FD42F2FB1398
:10268800C3F6F9739F4204460D4616D024A3D3E936
:102698000023FDF77BFD02460B46C8E900232046D0
:1026A8002946FDF771FD1EA3D3E90023FDF76EFD52
:1026B8004FF0FF36C8E90201C5E611A3D3E90023AC
:1026C800FDF764FD10A3D3E9002304460D46FDF78A
:1026D8005DFD02460B46C8E9002320462946FDF762
:1026E80053FD09A3D3E90023FDF750FD4FF0FF3652
:1026F800C8E90201A7E6DDE90823CDE9022310E7CE
:102708000000601A61B4D03D7370032E8A19A33B90
:102718000000002E8A19A33BC14920259A837B39E2
:102728003163621A61B4D03D2DE9F04F21F00049C0
:10273800B9F1795F85B006460F4692469B466FDA37
:10274800FEF7E8F8002800F0FD8032463B463046A8
:102758003946FDF7CDFE80A3D3E9002304460D4694
:10276800FDF7C6FE7EA3D3E90023FDF70FFD224641
:102778002B46FDF7BDFE7CA3D3E90023FDF704FD3E
:1027880022462B46FDF7B4FE79A3D3E90023FDF7D3
:10279800FDFC22462B46FDF7ABFE77A3D3E90023C9
:1027A800FDF7F2FC22462B46FDF7A2FE74A3D3E9FF
:1027B8000023FDF7EBFC22462B46FDF799FECDE9F9
:1027C80000010023204629460022C3F6E073FDF7E6
:1027D8008FFEDDE900238046894620462946FDF71D
:1027E80087FE524604460D465B4630463946FDF79D
:1027F8007FFE02460B4620462946FDF7C5FC0246E9
:102808000B4640464946FDF7BFFC0B4600210246F1
:10281800C3F6F0710020FDF7B7FC05B0BDE8F08FF6
:1028280002460B46FDF764FE4BA3D3E9002304469A
:102838000D46FDF75DFE4AA3D3E90023FDF7A6FC8C
:1028480022462B46FDF754FE47A3D3E90023FDF7A4
:102858009BFC22462B46FDF74BFE45A3D3E90023FC
:10286800FDF794FC22462B46FDF742FE42A3D3E92E
:102878000023FDF789FC22462B46FDF739FE40A3CD
:10288800D3E90023FDF782FC2B462246FDF730FEF4
:1028980043F23233C3F6D3739945CDE9000190DD95
:1028A8000023C3F6E97399454FF000024FF0000387
:1028B8003DDC0021A9F5001300220020C3F6F071C9
:1028C80090469946FDF760FCCDE9020100232046B9
:1028D80029460022C3F6E073FDF70AFE42464B463E
:1028E800FDF752FCDDE9002380468946204629464B
:1028F800FDF7FEFD524604460D465B463046394616
:10290800FDF7F6FD02460B4620462946FDF73CFC3E
:1029180002460B4640464946FDF736FC02460B4642
:10292800DDE90201FDF730FC05B0BDE8F08FC3F624
:10293800E7734FF00009CDE902234FF00008C3F612
:10294800D279C3E700210020C3F6F07105B0BDE8D5
:10295800F08F00BFAFF30080D43888BEE9FAA8BD75
:10296800C4B1B4BD9EEE213EAD529C804F7E923ED6
:102978009015CB19A001FA3E7751C1166CC1563F8C
:102988004C5555555555A53F2DE9F04F4AF6AB2501
:10299800ADF51D7DD41EC2F6AA2585FB0465E61794
:1029A80043F2C464C6EBA505C0F60004A69E0790D2
:1029B80054F826400B91994625EAE5750C9409F1DF
:1029C800FF34EB432E1B0E950C9D049403EB43033D
:1029D80002EBC30364190A9317D4A798344401344B
:1029E8000DF1880800EB8605002709E0E859FDF796
:1029F80019FD0136A642E8E9020107F1040704D0EF
:102A0800002EF3DA00200021F3E70C9E002E2DDBC8
:102A18000C9D74AE06EBC50B24A800EBC90A0DF596
:102A2800E478CDF80CB0049C002CC0F29A81079D84
:102A38005746A5F1080B00240025002677E9022354
:102A4800FBE90201FDF754FD02460B4620462946E4
:102A5800FDF79CFB01364E4504460D46EED1E8E9EC
:102A68000245039CA0450AF1080ADCD10C9D10AC74
:102A780004EB850602940F960395039E9CABF60023
:102A880033440696039E002E53E9284532DD069E00
:102A98000DF5E87AB244039E0DF13C0B0BEB860B67
:102AA8000DF13C0800230022C3F670632046294636
:102AB800FDF71EFDFDF72EFFFDF7B4FC00230022F5
:102AC800C4F2701306460F46FDF712FD02460B4688
:102AD80020462946FDF758FBFDF71CFF324648F80B
:102AE800040F3B467AE90201FDF750FBD84504463E
:102AF8000D46D7D1204629460A9A00F075FC0022D7
:102B08004FF07F5304460D46FDF7F2FC00F0DCFB66
:102B180000230022C4F22003FDF7EAFC02460B461C
:102B280020462946FDF730FB04460D46FDF7F2FE28
:102B38008246FDF777FC02460B4620462946FDF7FC
:102B480023FB0A9C002C06460F4640F3C780039DD2
:102B580010AA691EC4F1180052F8213043FA00F295
:102B6800C4F1170502FA00F010AC1B1A44F8213022
:102B7800924443FA05F5002D2CDD039C002C0AF144
:102B8800010A40F3EC8010AB03EB8400002453F8F7
:102B9800042BC2F1FF1101F57F4114B9C2F1807114
:102BA80012B143F8041C01248342F0D10A9800288A
:102BB8000DDD012800F0B780022808D1039910A87C
:102BC8004B1E50F82320C2F3150240F82320022D93
:102BD80000F08C803046394600220023FEF7ECF9DD
:102BE800002800F0C180039C0C9E04F1FF38464584
:102BF8000DDC10A800EB84030F98002253F8041D85
:102C0800834242EA0102F9D1002A40F066820C9C14
:102C180010AD621E55F82230002B40F05C8205EBA7
:102C28008202012352F8041D01330029FAD0039EC1
:102C3800039C1E44631CB3420D9649DC049D0E9E02
:102C48002B44214622460D9D3244494424AE03F1CB
:102C5800FF3B2B1B06EBC1040994A79D069C06EBC2
:102C6800CB0B74AE05EB8202DB002644039208937B
:102C780006964FF00008039D55F8040F0395FDF7DD
:102C8800D1FB049E002E08F10808EBE9020122DBC3
:102C9800079C099FA4F1080A474400240025002640
:102CA80077E90223FAE90201FDF722FC02460B4606
:102CB80020462946FDF76AFA01364E4504460D4678
:102CC800EED1069EE6E90245089C0696A045D2D1BB
:102CD8000D9D0395D1E600240025F2E72DD1039D33
:102CE80010A86B1E50F82350ED1544E7002132461A
:102CF8003B460020C3F6F071FDF746FA06460F463C
:102D0800002C3FF467AF00210A9A0020C3F6F07147
:102D180000F06AFB02460B4630463946FDF734FAA6
:102D280006460F4656E7039910A84B1E50F8232075
:102D3800C2F3160240F8232049E700230022C3F615
:102D4800E073FEF757F9054600283FF443AF039CAC
:102D5800002C4FF002050AF1010A3FF714AF0024D6
:102D680024E7002400257AE606950A9DCDF81CA0E4
:102D78006A423046394600F037FB00230022C4F28D
:102D8800701304460D46FEF735F9002800F0D1818E
:102D980000230022C3F6706320462946FDF7A8FBEE
:102DA800FDF7B8FD0646FDF73DFB00230022C4F2FF
:102DB8007013FDF79DFB02460B4620462946FDF79A
:102DC800E3F9FDF7A7FD039C0A9D10A904F101088A
:102DD800183541F8240041F828600A9500210A9A1C
:102DE8000020C3F6F07100F0FFFAB8F1000F0446B6
:102DF8000D465EDB08F1010610A874A9039600EBE6
:102E0800860701EBC60657F8040DFDF70BFB2246B3
:102E18002B46FDF76DFB002366E9020100222046E0
:102E28002946C3F67063FDF763FB029A974204468E
:102E38000D46E8D108F1005B0BF1FF3B74AB0DF5D3
:102E4800987ACDF82080DDF83080CDF810A003EB1B
:102E5800CB0B4FF00009B8F1000FBCBF00240025D0
:102E680019DBDFF8F0A25F4600240025002601E008
:102E78004E4510DCF7E90223FAE90201FDF738FBB9
:102E880002460B4620462946FDF780F90136B04533
:102E980004460D46ECDA049E06EBC903C3E9004577
:102EA800039C09F10109A145ABF1080BD3D1DDF869
:102EB8002080A69D032D00F2E280DFE815F0E700F0
:102EC8009B009B000400B8F1000FDEBF00242646DB
:102ED8000DF5987A6EDD0DF5987A4FEAC80B0AEB76
:102EE8000B03D3E9006708F101030AEBC30303935B
:102EF80099460DF59C7C01E026462F4659E9044584
:102F080032463B4620462946CDF804C0CDE9044563
:102F1800FDF73CF904460D4622462B46DDE904013F
:102F2800FDF732F932463B46FDF730F969E902010F
:102F3800DDF804C0E14549E90245DDD1B8F1010FEA
:102F4800DCBF0024264635DDDDF80CC0CDF810A026
:102F5800D344DBE900450AF1100BE24601E03446B0
:102F68003D465AE9048922462B4640464946FDF724
:102F78000DF906460F4632463B4640464946FDF7A0
:102F880003F922462B46FDF701F96AE90201DA4501
:102F98004AE90267E3D10024DDF810A0039D264624
:102FA8002046314675E90223FDF7F0F8AB450446A3
:102FB8000E46F5D1069D002D00F0A7800B9DDAF88E
:102FC8000400DAF80C10DAF80020DAF808302C617E
:102FD80006F100466E61079E2A6000F1004001F18B
:102FE8000041686006F00700E960AB600DF51D7DE3
:102FF800BDE8F08FB8F1000FBEBF002634460DF5CE
:10300800987A11DB0DF5987A08F1010500260AEB8C
:10301800C50534463046214675E90223FDF7B6F862
:10302800554506460C46F5D1069D04F1004305B901
:103038002346304632460B9E1946C6E90001234610
:10304800DAE90001FDF7A0F8B8F1000F04460B46D5
:103058000BDD0AEBC80820461946FAE90223FDF7FA
:1030680095F8C24504460B46F5D1069D03F100418B
:10307800002D6DD00B9E22460B46C6E90223079E03
:1030880006F007000DF51D7DBDE8F08FB8F1000FC3
:103098005BDB08F101054CAE002406EBC5052346B1
:1030A8002046194675E90223FDF770F8B542044633
:1030B8000B46F5D1069D03F10041002D43D00B9E30
:1030C80022460B46C6E90023079E06F007000DF5C9
:1030D8001D7DBDE8F08F0123A9E510A80A9C50F8D2
:1030E8002830CDF81CA0183C06950A94002B7FF4D4
:1030F80075AE00EB8803224653F8041D08F1FF382B
:10310800183A0029F8D00A9268E6DAE9000122465E
:10311800DAE9024533460B9EC6E90001C6E90423F5
:10312800C6E90245079E06F007000DF51D7DBDE8BE
:10313800F08F20462946FDF7EDFB10AD039C45F8BE
:103148002400A0464AE61946B9E700242346B1E719
:1031580019468FE7D03600082DE9F04F21F00046D8
:10316800B6F1795F85B004460D469046994604DA73
:10317800FDF7D0FB002800F0868022462B4620462B
:103188002946FDF7B5F922462B4606460F46FDF7B8
:10319800AFF93FA3D3E9002382468B463046394630
:1031A800FDF7A6F93CA3D3E90023FCF7EDFF32466F
:1031B8003B46FDF79DF93AA3D3E90023FCF7E6FF68
:1031C80032463B46FDF794F937A3D3E90023FCF7D1
:1031D800DBFF32463B46FDF78BF935A3D3E90023E5
:1031E800FCF7D4FF0E9BCDE90201002B35D000235C
:1031F800404649460022C3F6E073FDF779F9DDE958
:103208000223CDE9000150465946FDF771F90246FF
:103218000B46DDE90001FCF7B7FF32463B46FDF7F8
:1032280067F942464B46FCF7AFFF23A3D3E90023D7
:1032380006460F4650465946FDF75AF902460B46D0
:1032480030463946FCF7A2FF02460B46204629467F
:10325800FCF79AFF05B0BDE8F08FDDE902233046A0
:103268003946FDF745F914A3D3E90023FCF78CFF91
:1032780052465B46FDF73CF922462B46FCF786FF93
:1032880005B0BDE8F08F2046294605B0BDE8F08FAF
:103298007CD5CF5A3AD9E53DEB9C2B8AE6E55A3ED8
:1032A8007DFEB157E31DC73ED561C119A0012A3F74
:1032B800A6F810111111813F495555555555C53F6F
:1032C80021F00041704700BF2DE9F84FC1F30A57BC
:1032D800A7F2FF36132E02460B4604460D468946D2
:1032E8008A46804625DC002E49DB4FF6FF77C0F280
:1032F8000F07374107EA010C5CEA000C1ED038A31F
:10330800D3E90023FCF742FF00220023FDF77CFEEF
:1033180058B1002DBEBF4FF4801A4AFA06F606EBE4
:10332800050A2AEA07094FF0000840464946BDE861
:10333800F88F332E06DDB6F5806F3CD0104619465F
:10334800BDE8F88FA7F2134C4FF0FF3B2BFA0CFBAC
:103358001BEA000FF2D022A3D3E90023FCF716FFE3
:1033680000220023FDF750FE0028DED0002D26DBCA
:1033780028EA0B08D14640464946BDE8F88F18A30D
:10338800D3E90023FCF702FF00220023FDF73CFEEF
:103398000028CAD0002DA4BF4FF00008C146C4DAE7
:1033A80025F0004200232243CBF6F07318BF99465C
:1033B8004FF00008B9E7FCF7E9FEBDE8F88F142ED6
:1033C80009D0C7F5866703374FF0010808FA07F8F0
:1033D80018EB0408CCD305F1010AC9E7AFF3008064
:1033E8009C7500883CE4377EC1F30A532DE9F0410F
:1033F800904606460F460A4643BB21F00043034366
:1034080039D00023C4F250330022FDF771F843F697
:10341800B043CFF6FF73984506460F463BDBC1F332
:103428000A53363B0A46434440F2FE718B4216DD8E
:1034380032463B462EA1D1E9000100F061F82CA3E9
:10344800D3E90023FDF754F8BDE8F08140F2FF749A
:10345800A34227D0434440F2FE718B42E8DC002BA4
:103468000BDD22F0FF4222F4E00242EA0357304625
:103478003946BDE8F081BDE8F08113F1350F17DA60
:103488004CF25033984532463B4622DC1AA1D1E92A
:10349800000100F035F818A3D3E90023FDF728F858
:1034A800BDE8F08102460B46FCF770FEBDE8F081EE
:1034B80022F0FF4222F4E002363342EA03570023A7
:1034C800304639460022C3F69043FDF711F8BDE8AF
:1034D800F08107A1D1E9000100F012F804A3D3E9B3
:1034E8000023FDF705F8BDE8F08100BFAFF30080C9
:1034F8009C7500883CE4377E59F3F8C21F6EA5011D
:1035080030B403F0004321F0004243EA020130BC2A
:04351800704700BF39
:1035200050512050574D20432E542E20542E4C2EB7
:1035300020412E432E20462E462E0000FB21F93F2F
:10354000FB2109407CD91240FB2119407A6A1F40B7
:103550007CD92240BBFD2540FB2129403A462C4026
:103560007A6A2F405C4731407CD932409C6B3440B2
:10357000BBFD3540DB8F3740FB2139401BB43A405F
:103580003A463C405AD83D407A6A3F404C7E4040E3
:103590005C4741406C1042407CD942408CA2434081
:1035A0009C6B4440AC344540BBFD4540CBC64640D7
:1035B000DB8F4740EB584840FB21494083F9A2008C
:1035C000444E6E00FC291500D1572700DD34F5006C
:1035D00062DBC0003C999500419043006351FE00BE
:1035E000BBDEAB00B761C5003A6E2400D24D42008D
:1035F0004906E00009EA2E001C92D100EB1DFE00F6
:1036000029B11C00E83EA700F535820044BB2E001E
:103610009CE98400B4267000417E5F00D691390099
:10362000538339009CF439008B5F840028F9BD0076
:10363000F81F3B00DEFF97000F980500112FEF00E9
:103640000A5A8B006D1F6D00CF7E360009CB270014
:10365000464FB7009E663F002DEA5F00BA2775000F
:10366000E5EBC7003D7BF100F739070092528A0075
:10367000FB6BEA001FB15F00085D8D003003560050
:103680007BFC4600F0AB6B0020BCCF0036F49A0008
:10369000E3A91D005E619100081BE60085996500A5
:1036A000A0145F008D40680080D8FF0027734D0094
:1036B00006063100CA561500C9A873007BE26000F7
:1036C0006B8CC0000200000003000000040000003A
:1036D000060000000000000000000040FB21F93F50
:1036E000000000002D44743E000000809846F83C25
:1036F0000000006051CC783B00000080831BF03953
:103700000000004020257A38000000802282E33645
:08371000000000001DF3693503
:10371800007A030A00000000000000000102030410
:04372800060708097F
:10372C00000000000000000000000000000000008D
:10373C00000000000000000000000000000000007D
:10374C00000000000000000000000000000000006D
:10375C00000000000000000000000000000000005D
:0400000508001025BA
:00000001FF
